:020000040800F2
:1000000000000220B9030008B5030008B948000841
:10001000B5030008B5030008B503000800000000A0
:10002000000000000000000000000000B503000810
:10003000B503000800000000B50300083D480008B3
:10004000B5030008B5030008B5030008B5030008B0
:10005000B5030008B5030008B5030008B5030008A0
:10006000B5030008B5030008B503000819340008FB
:100070002534000879210008313400083D34000897
:100080009942000845290008B5030008B503000897
:10009000B5030008B5030008B5030008B503000860
:1000A000B5030008B5030008B5030008B503000850
:1000B0000DFA000819FA000825FA00087929000845
:1000C000B503000885290008B50300087DF2000883
:1000D00089F20008CD400008F94000082D410008D1
:1000E000B5030008B503000800000000B5030008D0
:1000F000B5030008B5030008B5030008B503000800
:10010000B5030008B503000831FA000895F20008AD
:100110006141000895410008B5030008B5030008D7
:10012000B5030008B5030008B9F20008EDF20008B5
:10013000CD420008B5030008B5030008B503000868
:1001400000000000000000000000000000000000AF
:10015000B5030008B5030008B5030008C94100084D
:1001600091290008B50300084D48000871480008AF
:10017000B503000895480008B5030008B50300085A
:10018000B5030008B5030008FD410008314200082E
:10019000A1F20008ADF20008B5030008B50300089D
:1001A000B5030008B5030008B5030008B50300084F
:1001B00039310008B5030008B5030008B50300088D
:1001C000B5030008B5030008B5030008B50300082F
:1001D000B5030008B5030008B5030008B50300081F
:1001E000B5030008B5030008B5030008B50300080F
:1001F000B5030008B5030008B5030008B5030008FF
:10020000B5030008B5030008B5030008B5030008EE
:10021000B5030008B5030008B5030008B5030008DE
:10022000B5030008B5030008B5030008000000008E
:10023000B5030008B503000800000000B50300087E
:10024000B5030008B5030008B5030008B5030008AE
:10025000B5030008B5030008B5030008B50300089E
:10026000B5030008B5030008B5030008B50300088E
:10027000B5030008B503000865420008000000004F
:10028000B5030008B5030008B5030008000000002E
:0802900000000000B5030008A6
:1002A00001F0FF01102A2BDB10F0070F08D010F827
:1002B000013B013A8B422DD010F0070F42B3F6D12B
:1002C000F0B441EA012141EA014122F007047FF044
:1002D00000070023F0E80256083C85EA010586EA9B
:1002E000010685FA47F5A3FA87F586FA47F6A5FAD7
:1002F00087F68EB9EED1F0BC01F0FF0102F00702E3
:1003000032B110F8013B013A83EA010313B1F8D18D
:100310000020704701387047002D06BF354603386E
:10032000073815F0010F07D1013015F4807F02BFA7
:10033000013015F4C03F0130F0BC0138704700BFF8
:1003400053B94AB9002908BF00281CBF4FF0FF313C
:100350004FF0FF3000F00CB8ADF1080C6DE904CEA1
:1003600011F044F9DDF804E0DDE9022304B0704740
:10037000704700BF10B5054C237833B9044B13B157
:100380000448AFF300800123237010BDD003002484
:1003900000000000701B010808B5034B1BB10349A6
:1003A0000348AFF3008008BD00000000D403002420
:1003B000701B0108FEE700BF0C4A0D4B934204D0AE
:1003C000D21A0C49184610F067FC0B4A0B4B9342AB
:1003D00004D0D21A0021184610F030FC04F0C4FCFE
:1003E00010F034FC00F07AF8FEE700BFD0030024E0
:1003F00000000024A01B01087C340024D00300244A
:10040000704700BF704700BF2DE9F0472D4C804674
:100410000F461546204601F095FB267906B1666A1F
:1004200094F80CA0BAF1000F07D094F812A0AAF12A
:100430007F0ABAFA8AFA4FEA5A1A0024DFF898902B
:10044000E1B2214801F03CFE9FED207A09EB8403E4
:100450001F4A01340121D3ED007A70EE677AF0EE85
:10046000E77AF4EEC77AF1EE10FA02DD83ED000AC6
:100470001170042CE4D136B1164A012014491368D6
:10048000334413600870BAF1000F05D0114B0022FD
:100490001A6001220E4B1A708DB1D8F800303C68FA
:1004A000D8F8040003EB8502796853F804CB44F8CC
:1004B00004CB934250F804CB41F804CBF5D1BDE80E
:1004C000F08700BF04040024480400240AD7233C1A
:1004D000EC03002400040024F0030024F0B5002104
:1004E000A5B04E48022400F0ABF901254FF461425B
:1004F00000264B4B0BA94B480B930C960F944A4F7D
:10050000CDE91052CDE90D5603F096FF304600F0CC
:10051000C1F803462846454EADF8103000F0BAF851
:1005200003462046424DADF8143000F0B3F8ADF864
:1005300018009FED400A069B3F48DDE9041201F0D8
:10054000D1FA0F2000F0A6F8ADF81C00224607995A
:1005500012A801F07DFB102000F09CF8ADF82000FF
:10056000224608990DF15A0001F072FB112000F0AB
:1005700091F8ADF82400224609991BA801F068FB08
:10058000122000F087F8034622460DF17E00ADF8F8
:1005900028300A9901F05CFB042312A927481A4667
:1005A00001F06AFB254801F075FD25491B4800F064
:1005B00087F82B78002BFCD000249FED226A22497B
:1005C0002C70D6ED005A96ED017AD6ED026A65EEF2
:1005D000865AD6ED037A27EE067A66EE866A3A6880
:1005E00067EE867A1948BDEEE56AFDEEE66ABDEE75
:1005F000C77AFDEEE77A16EE103ACDED016A8DED81
:10060000007ACDED027A10F0F7FA234602460F4940
:100610000448CDE9004403F079FFCAE73004002420
:10062000010601072C04002400040024F003002428
:10063000EC0300240000000004040024480400240B
:10064000090400080000C842001901080000003039
:100650000A4B0B490B4A184610B500241C605C611C
:100660001C62DC6310F0B4FA074B064A1C600749B1
:100670000748BDE8104010F0ABBA00BF30040024BA
:1006800005040008000000242C04002401040008D4
:1006900004040024202882B009D8084B03EB400250
:1006A00013F81030507843EA002002B0704701235D
:1006B0000C2043EA002002B0704700BF1C1901085B
:1006C000143001F0DBB900BF10B540F203338EB037
:1006D00000244FF60B7240F20341ADF8083009A830
:1006E0000123ADF81020ADF824202246ADF80C10FF
:1006F0000094029907940C94CDE90544CDE90A448D
:1007000001F0E6FD04A8012322460399009401F0BC
:10071000DFFD09A801F0C2FE10B901200EB010BD26
:1007200004A801F0BBFEA0420CBF022020460EB080
:1007300010BD00BF2DE9F04103239AB0012700242A
:100740000646CDE914373B4BCDE9104340F2045344
:10075000CDE91647ADF84830FFF7B6FFB842054679
:1007600025D0022845D040F60132334B0DF12C083C
:100770001894ADF82C200B981997CDF84A3000F05A
:10078000E3F810A906F13C0002F0D2FE302003226B
:100790004FF07E5341460D930E93CDE90B02F26B61
:1007A00006F1140001F02AF91AB0BDE8F081102317
:1007B000214A06A906908DF828300DF12C081F4B10
:1007C000CDF84A2007930294CDE91804CDE9080436
:1007D00002A802F0E3F80823029A03A94046ADF804
:1007E0000C508DF80E40049505930B9400F0ECF836
:1007F000C7E700200121104B0DF12C083A46009468
:10080000CDF84A304FF60B730C94ADF82C302346DC
:10081000CDE9180140F601314046ADF818100699AF
:10082000CDE90D4401F054FD2146404601F042FE61
:10083000A7E700BF04020404040604030704010B35
:100840002DE9F04704462DED028B82B000294DD0F2
:10085000012140F2011200230091ADF804208DF82F
:100860000630364A0127364B04F10409354904F1B4
:100870002908626040F20272A36040F60663E160FC
:1008800004F1250AA4F82520A4F82930278284F849
:10089000277084F82B7004F01DFA054604F080F8E8
:1008A0006946064650BB4DB304F130008DF8067022
:1008B00004F098F9072D3CD104F114052046FFF708
:1008C00039FF284601F0D6F82846B0EE408A01F0FC
:1008D000CDF8D0ED007AF8EE677A88EE277A84EDCD
:1008E0000E7A02B0BDEC028BBDE8F08740F2011336
:1008F00000918DF80610ADF80430B2E704F1300035
:1009000004F070F9072D11D04946204602F090FA04
:100910000EB9002DD0D1504601F0D6FD404601F071
:10092000D3FD04F1120000F079F9C5E7002EF2D1F1
:10093000C2E74946204602F07BFABDE705080509F3
:1009400005070506050A060610B584B0034601240E
:10095000ADF8040003A8ADF80C30ADF80E4001F07E
:10096000B3FD214603A801F099FE204604F016F8D5
:10097000002103A801F092FE204604F00FF8214662
:1009800003A801F08BFE04B010BD00BF10B5C2F388
:10099000002384B00C46017C8DF80D2043EA44020C
:1009A000FA2402238DF80C2003AA009402F08CF89C
:1009B00018B10124204604B010BD04460A2003F0FB
:1009C000EDFF204604B010BD034670B543F8042B7C
:1009D000044684B007C983E80700A37983B91A21C4
:1009E0000B461E22FA2523742046ADF80C20022364
:1009F00003AA009502F068F828B1012004B070BD88
:100A00001B210B46EDE70A2003F0C8FF4FF4B85254
:100A100000950223ADF80C20204603AA217C02F0A9
:100A200053F80028E9D10A2003F0B8FF41F202721E
:100A300000950223ADF80C20204603AA217C02F089
:100A400043F80028D9D10A2003F0A8FF042200951A
:100A50000223ADF80C20204603AA217C02F034F8D2
:100A60000028CAD10A2003F099FF0622009502232C
:100A7000ADF80C20204603AA217C02F025F80028BE
:100A8000BBD10A2003F08AFF41F20822009502231D
:100A9000ADF80C20204603AA217C02F015F80028AE
:100AA000ABD10A20064603F079FF0095022303AA82
:100AB000217C2046ADF80C6002F006F800289CD19D
:100AC000304603F06BFF009522790C232046002A64
:100AD0008DF80C3003AA4FF0020314BF62214221AB
:100AE0008DF80D10217C01F0EFFF002885D13046F4
:100AF00003F054FF2279D4E902310B43DBB20AB987
:100B000043F0400362790AB143F020030E22FA2534
:100B10008DF80D302046009502238DF80C2003AA95
:100B2000217C01F0D1FF00287FF467AF0A2003F099
:100B300035FF102200950223ADF80C20204603AAB1
:100B4000217C01F0C1FF00287FF457AF0A2003F099
:100B500025FF122100950223ADF80C1003AA217C79
:100B6000204601F0B1FF00287FF447AF0A2003F0D0
:100B700015FF012209212046FFF708FF003818BFA2
:100B800001203BE7F0B5102387B0234C012200255C
:100B90000126002702A920460195CDE902234FF442
:100BA0008052CDE904670AF04DFE642004F038FB62
:100BB00002A94FF480522046CDE90467022610278F
:100BC000CDE902670AF03EFE0322102302A9204667
:100BD000CDE9022300230422CDE904234FF48052FF
:100BE0000AF030FE40F23223042202A901931023BE
:100BF0002046CDE90223019A012305924FF4805249
:100C000004930AF01FFE40F6060120460AF03AFE61
:100C1000284607B0F0BD00BF780400241C4B00221A
:100C20001C494FF0400C30B5054689B00220596090
:100C300007219A601A620124DA620A224FF4006ED8
:100C4000DC6006922022CDE9000104200821CDE9D4
:100C5000020103201021CDE9040108206946C3E9FF
:100C600004024FF4C072181DC3E906C24FF480524B
:100C7000C3E909E20AF0BCFD38B92846FFF782FF54
:100C8000003818BF012009B030BD204609B030BD82
:100C90007404002440410052614A0021D0B5136819
:100CA0008EB00A91002B40F0B9805E4B01214FF6C7
:100CB00083700C2411600221D3F8D420002603276E
:100CC00042F48052C3F8D420D3F8D42002F48052E6
:100CD0000092009AD3F8E02042F01002C3F8E0201E
:100CE000D3F8E02002F010020192019AD3F8E0203C
:100CF00042F04002C3F8E020D3F8E02002F04002C6
:100D00000292029AD3F8E02042F00802C3F8E020F1
:100D1000D3F8E02002F008020392039AD3F8E0200F
:100D200042F48072C3F8E020D3F8E02002F480722D
:100D30000492049AD3F8E02042F08002C3F8E02045
:100D4000D3F8E02002F080020592059AD3F8E02063
:100D500042F02002C3F8E020D3F8E02002F02002A5
:100D60000692069AD3F8E02042F00402C3F8E0208D
:100D7000D3F8E0300C9403F0040307930323079A9D
:100D80000B93CDE9080108A9274806F0CFF848F2EF
:100D90003712022308A925480C94CDE90823CDE990
:100DA0000A6706F0C3F84CF20372022308A9204830
:100DB0000C94CDE90823CDE90A6706F0B7F840F2B4
:100DC000FF62022308A91B480C94CDE90823CDE952
:100DD0000A6706F0ABF84FF60C72022308A9164812
:100DE0000C94CDE90823CDE90A6706F09FF84FF689
:100DF0003F02022308A911480C94CDE90823CDE94C
:100E00000A6706F093F82022022308A90A480C94E6
:100E1000CDE90A67CDE9082306F088F80EB0D0BD09
:100E200070040024004402580010025800180258B0
:100E3000000C025800200258001C025800140258EE
:100E40002DE9F04FDFF8108406460D46144608F1F0
:100E500018002DED028B89B000AF02F061FCD8F8CC
:100E6000183073B3D8F81C30D8F80490002B4369BD
:100E70000BBF4FF0080A4FF0100A4FF0020B4FF073
:100E8000040BB9F1000F2AD0A200EA46012B02F1AF
:100E9000070222F00702ADEB020D6846ADEB020D32
:100EA000694600F03F81022B00F0D680002B6FD006
:100EB0002246C847D5462437BD46BDEC028BBDE867
:100EC000F08FD8F81C30002BF5D0D8F804904FF0F4
:100ED000080A4FF0020B4369B9F1000FD4D1FB614E
:100EE000D8F80030BB61002BE5D0D54802F08AFC71
:100EF0006B46BBF1020F786108EE103AFB6900F017
:100F000083816A465146A2EBC40295466200EA46D6
:100F1000B2FBFBF2AAEBC40085460AEB8200EE4668
:100F2000F861ADEB010DF8690EEB820CC7F810C04B
:100F3000EC46ADEB010D00EB8201CCF80400CCF8DF
:100F4000081001EB82013869E946CCF80C1000EB7F
:100F50008201CCF800A001EB8202C9E900E0C9E9F6
:100F60000212012B00F06483022B00F06C82002B34
:100F700000F08081620849466046BB69984718EED8
:100F8000103A24379D46BD46BDEC028BBDE8F08F7C
:100F9000002C8DD01A46D8ED0C6A9FEDB27A8446AB
:100FA000331D36F922E00CF1080C07EE90EA33F914
:100FB00022E00232F8EEE77A944267EE877A67EE33
:100FC000A67A4CED027A07EE90EAF8EEE77A67EE41
:100FD000877A67EEA67A4CED017AE2D8F96122466B
:100FE000C847984ED8ED0D6A0020F9692B1D9FED7A
:100FF0009E7A9FED9E6ADFED9E5A22E0F4EEC67A5D
:10100000F1EE10FAC0F2C88447F6FE72D1ED017A13
:1010100045F8202066EEA77AF4EEC77AF1EE10FAD2
:1010200040F2F080F4EEC67AF1EE10FAC0F2D58408
:1010300047F6FE7243F820200230083184427FF6E2
:1010400039AFD1ED007A66EEA77AF4EEC77AF1EE09
:1010500010FAD3D83246D9E7002C3FF429AFD8EDA7
:101060000C6A84469FED787A0022331D8E4656F82E
:1010700022100CF1080C07EE901A53F822100232DD
:10108000F8EEE77A944267EE877A67EEA67A4CED3F
:10109000027A07EE901AF8EEE77A67EE877A67EE43
:1010A000A67A4CED017AE2D871462246C7F81CE0D8
:1010B000C847664ED8ED0D6A0020F9692B1D9FEDDB
:1010C0006A7A9FED6A6ADFF894C120E0F4EEC67A8E
:1010D000F1EE10FAC0F279843246D1ED017A45F88A
:1010E000202066EEA77AF4EEC77AF1EE10FA40F20D
:1010F0008780F4EEC67AF1EE10FAC0F25E843246D2
:1011000043F820200230083184427FF6D3AED1ED7F
:10111000007A66EEA77AF4EEC77AF1EE10FAD5D827
:101120006246DAE7002C3FF4C3AED8ED0C6A86467F
:101130009FED477A4FF0000C331D56F82C200EF12E
:10114000080E82F40002A2F5000207EE902A53F87E
:101150002C200CF1020CF8EEE77A82F400026445D0
:10116000A2F5000267EE877A67EEA67A4EED027A64
:1011700007EE902AF8EEE77A67EE877A67EEA67AAE
:101180004EED017AD9D8F9612246C847314ED8EDE3
:101190000D6A0020F9692B1D9FED337A9FED336AAC
:1011A000DFF8BCC01FE0F4EEC67AF1EE10FAC0F230
:1011B000FC833246D1ED017A45F8202066EEA77A0D
:1011C000F4EEC77AF1EE10FA18D9F4EEC67AF1EE21
:1011D00010FAC0F2DA83324643F820200230083198
:1011E00084427FF667AED1ED007A66EEA77AF4EE20
:1011F000C77AF1EE10FAD6D86246DBE76246EBE733
:1012000062467DE7324615E7A100D64662080731FF
:1012100021F00701ADEB010DEA46ADEB010D69468A
:10122000ADEB0E0D0AEB8200EC46ADEB0E0D01EBC3
:101230008202F861E946CCE900A0C9E9001290E613
:10124000C80400240280FFFF000000300082FF7FFE
:101250000000003482FF7F00AC040024007E008088
:101260007E0080FF0000003804FF7FBF04FF7F3F47
:1012700000FEFF46002C00F0C982BBF1020FD8F837
:10128000242000F0FA827969C7F8049002EB810EFD
:101290005FED0C5A8A00DCF808100EF104007A6148
:1012A0001A46DCF80C303B61331DD7F810903D61D5
:1012B000FD69C7E902CB8C46834636F92210D8ED8A
:1012C0000C7A06EE101A33F9221006EE901A3EF947
:1012D0002210B8EEC66A07EE101AF8EEE66A3BF97D
:1012E0002210B8EEC77A26EE256A66EEA56A27EECA
:1012F000257A26EE276A66EEA76A27EE277A07EE9A
:10130000901A51080232F8EEE77A0AEB8100944213
:1013100080ED006A05EB810067EEA57AC0ED006AFA
:101320000CEB810009EB810180ED007A98ED0C7ADD
:1013300067EE877AC1ED007ABFD8D7F804903D698F
:10134000D7E902CB60466208BB6949469847D8F89E
:101350002C307A69D8ED0D6A1A441FED3D7A1FEDE5
:101360003D6A2B1D904602F1040A5FED3F5A0022B0
:10137000A84ED9E900EC51E0F4EEC67AF1EE10FA8D
:10138000C0F2C78247F6FE7045F822000CEB010060
:10139000D0ED007A66EEA77AF4EEC77AF1EE10FA95
:1013A0004BD9F4EEC67AF1EE10FAC0F2BA8247F6E3
:1013B000FE70BBF1020F43F822002BD0D9F80800D1
:1013C0000844D0ED007A66EEA77AF4EEC77AF1EE23
:1013D00010FA36D9F4EEC67AF1EE10FAC0F2CD82E8
:1013E00047F6FE7048F82200D9F80C000144D1ED10
:1013F000007A66EEA77AF4EEC77AF1EE10FA1ED9FB
:10140000F4EEC67AF1EE10FAC0F2AF8247F6FE7142
:101410004AF82210023294427FF6B1AD51080EEB29
:1014200081008900D0ED007A66EEA77AF4EEC77AE3
:10143000F1EE10FAA0D83046A6E73046B9E73146BB
:10144000E6E73046CEE7002C00F0E081BBF1020F6A
:10145000D8F8243000F0E1817A69DCF8081003EB59
:10146000820EC7F804909300DFED6B5A0EF1040072
:1014700000227B61DCF80C303B61331DD7F8109003
:101480003D61FD69C7E902CB8C46834656F82210C0
:10149000D8ED0C7A07EE101A53F82210B8EEC76A8E
:1014A00007EE101A5EF82210F8EEC76A07EE101A5F
:1014B00026EE256A5BF82210B8EEC77A66EEA56ABA
:1014C00026EE276A27EE257A66EEA76A27EE277AA8
:1014D00007EE901A51080232F8EEE77A0AEB810023
:1014E000944280ED006A05EB810067EEA57AC0EDBD
:1014F000006A0CEB810009EB810180ED007A98ED28
:101500000C7A67EE877AC1ED007ABFD8D7F80490DD
:101510003D69D7E902CB60466208BB6949469847F6
:10152000D8F82C307A69D8ED0D6A1A449FED3E7ACE
:101530009FED3E6A131D9246DFF8E4C00022FB6176
:101540002B1D364ED9E9008E4EE0F4EEC67AF1EE50
:1015500010FAC0F2FC81304645F822000EEB010083
:10156000D0ED007A66EEA77AF4EEC77AF1EE10FAC3
:1015700049D9F4EEC67AF1EE10FAC0F2EF813046A6
:10158000BBF1020F43F822002AD0D9F80800084422
:10159000D0ED007A66EEA77AF4EEC77AF1EE10FA93
:1015A00035D9F4EEC67AF1EE10FAC0F2C9813046B0
:1015B0004AF82200D9F80C000144D1ED007A66EE19
:1015C000A77AF4EEC77AF1EE10FA1ED9F4EEC67AD5
:1015D000F1EE10FAC0F2AD813146F86940F8221000
:1015E000023294427FF6CBAC510808EB81008900AF
:1015F000D0ED007A66EEA77AF4EEC77AF1EE10FA33
:10160000A3D86046A8E76046BAE76146E5E76046CA
:10161000CEE700BF0280FFFF000000300082FF7FA6
:10162000007E00800000003404FF7FBF04FF7F3F86
:10163000002C00F0EB807A690021D8F82430C7F83C
:10164000109003EB820ED7F81C909300FD610EF111
:1016500004021FED0C6A7B61331D154656F82120EC
:101660004808D8ED0C6ABBF1020F82F40002A2F523
:10167000000207EE902A53F8212082F40002B8EE0F
:10168000E77AA2F5000227EE067A07EE902A0AEB27
:101690008002F8EEE77A27EE267A67EE867A82ED08
:1016A000007A09EB80024FEA800067EEA67AC2ED6D
:1016B000007A27D05EF8212082F40002A2F5000211
:1016C00007EE902A55F8212082F40002B8EEE77A5E
:1016D000A2F5000227EE067A07EE902ADCF8082031
:1016E000F8EEE77A024427EE267A67EE867A82EDF4
:1016F000007A98ED0C7ADCF80C2067EE877A0244C9
:10170000C2ED007A02318C42A8D8D7F8109060461A
:101710006208BB694946FD699847D8F82C307A6958
:10172000D8ED0D6A1A441FED407A1FED406A131D73
:101730009246DFF8C4C20022FB612B1DAB4ED9E9F3
:10174000008E4EE0F4EEC67AF1EE10FAC0F2C580DB
:10175000304645F822000EEB0100D0ED007A66EE2F
:10176000A77AF4EEC77AF1EE10FA49D9F4EEC67A08
:10177000F1EE10FAC0F2BF803046BBF1020F43F821
:1017800022002AD0D9F808000844D0ED007A66EE8D
:10179000A77AF4EEC77AF1EE10FA35D9F4EEC67AEC
:1017A000F1EE10FAC0F2AE8030464AF82200D9F8C5
:1017B0000C000144D1ED007A66EEA77AF4EEC77A08
:1017C000F1EE10FA1ED9F4EEC67AF1EE10FAC0F27C
:1017D0008B803146F86940F82210023294427FF63D
:1017E000CEAB510808EB81008900D0ED007A66EE9F
:1017F000A77AF4EEC77AF1EE10FAA3D86046A8E70C
:101800006046BAE76146E5E76046CEE722464946CC
:101810006046BB699847FFF7B2BBC7F810B000221B
:1018200098ED0C6A331DDFED726AD7F81CB0786949
:1018300056F8221007EE901A53F82210B8EEE77A05
:1018400007EE901A51080232F8EEE77A27EE267A70
:101850000AEB810E94420BEB810167EEA67A27EE2C
:10186000067A67EE867A8EED007AC1ED007ADFD8CF
:101870008300D7F810B07B614DE61A46C7F810B068
:1018800098ED0C6A331DDFED5B6AD7F81CB0786900
:1018900036F9221007EE101A33F9221007EE901ACB
:1018A000B8EEC77A51080232F8EEE77A27EE267AC8
:1018B0000AEB810E94420BEB810167EEA67A27EECC
:1018C000067A67EE867A8EED007AC1ED007ADFD86F
:1018D0008300D7F810B07B6134E5F0EE675AFEEE76
:1018E000E45A15EE900A34E7F0EE675AFEEEE45A39
:1018F00015EE901A6EE7F0EE675AFEEEE45A15EE1A
:10190000900A3AE7F0EE675AFEEEE45A15EE900AB6
:101910004BE767EEA57AFDEEE77A17EE900A00B284
:1019200032E567EEA57AFDEEE77A17EE900A00B28F
:101930003FE5F0EE675AFEEEE05A15EE901A4CE6DF
:10194000F0EE675AFEEEE05A15EE900A30E6F0EE41
:10195000675AFEEEE05A15EE900AFDE5F0EE675A82
:10196000FEEEE05A15EE900A0AE667EEA57AFDEE65
:10197000E77A17EE901A09B24AE567EEA57AFDEE0E
:10198000E77A17EE900A00B22CE5F0EE675AFEEE09
:10199000E45A15EE902A1FE467EEA57AFDEEE77A89
:1019A00017EE902A12B2FFF731BBF0EE675AFEEE47
:1019B000E45A15EE902AFFF7FDBBF0EE675AFEEEF3
:1019C000E05A15EE902AFFF79BBBF0EE675AFEEE49
:1019D000E05A15EE902AFFF780BB67EEA57AFDEE80
:1019E000E77A17EE902A12B2FFF724BB82FF7F003E
:1019F00000000030000000387E0080FF30B5184C39
:101A0000154685B0046004F1080EEC460FC98EE857
:101A10000F00D4ED047AF5EEC07A8CE80F00F1EEF9
:101A200010FA1ADDB7EE006A94ED057A27EE277AF0
:101A3000C6EE276A84ED0D7AC4ED0C6A6DB12046BE
:101A400040F8185F01F06CFE064903690020064A61
:101A50002162A262E36005B030BD012005B030BD57
:101A6000AC04002410200030100000300068083062
:101A7000704700BF0068183001F0B2BE30B504688E
:101A800083B00D46E3694BB1A3680020E26A616A46
:101A90009B00009004F11C0001F044FEA36807487D
:101AA000A26A9B00216A009004F1180001F03AFE3E
:101AB0000020C4E9005003B030BD00BF410E000853
:101AC00010B4074B4FF07E513024002203201961DF
:101AD0009C60D8605DF8044B5961C3E906227047E9
:101AE000AC04002430B585B004460025ADF80C10D8
:101AF000ADF80820ADF8043002F04EFFBDF80C2020
:101B00004FF48073206004F118002283BDF8082090
:101B10006383E383A283257100F0D6FC04F11C00EB
:101B200000F0D2FC9FED060A019904F1080000F0D4
:101B300047F84FF6FF736562238405B030BD00BFE0
:101B400000000000F8B5044602F026FF00262368D6
:101B50002671834205D104F10800BDE8F84000F089
:101B600049B8012794F82050206004F11800BD40C6
:101B7000277100F085FD6DB2284394F82150BD40D7
:101B800084F8200004F11C0000F07AFD94F8203065
:101B90006DB2666203F003032843022BC0B284F8DF
:101BA000210009D000F003000228D4D1002BD2D1AB
:101BB0004FF0FF336362CEE78307CCD16762CAE799
:101BC00070B5044682B0C1F30726CDB2ADF804105B
:101BD00002F0E2FE4FF480724FF001232060A01D5E
:101BE000A571A280E671A36002B0BDE8704000F06C
:101BF0006BBC00BF38B5044602F0CEFE002223685D
:101C00002271834210D00122A57AE37A95402060A8
:101C10002271A01D6DB243B900F032FD40B22843DD
:101C2000C0B27F28A0720AD038BD00F029FDB0FAFA
:101C300080F040092843C0B27F28A072F4D102F09E
:101C4000ABFE07EE900AF8EE677AC4ED037A38BD72
:101C500000B583B04FF0000E4FF0030C4274ADF8A6
:101C60000410BDF8043080F810E0A0F802C0038032
:101C700003B05DF804FB00BF2DE9F04FDFF81C83D3
:101C800000258DB0C04C037008F140034260074648
:101C900001920E46202229464046C4F86831C4F815
:101CA0006481CDE90255CDE90455CDE90655CDE96C
:101CB0000855CDE90A550EF0C1FF2022294604F54A
:101CC000A170C4F83151C4F83551C4F83951C4F881
:101CD0003D510EF0B3FF019B84F8485284F8303137
:101CE0007A68002A6AD02B4604F59871454606F1B9
:101CF000100A9E46F01856F803B0E2180EF1010ED5
:101D0000D0F80CC0D0F80490D0F8088044F803B0A4
:101D1000C2F80CC04FF0000CC2F80490C2F8088062
:101D2000008A25F802CB10821AF8032001F8012F4F
:101D3000002A70D07A684FF001001233724584F89F
:101D40004802D7D84FF4802290489DF804300821EB
:101D50004FF000084FF00009C4F884310023C4E9B3
:101D60005B020122C4F8743184F88031C4E95E2139
:101D700094F84812C4E96489A9B3C4F898210022F0
:101D800084F8813184F888313B78C4E96722002BDC
:101D900038D0012200200121013B84F8A421C4E9AC
:101DA0006C01082B30D8DFE813F0BD00C200C7007B
:101DB000CC00D100D600DB00E100E8009DF8043043
:101DC0000121C4F87421C4F884314FF4802384F8CD
:101DD00080216E4AC4E95B2308230022C4E95E1314
:101DE0000023C4E964230123002284F88131002305
:101DF00084F888310323C4F898313B78C4E967221A
:101E0000002BC6D184F8A431614803F041FE03469B
:101E100038B1FFBEFEE77A68123372453FF66AAF0B
:101E200090E702A95A48029303F090FF82460028E7
:101E300076D1042240F2FF710A90CDE9081294F89D
:101E40003021002A00F0F3804FF006080AEBCA03A5
:101E50004FEACA0904EB43035B7C072B07D8DFE892
:101E600003F0595C5653504D4A04072307930FFA69
:101E70008AF6D14406EBC60604EB490904EB460793
:101E80007500384600F020FB99F81030042B00F361
:101E9000AA80022B00F3BD8000F0B98004EB0A0396
:101EA000002283F8202114F81630002B78D0022B62
:101EB00000F08A80012B40F0B2807B78012B00F08B
:101EC000B080002B334B18BF002305A93048CDE963
:101ED000053803F009FA002840F0AC800AF1010A45
:101EE00094F830315FFA8AFA534540F2A0802A4BC9
:101EF00053F82A80AAE706230793B8E70523079338
:101F0000B5E704230793B2E703230793AFE7022360
:101F10000793ACE700230793A9E701230793A6E7FC
:101F2000FFBEFEE703224023C4E96A236CE70722D1
:101F30006023C4E96A2367E70F228023C4E96A2388
:101F400062E71F22A023C4E96A235DE73F22C02382
:101F5000C4E96A2358E77F22E023C4E96A2353E7F0
:101F6000FF224FF48073C4E96A234DE740F2FF1269
:101F70004FF49073C4E96A2346E740F2FF324FF40E
:101F8000A073C4E96A233FE7E8040024002002406C
:101F9000540600240002B0256019010810400030EA
:101FA0007B78062B37D0072B3DD0022B4AD0032B52
:101FB0004AD0002B4CD0012B48D0042B4AD0052B03
:101FC000254B18BF002380E77B78042B25D0052BF9
:101FD0002BD08BB3012B31D0022B31D0032B1F4BD5
:101FE00018BF002371E70323043504EB0A0B4FF0FD
:101FF000000925448BF82031284609F1010900F039
:1020000063FA9BF8203104354B45F5DC4BE701239F
:10201000EAE70223E8E7124B57E7124B55E70023A4
:1020200053E7114B51E7114B4FE7114B4DE70DB003
:10203000BDE8F08FFFBEFEE70E4B46E70E4B44E7D0
:102040000E4B42E70E4B40E70E4B3EE70E4B3CE794
:102050000E4B3AE70E4B38E70000B84F00209036A1
:102060000800900C1000C0102000F0148000501DDB
:10207000000180210004002A0008302E0010603288
:102080000040C03A0080F03E00005247000021436B
:102090000000844B38B5094C40F2FF724FF001113B
:1020A00004F5B675284603F0FFFD94F83021D4F806
:1020B00064112846BDE8384003F06ABBE8040024F8
:1020C000064B0F29D3F8643198BF03EB41031B88FB
:1020D00000EE103ABBEEC80A704700BFE8040024C7
:1020E000214B02689A4200D07047204A00232048C2
:1020F000D2F8D81030B51F4C41F0200183B0C4F89D
:10210000D001092004F5E875C4E975034FF4806037
:10211000C2F8D810D2F8D8204FF40061C4E9773063
:1021200094F8480202F02002C4F8E4114FF4005180
:10213000984201922846C4F8E811C4E97C33019B17
:1021400014BF00234FF48073C4F8EC3104F024F87A
:1021500008B1FFBEFEE704F5B673C4F8B851C4F881
:10216000083203B030BD00BF0020024000440258D6
:1021700040000240E8040024014804F085BB00BF91
:10218000B806002402682DE9F84F4B4B9A4201D063
:10219000BDE8F88F494D95F84832002BF8D095F8F6
:1021A0003031002B77D0002405F10C0905F5A1761C
:1021B00005F59877A04613E003F0010117F811BC6C
:1021C000A9F1080000F06AFABBF1010F25D895F8D3
:1021D0003031013409F112090236A2B293422BD9EF
:1021E00017F8012F002AF4D0D5F864310021327895
:1021F00033F81400D5F8683103EB041323F8120008
:10220000338801339BB233805FFA83FA3A789A427B
:10221000D2D88A46A6F80080D0E7CAF34001A9F1D7
:10222000040000F03BFABBF1020FCAF38001CED0EC
:10223000484600F033FACAE7002395F848022049DF
:1022400009229842C5F8D8314FF48060C5F8D01102
:10225000C5F8D4214FF400614FF40052C5F8DC31C9
:1022600008BF4FF48073C5F8E821C5E97801002262
:102270001448C5E97B32C5F8F42103F08DFF08B19D
:10228000FFBEFEE795F83021D5F864110E48BDE891
:10229000F84F03F07DBA0A4909224FF48060C5F86F
:1022A000D831C5E974124FF400614FF40052C5E90A
:1022B0007730C5E97912DAE700200240E80400240B
:1022C00040000240B806002454060024704700BFB6
:1022D00010B592B0ADF804100180C9B2149C0B295E
:1022E000C460C0E901233FD090F801C0BCF10F0FDA
:1022F0003AD8022A3FD0032A02D0012A00D0002275
:102300000E92012B02D0022B18BF0023022C0F9338
:102310002CD0032C2AD0012C28D000230A2910937A
:1023200027D85C4A02EB812202610A2914D8DFE82F
:1023300001F0A39587796B5D4F4133250600564B1D
:10234000D3F8E01041F48061C3F8E010D3F8E03036
:1023500003F480630C930C9B01230DA9104603FA30
:102360000CF30D9304F0E2FD12B010BD0A29109495
:10237000D7D90022D8E711220E92C2E7464BD3F8F4
:10238000E01041F40071C3F8E010D3F8E03003F43A
:1023900000730B930B9BDFE73F4BD3F8E01041F446
:1023A0008071C3F8E010D3F8E03003F480730A932F
:1023B0000A9BD1E7384BD3F8E01041F08001C3F815
:1023C000E010D3F8E03003F080030993099BC3E7E2
:1023D000314BD3F8E01041F04001C3F8E010D3F8DE
:1023E000E03003F040030893089BB5E72A4BD3F88D
:1023F000E01041F02001C3F8E010D3F8E03003F022
:1024000020030793079BA7E7234BD3F8E01041F085
:102410001001C3F8E010D3F8E03003F01003069386
:10242000069B99E71C4BD3F8E01041F00801C3F874
:10243000E010D3F8E03003F008030593059B8BE729
:10244000154BD3F8E01041F00401C3F8E010D3F8C5
:10245000E03003F004030493049B7DE70E4BD3F8B4
:10246000E01041F00201C3F8E010D3F8E03003F0CF
:1024700002030393039B6FE7074BD3F8E01041F08F
:102480000101C3F8E010D3F8E03003F00103029338
:10249000029B61E7000002580044025808B5012180
:1024A00043780069994089B204F048FF003818BFAA
:1024B000012008BD01230A464178006903FA01F1B1
:1024C00089B204F041BF00BF8378022B30B50446C7
:1024D0008FB037D0032B33D0012B31D000230A9398
:1024E000E378012B2AD0022B28D000230B93002362
:1024F00020460C9302F072FD0546204602F076FD60
:1025000023780990082B13D8DFE803F01F324558D1
:102510006B7E91A40500594BD3F8E02042F4807201
:10252000C3F8E020D3F8E03003F480730893089BED
:1025300009A9284604F0FAFC0FB030BD0B93D6E78A
:102540000A93CDE711230A93CAE74C4B09A9284601
:10255000D3F8E02042F00102C3F8E020D3F8E030E5
:1025600003F001030093009B04F0E0FC0FB030BDCA
:10257000424B09A92846D3F8E02042F00202C3F8F2
:10258000E020D3F8E03003F002030193019B04F054
:10259000CDFC0FB030BD394B09A92846D3F8E02057
:1025A00042F00402C3F8E020D3F8E03003F0040363
:1025B0000293029B04F0BAFC0FB030BD2F4B09A967
:1025C0002846D3F8E02042F00802C3F8E020D3F810
:1025D000E03003F008030393039B04F0A7FC0FB063
:1025E00030BD264B09A92846D3F8E02042F010025E
:1025F000C3F8E020D3F8E03003F010030493049B09
:1026000004F094FC0FB030BD1C4B09A92846D3F848
:10261000E02042F02002C3F8E020D3F8E03003F0DD
:1026200020030593059B04F081FC0FB030BD134BD4
:1026300009A92846D3F8E02042F04002C3F8E02080
:10264000D3F8E03003F040030693069B04F06EFCE1
:102650000FB030BD094B09A92846D3F8E02042F05D
:102660008002C3F8E020D3F8E03003F08003079342
:10267000079B04F05BFC0FB030BD00BF0044025864
:1026800038B5054602F0AAFC0446284602F0AEFC26
:1026900001462046BDE8384004F050BE70B50646FD
:1026A0000D4602F09BFC0446304602F09FFC2A1EB9
:1026B0000146204618BF0122BDE8704004F044BE28
:1026C0000023122270B586B0CDE90223049303687B
:1026D000032B01D804230593061D841D304602F008
:1026E0007DFC0546304602F081FC034601A92846E0
:1026F000019304F01BFC204602F070FC03462046C8
:102700001C4602F073FC01A903462046019304F025
:102710000DFC06B070BD00BF634A0368934210B55C
:102720008CB028D0614A934258D0614A934200F05D
:102730009480604A934201D00CB010BD5E4C5F485B
:10274000D4F8E03043F00203C4F8E030D4F8E030CD
:1027500003F002030A930A9BFFF7B2FFD4F8F430A8
:1027600043F08003C4F8F430D4F8F43003F080036D
:102770000B930B9BE0E7504C5148D4F8E03043F00A
:102780000203C4F8E030D4F8E03003F00203019310
:10279000019BFFF795FFD4F8E83000221F2043F497
:1027A00000131146C4F8E830D4F8E83003F40013FD
:1027B0000293029BD4F8D83043F00103C4F8D83018
:1027C000D4F8D83003F001030393039B03F032FBEA
:1027D0001F200CB0BDE8104003F06ABB364C3948EE
:1027E000D4F8E03043F08003C4F8E030D4F8E030AF
:1027F00003F080030493049BD4F8E03043F0020319
:10280000C4F8E030D4F8E03003F002030593059BF0
:10281000FFF756FFD4F8E8300022212043F480036C
:102820001146C4F8E830D4F8E83003F48003069386
:10283000069BD4F8D83043F00103C4F8D830D4F85C
:10284000D83003F001030793079B03F0F3FA21202C
:102850000CB0BDE8104003F02BBB1B48FFF730FF66
:10286000154B00224820D3F8E840114644F40004F8
:10287000C3F8E840D3F8E84004F400040894089C46
:10288000D3F8D84044F00104C3F8D840D3F8D83086
:1028900003F001030993099B03F0CCFA48200CB024
:1028A000BDE8104003F004BB005400400058004055
:1028B000005C0040001C005800440258C00900247D
:1028C0003807002410080024E80800242DE9F0430C
:1028D0001A4B87B000254FF010099E46EC46184B66
:1028E000FF22E04667461A700EF118060EF130041A
:1028F000CDE90055CDE90255ADF80090BCE80F00D8
:10290000CDE90455AEE80F009CE803000095ADF852
:1029100000908EE80300B8E80F000FC69CE80300A3
:102920000095ADF8009086E803000FCF0FC49CE837
:10293000030084E8030007B0BDE8F083040000242E
:102940003407002410B5EFF3108472B6084B1A78E0
:10295000120602D504B962B610BD1B78D82205480C
:102960005BB202FB0300143003F08EFFF2E700BFFE
:102970003407002438070024014805F07DBB00BF60
:10298000C4070024014805F077BB00BF9C08002461
:10299000014805F071BB00BF740900242DE9F04324
:1029A0000F68D8243F4D85B007FB04F4032F05EBD7
:1029B0000403036040DCCB680E46012B3CD84DD0AD
:1029C0004FF0D808B646DFF8FC9008FB0758BEE881
:1029D0000F00C446ACE80F00DEF800300DF1100E19
:1029E000CCF80030D8F808C099E80F000EE90F00C5
:1029F0000EEB8703BCF1010F53F8103CC8F88C3084
:102A000031D0BCF1020F42D0BCF1000F35D0317C87
:102A10008C34D823002201202C4403FB07534900A7
:102A2000C3E92602C3F894102046C3E92822C3E96B
:102A30002A2205F013F918B1012005B0BDE8F08392
:102A40000146204605F024FB0028F5D1014620462A
:102A500005F048FB003818BF0120EEE70B7C103B67
:102A6000672BADD9E8E702F033F90F4B98420CBF62
:102A70000E4B0F4BC8F89030C9E702F029F90A4B0A
:102A800098420CBF0B4B0C4BC8F89030BFE702F0DC
:102A90001FF9054B98420CBF084B094BC8F8903002
:102AA000B5E700BF38070024000E27072D0FB03010
:102AB0003211D0205F4390608A62E030200BA0107A
:102AC0001A098010C41801082DE9F041D0F80080DF
:102AD00082B00D4617461E4608F18C04204605F0CC
:102AE000D3FA2028FAD1D8F80C3073B96D002046FB
:102AF000089C33463A46A9B2009405F005F900381F
:102B000018BF012002B0BDE8F081089B324639466B
:102B1000204605F0CDF9F2E7044B10221A7483F831
:102B2000E82083F8C02183F89822704738070024F2
:102B300030B5002395B04FF48071062204460B9304
:102B400006921393CDE90C13CDE90E33CDE9113381
:102B500002F0C0F807282BD004F1100541F28832AA
:102B600006A9284606F0D0F828B10123184684F8B3
:102B70005C3015B030BD0222022306A92846CDE9FB
:102B8000002310220123CDE9022300224FF4800309
:102B9000CDE9042305224FF0807306926A460F9315
:102BA00041F2883306F01CFA0028DED115B030BDA2
:102BB0000323012084F85C3015B030BD0000000014
:102BC00070B50023A4B04FF080724FF480750446B6
:102BD000ADF806300D93CDE910320122CDE90E5348
:102BE000CDE91223CDE91433002943D0F02300F1BD
:102BF000100508AEADF80630C02341F288323146E8
:102C00002846089306F080F828B10123184684F876
:102C10005C3024B070BD41F288320DF106012846C7
:102C200006F0DCF803460028EFD105224FF480714E
:102C30001E93284616924FF080721B9321931F9289
:102C400002AA9FED1F7BCDE91C13CDE922338DED48
:102C5000027B9FED1D7B41F2883316A98DED047B2D
:102C60009FED1B7B8DED067B06F0BAF90028CCD1D9
:102C700024B070BD00F1100508AE612341F2883226
:102C800031462846089306F03FF80028BDD141F2AE
:102C900088320DF10601284606F01EF90028B4D14D
:102CA000BDF80630204623F0780343F04003ADF82A
:102CB0000630FFF73DFF00289ED0A6E7AFF3008067
:102CC00000000000010000001000000001000000F2
:102CD00000000000000040002DE9F04F00234FF4F9
:102CE000807501264FF0807804462DED028BABB045
:102CF0008DF8073013932193299314950E96CDF8F0
:102D00005C80CDE91533CDE91863CDE91A33CDE9FF
:102D10002253CDE92433CDE9273306231C9301F058
:102D2000D9FF072808D004F1100741F288321CA906
:102D3000384605F0E9FF40B10123184684F85C30BD
:102D40002BB0BDEC028BBDE8F08F4FF0020A4FF0C4
:102D5000020B4FF0050941F2883308AA1CA9384636
:102D6000CDF89480CDF870909FED2D8BCDE908AB18
:102D70004FF0000A4FF4800B8DED0A8BCDE90CABC0
:102D800006F02EF90028D7D141F2883238460EA934
:102D900005F0BAFF0028CFD1402341F288320DF16F
:102DA000070138468DF8073006F018F80028C3D11F
:102DB00041F288330EA902AA3846CDF83890CDF8F2
:102DC0005C809FED197B8DED048BCDE906AB8DED1D
:102DD000027B06F005F903460028ADD1CDF87090CE
:102DE0004FF00109CDF894804FF00008219308AA14
:102DF00029931CA938462295CDE92333CDE9273301
:102E000041F288338DED0A8BCDE90CABCDE9088911
:102E100006F0E6F8002893D0304684F85C608FE72F
:102E20001000000001000000400000004000000011
:102E30002DE9F043624CA3B00D46046001F04AFF57
:102E4000072800F0A980286823466968AA6807C394
:102E50001E46AB8926F8043B3046257B677B05F090
:102E600035FFE0B9574B012D4FF00108E0612361B8
:102E700014BF4FF480134FF40003C4E9058893FA9C
:102E8000A3F3B3FA83F34FF48079013BC4F82490A1
:102E9000C4E90B003046236205F0ACFE38B10122D4
:102EA000134684F85C20184623B0BDE8F0836623FF
:102EB0000B90139041F2883206A90693CDE90C904D
:102EC000CDE90E00CDE91100304605F01DFF0028C8
:102ED000E5D1992341F2883206A93046069305F0E0
:102EE00013FF0028DBD105231C9019906A46149328
:102EF0004FF08073219014A91D9341F288339FED08
:102F00002A7BCDE91A90CDE91F008DED007B9FED66
:102F1000287B30468DED027B9FED277B8DED047B7A
:102F200006F05EF80028BAD129462046FFF748FE91
:102F30000028B4D12046FFF7CFFE03460028AED1CB
:102F4000002FB0D1189330460027002606AA14A9F6
:102F5000CDF86890CDE91F33EB2314934FF4406311
:102F60001B934FF4005317934FF440431C93A0233B
:102F70001693062319934FF0805321934FF040731B
:102F8000CDE906671D9306F0A3F8034600288AD012
:102F9000434684F85C8086E701230322184684F8C0
:102FA0005C2023B0BDE8F0830000000001000000B9
:102FB00010000000010000000000000000004000C0
:102FC000980A0024005000522DE9F04F8FB0414B79
:102FD0000024026800AF9A427C63C7E90944C7E94C
:102FE0000B4403D03C37BD46BDE8F08F3A4B40F66A
:102FF00009213A48EB46D3F8D42007F11C0607F123
:10300000220A4FF0020942F480424FF00308C3F84D
:10301000D420D3F8D42002F48042BA60BA68D3F83E
:10302000E02042F04002C3F8E020D3F8E02002F0B4
:103030004002FA60FA68D3F8E02042F02002C3F8B8
:10304000E020D3F8E02002F020023A613A69D3F898
:10305000E02042F01002C3F8E020D3F8E02002F0B4
:1030600010027A617A69D3F8E02042F00202C3F8D4
:10307000E020D3F8E030F86103F002033984BB614B
:10308000174B7B60BB697B6853F8040F7B6001F0D2
:10309000A5FF7B680546186801F0A8FF16F8013BFC
:1030A000786207F124012846C7F830807B63C7E9BE
:1030B0000A9403F03BFF5645E5D100225C201146FF
:1030C00002F0B8FE5C2002F0F3FE3C37DD46BD4660
:1030D000BDE8F08F00500052004402580A0A090966
:1030E000F40A0024114B02689A4200D07047104A3B
:1030F00070B5D2F8D4300F4C23F4804304F1180695
:10310000C2F8D43054F8040F01F068FF0546206877
:1031100001F06CFF0146284604F048F8B442F1D1B2
:103120005C20BDE8704002F0D1BE00BF00500052EC
:1031300000440258F40A0024014806F055B800BFC4
:10314000A80A0024084B1A1D981D03F1080110B4A9
:103150009C1C9A6603F10A02C3E91834C3E91B01F7
:103160005DF8044B5A677047980A002438B5036825
:1031700071B9026A00F1280500F5AC74012A0CBF90
:10318000002140218BBB1D4B5722C0F858310DE068
:10319000426A00F1C00500F5E874012A0CBF002165
:1031A0004021EBB1164B5A22C0F8D0310023204603
:1031B000C4E901214FF480524FF48061636262617F
:1031C0004FF48042C4E903314FF48073C4E906230D
:1031D0004FF40033236202F0DFFF58B1FFBEFEE779
:1031E000084B5822C0F8D031E0E7074B5922C0F80D
:1031F0005831DBE7C5E92044A56338BD1000024023
:103200007000024028000240580002402DE9F043BF
:10321000821D05468BB0031D05F10A010830CDE97A
:10322000052305F10C02AB69CDE907010992002BDA
:103230003DD0EB69B3FA83F84FEA58180123022214
:1032400005AE0AAF4FF006090393CDE9012356F806
:10325000044B2B792278934216D02B68F3B1012BC3
:1032600002D1F2B10A230493204601F0BFFE0346C7
:103270002046009301F0B2FE694603F057FEBE42BD
:10328000E5D10BB0BDE8F083697963789942E4D168
:10329000B8F1000FF3D02B68002BE0D1CDF81090DF
:1032A000E2E76378022B14BF0A230823DBE74FF021
:1032B0000108C3E7534A0368934230B505468BB013
:1032C00055D02032934252D04F4A934204D02032FC
:1032D000934201D00BB030BD4C4C4D48D4F8E03097
:1032E00043F00103C4F8E030D4F8E03003F0010308
:1032F0000593059BD4F8E03043F00803C4F8E030B0
:10330000D4F8E03003F008030693069BD4F8E030CD
:1033100043F04003C4F8E030D4F8E03003F0400359
:103320000793079BD4F8F03043F40003C4F8F0305F
:10333000D4F8F03003F400030893089BFFF766FF0E
:10334000D4F8D830296843F001032F4A3048C4F834
:10335000D830891AD4F8D83018BF012103F00103FE
:103360000993099B0BB0BDE83040FFF7FFBE274C27
:103370002848D4F8E03043F00103C4F8E030D4F832
:10338000E03003F001030093009BD4F8E03043F0F9
:103390001003C4F8E030D4F8E03003F010030193D8
:1033A000019BD4F8E03043F04003C4F8E030D4F897
:1033B000E03003F040030293029BD4F8F03043F472
:1033C0008003C4F8F030D4F8F03003F480030393A2
:1033D000039BFFF71BFFD4F8D830296843F00103A3
:1033E000084A0C48C4F8D830891AD4F8D83018BF25
:1033F000012103F001030493049B0BB0BDE83040AE
:10340000FFF7B4BE04580140045C01400044025878
:103410006C0D0024100B0024014803F035BA00BFE6
:10342000680C0024014803F02FBA00BFE00C002410
:10343000014803F029BA00BFC40E0024014803F07C
:1034400023BA00BF3C0F00241A4A0368934210B409
:103450000BD02032934208D0174A934216D0203224
:10346000934213D05DF8044B7047144B0022D3F8FD
:103470005442C3F85822002CF4D0D3F84802D3E9C0
:10348000931223465DF8044B520818470B4B002259
:10349000D3F8B044C3F8B424002CE3D0D3F8AC2460
:1034A000D3F8A814D3F8A404520823465DF8044BBB
:1034B000184700BF04580140045C0140100B002471
:1034C000184A0368934210B40BD02032934208D0BC
:1034D000154A934217D02032934214D05DF8044B22
:1034E0007047124BD3E994245208C3F85822002C99
:1034F000F4D0D3E99201234601EB820100EB820074
:103500005DF8044B1847094BD3F8AC24D3F8B0440A
:103510005208C3F8B424002CE0D0D3F8A814D3F890
:10352000A404E8E704580140045C0140100B0024A7
:103530002DE9F04F0C684FF41776754F87B004FBF8
:1035400006F6012C07EB060AC0F800A000F3A080E5
:103550000D468E464FF00008D44669A3D3E90023F8
:1035600069A1D1E90001CDE9022306ABCAF8508276
:1035700003EB8403CDE9040153F810BC53F8083C75
:10358000CAE992880193BEE80F00ACE80F00BEE8DC
:103590000F00ACE80F00019B9EE80300CAF828B0BA
:1035A000CAF8C0308CE803002B69042B0CD8DFE884
:1035B00003F0737D879103004FF41773554A03FBA3
:1035C00004739A64C3F8E020AA692B6A002A43D0E6
:1035D000002B4FF4177308BF022203FB047318BFBC
:1035E0000322DA6201221A63EA696B6A002A40D177
:1035F000191E4FF4177318BF012103FB0473C3E9AD
:1036000031126B69022B05D8434A12F80380434AF2
:1036100052F823904FF4177306F1280042464946AA
:1036200003FB04740023384463646363E365C4F8F4
:10363000DC30C4F8CC30C4F8F430C4E90F33C4E94A
:103640001533C4E93533C4E93B33022307F06EFE7A
:10365000002849D0FFBEFEE7191E4FF4177318BFAC
:10366000012103FB0473C3E90B12EA696B6A002AA8
:10367000BED0002B4FF4177308BF022203FB047364
:1036800018BF0322C3F8C4200122C3F8C820B8E73A
:10369000012007B0BDE8F08F4FF417734FF4FA52D2
:1036A00003FB04739A64C3F8E0208DE74FF41773AB
:1036B0004FF47A5203FB04739A64C3F8E02083E763
:1036C0004FF417734FF4FA4203FB04739A64C3F880
:1036D000E02079E74FF417734BF6803203FB047355
:1036E0009A64C3F8E0206FE706F1C0000223424667
:1036F0004946384407F01AFE0028CAD0FFBEFEE74C
:1037000004580140045C014024580140245C0140FD
:10371000100B002400770100A0190108A41901086A
:103720000068704770B5046882B015460E46C4F84C
:103730005032C4E99212069AC4F85422A269012AAE
:1037400026D0626A012A9AB211D0294604F1C0003B
:10375000019207F0A7FE236A019A012B10D0294697
:1037600004F1280007F09EFE002002B070BD04F1B5
:10377000C000019207F028FF236A019A012BEED1C5
:10378000314604F1280007F01FFF002002B070BD91
:10379000226A012A9AB211D0294604F12800019226
:1037A00007F080FE636A019A012B10D0294604F1CC
:1037B000C00007F077FE002002B070BD04F12800C1
:1037C000019207F001FF636A019A012BEED13146A5
:1037D00004F1C00007F0F8FE002002B070BD00BF89
:1037E00003681B69042B05D8044A02EB830393ED9D
:1037F000000A70479FED020A704700BFB019010828
:1038000000803B470368D3F8580270471F4BC168DC
:103810000268F0B5D3F88C5083B00369ADB24D1B8C
:10382000A2B1AB4212D00446866811D2F018E91A50
:10383000CDE9001000F0EAFF0023DDE90010D4E933
:103840000062B047E3682561AB421BD003B0F0BD16
:10385000F018C91ACDE9000100F0D8FF0023DDE916
:103860000001D4E90072B8473046294600F0CEFF87
:1038700000233046626829462668B047E368256120
:10388000AB42E3D10023236103B0F0BD000002404E
:103890002DE9F84F04460F4690461E4600F13405C8
:1038A000284608F01DFA2028FAD14FF48063002042
:1038B000C4F8D030C4F848314FF44033C4F8CC00D9
:1038C000C4F8E030C4F858314E4BC4F8DC00C4F8FA
:1038D000C03003F57A73C4F8E400C4F838314023EB
:1038E000C4F8C800C4F84031E369C4F84401C4F81E
:1038F0005401C4F85C01C4E93500C4E95300072B46
:103900000BD8DFE803F061535A373E454C0451238E
:10391000C4F8C4305223C4F83C3104F59C794846BD
:1039200002F03AFC08B1FFBEFEE7C4F8A890C4F864
:103930007051EFF3108972B6DFF8D0B094F91C30F3
:10394000DFF8CCA08BF800300A9B2F4CCAF800306F
:103950000B9B23600EB11846B0471FFA88F2394618
:10396000284607F0A7FFB0BBB9F1000F00D162B63F
:10397000BDE8F88F3F23C4F8C4304023C4F83C317D
:10398000CBE74123C4F8C4304223C4F83C31C4E738
:103990004723C4F8C4304823C4F83C31BDE74F2363
:1039A000C4F8C4305023C4F83C31B6E72B23C4F824
:1039B000C4302C23C4F83C31AFE72D23C4F8C43005
:1039C0002E23C4F83C31A8E72923C4F8C4302A23A5
:1039D000C4F83C31A1E7FF238BF800300023CAF87C
:1039E000003023600A9B3BB10B98012198470120CE
:1039F000B9F1000FBCD1BAE70120B9F1000FB7D17E
:103A0000B5E700BF88000240001F0024FC1E002410
:103A1000F81E00242DE9F84F04460F4690461E4636
:103A200000F13405284608F05BF92028FAD14FF45C
:103A300080630020C4F8D030C4F848314FF44033DC
:103A4000C4F8CC00C4F8E030C4F858314E4BC4F888
:103A5000DC00C4F8C03003F57A73C4F8E400C4F89D
:103A600038314023C4F8C800C4F84031E369C4F8D1
:103A70004401C4F85401C4F85C01C4E93500C4E948
:103A80005300072B0BD8DFE803F061535A373E454C
:103A90004C045123C4F8C4305223C4F83C3104F11F
:103AA000C009484602F078FB08B1FFBEFEE7C4F843
:103AB000AC90C4F8F850EFF3108972B6DFF8D0B0CC
:103AC00094F91C30DFF8CCA08BF800300A9B2F4C07
:103AD000CAF800300B9B23600EB11846B0471FFA9E
:103AE00088F23946284607F037FFB0BBB9F1000F1E
:103AF00000D162B6BDE8F88F3F23C4F8C43040233C
:103B0000C4F83C31CBE74123C4F8C4304223C4F8A5
:103B10003C31C4E74723C4F8C4304823C4F83C31DF
:103B2000BDE74F23C4F8C4305023C4F83C31B6E796
:103B30002B23C4F8C4302C23C4F83C31AFE72D2329
:103B4000C4F8C4302E23C4F83C31A8E72923C4F8B4
:103B5000C4302A23C4F83C31A1E7FF238BF800309E
:103B60000023CAF8003023600A9B3BB10B98012167
:103B700098470120B9F1000FBCD1BAE70120B9F193
:103B8000000FB7D1B5E700BF88000240001F002436
:103B9000FC1E0024F81E00242DE9F0410D4682B0E1
:103BA000EFF3108772B6002948D1FF23254A264C2F
:103BB000237013682BB1002029461060234A106837
:103BC000984723781B0625D5DFF888800025204EEE
:103BD000444605E001351C3406F5D876092D19D088
:103BE000A369012B1BD0002BF4D12168304600299A
:103BF000F0D06369019323690093E3682289FFF79A
:103C000009FF0028E6D1C5EBC50508EB850348F898
:103C10002500586007B962B602B0BDE8F08161685E
:103C20000029D7D063693046019323690093E36884
:103C30002289FFF72DFE0028CCD1E4E709F04CFBE8
:103C4000B3E700BFF81E0024FC1E0024001F002460
:103C5000C80F00244C000024F0B5002387B00222D6
:103C600004460493CDE90223027EC3690B2A4FEA7E
:103C7000430523D1A27E0B2A02D1002007B0F0BD5C
:103C800048496B1C484851F823304578017818782A
:103C9000E67E884269D0824277D0D87803F1030C5F
:103CA00081426ED0824278D0987903F1060C884226
:103CB0006FD0824233D0012007B0F0BD394B3A4873
:103CC00053F8253001784678187894F819C0814265
:103CD0003DD0824241D0D87803F1030E814240D0DA
:103CE00082424AD0987903F1060E884241D082423E
:103CF000E1D1DB796345DED1734604F118069B7888
:103D00003046059301F06AF9034630461E4601F03D
:103D10006DF901A90190304603F008F9AAE7DB79B3
:103D2000B342C8D163461A349B782046059301F00C
:103D300055F9034620461C4601F058F9034601A9EF
:103D40002046019303F0F2F8002007B0F0BD93F88D
:103D500001E0B645BFD08242BDD158786045BAD1A6
:103D6000CBE71F79B742BBD1BCE75F78AF4292D1B6
:103D700093E7D979B142BAD19DE718796045B1D1BD
:103D8000BAE71F79AF428DD18EE75878B04284D11F
:103D9000C9E7D979A9428CD18DE71879B04283D18E
:103DA000C0E700BF64010024600100247E4A03686C
:103DB0009342F0B58FB000F0E380A2F54C429342FD
:103DC00000F0E08002F58062934200F0DD8002F5B1
:103DD0008062934200F0DA8002F58062934200F044
:103DE000D98002F54442934200F0D280A2F51C42F1
:103DF000934200F0D18002F58062934200F0CE80C1
:103E00006A4A934240F0CC800826694D4FF4D8743A
:103E100004FB0654A07E01F0F1F8207E01F0EEF8DC
:103E2000E369082B13D8DFE803F03B49576573813A
:103E30008F9D05005F4BD3F8F42042F00802C3F8D1
:103E4000F420D3F8F43003F008030893089B2046CD
:103E5000FFF702FF012801D1FFBEFEE74FF4D8743F
:103E60000EAA554F0DF1240C04FB0654E36902EB36
:103E700043050FCFACE80F003B680022ACF80030E0
:103E8000114635F9140C01F0D5FFE3690EAA02EBD7
:103E9000430333F9140C0FB0BDE8F04002F008B84A
:103EA000444BD3F8F02042F01002C3F8F020D3F8CE
:103EB000F03003F010030093009BC8E73D4BD3F8AC
:103EC000E82042F40032C3F8E820D3F8E83003F4E5
:103ED00000330193019BBAE7364BD3F8E82042F454
:103EE0008022C3F8E820D3F8E83003F4802302935B
:103EF000029BACE72F4BD3F8E82042F40022C3F832
:103F0000E820D3F8E83003F400230393039B9EE7F3
:103F1000284BD3F8E82042F48012C3F8E820D3F805
:103F2000E83003F480130493049B90E7214BD3F80B
:103F3000F02042F02002C3F8F020D3F8F03003F074
:103F400020030593059B82E71A4BD3F8E82042F043
:103F50008042C3F8E820D3F8E83003F080430693AA
:103F6000069B74E7134BD3F8E82042F00042C3F8F5
:103F7000E820D3F8E83003F000430793079B66E797
:103F8000002642E7012640E702263EE703263CE7FB
:103F900005263AE7042638E7062636E7072634E7FB
:103FA00000239B7EFFDE00BF00100140000C005884
:103FB000C80F002400440258D41801082DE9F04F1E
:103FC00091B0002301223F490DF1240A09938B4649
:103FD00001F11C09CAF8143001F13808CDF800A02D
:103FE00001F15407CDF804A001F17006CDF808A046
:103FF00001F18C05CDF80CA001F1A804CDF810A0BA
:1040000001F1C40ECDF814A001F1E00CCAE90133AE
:10401000CAE903330F92FF222B4BCDE906AA1A708F
:10402000BAE80F00ABE80F009AE80700009B8BE8A6
:1040300007009B46BBE80F00A9E80F009AE80700BD
:10404000019B89E807009946B9E80F00A8E80F002E
:104050009AE80700029B88E807009846B8E80F0036
:104060000FC79AE80700039B87E807001F460FCF9A
:104070000FC69AE80700049B86E807001E460FCE8D
:104080000FC59AE80700059B85E807001D460FCD80
:104090000FC49AE80700069B84E807001C460FCC73
:1040A000AEE80F00079B9AE807001C468EE8070061
:1040B0000FCCACE80F009AE807008CE8070011B0BD
:1040C000BDE8F08F4C000024FC1E002410B5094C04
:1040D00004F1340007F012FD237D1BB1636BDB6933
:1040E000DB0600D410BD2046FFF790FB636B102267
:1040F0001A6210BDC80F002410B50B4C04F5F27005
:1041000007F0FCFC94F8C43123B1D4F8E431DB6946
:10411000DB0600D410BD04F5D870FFF777FBD4F8A8
:10412000E43110221A6210BDC80F002410B50B4CE8
:1041300004F5657007F0E2FC94F8743323B1D4F809
:104140009433DB69DB0600D410BD04F55870FFF72B
:104150005DFBD4F8943310221A6210BDC80F0024FE
:1041600010B50B4C04F2445007F0C8FC94F8243509
:1041700023B1D4F84435DB69DB0600D410BD04F567
:10418000A260FFF743FBD4F8443510221A6210BD39
:10419000C80F002410B50B4C04F2F46007F0AEFC1D
:1041A00094F8D43623B1D4F8F436DB69DB0600D4B6
:1041B00010BD04F5D860FFF729FBD4F8F4361022BF
:1041C0001A6210BDC80F002410B50B4C04F6A400F1
:1041D00007F094FC94F8843823B1D4F8A438DB6950
:1041E000DB0600D410BD04F50760FFF70FFBD4F821
:1041F000A43810221A6210BDC80F002410B50B4C51
:1042000004F6542007F07AFC94F8343A23B1D4F839
:10421000543ADB69DB0600D410BD04F52260FFF7D9
:10422000F5FAD4F8543A10221A6210BDC80F0024CF
:1042300010B50B4C04F6044007F060FC94F8E43B26
:1042400023B1D4F8043CDB69DB0600D410BD04F5CF
:104250003D60FFF7DBFAD4F8043C10221A6210BD6F
:10426000C80F002410B50B4C04F6B45007F046FC00
:1042700094F8943D23B1D4F8B43DDB69DB0600D457
:1042800010BD04F55860FFF7C1FAD4F8B43D102210
:104290001A6210BDC80F002410B5EFF3108472B677
:1042A000084B1A78120602D504B962B610BD1B7805
:1042B0004FF4D87204485BB202FB0300C03002F036
:1042C000E3FAF1E7FC1E0024C80F002410B5EFF359
:1042D000108472B6094B1A78120602D504B962B678
:1042E00010BD1B784FF4D87205485BB202FB030087
:1042F00000F59C7002F0C8FAF0E700BFFC1E002435
:10430000C80F00240021FFF747BC00BF214A036803
:1043100093422BD0A2F54C42934229D002F5806201
:10432000934227D002F58062934225D002F5806245
:10433000934223D002F54442934221D0A2F51C427D
:1043400093421FD002F5806293421DD0124A9342DD
:104350001CD108224FF4D871104B01FB0233197D98
:1043600011B11846FFF752BAFFF716BC0022F1E769
:104370000122EFE70222EDE70322EBE70422E9E75F
:104380000522E7E70622E5E70722E3E700231B7D96
:10439000FFDE00BF00100140000C0058C80F0024D1
:1043A000204A0368934229D0A2F54C42934227D079
:1043B00002F58062934225D002F58062934223D0B9
:1043C00002F58062934221D002F5444293421FD00D
:1043D000A2F51C4293421DD002F5806293421BD08D
:1043E000114A93421AD1082310484FF4D87202FBA5
:1043F0000300037D03B97047FFF708BA0023F3E712
:104400000123F1E70223EFE70323EDE70423EBE7C2
:104410000523E9E70623E7E70723E5E700231B7DFC
:10442000FFDE00BF00100140000C0058C80F002440
:104430000121FFF7B1BB00BF2DE9F0414F684FF4F8
:10444000D876DFF8C0808E4607FB06F60C46082FAC
:1044500008EB0605056005F1180CBEE80F00ACE896
:104460000F009EE807008CE8070002D86B6A022B59
:1044700002D90120BDE8F0812A6A032AF9D8A96A85
:104480000229F6D8E86A0228F3D80131DFF878C0AB
:10449000343689005CF8277046446F63A469A964C8
:1044A0001549AC6351F823306B64144B53F8223038
:1044B000134A2B64002352F8201001223046EB658A
:1044C000E963C5E91333C5E9153208F005FF002893
:1044D000CFD10146304608F057FF0028C9D1014628
:1044E000304608F09FFF0028C3D1304608F02EFF69
:1044F0000028BED12875BDE7E8190108F4190108A4
:10450000041A0108C80F0024C41901082DE9F0415C
:10451000174C006894F800C01CF0800FDDE90667B6
:1045200020D10D4696461C46C069EFF3108272B644
:10453000104BC0EBC0004FF00008012103EB800CD2
:104540008000CCF8045043F80080ACF808E0CCF8C8
:104550001470CCF81810CCE9034602B962B60020FA
:10456000BDE8F081CDE90667BDE8F041FFF790B9FD
:10457000FC1E00244C000024534B0122002047F66F
:10458000122130B4C3E97420C3E97721C3E9E020E4
:10459000C3E9E3211A62DA6258621963C3F830256D
:1045A000C3F83405C3F83C25C3F84015C3F8E0262A
:1045B000C3F8E406C3F8EC26C3F8F016C3F8902855
:1045C000C3F89408C3F89C28C3F8A018C3F8402A7D
:1045D000C3F8440AC3F84C2AC3F8501AC3F8F02BA6
:1045E000C3F8F40BC3F8FC2BC3F8001CC3F8A40DEC
:1045F0003648C3F8A02DC3F8AC2DC3F8B01D02880F
:10460000837833490068334CCA804FEA104C0B72F0
:104610003149E2802372A1F80320A4F803206371DA
:104620004B712E4CCA800B722D492E4DE2802372A5
:10463000A1F80320A4F8032063714B712A4CCA80AF
:104640000B722A49EA8008802B7281F802C0E2804E
:104650002372A1F803204B71CA800B722449A1F880
:1046600003204B71CA800B722249A1F803204B71C1
:10467000CA800B722049088081F802C0A1F803208B
:104680004B71CA800B721D49088081F802C0A1F8E5
:1046900003204B71CA800B721949088081F802C04F
:1046A0001848A1F803204B71CA800B721649A0F874
:1046B00003204371C2800372A1F803204B71CA80AA
:1046C0000B7230BC704700BFC80F0024600100248B
:1046D000E80100240C02002400020024240200242B
:1046E00018020024F4010024D0010024281F002413
:1046F00030020024DC010024041F00241C1F0024BD
:10470000101F002454010024480100243E4B0022C5
:104710000B20114610B5D3F8D84082B044F0010404
:10472000C3F8D840D3F8D84004F001040094009CAA
:10473000D3F8D84044F00204C3F8D840D3F8D830B6
:1047400003F002030193019B01F074FB0B2001F0C5
:10475000AFFB00220C20114601F06CFB0C2001F095
:10476000A7FB00220D20114601F064FB0D2001F093
:104770009FFB00220E20114601F05CFB0E2001F091
:1047800097FB00220F20114601F054FB0F2001F08F
:104790008FFB00221020114601F04CFB102001F08D
:1047A00087FB00223C20114601F044FB3C2001F035
:1047B0007FFB00221120114601F03CFB112001F08B
:1047C00077FB00223820114601F034FB382001F03D
:1047D0006FFB00223920114601F02CFB392001F03B
:1047E00067FB00223A20114601F024FB3A2001F039
:1047F0005FFB00223B20114601F01CFB3B2002B076
:10480000BDE8104001F054BB0044025820F01F00E6
:104810002031BFF34F8F002907DD064A0144C2F85B
:104820005C0220300B1A002BF9DCBFF34F8FBFF373
:104830006F8F704700ED00E0704700BF08B500F0D3
:10484000DDFCBDE8084001F0BDBB00BF064808B56F
:1048500003680BB102F07CFD044803681BB1BDE89E
:10486000084003F06BBC08BD40230024381F00241F
:10487000064808B503680BB102F06AFD04480368F6
:104880001BB1BDE8084003F059BC08BD402300241B
:10489000381F0024064808B503680BB102F058FD24
:1048A000044803681BB1BDE8084003F047BC08BDDD
:1048B00040230024381F0024364BDA6A520062D5A8
:1048C0009A6A9A6A9A6A9B6A180600D500BE314BAA
:1048D0009B6A990600D500BE2E4B9B6ADA0600D56E
:1048E00000BE2C4B9B6A1B0700D500BE294B9B6A60
:1048F000980700D500BE274B9B6AD90700D500BE9C
:10490000244B9B6A1A0400D500BE224B9B6A9B0471
:1049100000D500BE1F4B9B6AD80400D500BE1D4BBE
:104920009B6A190500D500BE1A4B9B6A5A0500D533
:1049300000BE184B9B6A9B0500D500BE154B9B6AB9
:10494000D80500D500BE134B9B6A990100D500BE67
:10495000104B9B6ADA0100D500BE0E4B9B6A1B030D
:1049600000D500BE0B4B9B6A580300D500BE094B17
:104970009B6A990300D500BE064B9B6ADA0306D4F6
:1049800000BE00BEFEE7DB6A9B07FAD5F8E700BE73
:10499000F6E700BF00ED00E000F03CBC00F040BCDA
:1049A0000A4B9B6803F17843B3F5003F0BD3084BE8
:1049B000986848B19868012806D09868022803D002
:1049C0009B68032070470120704700BF00ED00E0A6
:1049D000000080382DE9F041CEB004464C22002181
:1049E0000AA80CF02BF92022002102A80CF026F9CD
:1049F000BC2200211EA80CF021F9022004F012F8BC
:104A00002368012B4FF0000354D0534A0225019331
:104A1000C820D16A514B21F00101D162D26A02F063
:104A2000010201929A6942F440429A619B6903F43F
:104A300040430193019B494A93699B04FCD5484933
:104A40000224002201268B6A04274FF0080823F075
:104A5000030323438B62052316900AA818934FF48F
:104A600080331096179419941597CDF86880CDE986
:104A70001B222122CDE91344CDE90A2304F0BCFC1A
:104A800000B1FEE73F220323294602A8CDE9022315
:104A900000220823CDE9042340224023CDE9062348
:104AA00040234FF48062CDE9082304F0D3FF03468E
:104AB000B8B1FEE7294A04250093F0209169264BFE
:104AC00041F440419161926902F440420092DA6AF5
:104AD00042F00102DA62DB6A03F001030093009BFB
:104AE000A9E720224FF4805125934FF440152B92D3
:104AF00080222D931EA83093269135914FF480711A
:104B0000249234920C223394439140F22711209244
:104B10001022CDF884802A971F96CDE92E34CDE956
:104B20003B334FF48033CDE9224631930024469342
:104B30000623CDE93E4527934FF48063094C2C931F
:104B40001E94CDE9281205F0E1F900B1FEE703F06B
:104B50008FFF4EB0BDE8F0810004005800480258B5
:104B6000004402580F130F0370B584B0012401F004
:104B7000D7F94FF480764FF04052194B6846002524
:104B8000ADF800400396CDE9012301F0E7F91922C1
:104B90004FF0404368468DF8082001938DF80F4090
:104BA000ADF80D608DF801408DF80A5001F0D6F98E
:104BB00002230B2268468DF80F508DF801304FF01C
:104BC00062538DF808200193ADF80D408DF80A402E
:104BD00001F0C4F9042001F0B1F904B070BD00BFC8
:104BE0000E00010330B50D46044685B0D1E9000141
:104BF00084E8030000F0D2FAAB79A3B3FFF786FD97
:104C0000FDF764FE0AF0FAFAFFF7D8F92B798BBBAF
:104C10006B799BB1BFF34F8FBFF36F8F2A4B00228D
:104C2000C3F85022BFF34F8FBFF36F8F5A6942F41E
:104C300000325A61BFF34F8FBFF36F8F4FF0FF32D7
:104C40000023002400256946204802928DF80C308C
:104C5000CDE900450AF0F2FE1C480AF057FF09F0C2
:104C6000FDFE05B030BD2046FFF7B4FE2046FFF73D
:104C70007BFFC3E7144C0023C4F88430BFF34F8F8D
:104C8000D4F8801043F6E07EC1F34E3CC1F3C90175
:104C90004FEA4C1C0CEA0E000B4640EA8372013BC3
:104CA000C4F860225A1CF8D1ACF1200C1CF1200F82
:104CB000F0D1BFF34F8F636943F480336361BFF377
:104CC0004F8FBFF36F8FA3E700ED00E0341F002488
:104CD00004F0F0BF1C4B9B6803F17842B2F5003F33
:104CE00025D3B3F5803F20D303F16042B2F5003FF6
:104CF0001FD303F15C42B2F5002F1CD303F17042C5
:104D0000B2F5902F19D303F14842B2F5803F16D384
:104D100003F18042B2F1806F13D303F1E043B3F5A6
:104D2000000F2CBF0820072070470120704700208B
:104D30007047022070470320704704207047052009
:104D400070470620704700BF00ED00E003480023D5
:104D5000034A044903600BF03BBF00BF341F00242B
:104D6000000000243948000810B4204C0022204BD9
:104D700083B0D4F888101F4841F47001C4F888103B
:104D800019681D4C41F0010119601A611968084049
:104D90001A4918609A61DA611A629A62DA621A63D1
:104DA0005A639A63DA631A645A64186820F480209C
:104DB00018601A66D3F8DC2042F06042C3F8DC20A9
:104DC000D3F8DC300193019B23681940B1F1005FF7
:104DD00003D20B4B0122C3F80821044B4FF00062B1
:104DE0009A6003B05DF8044B704700BF00ED00E02F
:104DF000004402587FEDF6EA0010005C0000FFFF5F
:104E00000080005100F57171D0F8040409F00EBA69
:104E1000C1EBC10300EB8303D0F80404D3F80822EC
:104E200009F032BAC1EBC10300EB8303D0F80404EC
:104E30009A6C09F067BA00BFD0F8040409F006BB09
:104E4000C16810B5044619B1022900D0FEE701215E
:104E5000D4F8040409F0E4FAD4F80404BDE81040DE
:104E600009F0B6BA10B50446D0F8040409F0DCFA2B
:104E70002268D2F8003E43F00103C2F8003E236AE4
:104E800023B1034A136943F00603136110BD00BF49
:104E900000ED00E0D0F8040409F0D0BAD0F8040422
:104EA00009F0E4BAD0F8040409F0DEBAD0F804043A
:104EB00009F0DEBAD0F8040409F0DCBA9446D0F860
:104EC00098021A4608B5634603F09CFC032802D8F2
:104ED000024B185C08BD022008BD00BF201A010863
:104EE000D0F8980208B503F01BFD032802D8024B46
:104EF000185C08BD022008BD201A0108D0F89802ED
:104F000008B503F051FD032802D8024B185C08BD18
:104F1000022008BD201A01080A06D0F8983206D4EB
:104F2000C1EBC10103EB810191F8FE01704701F073
:104F30007F01C1EBC10103EB810191F83E00704795
:104F4000D0F8980208B503F047FC032802D8024BBA
:104F5000185C08BD022008BD201A0108D0F898028C
:104F600008B503F0B5FC032802D8024B185C08BD55
:104F7000022008BD201A0108D0F8980208B503F0F5
:104F80007FFC032802D8024B185C08BD022008BD34
:104F9000201A0108D0F8C00209F01ABDD0F8C002EA
:104FA00009F02EBDD0F8C00209F036BD704700BF31
:104FB000D0F8C00209F01CBDD0F8C00209F01CBD39
:104FC000D0F8D00308B502F083FD032802D8024BC5
:104FD000185C08BD022008BD241A0108024B0278A3
:104FE00053F82200704700BF481A0108024B42786C
:104FF00033F81200704700BF281A01088CB00A2845
:1050000014D8DFE800F01523313F4D5B69778593B5
:1050100006004D4BD3F8E02042F48062C3F8E02054
:10502000D3F8E03003F480630B930B9B0CB0704714
:10503000454BD3F8E02042F00102C3F8E020D3F85A
:10504000E03003F001030193019BEFE73E4BD3F8FF
:10505000E02042F00202C3F8E020D3F8E03003F091
:1050600002030293029BE1E7374BD3F8E02042F0C2
:105070000402C3F8E020D3F8E03003F00403039304
:10508000039BD3E7304BD3F8E02042F00802C3F88B
:10509000E020D3F8E03003F008030493049BC5E755
:1050A000294BD3F8E02042F01002C3F8E020D3F8F7
:1050B000E03003F010030593059BB7E7224BD3F8CC
:1050C000E02042F02002C3F8E020D3F8E03003F003
:1050D00020030693069BA9E71B4BD3F8E02042F080
:1050E0004002C3F8E020D3F8E03003F04003079318
:1050F000079B9BE7144BD3F8E02042F08002C3F8F3
:10510000E020D3F8E03003F080030893089B8DE79C
:105110000D4BD3F8E02042F48072C3F8E020D3F8BE
:10512000E03003F480730993099B7FE7064BD3F8C3
:10513000E02042F40072C3F8E020D3F8E03003F43A
:1051400000730A930A9B71E700440258704700BF3E
:105150000F4B1B780BB90120704710B504464FF474
:105160007A700C4AB0FBF3F31068B0FBF3F000F078
:10517000C1FE0F2C00D808B1012010BD002221462D
:105180004FF0FF3000F056FE034B00201C6010BDB6
:10519000440200243C0200244802002438B50320C5
:1051A000124D00F035FE124C04F0B4FB114A1249C6
:1051B0009369C3F30323CB5C03F01F0320FA03F3CB
:1051C0000E202B60926902F00F028A5C02F01F022F
:1051D000D3402360FFF7BCFF10B10124204638BD47
:1051E0000446FFF7B3FF204638BD00BF3C02002451
:1051F0004002002400440258101A0108034A044BDC
:1052000011681B780B441360704700BF042600240C
:1052100044020024014B1868704700BF0426002494
:1052200038B50446FFF7F6FF0546631C02D0044B71
:105230001B781C44FFF7EEFF431BA342FAD338BD93
:1052400044020024014B1868000C70470010005CF9
:10525000704700BF806B08B5FFF7FAFF08BD00BFBD
:10526000836B5A6D12F0500F5A6D10B51DD119682D
:1052700042F400725A650A6812F0080FCA681BD01F
:1052800012F4406F0DD1CA6894040AD45A6D22F406
:1052900080725A655A6DD10403D45A6D42F00102EE
:1052A0005A651846FCF76EFF10BDD2060AD4DB6CB7
:1052B000BDE81040DB6C18479007E7D01846FCF7B4
:1052C00061FFF1E71846FDF701F810BD806B08B5E6
:1052D000436D43F040034365836D43F004038365EE
:1052E000FCF7F4FF08BD00BFF0B5002283B00192C7
:1052F00090F85020012A00F01C81034601201A6812
:1053000083F850009468640700F18A800C68C4F345
:105310001305002D40F08F80C4F38464A0404D68D5
:105320004FF01F0ED6694FEA951C30430CF00C0C61
:10533000D06105F01F0002F1300584400EFA00FE36
:105340005CF8050020EA0E0004434CF80540906824
:1053500040076ED4956815F0080547D10C68072002
:1053600002F11406B94F4FEAD45CC4F304540CF0B4
:10537000040C00FA04FE886800FA04F45CF80600E5
:1053800020EA0E0020434CF80600386800F0704018
:10539000B0F1805F00F0C580D068D668C70600F124
:1053A000E880C6F382064869760000FA06F60F69BF
:1053B000042F00F0C18002F16004086854F827C08F
:1053C00000F0F8400CF0004C40EA0C00304344F888
:1053D0002700487E0E69012854F8260008BF4FF0C8
:1053E000004520F00040054344F826509068C4076B
:1053F00014D4CE68086806F01807954CD2F8C0504F
:10540000FC40C0F31307044025EA07052C43C2F80B
:10541000C040904CA64246D0002816DB002003E096
:105420005A6D42F020025A65002283F8502003B0E2
:10543000F0BD9068DAE794FAA4F5B5FA85F5C4F3FF
:10544000846405F01F05A84069E783498A4200F09B
:10545000B68001F580718A4200F0B1807F4D804CAA
:10546000A968A46801F0E076E44304F00104002C8C
:1054700000F0B4807B4CA04200F0FC807A4CA0424B
:1054800000F01A81794CA042C8D14902C6D47449AF
:105490008A42C3D1AA68002022F0E072324342F46B
:1054A0008002AA60C0E7002F6AD090FAA0F4B4FA94
:1054B00084F4013404F01F04092C00F2A48090FA53
:1054C000A0F4B4FA84F490FAA0F5B5FA85F50134A5
:1054D00001260135A40605F01F0504F0F84406FA7C
:1054E00005F52C4390FAA0F0B0FA80F0304400F0BB
:1054F0001F0000EB400000052043C60D02F114051B
:10550000C0F30450072406F0040604FA00F77459A7
:1055100024EA07048F6807FA00F0204370510868F6
:105520007AE7D6684869C6F38206760000FA06F67E
:105530003DE7022003B0F0BD106E0C6800F0F840AB
:10554000A506B0EB846F30D0506E00F0F840854275
:1055500026D0906E00F0F84085422BD0D06E00F03F
:10556000F84085427FF442AFD06E20F00040D06614
:105570003CE77608486906F0080600FA06F616E7E2
:10558000800E441C04F01F06092E2DD8A40601200D
:1055900004F0F844B040044306EB46000005ABE7D6
:1055A000506E20F000405066D3E7106E20F00040AF
:1055B0001066C9E7906E20F000409066CEE7264C5A
:1055C0002B4D04F58074A96854F8F86CA468344332
:1055D00001F0E076E44304F0010448E75A6D01204D
:1055E00042F020025A651FE706EB4600A50601249B
:1055F0001E3805F0F84504FA06F60005354340F07C
:105600000070284379E790FAA0F5B5FA85F590FA8D
:10561000A0F4B4FA84F4013501260134AD0604F097
:105620001F0405F0F84506FA04F4254390FAA0F4A7
:10563000B4FA84F4344404F01F0404EB4404A4F1E9
:105640001E00000540F00070DBE700BF0010005CAA
:10565000FFFF0F000000FF470020024000630258D8
:1056600000600258000084CB000052C70000B8CF91
:105670000023024008023FF5D1AE17498A427FF469
:10568000CDAE164AA9681268154821F0E07192095A
:105690003143A0FB020241F400019209A9605200CB
:1056A0000192019A002A3FF4B9AE019A013A01929F
:1056B000019A002AF9D1B1E611F080707FF4AEAE04
:1056C00005498A427FF4AAAEAA6822F0E07232430A
:1056D00042F08072AA60A7E6006002583C020024F3
:1056E000632D3E0503689A68D20701D500207047F4
:1056F0009968214A114270B5044608D0636D0120B3
:1057000043F010036365A36D0343A36570BD9968FF
:105710001A4A0A4042F001029A60FFF77BFD2368B3
:10572000174A054693421ED002F5807293421AD062
:10573000144A9268114E0AE09A68324042F001021F
:105740009A60FFF767FD401B0228D7D823681A68C4
:10575000D2070FD49A68D107EED5FFF75BFD401B47
:105760000228F3D9CAE7084A9268D006E2D0074A6D
:105770009342DFD1002070BD3F000080C0FFFF7F5B
:105780000020024000630258002302400021024032
:105790002DE9F0413A4D044600680F461646A842EE
:1057A00019D0384B984216D0374DAB688068420705
:1057B00016D494F85020012A12D003F01F080122B9
:1057C000B8F1090F84F850200DD90023012084F886
:1057D0005030BDE8F0812D4DAB6880684207E8D5B8
:1057E0000220BDE8F08140F2212323FA08F3DB43D5
:1057F00013EA0205E9D12046FFF774FF002839D1EA
:10580000626D234B2168134043F480736365B8F1E4
:10581000000F02D01B4B994203D0636D23F4801319
:105820006365636D13F4805328D0A36D23F00603E2
:10583000A365E06C3346174D3A464031C563164DBB
:105840000564164DC5641C2541F8405C002584F8AC
:10585000505051F83C5C45F0100541F83C5C00F0BC
:1058600059FE22680E4B91680B4043F0040393608D
:10587000BDE8F08184F85050BDE8F081A365D8E719
:105880000020024000210240006302580023024031
:10589000FEF0FFFF6152000855520008CD5200088B
:1058A000C0FFFF7F38B503689A68910702D59B68EF
:1058B000002038BD9A68D20723D59A68044602F0C2
:1058C0000D02012A08D0636D012043F010036365C7
:1058D000A36D0343A36538BD986803210A4A0240BB
:1058E00042F002029A601960FFF794FC054604E05A
:1058F000FFF790FC401B0228E5D823689B68DB0774
:10590000F6D4002038BD00BFC0FFFF7F38B5574A2E
:1059100004460368934226D002F58072934222D057
:10592000534B9B6813F4403F22D004F0ADF96368F9
:105930000546B3F5003F00F08880B3F5403F70D0D6
:10594000B3F5803F00F08180FFF77CFC41F2030358
:1059500098422DD8474B9D425DD92268936843F405
:105960008073936038BD444B9B6813F4403FDCD197
:105970004FF4002005F054FA63680546B3F5101F94
:105980006DD008D8B3F5E01F55D01AD9B3F5001F74
:10599000DAD14509D8E7B3F5201F4AD0B3F5301F57
:1059A000D2D1FFF74FFC41F20303984233D92D0ABD
:1059B000324B9D421DD82268936823F44073936054
:1059C00038BDB3F5801F06D00AD9B3F5A01F02D0A9
:1059D000B3F5C01FB8D19B0C5B00B5FBF3F5B3E783
:1059E000B3F5002FF7D023F40022B2F5802FF2D0C8
:1059F000AAE7234B234A2B4493421ED9224B234A26
:105A00002B449342226893682BD823F4407343F4C9
:105A10000073936038BD2268936823F480739360A9
:105A200038BD8508FFF70EFC41F203039842BFD84A
:105A300090E7C50988E7050986E72268936823F49B
:105A4000407343F48073936038BD1B0CB5FBF3F5D2
:105A5000FFF7F8FB41F203039842A9D87AE78509DA
:105A600072E743F44073936038BD00BF00200240EA
:105A700000630258002D310100230240105E5F00D8
:105A8000EFA1A0FF0F5E5F00DF4341FF1FBCBE0020
:105A900030B5002383B00193002800F0D080456D1D
:105AA0000446002D00F0BA80226893689B0003D55D
:105AB0009168714B0B4093609368DD0015D46F4B78
:105AC00090686F491B6801406E489B0941F0805106
:105AD000A0FB030391609B090193019B2BB1019BE8
