:020000040800F2
:10000000000002205909000855090008D97B0008A2
:1000100055090008550900085509000800000000AE
:10002000000000000000000000000000550900086A
:100030005509000800000000550900085D7B000814
:100040005509000855090008550900085509000818
:100050005509000855090008550900085509000808
:10006000550900085509000855090008E957000816
:10007000F55700086D420008015800080D580008A7
:10008000DD740008194D00085509000855090008DD
:1000900055090008550900085509000855090008C8
:1000A00055090008550900085509000855090008B8
:1000B0008935010895350108A13501084D4D000825
:1000C00055090008594D000855090008C16300088A
:1000D000CD630008117300083D73000871730008B8
:1000E00055090008550900080000000055090008DE
:1000F0005509000855090008550900085509000868
:100100005509000855090008AD350108D9630008F4
:10011000A5730008D973000839450008550900087F
:10012000214500082D450008FD63000831640008E2
:1001300011750008550900085509000855090008FF
:1001400000000000000000000000000000000000AF
:100150005509000855090008550900080D740008E4
:10016000654D0008550900086D7B0008917B00086B
:1001700055090008B57B0008550900085509000815
:1001800055090008550900084174000875740008F5
:10019000E5630008F16300085509000855090008E7
:1001A00055090008550900085509000855090008B7
:1001B00009550008550900085509000855090008A7
:1001C0005509000855090008550900085509000897
:1001D0005509000855090008550900085509000887
:1001E0005509000855090008550900085509000877
:1001F0005509000855090008550900085509000867
:100200005509000855090008550900085509000856
:100210005509000855090008550900085509000846
:10022000550900085509000855090008000000009C
:10023000550900085509000800000000550900088C
:100240005509000855090008550900085509000816
:100250005509000855090008550900085509000806
:1002600055090008550900085509000855090008F6
:100270005509000855090008A9740008000000008D
:10028000550900085509000855090008000000003C
:08029000000000005509000800
:1002980010B5054C237833B9044B13B10448AFF3B8
:1002A80000800123237010BDE80300240000000033
:1002B8003854010808B5034B1BB103490348AFF391
:1002C800008008BD00000000EC0300243854010839
:1002D80081F0004102E000BF83F0004330B54FEAEF
:1002E80041044FEA430594EA050F08BF90EA020F5C
:1002F8001FBF54EA000C55EA020C7FEA645C7FEAEF
:10030800655C00F0E2804FEA5454D4EB5555B8BF11
:100318006D420CDD2C4480EA020281EA030382EA82
:10032800000083EA010180EA020281EA0303362D14
:1003380088BF30BD11F0004F4FEA01314FF4801CE7
:100348004CEA113102D0404261EB410113F0004FF9
:100358004FEA03334CEA133302D0524263EB4303B0
:1003680094EA050F00F0A780A4F10104D5F1200E4E
:100378000DDB02FA0EFC22FA05F2801841F10001A9
:1003880003FA0EF2801843FA05F359410EE0A5F17D
:1003980020050EF1200E012A03FA0EFC28BF4CF0AE
:1003A800020C43FA05F3C01851EBE37101F0004564
:1003B80007D54FF0000EDCF1000C7EEB00006EEB71
:1003C8000101B1F5801F1BD3B1F5001F0CD34908FB
:1003D8005FEA30004FEA3C0C04F101044FEA445252
:1003E80012F5800F80F09A80BCF1004F08BF5FEAD9
:1003F800500C50F1000041EB045141EA050130BDB9
:100408005FEA4C0C404141EB0101013C28BFB1F5CA
:10041800801FE9D291F0000F04BF01460020B1FA15
:1004280081F308BF2033A3F10B03B3F120020CDAE8
:100438000C3208DD02F1140CC2F10C0201FA0CF0C6
:1004480021FA02F10CE002F11402D8BFC2F1200C2B
:1004580001FA02F120FA0CFCDCBF41EA0C019040E1
:10046800E41AA2BF01EB0451294330BD6FEA04042A
:100478001F3C1CDA0C340EDC04F11404C4F1200215
:1004880020FA04F001FA02F340EA030021FA04F327
:1004980045EA030130BDC4F10C04C4F1200220FA7E
:1004A80002F001FA04F340EA0300294630BD21FABC
:1004B80004F0294630BD94F0000F83F4801306BF82
:1004C80081F480110134013D4EE77FEA645C18BF76
:1004D8007FEA655C29D094EA050F08BF90EA020F0D
:1004E80005D054EA000C04BF1946104630BD91EA05
:1004F800030F1EBF0021002030BD5FEA545C05D108
:100508004000494128BF41F0004130BD14F5800446
:100518003CBF01F5801130BD01F0004545F0FE41BA
:1005280041F470014FF0000030BD7FEA645C1ABFEF
:10053800194610467FEA655C1CBF0B46024650EA26
:10054800013406BF52EA033591EA030F41F4002152
:1005580030BD00BF90F0000F04BF0021704730B5D8
:100568004FF4806404F132044FF000054FF00001AD
:1005780050E700BF90F0000F04BF0021704730B56E
:100588004FF4806404F1320410F0004548BF404243
:100598004FF000013EE700BF42004FEAE2014FEA98
:1005A80031014FEA02701FBF12F07F4393F07F4F73
:1005B80081F06051704732F07F4208BF704793F076
:1005C8007F4F04BF41F40021704730B54FF4607489
:1005D80001F0004521F000411CE700BF50EA01028C
:1005E80008BF704730B54FF000050AE050EA010235
:1005F80008BF704730B511F0004502D5404261EBA5
:1006080041014FF4806404F132045FEA915C3FF4E5
:10061800D8AE4FF003025FEADC0C18BF03325FEA82
:10062800DC0C18BF033202EBDC02C2F1200300FA33
:1006380003FC20FA02F001FA03FE40EA0E0021FA58
:1006480002F11444BDE600BF53B94AB9002908BFF6
:1006580000281CBF4FF0FF314FF0FF3000F074B995
:10066800ADF1080C6DE904CE00F006F8DDF804E001
:10067800DDE9022304B070472DE9F047089D0446E0
:100688008E46002B4DD18A42944669D9B2FA82F23D
:1006980052B101FA02F3C2F1200120FA01F10CFA79
:1006A80002FC41EA030E94404FEA1C48210CBEFBB1
:1006B800F8F61FFA8CF708FB16E341EA034306FB3A
:1006C80007F199420AD91CEB030306F1FF3080F0C9
:1006D8001F81994240F21C81023E63445B1AA4B216
:1006E800B3FBF8F008FB103344EA034400FB07F7B8
:1006F800A7420AD91CEB040400F1FF3380F00A81F9
:10070800A74240F207816444023840EA0640E41BED
:1007180000261DB1D4400023C5E900433146BDE899
:10072800F0878B4209D9002D00F0EF800026C5E93B
:10073800000130463146BDE8F087B3FA83F6002E53
:100748004AD18B4202D3824200F2F980841A61EBCB
:10075800030301209E46002DE0D0C5E9004EDDE7E9
:1007680002B9FFDEB2FA82F2002A40F09280A1EBD1
:100778000C014FEA1C471FFA8CFE0126200CB1FB26
:10078800F7F307FB131140EA01410EFB03F088421F
:1007980008D91CEB010103F1FF3802D2884200F2AC
:1007A800CB804346091AA4B2B1FBF7F007FB10113E
:1007B80044EA01440EFB00FEA64508D91CEB0404DC
:1007C80000F1FF3102D2A64500F2BB800846A4EB37
:1007D8000E0440EA03409CE7C6F12007B34022FA22
:1007E80007FC4CEA030C20FA07F401FA06F31C4351
:1007F800F9404FEA1C4900FA06F3B1FBF9F8200C5E
:100808001FFA8CFE09FB181140EA014108FB0EF0A3
:10081800884202FA06F20BD91CEB010108F1FF3AF3
:1008280080F08880884240F28580A8F102086144FF
:10083800091AA4B2B1FBF9F009FB101144EA01410D
:1008480000FB0EFE8E4508D91CEB010100F1FF34B8
:100858006CD28E456AD90238614440EA0840A0FB50
:100868000294A1EB0E01A142C846A64656D353D026
:100878005DB1B3EB080261EB0E0101FA07F722FA4A
:1008880006F3F1401F43C5E9007100263146BDE873
:10089800F087C2F12003D8400CFA02FC21FA03F3D6
:1008A800914001434FEA1C471FFA8CFEB3FBF7F057
:1008B80007FB10360B0C43EA064300FB0EF69E427C
:1008C80004FA02F408D91CEB030300F1FF382FD215
:1008D8009E422DD9023863449B1B89B2B3FBF7F6BD
:1008E80007FB163341EA034106FB0EF38B4208D996
:1008F8001CEB010106F1FF3816D28B4214D9023ED7
:100908006144C91A46EA004638E72E46284605E7F4
:100918000646E3E61846F8E64B45A9D2B9EB0208C5
:1009280064EB0C0E0138A3E74646EAE7204694E755
:100938004046D1E7D0467BE7023B614432E7304688
:1009480009E76444023842E7704700BFFEE700BF8A
:100958000B480C4A904203D0121A0B4913F0EEFDD3
:100968000A480B4A904203D0121A002113F0F4FDF2
:1009780007F088FB13F0B6FD01F020FAFEE700BF90
:1009880000000024E803002468540108E803002458
:10099800ACC90024704700BF704700BF704700BF54
:1009A800704700BF402070478020704749424FF48D
:1009B80080621430C9B213F0CFBD00BFF2B12DE987
:1009C800F04115464FF000080E1F01F10C040C4FC2
:1009D8000C4812F0CBFF0A4812F0BAFE31464FEA33
:1009E800880C51F8043F386B6344A1421860F8D171
:1009F80008F101084545EBD1BDE8F081704700BF1B
:100A080004040024E89A002410B5044640F2144176
:100A180013F071F9204610BD1BB913690BB1D268E8
:100A280018477047B9B30144F0B51546A5B002F1AF
:100A38002407441E4E1E01E0A6422AD014F8011FC6
:100A48006A46384603F0A8F80028F5D0D5F8C4C09F
:100A580090226946D5E93203C31A00F1010E00EB72
:100A6800C00048BF63440CF1FF3C9C45E4D0D5F876
:100A7800C030C5F8C8E003EB001013F05FFDD5E9FE
:100A880031239342A3EB020328BFC5F8C830A6421E
:100A9800D4D125B0F0BD70472DE9F041B02482B023
:100AA80000F1080600F1100500F114080027284697
:100AB8008DF807400134394603F0D6FF642301223C
:100AC8000DF107013046E4B205F0DCFE3946284650
:100AD8008DF8077003F0C8FF012264230DF10701A8
:100AE800304605F0CFFE1023394628468DF80730EA
:100AF80003F0BAFF642301220DF10701304605F027
:100B0800C1FE0121284603F0AFFF8022414664233D
:100B18003046904405F0B6FEB82CC7D102B0BDE807
:100B2800F08100BF2DE9F04F89B008AC9DF84870FE
:100B3800019104E90C000B78002B00F0AB801A46F9
:100B48009DF818809DF8193006464546904603934F
:100B5800079B0593A8F12004E3B25E2B00F29E8068
:100B680033685E4ADB68934240F09B808020B388FC
:100B78002B44834200F392803368594A9B6893421E
:100B880040F092804020F188039A02918B188342AA
:100B980000F38480002A00F0918002FB04F46FF0D7
:100BA8000049059BA1441444B6F804B003EB490975
:100BB800023BCDF8108003EB44030C469A4639F803
:100BC80002CFA5B304F007034FF0010EE20859461F
:100BD8000EFA03FE0BF114034FFA8EFE03EBC2125A
:100BE80000236FEA0E0832440DE07F2906D83F2C17
:100BF80004D8107897B14EEA000010700133013222
:100C08000131AB4213D00CFA03F00004EDD47F2974
:100C1800F4D83F2CF2D81078002FECD0013308EA32
:100C2800000001320131AB4202F8010CEBD1D14591
:100C380004F10104C3D1DDF8108032680BEB050420
:100C48002649D368A4B28B4234D18020844204D38D
:100C5800D36822498B423AD17F249368204AB480D2
:100C6800934224D14020029B834206D333681C4A16
:100C78009B68934225D13F230293029BF380019BFB
:100C88001878404507D113F8018F0193B8F1000F88
:100C98007FF460AF002009B0BDE8F08F4FF0000886
:100CA800EDE73046984762E7304698476BE73046AD
:100CB8009847D8E7304698473268C7E7B6F804B08F
:100CC800BBE730469847013883B20293D5E73046F0
:100CD80098470138326884B2BFE700BFB1090008FD
:100CE800AD0900082DE9F04F85B0A1F1200504AC4D
:100CF8009DF83870009104E90C00EBB25E2B00F20D
:100D08009580036880465D4ADB689DF808409342F9
:100D18009DF8096040F094808020B8F8043023449E
:100D2800834200F38380D8F80030554A9B68934289
:100D380040F088804020B8F8062093190192834239
:100D480074DC002E00F0898006FB05F56FF000408A
:100D5800039B964628442E44B8F804A003EB4000B1
:100D6800023B03EB460B30F8026FBCB30EF00703EF
:100D78004FF0010C4FEADE0251460CFA03FC0AF16F
:100D880014034FFA8CFC03EBC21200236FEA0C0920
:100D980042440EE07F2907D8BEF13F0F04D81578EA
:100DA8009FB14CEA050515700133013201319C42AF
:100DB80014D006FA03F52D04ECD47F29F4D8BEF13B
:100DC8003F0FF1D81578002FEBD0013309EA05055C
:100DD800013201319C4202F8015CEAD158450EF11A
:100DE800010EC0D1D8F8003054442449DA68A4B2BE
:100DF8008A422DD1802084421CD29B68204AA8F8C0
:100E08000440934221D14020019B834207D3D8F864
:100E180000301B4A9B68934229D13F230193DDE9A7
:100E28000003A8F8063005B0BDE8F08F002005B033
:100E3800BDE8F08FDA6811498A4211D17F24DCE7D6
:100E480098476AE74046984775E740469847DBE782
:100E580040469047D8F80030CDE7B8F804A0C1E77D
:100E6800404690470138D8F8003084B2C5E740467C
:100E78009847013883B20193D1E700BFB109000850
:100E8800AD0900082DE9F04F89B01D468846069047
:100E98001046129C10F8013B13999DF8506000927F
:100EA80033B1002210F8013B0132002BFAD193B282
:100EB8002A78687812FB03F302B21BB223EAE373C1
:100EC800082900F2A981DFE811F0020114012001CC
:100ED800340142015001670171010900A188278886
:100EE8000F44B4F90610FF1A0029BFB2C0F2FF8000
:100EF800B4F802C006980CEB6104C280A4EB52025D
:100F08008380078094B24480A64AD8F800301146FE
:100F18000192DA688A4240F08D818020B84205D873
:100F2800DA6801998A4240F09A817F279E4A9B6835
:100F3800A8F804709342039240F089814020A042AF
:100F480007D8D8F80030039A9B68934240F0828112
:100F58003F24009BA8F8064093F800B06B782C78E3
:100F680004936B680793BBF1000F00F0AC80ABF102
:100F78002005EBB25E2B00F22E81D8F80030019AE2
:100F8800DB68934240F02A818020B8F8043023447B
:100F98009842C0F22081D8F80030039A9B689342A7
:100FA80040F01F814020B8F80610049A02918B186F
:100FB8009842C0F21081002A00F01E8102FB05F55C
:100FC8006FF0004E079BAE441544CDF814B003EB08
:100FD8004E0E023BB8F804A003EB45030D469B46B2
:100FE8003EF8027FA4B305F007034FF0010CEA08AE
:100FF80051460CFA03FC0AF114034FFA8CFC03EB7C
:10100800C21200236FEA0C0942440DE07F2906D87A
:101018003F2D04D8107896B14CEA000010700133C7
:10102800013201319C4213D007FA03F00004EDD4D9
:101038007F29F4D83F2DF2D81078002EECD0013358
:1010480009EA0000013201319C4202F8010CEBD19F
:10105800F34505F10105C3D1DDF814B0D8F8002037
:101068000AEB04050199D368ADB28B4240F0BF800A
:101078008020854205D3D36801998B4240F0C58012
:101088007F259368039AA8F80450934240F0AC80F7
:101098004020029B834208D3D8F80030039A9B680B
:1010A800934240F0AC803F230293029BA8F806309D
:1010B800009A13785B4506D112F801BF0092BBF184
:1010C800000F7FF454AF069809B0BDE8F08FB4F96B
:1010D800041027880029B8BF013107EB6107B4F96C
:1010E8000610A7EB63070029BFB2BFF601AF0131B5
:1010F800FEE6B4F900700699B4F902400F80BFB259
:101108004C80A4B28B80CA80FEE6B4F9041027880C
:101118000029B4F90240B8BF013107EB610706990D
:101128008B80A7EB63034C80A4B29FB2CA800F8068
:10113800EAE6A1882788B4F902400F4406998B8013
:10114800FB1A4C80A4B29FB2CA800F80DCE6E78805
:1011580061883944B4F90070081A069984B20F807E
:101168008B80BFB2CA804C80CEE6B4F904102788C1
:101178000029B8BF013107EB6107A7EB6307B4F893
:1011880002C0BFB2E488069964448B80201ACA80E2
:101198000F8084B24C80B7E62788A1880F44FF1AD5
:1011A800EDE700BFB1090008AD090008B4F9061061
:1011B800B4F802C00029B4F900700698B8BF01312C
:1011C800C2800CEB610407808380BFB2A4EB52029B
:1011D80094B2448098E64FF0000B69E74046984780
:1011E800D3E640469847DEE64046984751E74046F2
:1011F8009847D8F800203CE7B8F804A02EE7404606
:101208009847013883B202934FE740469847013820
:10121800D8F8002085B234E7D8F800300024069AC0
:101228001249148054809480D480DA6801918A42EB
:1012380005D0274640469047D8F800306EE69B68B0
:101248000B4AA8F80440934203923FF482AE40460A
:10125800984774E640469847013884B279E6404694
:1012680090470138D8F8003087B25FE6B109000826
:10127800AD0900087F291ED83F2A1CD86BB1D308B6
:101288004FF0010C02F0070201EBC3130CFA02F253
:10129800C1180B7D1A430A757047D3084FF0010C2B
:1012A80002F0070201EBC3130CFA02FCC1180A7D15
:1012B80022EA0C020A7570472DE9F04F83B05C1AD8
:1012C8000C9E002C9DF83490A6EB0208B8BF64422F
:1012D800B8F1000FB8BFC8F100088B428CBF4FF0BF
:1012E800010A4FF0FF3A9642A4EB080C51D84FF090
:1012F800FF357F2B019512D83F2E10D8F50806F040
:10130800070E012703EBC5150544B9F1000F47D0B7
:1013180007FA0EF795F814E047EA0E072F7596427C
:1013280001D18B4229D0C8F100077F2914D83F2A60
:1013380012D8D50802F0070B4FF0010E01EBC515C6
:101348000544B9F1000F1BD00EFA0BFE95F814B046
:101358004EEA0B0E85F814E0B7EB4C0F4FEA4C053C
:1013680002DAACEB080C5144AC4202DD019DA44406
:101378002A449942D9D19642D7D103B0BDE8F08F1B
:101388000EFA0BFB95F814E02EEA0B0E85F814E024
:10139800E2E701257F2B0195C5D83F2EAED9C2E7DC
:1013A80007FA0EFE2F7D964227EA0E072F75B8D052
:1013B800B9E700BF000000002DE9F04F2DED068BC6
:1013C80083B01F4680460D469DF85030164601935F
:1013D800139B002BC0F22182129A134406EE103A96
:1013E800DDED127AB8EEC66B9FEDCD4BB8EEE77B1C
:1013F8009FEDCD5B27EE047B26EE046B87EE050B95
:1014080086EE05ABF7EEC08BB0EE680A12F08CFCE6
:1014180007EE907AB7EECAABF8EE679AB0EE408A5C
:10142800B0EE680A12F044FF60EE698AB0EE4A0A2C
:1014380012F07AFCB0EE409AB0EE4A0A12F038FF89
:1014480020EE690A29EE888A29EE899A70EE687A70
:10145800F0EE006A39EE487A67EEA77AE7EE077A87
:10146800F4EEE67AF1EE10FA06D5139BB42B40F3AE
:1014780096804FF0010901E04FF0000901247842FD
:101488004FF0000C0095E31B214627462246A34057
:10149800B9F1000F6AD1424206EE90CACCF10001C0
:1014A80007EE102AB8EEE66A07EE901A06EE900AE2
:1014B800B8EEC77A139A66EE084AF8EEE77AB42AC5
:1014C80027EE284AF8EEE66A67EE885A74EEC43AC0
:1014D80026EEA85A26EE096A66EE806A67EE897AD1
:1014E80027EE007AF5EEC03A40F3F280F1EE10FAFA
:1014F80000F17F8176EE473A74EEC54AF5EEC03AC0
:10150800F1EE10FAF5EEC04ACCBF01220022F1EE4E
:1015180010FA00F1778136EE666A35EEC55AB5EEF7
:10152800C06AF1EE10FAB5EEC05ACCBF0121002115
:10153800F1EE10FA00F16F8177EEE66AF5EEC06A17
:10154800F1EE10FACCBF0127002775EEC45AF5EE6C
:10155800C05AF1EE10FA00F1478177EEC77AF5EE3E
:10156800C07AF1EE10FACCBF01240024002A40F022
:101578008A80002964D1BFB9C4BB9C4558DB0CF1F3
:10158800010C03EB4C0E1CEB000F0EF1010E00F0EA
:10159800C08098424FDB734600287FF779AF03B0CD
:1015A800BDEC068BBDE8F08F009DA6EB0C0E00EBA2
:1015B800050ABAF17F0FDFD8BEF13F0FDCD84FEA3A
:1015C800DE0B019D0AEBCB1A002D00F0B1800EF066
:1015D800070BC2444FF0010E0EFA0BFE9AF814B036
:1015E8004EEA0B0E8AF814E0002CC6D0009DA6EB3C
:1015F8000C0EA5EB000ABAF17F0FBED8BEF13F0F63
:10160800BBD84FEADE0B019D0AEBCB1A002D00F088
:10161800AE800EF0070BC2444FF0010E9C450EFA47
:101628000BFE9AF814B04EEA0B0E8AF814E0A6DA0C
:1016380098429E46AFDA01300EEB40030133ABE728
:10164800009D0CEB060E00EB050ABAF17F0F92D84D
:10165800BEF13F0F8FD84FEADE0B019D0AEBCB1A84
:10166800002D73D00EF0070BC2444FF0010E0EFA96
:101678000BFE9AF814B04EEA0B0E8AF814E0002F0D
:101688003FF47AAF90E7009D0CEB060EA5EB000A3D
:10169800BAF17F0F3FF66DAFBEF13F0F3FF669AF6E
:1016A8004FEADE0B019D0AEBCB1A002D6DD00EF030
:1016B800070BC2444FF0010E0EFA0BFE9AF814B055
:1016C8004EEA0B0E8AF814E000293FF454AFB7E74E
:1016D800F1EE10FA7ED44A4674EEC54AF5EEC04AD9
:1016E800F1EE10FA6CD4002135EEC55AB5EEC05AA9
:1016F800F1EE10FA5AD4002775EEC45AF5EEC05A26
:10170800F1EE10FA3FF529AF0024002A3FF431AF7B
:10171800B9E798428FDB00233BE700BFAFF30080B7
:101728007A008BFCFA210940000000000080664026
:10173800C2444FF0010B0EF0070E0BFA0EFE9AF89A
:1017480014B02BEA0E0E8AF814E015E7C2444FF0E5
:10175800010B0EF0070E0BFA0EFE9AF814B02BEAE6
:101768000E0E8AF814E0002F3FF406AF1CE7C244BF
:101778004FF0010B0EF0070E0BFA0EFE9AF814B09C
:101788002BEA0E0E8AF814E0F7E6C2444FF0010B7C
:101798000EF0070E0BFA0EFE9AF814B02BEA0E0E96
:1017A8008AF814E000293FF4E6AE49E777EEE66AE6
:1017B800F5EEC06AF1EE10FACCBF012700279BE7CF
:1017C80036EE666AB5EEC06AF1EE10FACCBF0121BA
:1017D800002189E776EE473AF5EEC03AF1EE10FAC5
:1017E800CCBF0122002277E70124002A3FF4C1AED2
:1017F80049E774EEC54A0122F5EEC04AF1EE10FA47
:101808007FF589AE35EEC55A0121B5EEC05AF1EE25
:1018180010FA7FF591AE012797E6DDE9122313440C
:1018280006EE102A1293139B5B421393D8E500BF70
:101838002DE9F04F87B09DF84850109C2E46019531
:101848009DF844509EB399422ED89946A24228D872
:101858007F29164694BF0023012308E09CF81480D2
:101868004EEA080E8CF814E00136B44219D33F2E24
:10187800FAD8002BF8D14FEAD60C06F0070E4FF035
:10188800010801EBCC1C08FA0EFE8444002DE5D1BA
:101898009CF814B001362BEA0E0AB4428CF814A056
:1018A800E5D201318945D1D207B0BDE8F08FA3EB6D
:1018B8000108B8F1000FB8BFC8F100089942C0F09C
:1018C8004E817F2B4FF0FF3A94BF002601263F2A16
:1018D800009694BF002701270297A6B99FB9D6089A
:1018E80002F0070C012703EBC6160644002D00F092
:1018F800948107FA0CF796F814C047EA0C07377575
:10190800002602960096994200F097814646944632
:101918008E46BEF17F0F16D8BCF13F0F13D84FEAA1
:10192800DC070CF0070B4FF001090EEBC717074453
:10193800002D00F0398109FA0BF997F814B049EA3B
:101948000B0987F81490770018BFD644B84502DD14
:1019580046440CF1FF3C7345DBD16245D9D10026E2
:101968000496A4EB0209009FB9F1000FB8BFC9F1B2
:1019780000093F2C94BF00260126A242C9F10008A5
:101988000396C0F02381002F40F05081002E40F0D4
:101998004D814FF0FF360096E60803EBC616064465
:1019A800002D00F01E814FF0010C04F007070CFA1F
:1019B80007F796F814C047EA0C0737750026039610
:1019C800A24200F03D81C44616461F4605927F2F6D
:1019D80015D83F2E13D84FEAD60E06F0070B4FF056
:1019E800010A07EBCE1E8644002D00F0E6800AFAB5
:1019F8000BFA9EF814B04AEA0B0A8EF814A0B8EB5A
:101A08004C0F4FEA4C0E02DAACEB090C013FBEF169
:101A1800000F01D0009A1644BB42D8D1B442D6D1A7
:101A2800059AA1EB030EBEF1000FB8BFCEF1000E70
:101A38007F2994BF4FF0000A4FF0010A99428CBFEA
:101A48004FF001094FF0FF39BAF1000F13D1039E8F
:101A58008EB9E60801EBC6160644002D00F0D380C7
:101A68004FF0010C04F007070CFA07F796F814C0BA
:101A780047EA0C073775049E26BB774626467F2B18
:101A880014D83F2E12D84FEAD60C06F0070B4FF0A9
:101A9800010803EBCC1C8444002D73D008FA0BF822
:101AA8009CF814B048EA0B088CF814805FEA470CDD
:101AB80018BF4B44E64501DD7744013E9942DED12B
:101AC800B442DCD1A2EB040EBEF1000FB8BFCEF1D8
:101AD800000EA2428CBF4FF001084FF0FF38CEF144
:101AE800000CBAF1000F0ED1029B63B9D30802F0C3
:101AF8000707012601EBC3130344002D7CD0BE4029
:101B08001F7D3E431E75019B002B7FF4CDAE6646BC
:101B18000B467F2B12D83F2C10D8E70804F0070A91
:101B28004FF0010903EBC7170744A5B309FA0AF9EF
:101B380097F814A049EA0A0987F81490BCEB460FF5
:101B48004FEA460702DAA6EB0E06013B07B144440A
:101B58009942DED1A242DCD107B0BDE8F08F3F2A1E
:101B68004FF0010A94BF002601267F2B029694BFEE
:101B7800002701270097002E7FF4C8AE002F3FF4FE
:101B8800AEAEC3E608FA0BFB9CF8148028EA0B08F3
:101B98008CF814808AE709FA0AFA97F8149029EA67
:101BA8000A0987F81490C9E709FA0BFB97F814900B
:101BB80029EA0B0987F81490C5E60AFA0BFB9EF888
:101BC80014A02AEA0B0A8EF814A018E797BB8EBB5C
:101BD80001260096E60803EBC6160644002D7FF49E
:101BE800E2AE012704F0070C039507FA0CFC377DD9
:101BF80027EA0C073775E3E606FA07F71E7D26EA9B
:101C080007061E757FE7012704F0070C07FA0CFC8E
:101C1800377D27EA0C0737752DE707FA0CFC377D67
:101C2800029527EA0C07009537756CE64FF0FF36EA
:101C38000096C5E601260096C5E60126049690E6BC
:101C480001260196EDE600BF84B038B504AC84E8FF
:101C58000F009DF810309DF81820012B9DF81940B1
:101C680009D0032B03D1012A3FD0022A2FD0BDE887
:101C7800384004B07047002CF9D007EE902A9FED49
:101C8800287AF2EE080A274DF8EE677AB0EE000AD5
:101C980077EEC77AC7EEA00A12F076F9DFED227A5E
:101CA800284620EE270A85ED020A12F019F807EEF9
:101CB800904ADFED1E6A85ED070AF8EEE77A87EEAF
:101CC800A67A85ED017ABDE8384004B0704707EE82
:101CD800904A9FED160A1648F8EE677ABDE8384034
:101CE80087EE800A04B011F0FBBD07EE904A9FED25
:101CF8000C7AF2EE080AF8EE677AB0EE000A77EE90
:101D0800C77AC7EEA00A12F03FF9DFED077A084854
:101D180020EE270ABDE8384004B011F07DBD00BFB1
:101D280000008A42E89A00240000DC430000FE42DA
:101D3800040400242DE9F041B02482B0054600F1E6
:101D4800080600F10C08002730468DF807400134DA
:101D5800394602F089FE642301220DF10701284665
:101D6800E4B204F08FFD394630468DF8077002F072
:101D78007BFE012264230DF10701284604F082FD51
:101D88001023394630468DF8073002F06DFE642383
:101D980001220DF10701284604F074FD01213046A7
:101DA80002F062FE8022414664232846904404F0F3
:101DB80069FDB82CC7D102B0BDE8F0812DE9F04724
:101DC800574D0021574C284605F5947A05F58C792E
:101DD800DFF87C812DED028BEEB000F053FB284636
:101DE80000F00CF9B7EE007AB0EE408A4FF07C5361
:101DF80000229FED4D0A20466360C7EE087AA26173
:101E0800E36026AE84ED048A84ED020AC4ED057A07
:101E180011F066FF40F20113F0EE407A4348B0EE4D
:101E2800480A23850623C4ED077A237011F06CFC59
:101E38003F4A22A8111F209011F06FFF0423209918
:101E48000020219301223B4B087100923A480CCBA9
:101E5800FEF768FE3948FFF76DFF14215046C5E9C3
:101E68004D9805F049FE364B5046CDF800A0D5E90F
:101E78004B1205F069FC284600F0C2F831492846A3
:101E880000F0BAF8304805F0E9FCB0B390224AA84F
:101E9800D5E978140B1B04EBC40E24D4002BF1D025
:101EA800A14224D0D5F8D811013401EB0E1112F05B
:101EB80045FBD5F8DC31C5F8E4414AA99C42A4EBBE
:101EC80003044FF09002304628BFC5F8E44112F0F1
:101ED80035FB2AA98022684612F030FB96E80F00ED
:101EE800FFF7B2FED2E7D5F8DC713B44D6E7902283
:101EF8000021304612F030FBEBE7144801F004FFF4
:101F080014211148C5E94D9805F0F6FD0C4BCDF8A4
:101F180000A00D48D5E94B1205F016FCB6E700BF46
:101F280050040024E89A00240000C8420404002455
:101F38006C46010874030024C8960024D096002437
:101F4800210A0008C5090008780500248C0500242A
:101F58002D0A000838B51F4C00254FF60B7304F501
:101F68008C70256065612562E563C4E93A35C4E98A
:101F78004035C4E93C55C4E9425501F0F9FD16491C
:101F880004F51043154AC4F8D01140F20F71C3F894
:101F980080522046A4F8D41104F5F471C4F82851ED
:101FA800C4F8D81140F20111C4F8DC110C49C3F887
:101FB80078120C49C4E9785511F098FE074A0A4985
:101FC8000A4811F093FE054A09490A48BDE8384015
:101FD80011F08CBE500400240080707F00000024A3
:101FE800784601089D090008A1090008E89A00241C
:101FF800A50900080404002400F0E8BA00F0EABAD1
:10200800183002F0C3B800BF30B59DB0054600F0E7
:10201800E9FA012847D0274900220123CDF82A10E0
:10202800CDE910230022244901230324ADF85420CC
:1020380002A80F9318931B930C94CDE9082140F242
:102048000451ADF828101D49CDE90D32CDE9123102
:10205800CDE916431A4B08A9CDE919221493002299
:102068000023CDE9022303F047FC12A903A803F0DB
:1020780043FC40F60163ADF80430019800F0F2FB30
:102088004FF07E5230214FF07C5C079205F114002E
:10209800049104A9039B029A0594CDF818C001F095
:1020A80073FC1DB030BD034A00231090CDF82A20E0
:1020B8001193B7E7040604030402040400010609A7
:1020C8000002030BF0B502220646002406F11807A9
:1020D80006F168052DED028B99B09FED228AADF8C7
:1020E800082006A8029901F02FFE4FF4407302223F
:1020F8000DF12A00ADF80C30039901F025FE40F2ED
:10210800024302220FA8ADF81030049901F01CFE1A
:102118004FF4E06302220DF14E00ADF8143005993A
:1021280001F012FE042306A938461A4601F020FEE3
:10213800E1B2384602F040F80146013430460191D8
:1021480000F04CFA2846F0EE480A002301220199D3
:10215800203501F099FC042CEAD119B0BDEC028BB2
:10216800F0BD00BF6F12033B2DE9F0430FF20C39AD
:10217800D9E900898FB0C04B49F2802401250C931E
:10218800002604440022069504F10807CDE90289D7
:1021980000F51048384604F10409A8F888320223EB
:1021A80088F88A52CDE90A33082307930023CDE93A
:1021B8000866CDE9042302F07BFBBDF832304846BF
:1021C80088F88652A8F8843202F072FB02A92046E9
:1021D80004F0D0FA3146484602F046FC0A2005F0E1
:1021E80069FD2946484602F03FFC0A2005F062FDD9
:1021F800AE23314638468DF8073002F035FC2A46C2
:102208000DF107016423204604F03CFBD523314639
:1022180038468DF8073002F027FC2A460DF10701F1
:102228006423204604F02EFB8023314638468DF87F
:10223800073002F019FC2A460DF1070164232046F5
:1022480004F020FBA823314638468DF8073002F009
:102258000BFC2A460DF107016423204604F012FB0B
:102268003F23314638468DF8073002F0FDFB2A46F9
:102278000DF107016423204604F004FBDA233146FC
:1022880038468DF8073002F0EFFB2A460DF10701BA
:102298006423204604F0F6FA1223314638468DF8B6
:1022A800073002F0E1FB2A460DF1070164232046BE
:1022B80004F0E8FAD323314638468DF8073002F0A7
:1022C800D3FB2A4664230DF10701204604F0DAFA0D
:1022D800314638468DF8076002F0C6FB2A460DF1F4
:1022E80007016423204604F0CDFA402331463846DE
:1022F8008DF8073002F0B8FB2A460DF10701642378
:10230800204604F0BFFAA623314638468DF8073038
:1023180002F0AAFB2A460DF107016423204604F0C7
:10232800B1FAA423314638468DF8073002F09CFBF9
:102338002A460DF107016423204604F0A3FA8D23F1
:10234800314638468DF8073002F08EFB2A460DF1EB
:1023580007016423204604F095FA142331463846D1
:102368008DF8073002F080FB2A460DF1070164233F
:10237800204604F087FAA123314638468DF8073005
:1023880002F072FB2A460DF107016423204604F08F
:1023980079FAC823314638468DF8073002F064FBD5
:1023A8002A460DF107016423204604F06BFA8123C5
:1023B800314638468DF8073002F056FB2A460DF1B3
:1023C80007016423204604F05DFA8F23314638461E
:1023D8008DF8073002F048FB2A460DF10701642307
:1023E800204604F04FFAD923314638468DF8073095
:1023F80002F03AFB2A460DF107016423204604F057
:1024080041FA2523314638468DF8073002F02CFB77
:102418002A460DF107016423204604F033FADB2332
:10242800314638468DF8073002F01EFB2A460DF17A
:1024380007016423204604F025FA34233146384640
:102448008DF8073002F010FB2A460DF107016423CE
:10245800204604F017FAAF23314638468DF8073086
:1024680002F002FB64232A460DF10701204604F01E
:1024780009FA0FB0BDE8F0830104010F060B0B0049
:102488000105060A2DE9F047044698B00126002701
:10249800019100F099F80199204600F05FF904F1E4
:1024A800200A20464FF00209FFF7AEFD2046FFF74D
:1024B8005BFE11A9504604F5104805ADCDE9146737
:1024C800CDE9129702F042F849463A46504602F0E2
:1024D800BBF840F601139FED380A04F14000ADF84F
:1024E800103040F601030499ADF80C3040F6014372
:1024F800ADF80830DDE9023201F0F8FA2F4B49F265
:102508008C60C8F88C36204402F0D2F92C4B324645
:1025180004F1E800196801F019FB2A4B324604F56A
:102528008070196801F012FB2046FFF71DFE28464F
:1025380001F01EFB47F612230DF1240E04F58C7CE6
:10254800CDF854900DF1340917931396169604F5A7
:102558009476149795E80F008CE80F008EE80F002A
:1025680089E80F00BDF838301290ADF84630BDF854
:102578003A30D4E9485EADF84430C4E94B5EBEF168
:10258800000F04D072463946284611F0E5FF11A91C
:10259800304605F06FF804F59E7001F0B5FB204653
:1025A800FFF790FD1123C8F8943605F081FBC8F8B1
:1025B800900618B0BDE8F087000000000101010096
:1025C800AC460108B0460108704700BF143001F05E
:1025D80027BA00BF143001F01FBA00BF90ED0E0AF1
:1025E800704700BF10B540F203338EB000244FF699
:1025F8000B7240F20341ADF8083009A80123ADF889
:102608001020ADF824202246ADF80C100094029951
:1026180007940C94CDE90544CDE90A4402F04CF83E
:1026280004A8012322460399009402F045F809A85A
:1026380002F028F910B901200EB010BD04A802F06C
:1026480021F9A0420CBF022020460EB010BD00BFE9
:102658002DE9F04103239AB0012700240646CDE96D
:1026680014373B4BCDE9104340F20453CDE91647EC
:10267800ADF84830FFF7B6FFB842054625D0022826
:1026880045D040F60132334B0DF12C081894ADF8C3
:102698002C200B981997CDF84A3000F0E3F810A9D0
:1026A80006F13C0003F028F9302003224FF07E5356
:1026B80041460D930E93CDE90B02F26B06F114001F
:1026C80001F02AF91AB0BDE8F0811023214A06A9C1
:1026D80006908DF828300DF12C081F4BCDF84A20B4
:1026E80007930294CDE91804CDE9080402A802F082
:1026F8003BFB0823029A03A94046ADF80C508DF81D
:102708000E40049505930B9400F0ECF8C7E7002001
:102718000121104B0DF12C083A460094CDF84A30AF
:102728004FF60B730C94ADF82C302346CDE9180105
:1027380040F601314046ADF818100699CDE90D4430
:1027480001F0BAFF2146404602F0A8F8A7E700BF0B
:1027580004020404040604030704010B2DE9F047EE
:1027680004462DED028B82B000294DD0012140F2A4
:10277800011200230091ADF804208DF80630364A86
:102788000127364B04F10409354904F12908626030
:1027980040F20272A36040F60663E16004F1250A84
:1027A800A4F82520A4F82930278284F8277084F813
:1027B8002B7005F01DFC054605F07EFA69460646B5
:1027C80050BB4DB304F130008DF8067005F096FB50
:1027D800072D3CD104F114052046FFF739FF2846A0
:1027E80001F01AF92846B0EE408A01F011F9D0ED4F
:1027F800007AF8EE677A88EE277A84ED0E7A02B0CE
:10280800BDEC028BBDE8F08740F2011300918DF812
:102818000610ADF80430B2E704F1300005F06EFBA5
:10282800072D11D04946204602F0E6FC0EB9002DCE
:10283800D0D1504602F03CF8404602F039F804F195
:10284800120000F079F9C5E7002EF2D1C2E7494637
:10285800204602F0D1FCBDE7050805090507050675
:10286800050A060610B584B003460124ADF8040035
:1028780003A8ADF80C30ADF80E4002F019F8214667
:1028880003A802F0F1F8204605F014FA002103A885
:1028980002F0EAF8204605F00DFA214603A802F0F6
:1028A800E3F804B010BD00BF10B5C2F3002384B034
:1028B8000C46017C8DF80D2043EA4402FA240223D9
:1028C8008DF80C2003AA009402F0E4FA18B1012450
:1028D800204604B010BD04460A2005F0EBF9204656
:1028E80004B010BD034670B543F8042B044684B009
:1028F80007C983E80700A37983B91A210B461E226A
:10290800FA2523742046ADF80C20022303AA00956B
:1029180002F0C0FA28B1012004B070BD1B210B469B
:10292800EDE70A2005F0C6F94FF4B85200950223E6
:10293800ADF80C20204603AA217C02F0ABFA00284F
:10294800E9D10A2005F0B6F941F202720095022396
:10295800ADF80C20204603AA217C02F09BFA00283F
:10296800D9D10A2005F0A6F9042200950223ADF872
:102978000C20204603AA217C02F08CFA0028CAD138
:102988000A2005F097F9062200950223ADF80C20DD
:10299800204603AA217C02F07DFA0028BBD10A2038
:1029A80005F088F941F2082200950223ADF80C20C1
:1029B800204603AA217C02F06DFA0028ABD10A2038
:1029C800064605F077F90095022303AA217C2046E4
:1029D800ADF80C6002F05EFA00289CD1304605F094
:1029E80069F9009522790C232046002A8DF80C30CD
:1029F80003AA4FF0020314BF622142218DF80D1083
:102A0800217C02F047FA002885D1304605F052F9BA
:102A18002279D4E902310B43DBB20AB943F040030F
:102A280062790AB143F020030E22FA258DF80D30A1
:102A38002046009502238DF80C2003AA217C02F081
:102A480029FA00287FF467AF0A2005F033F910222D
:102A580000950223ADF80C20204603AA217C02F041
:102A680019FA00287FF457AF0A2005F023F912213C
:102A780000950223ADF80C1003AA217C204602F031
:102A880009FA00287FF447AF0A2005F013F901225C
:102A980009212046FFF708FF003818BF01203BE74F
:102AA800F0B5102387B0234C01220025012600270A
:102AB80002A920460195CDE902234FF48052CDE9C1
:102AC80004670CF079F9642005F038FD02A94FF489
:102AD80080522046CDE9046702261027CDE9026717
:102AE8000CF06AF90322102302A92046CDE902233B
:102AF80000230422CDE904234FF480520CF05CF942
:102B080040F23223042202A9019310232046CDE982
:102B18000223019A012305924FF4805204930CF08A
:102B28004BF940F6060120460CF066F9284607B036
:102B3800F0BD00BF1C9B00241C4B00221C494FF019
:102B4800400C30B5054689B00220596007219A60CB
:102B58001A620124DA620A224FF4006EDC600692DF
:102B68002022CDE9000104200821CDE9020103203B
:102B78001021CDE9040108206946C3E904024FF495
:102B8800C072181DC3E906C24FF48052C3E909E2B6
:102B98000CF0E8F838B92846FFF782FF003818BF6C
:102BA800012009B030BD204609B030BD189B002473
:102BB80040410052614A0021D0B513688EB00A9195
:102BC800002B40F0B9805E4B01214FF683700C2436
:102BD80011600221D3F8D4200026032742F4805242
:102BE800C3F8D420D3F8D42002F480520092009A7B
:102BF800D3F8E02042F01002C3F8E020D3F8E02038
:102C080002F010020192019AD3F8E02042F040024B
:102C1800C3F8E020D3F8E02002F040020292029AC2
:102C2800D3F8E02042F00802C3F8E020D3F8E0200F
:102C380002F008020392039AD3F8E02042F480726B
:102C4800C3F8E020D3F8E02002F480720492049ADA
:102C5800D3F8E02042F08002C3F8E020D3F8E02067
:102C680002F080020592059AD3F8E02042F0200293
:102C7800C3F8E020D3F8E02002F020020692069A7A
:102C8800D3F8E02042F00402C3F8E020D3F8E030A3
:102C98000C9403F0040307930323079A0B93CDE9DD
:102CA800080108A9274807F0FBFB48F2371202235E
:102CB80008A925480C94CDE90823CDE90A6707F04F
:102CC800EFFB4CF20372022308A920480C94CDE9CB
:102CD8000823CDE90A6707F0E3FB40F2FF6202230D
:102CE80008A91B480C94CDE90823CDE90A6707F029
:102CF800D7FB4FF60C72022308A916480C94CDE9AD
:102D08000823CDE90A6707F0CBFB4FF63F02022301
:102D180008A911480C94CDE90823CDE90A6707F002
:102D2800BFFB2022022308A90A480C94CDE90A67B0
:102D3800CDE9082307F0B4FB0EB0D0BD149B0024E6
:102D4800004402580010025800180258000C02589B
:102D580000200258001C0258001402582DE9F04FB8
:102D6800DFF8108406460D46144608F118002DEDCC
:102D7800028B89B000AF02F0B7FED8F8183073B3F1
:102D8800D8F81C30D8F80490002B43690BBF4FF0DB
:102D9800080A4FF0100A4FF0020B4FF0040BB9F17C
:102DA800000F2AD0A200EA46012B02F1070222F006
:102DB8000702ADEB020D6846ADEB020D694600F067
:102DC8003F81022B00F0D680002B6FD02246C847E7
:102DD800D5462437BD46BDEC028BBDE8F08FD8F848
:102DE8001C30002BF5D0D8F804904FF0080A4FF0AB
:102DF800020B4369B9F1000FD4D1FB61D8F8003058
:102E0800BB61002BE5D0D54802F0E0FE6B46BBF174
:102E1800020F786108EE103AFB6900F083816A4678
:102E28005146A2EBC40295466200EA46B2FBFBF2A9
:102E3800AAEBC40085460AEB8200EE46F861ADEBCA
:102E4800010DF8690EEB820CC7F810C0EC46ADEB2B
:102E5800010D00EB8201CCF80400CCF8081001EB5E
:102E680082013869E946CCF80C1000EB8201CCF8F5
:102E780000A001EB8202C9E900E0C9E90212012BB6
:102E880000F06483022B00F06C82002B00F080813C
:102E9800620849466046BB69984718EE103A2437DD
:102EA8009D46BD46BDEC028BBDE8F08F002C8DD051
:102EB8001A46D8ED0C6A9FEDB27A8446331D36F96E
:102EC80022E00CF1080C07EE90EA33F922E0023216
:102ED800F8EEE77A944267EE877A67EEA67A4CEDC9
:102EE800027A07EE90EAF8EEE77A67EE877A67EEFD
:102EF800A67A4CED017AE2D8F9612246C847984E85
:102F0800D8ED0D6A0020F9692B1D9FED9E7A9FED83
:102F18009E6ADFED9E5A22E0F4EEC67AF1EE10FAD0
:102F2800C0F2C88447F6FE72D1ED017A45F8202038
:102F380066EEA77AF4EEC77AF1EE10FA40F2F08066
:102F4800F4EEC67AF1EE10FAC0F2D58447F6FE72B6
:102F580043F820200230083184427FF639AFD1EDA2
:102F6800007A66EEA77AF4EEC77AF1EE10FAD3D8B3
:102F78003246D9E7002C3FF429AFD8ED0C6A8446D5
:102F88009FED787A0022331D8E4656F822100CF1F8
:102F9800080C07EE901A53F822100232F8EEE77A7E
:102FA800944267EE877A67EEA67A4CED027A07EECE
:102FB800901AF8EEE77A67EE877A67EEA67A4CED14
:102FC800017AE2D871462246C7F81CE0C847664E27
:102FD800D8ED0D6A0020F9692B1D9FED6A7A9FEDE7
:102FE8006A6ADFF894C120E0F4EEC67AF1EE10FACE
:102FF800C0F279843246D1ED017A45F8202066EE98
:10300800A77AF4EEC77AF1EE10FA40F28780F4EE70
:10301800C67AF1EE10FAC0F25E84324643F82020F8
:103028000230083184427FF6D3AED1ED007A66EEE5
:10303800A77AF4EEC77AF1EE10FAD5D86246DAE745
:10304800002C3FF4C3AED8ED0C6A86469FED477A54
:103058004FF0000C331D56F82C200EF1080E82F4A8
:103068000002A2F5000207EE902A53F82C200CF17A
:10307800020CF8EEE77A82F400026445A2F5000239
:1030880067EE877A67EEA67A4EED027A07EE902A07
:10309800F8EEE77A67EE877A67EEA67A4EED017A60
:1030A800D9D8F9612246C847314ED8ED0D6A0020BB
:1030B800F9692B1D9FED337A9FED336ADFF8BCC0A9
:1030C8001FE0F4EEC67AF1EE10FAC0F2FC83324645
:1030D800D1ED017A45F8202066EEA77AF4EEC77A9A
:1030E800F1EE10FA18D9F4EEC67AF1EE10FAC0F241
:1030F800DA83324643F820200230083184427FF6D2
:1031080067AED1ED007A66EEA77AF4EEC77AF1EEF3
:1031180010FAD6D86246DBE76246EBE762467DE7FF
:10312800324615E7A100D6466208073121F00701AB
:10313800ADEB010DEA46ADEB010D6946ADEB0E0DA9
:103148000AEB8200EC46ADEB0E0D01EB8202F86152
:10315800E946CCE900A0C9E9001290E66C9B00247E
:103168000280FFFF000000300082FF7F0000003473
:1031780082FF7F00509B0024007E00807E0080FF3D
:103188000000003804FF7FBF04FF7F3F00FEFF46BA
:10319800002C00F0C982BBF1020FD8F8242000F0FF
:1031A800FA827969C7F8049002EB810E5FED0C5A38
:1031B8008A00DCF808100EF104007A611A46DCF87F
:1031C8000C303B61331DD7F810903D61FD69C7E9AC
:1031D80002CB8C46834636F92210D8ED0C7A06EEDF
:1031E800101A33F9221006EE901A3EF92210B8EEA2
:1031F800C66A07EE101AF8EEE66A3BF92210B8EE36
:10320800C77A26EE256A66EEA56A27EE257A26EEA7
:10321800276A66EEA76A27EE277A07EE901A510802
:103228000232F8EEE77A0AEB8100944280ED006AF8
:1032380005EB810067EEA57AC0ED006A0CEB810012
:1032480009EB810180ED007A98ED0C7A67EE877AB8
:10325800C1ED007ABFD8D7F804903D69D7E902CB11
:1032680060466208BB6949469847D8F82C307A69A5
:10327800D8ED0D6A1A441FED3D7A1FED3D6A2B1DEE
:10328800904602F1040A5FED3F5A0022A84ED9E9A0
:1032980000EC51E0F4EEC67AF1EE10FAC0F2C78203
:1032A80047F6FE7045F822000CEB0100D0ED007ADD
:1032B80066EEA77AF4EEC77AF1EE10FA4BD9F4EE7F
:1032C800C67AF1EE10FAC0F2BA8247F6FE70BBF188
:1032D800020F43F822002BD0D9F808000844D0ED9B
:1032E800007A66EEA77AF4EEC77AF1EE10FA36D9CC
:1032F800F4EEC67AF1EE10FAC0F2CD8247F6FE700F
:1033080048F82200D9F80C000144D1ED007A66EEA5
:10331800A77AF4EEC77AF1EE10FA1ED9F4EEC67A5F
:10332800F1EE10FAC0F2AF8247F6FE714AF82210A9
:10333800023294427FF6B1AD51080EEB810089004C
:10334800D0ED007A66EEA77AF4EEC77AF1EE10FABD
:10335800A0D83046A6E73046B9E73146E6E730461A
:10336800CEE7002C00F0E081BBF1020FD8F8243042
:1033780000F0E1817A69DCF8081003EB820EC7F8E7
:1033880004909300DFED6B5A0EF1040000227B617C
:10339800DCF80C303B61331DD7F810903D61FD69B6
:1033A800C7E902CB8C46834656F82210D8ED0C7A32
:1033B80007EE101A53F82210B8EEC76A07EE101A73
:1033C8005EF82210F8EEC76A07EE101A26EE256A94
:1033D8005BF82210B8EEC77A66EEA56A26EE276A71
:1033E80027EE257A66EEA76A27EE277A07EE901A67
:1033F80051080232F8EEE77A0AEB8100944280ED38
:10340800006A05EB810067EEA57AC0ED006A0CEB57
:10341800810009EB810180ED007A98ED0C7A67EE66
:10342800877AC1ED007ABFD8D7F804903D69D7E90B
:1034380002CB60466208BB6949469847D8F82C30E9
:103448007A69D8ED0D6A1A449FED3E7A9FED3E6A7F
:10345800131D9246DFF8E4C00022FB612B1D364E97
:10346800D9E9008E4EE0F4EEC67AF1EE10FAC0F219
:10347800FC81304645F822000EEB0100D0ED007AC1
:1034880066EEA77AF4EEC77AF1EE10FA49D9F4EEAF
:10349800C67AF1EE10FAC0F2EF813046BBF1020FA6
:1034A80043F822002AD0D9F808000844D0ED007A61
:1034B80066EEA77AF4EEC77AF1EE10FA35D9F4EE93
:1034C800C67AF1EE10FAC0F2C98130464AF82200F5
:1034D800D9F80C000144D1ED007A66EEA77AF4EE33
:1034E800C77AF1EE10FA1ED9F4EEC67AF1EE10FAA8
:1034F800C0F2AD813146F86940F822100232944298
:103508007FF6CBAC510808EB81008900D0ED007A3A
:1035180066EEA77AF4EEC77AF1EE10FAA3D8604601
:10352800A8E76046BAE76146E5E76046CEE700BF30
:103538000280FFFF000000300082FF7F007E0080D5
:103548000000003404FF7FBF04FF7F3F002C00F021
:10355800EB807A690021D8F82430C7F8109003EB83
:10356800820ED7F81C909300FD610EF104021FED46
:103578000C6A7B61331D154656F821204808D8EDA2
:103588000C6ABBF1020F82F40002A2F5000207EEFA
:10359800902A53F8212082F40002B8EEE77AA2F5C7
:1035A800000227EE067A07EE902A0AEB8002F8EE70
:1035B800E77A27EE267A67EE867A82ED007A09EBBB
:1035C80080024FEA800067EEA67AC2ED007A27D023
:1035D8005EF8212082F40002A2F5000207EE902A8C
:1035E80055F8212082F40002B8EEE77AA2F500022D
:1035F80027EE067A07EE902ADCF80820F8EEE77A3C
:10360800024427EE267A67EE867A82ED007A98EDF4
:103618000C7ADCF80C2067EE877A0244C2ED007A57
:1036280002318C42A8D8D7F8109060466208BB696E
:103638004946FD699847D8F82C307A69D8ED0D6A63
:103648001A441FED407A1FED406A131D9246DFF8B9
:10365800C4C20022FB612B1DAB4ED9E9008E4EE09F
:10366800F4EEC67AF1EE10FAC0F2C580304645F89D
:1036780022000EEB0100D0ED007A66EEA77AF4EE98
:10368800C77AF1EE10FA49D9F4EEC67AF1EE10FADB
:10369800C0F2BF803046BBF1020F43F822002AD0A7
:1036A800D9F808000844D0ED007A66EEA77AF4EE5F
:1036B800C77AF1EE10FA35D9F4EEC67AF1EE10FABF
:1036C800C0F2AE8030464AF82200D9F80C00014416
:1036D800D1ED007A66EEA77AF4EEC77AF1EE10FA29
:1036E8001ED9F4EEC67AF1EE10FAC0F28B8031469C
:1036F800F86940F82210023294427FF6CEAB5108A6
:1037080008EB81008900D0ED007A66EEA77AF4EE26
:10371800C77AF1EE10FAA3D86046A8E76046BAE780
:103728006146E5E76046CEE7224649466046BB6902
:103738009847FFF7B2BBC7F810B0002298ED0C6AA3
:10374800331DDFED726AD7F81CB0786956F822107D
:1037580007EE901A53F82210B8EEE77A07EE901A9F
:1037680051080232F8EEE77A27EE267A0AEB810E44
:1037780094420BEB810167EEA67A27EE067A67EE94
:10378800867A8EED007AC1ED007ADFD88300D7F80B
:1037980010B07B614DE61A46C7F810B098ED0C6A78
:1037A800331DDFED5B6AD7F81CB0786936F9221053
:1037B80007EE101A33F9221007EE901AB8EEC77AFE
:1037C80051080232F8EEE77A27EE267A0AEB810EE4
:1037D80094420BEB810167EEA67A27EE067A67EE34
:1037E800867A8EED007AC1ED007ADFD88300D7F8AB
:1037F80010B07B6134E5F0EE675AFEEEE45A15EE40
:10380800900A34E7F0EE675AFEEEE45A15EE901A85
:103818006EE7F0EE675AFEEEE45A15EE900A3AE7C4
:10382800F0EE675AFEEEE45A15EE900A4BE767EEA3
:10383800A57AFDEEE77A17EE900A00B232E567EE58
:10384800A57AFDEEE77A17EE900A00B23FE5F0EEB2
:10385800675AFEEEE05A15EE901A4CE6F0EE675AFB
:10386800FEEEE05A15EE900A30E6F0EE675AFEEEEC
:10387800E05A15EE900AFDE5F0EE675AFEEEE05AC2
:1038880015EE900A0AE667EEA57AFDEEE77A17EEDE
:10389800901A09B24AE567EEA57AFDEEE77A17EEC7
:1038A800900A00B22CE5F0EE675AFEEEE45A15EEE7
:1038B800902A1FE467EEA57AFDEEE77A17EE902AC4
:1038C80012B2FFF731BBF0EE675AFEEEE45A15EE7E
:1038D800902AFFF7FDBBF0EE675AFEEEE05A15EEB0
:1038E800902AFFF79BBBF0EE675AFEEEE05A15EE02
:1038F800902AFFF780BB67EEA57AFDEEE77A17EE10
:10390800902A12B2FFF724BB82FF7F00000000302C
:10391800000000387E0080FF30B5184C154685B091
:10392800046004F1080EEC460FC98EE80F00D4EDD0
:10393800047AF5EEC07A8CE80F00F1EE10FA1ADD81
:10394800B7EE006A94ED057A27EE277AC6EE276A65
:1039580084ED0D7AC4ED0C6A6DB1204640F8185F0D
:1039680002F0C2F8064903690020064A2162A262F1
:10397800E36005B030BD012005B030BD509B002488
:103988000020003000000030F0B51C4C16461F46E1
:1039980089B0046004F10805EE460DF1100C0FC95A
:1039A80085E80F00D4ED047AF5EEC07A8EE80F00B2
:1039B800F1EE10FA8CE80F0017DDB7EE006A94ED0F
:1039C800057A27EE277AC6EE276A84ED0D7AC4EDCC
:1039D8000C6A56B1204640F8186F02F085F808497D
:1039E8000369084A2162A262E360074A0020074B84
:1039F800E7616262E36209B0F0BD00BF509B00243A
:103A0800002000300000003000300030001000308E
:103A180000680830704700BF0068183002F0C4B86A
:103A280030B5046883B00D46E3694BB1A368002044
:103A3800E26A616A9B00009004F11C0002F056F8EB
:103A4800A3680748A26A9B00216A009004F1180045
:103A580002F04CF80020C4E9005003B030BD00BFAC
:103A6800652D000810B4074B4FF07E51302400221A
:103A7800032019619C60D8605DF8044B5961C3E963
:103A880006227047509B0024F6EE007A9FED166AD6
:103A980020EE207A0160F7EE006A80ED036A80ED7F
:103AA800020A27EE277AC6EE877AF4EEE67AF1EE76
:103AB80010FA11DDF0EE667A4FF07E514FF0000CEF
:103AC80002760022C0ED017AC0F814C00161437685
:103AD8008276C0ED070A7047F4EEC67AF1EE10FA66
:103AE800EAD5F0EE467AE7E70000000030B585B089
:103AF80004460025ADF80C10ADF80820ADF80430E8
:103B080004F0D6F8BDF80C204FF48073206004F15F
:103B180018002283BDF808206383E383A2832571FC
:103B280000F0C6FE04F11C0000F0C2FE9FED060A7C
:103B3800019904F1080000F0EDF84FF6FF73656293
:103B4800238405B030BD00BF0000000070B584B00C
:103B5800002504461646ADF80C102B462A46039954
:103B6800009500F0A9FDA582A67504B070BD00BF40
:103B7800074A118830B481800024064D91884FF49B
:103B8800807285600460C180C26030BC704700BF2D
:103B9800244601080040003038B50446104694F821
:103BA80095301942237815D0032B19D094F8982012
:103BB800002594F896300A4025700B40A26001F069
:103BC800F8021B09F82A237100F08680092B73D9A3
:103BD800002038BD032BFBD8DFE803F0112A51027F
:103BE800F7291CD094F98E2094F88E30002AEFDB48
:103BF800E21801330020917384F88E3038BD94F8B0
:103C0800942094F8973022711940131F012B2173C7
:103C180005D994F88F3003F0FD03012B45D100231B
:103C2800237018B19022211D10F088FC012038BDA6
:103C380094F8973094F894201940131F2173012B9E
:103C480005D994F88F3003F0FD03012B29D1002307
:103C5800237000284CD09022211D10F06FFC94F89E
:103C680094200120032AB4D1237B772BB1D90922D0
:103C7800783B227184F8942084F8913038BD94F808
:103C8800973094F894201940012A617300D181B1CA
:103C980018B19022211D10F051FC0023012023703F
:103CA80038BD022300202370DCE7022300202370A4
:103CB80038BD00232371EBE70122072B227019D1AD
:103CC80001F00703A56084F88F30CBB903221846AA
:103CD80084F88E30227038BD0823237194F8993007
:103CE80000221940227084F8901000289AD19DE78C
:103CF8000120B7E7082BF1D0284684F8943038BD66
:103D08004B077FF565AF8AE700220A23027003712B
:103D1800704700BF70B5044682B0C1F30726CDB224
:103D2800ADF8041003F0C4FF4FF480724FF0012384
:103D38002060A01DA571A280E671A36002B0BDE855
:103D4800704000F0B5BD00BF00B583B04FF0000E65
:103D58004FF0030C4274ADF80410BDF8043080F83D
:103D680010E0A0F802C0038003B05DF804FB00BFB8
:103D78002DE9F04FDFF81C8300258DB0C04C03708F
:103D880008F140034260074601920E462022294668
:103D98004046C4F86831C4F86481CDE90255CDE9DC
:103DA8000455CDE90655CDE90855CDE90A5510F079
:103DB800D3FB2022294604F5A170C4F83151C4F878
:103DC8003551C4F83951C4F83D5110F0C5FB019B79
:103DD80084F8485284F830317A68002A6AD02B4631
:103DE80004F59871454606F1100A9E46F01856F8F3
:103DF80003B0E2180EF1010ED0F80CC0D0F8049010
:103E0800D0F8088044F803B0C2F80CC04FF0000C9A
:103E1800C2F80490C2F80880008A25F802CB108204
:103E28001AF8032001F8012F002A70D07A684FF0A1
:103E380001001233724584F84802D7D84FF4802223
:103E480090489DF8043008214FF000084FF0000911
:103E5800C4F884310023C4E95B020122C4F8743138
:103E680084F88031C4E95E2194F84812C4E9648971
:103E7800A9B3C4F89821002284F8813184F88831E4
:103E88003B78C4E96722002B38D0012200200121A9
:103E9800013B84F8A421C4E96C01082B30D8DFE881
:103EA80013F0BD00C200C700CC00D100D600DB0073
:103EB800E100E8009DF804300121C4F87421C4F839
:103EC80084314FF4802384F880216E4AC4E95B234F
:103ED80008230022C4E95E130023C4E964230123F4
:103EE800002284F88131002384F888310323C4F840
:103EF80098313B78C4E96722002BC6D184F8A431F5
:103F0800614804F053FF034638B1FFBEFEE77A6804
:103F1800123372453FF66AAF90E702A95A480293F6
:103F280005F0A2F88246002876D1042240F2FF71FB
:103F38000A90CDE9081294F83021002A00F0F380A5
:103F48004FF006080AEBCA034FEACA0904EB430319
:103F58005B7C072B07D8DFE803F0595C5653504DBC
:103F68004A04072307930FFA8AF6D14406EBC606DC
:103F780004EB490904EB46077500384600F098FC45
:103F880099F81030042B00F3AA80022B00F3BD80AF
:103F980000F0B98004EB0A03002283F8202114F80A
:103FA8001630002B78D0022B00F08A80012B40F0CD
:103FB800B2807B78012B00F0B080002B334B18BF08
:103FC800002305A93048CDE9053804F01BFB00287B
:103FD80040F0AC800AF1010A94F830315FFA8AFAAD
:103FE800534540F2A0802A4B53F82A80AAE70623BB
:103FF8000793B8E705230793B5E704230793B2E7C8
:1040080003230793AFE702230793ACE70023079343
:10401800A9E701230793A6E7FFBEFEE70322402393
:10402800C4E96A236CE707226023C4E96A2367E7C7
:104038000F228023C4E96A2362E71F22A023C4E970
:104048006A235DE73F22C023C4E96A2358E77F2239
:10405800E023C4E96A2353E7FF224FF48073C4E9DD
:104068006A234DE740F2FF124FF49073C4E96A23C4
:1040780046E740F2FF324FF4A073C4E96A233FE7F2
:10408800889B002400200240F49C00240002B025F4
:10409800B4460108004100307B78062B37D0072B47
:1040A8003DD0022B4AD0032B4AD0002B4CD0012BF9
:1040B80048D0042B4AD0052B254B18BF002380E796
:1040C8007B78042B25D0052B2BD08BB3012B31D03B
:1040D800022B31D0032B1F4B18BF002371E703239A
:1040E800043504EB0A0B4FF0000925448BF8203106
:1040F800284609F1010900F0DBFB9BF82031043563
:104108004B45F5DC4BE70123EAE70223E8E7124BCE
:1041180057E7124B55E7002353E7114B51E7114B73
:104128004FE7114B4DE70DB0BDE8F08FFFBEFEE73E
:104138000E4B46E70E4B44E70E4B42E70E4B40E76B
:104148000E4B3EE70E4B3CE70E4B3AE70E4B38E77B
:104158000000B84F002090360800900C1000C010E6
:104168002000F0148000501D000180210004002A66
:104178000008302E001060320040C03A0080F03E47
:1041880000005247000021430000844B38B5094C19
:1041980040F2FF724FF0011104F5B675284604F09D
:1041A80011FF94F83021D4F864112846BDE838404E
:1041B80004F07CBC889B0024034B0F29D3F86401CE
:1041C80098BF00EB41007047889B0024214B026890
:1041D8009A4200D07047204A00232048D2F8D810CD
:1041E80030B51F4C41F0200183B0C4F8D00109203C
:1041F80004F5E875C4E975034FF48060C2F8D81077
:10420800D2F8D8204FF40061C4E9773094F8480216
:1042180002F02002C4F8E4114FF4005198420192D0
:104228002846C4F8E811C4E97C33019B14BF002375
:104238004FF48073C4F8EC3105F068FA08B1FFBE9A
:10424800FEE704F5B673C4F8B851C4F8083203B0F1
:1042580030BD00BF00200240004402584000024028
:10426800889B0024014805F0C9BD00BF589D002463
:1042780002682DE9F84F4B4B9A4201D0BDE8F88F00
:10428800494D95F84832002BF8D095F83031002B7D
:1042980077D0002405F10C0905F5A17605F5987786
:1042A800A04613E003F0010117F811BCA9F10800BA
:1042B80000F0DAFBBBF1010F25D895F83031013455
:1042C80009F112090236A2B293422BD917F8012F2D
:1042D800002AF4D0D5F864310021327833F814007C
:1042E800D5F8683103EB041323F81200338801333F
:1042F8009BB233805FFA83FA3A789A42D2D88A46D8
:10430800A6F80080D0E7CAF34001A9F1040000F044
:10431800ABFBBBF1020FCAF38001CED0484600F0D8
:10432800A3FBCAE7002395F84802204909229842CE
:10433800C5F8D8314FF48060C5F8D011C5F8D4213C
:104348004FF400614FF40052C5F8DC3108BF4FF458
:104358008073C5F8E821C5E9780100221448C5E949
:104368007B32C5F8F42105F0D1F908B1FFBEFEE7AC
:1043780095F83021D5F864110E48BDE8F84F04F0DF
:1043880095BB0A4909224FF48060C5F8D831C5E9C0
:1043980074124FF400614FF40052C5E97730C5E953
:1043A8007912DAE700200240889B0024400002408E
:1043B800589D0024F49C0024704700BF4F4B0268AE
:1043C8009A4200D070474E4BD3F8E81030B541F010
:1043D80000514C4C85B0D4F84821C3F8E810D3F804
:1043E800E81001F0005101910199D3F8E01041F073
:1043F8000101C3F8E010D3F8E03003F001030293A1
:10440800029B32F002033DD0013A012A6BD9D4F85D
:104418004C31012B0AD000223620114604F098FEB8
:10442800362005B0BDE8304004F0D0BED4F848319D
:1044380033F0020234D0013B012BECD84422402354
:104448003149324DC4F88C1000212846C4F8B01008
:10445800C4E9242300224FF48063C4E926234FF4DF
:1044680000624FF40053C4E928234FF480724FF4DC
:104478008033C4E92A2305F049F980B9E560C4F816
:10448800C440C8E74FF48062032303A8ADF80C20AA
:104498008DF80E3000F00CFAD4F84821B4E7FEE7A6
:1044A8001B4BA2634322636140231A4DC4E90623D0
:1044B80000224FF480632846C4E908234FF40062C1
:1044C8004FF40053C4E90A234FF480724FF4803349
:1044D800C4E90C2305F01AF920B9D4F84831A560CD
:1044E800E464A8E7FEE74FF4A062032303A8ADF84D
:1044F8000C208DF80E3000F0DBF988E700740040DE
:1045080000440258D89D002428040240649E0024D8
:1045180010040240EC9D0024014805F06FBC00BF68
:10452800EC9D0024014805F069BC00BF649E00248E
:1045380010B5054C204604F035FF04F58270BDE83F
:1045480010400BF029BD00BFD89D002430B58C4623
:104558003A4C3B4D8DB0046004F5A27EBCE80F00D8
:10456800AEE80F00DCF8003020462560CEF80030B9
:1045780004F0BAFE0023D4F84C510393C5B11622B7
:10458800012D049217D00022D4F85411D4F84831E0
:104598009142CDE9062218BF0222059233F00202A9
:1045A80035D0013B012B3CD9002528460DB030BD44
:1045B80002230493E7E7234A0093C4F80C31C4F8B4
:1045C8001431C4F80421C4F81C31CDE9013303F0D7
:1045D8000DFDD4F844314BF68032C4F80851002B55
:1045E80008BF1346B0FBF3F304F58270C4F810312A
:1045F8000BF03CFB0028D8D120230290694604F533
:10460800827000930BF080FD0028BCD0CDE703A991
:104618000A4804F0FBFE78B9D4F84831013B012B75
:10462800C2D8102203A9054804F0F0FE051E18BFE1
:10463800012528460DB030BD0125B6E7D89D0024D8
:1046480000740040001000402DE9F0410668D6F8DB
:104658004C5105BBD6F850310C461746002B0CBF01
:104668004FF008084FF0000831F0020305D0013C74
:10467800012C14D92846BDE8F08113462946424644
:104688003046013C04F074FE2946304604F042FEF0
:10469800012CEFD803E001252846BDE8F0813B4610
:1046A80042461021304604F063FE1021304604F0E3
:1046B80031FE2846BDE8F08110B592B0ADF804107F
:1046C8000180C9B2149C0B29C460C0E901233FD002
:1046D80090F801C0BCF10F0F3AD8022A3FD0032A44
:1046E80002D0012A00D000220E92012B02D0022B08
:1046F80018BF0023022C0F932CD0032C2AD0012C96
:1047080028D000230A29109327D85C4A02EB81227B
:1047180002610A2914D8DFE801F0A39587796B5D57
:104728004F4133250600564BD3F8E01041F4806121
:10473800C3F8E010D3F8E03003F480630C930C9BCB
:1047480001230DA9104603FA0CF30D9305F0A8FEFA
:1047580012B010BD0A291094D7D90022D8E7112227
:104768000E92C2E7464BD3F8E01041F40071C3F84B
:10477800E010D3F8E03003F400730B930B9BDFE7F2
:104788003F4BD3F8E01041F48071C3F8E010D3F840
:10479800E03003F480730A930A9BD1E7384BD3F8CF
:1047A800E01041F08001C3F8E010D3F8E03003F0E6
:1047B80080030993099BC3E7314BD3F8E01041F01C
:1047C8004001C3F8E010D3F8E03003F04003089349
:1047D800089BB5E72A4BD3F8E01041F02001C3F855
:1047E800E010D3F8E03003F020030793079BA7E716
:1047F800234BD3F8E01041F01001C3F8E010D3F8D0
:10480800E03003F010030693069B99E71C4BD3F89E
:10481800E01041F00801C3F8E010D3F8E03003F0ED
:1048280008030593059B8BE7154BD3F8E01041F07F
:104838000401C3F8E010D3F8E03003F00403049354
:10484800049B7DE70E4BD3F8E01041F00201C3F85A
:10485800E010D3F8E03003F002030393039B6FE703
:10486800074BD3F8E01041F00101C3F8E010D3F88A
:10487800E03003F001030293029B61E70000025855
:104888000044025808B5012143780069994089B26B
:1048980006F00EF8003818BF012008BD01230A46AB
:1048A8004178006903FA01F189B206F007B800BF40
:1048B8008378022B30B504468FB037D0032B33D022
:1048C800012B31D000230A93E378012B2AD0022B45
:1048D80028D000230B93002320460C9303F00CFDF3
:1048E8000546204603F010FD23780990082B13D8BD
:1048F800DFE803F01F3245586B7E91A40500594B41
:10490800D3F8E02042F48072C3F8E020D3F8E03016
:1049180003F480730893089B09A9284605F0C0FD95
:104928000FB030BD0B93D6E70A93CDE711230A9356
:10493800CAE74C4B09A92846D3F8E02042F0010207
:10494800C3F8E020D3F8E03003F001030093009BA4
:1049580005F0A6FD0FB030BD424B09A92846D3F893
:10496800E02042F00202C3F8E020D3F8E03003F080
:1049780002030193019B05F093FD0FB030BD394B45
:1049880009A92846D3F8E02042F00402C3F8E02041
:10499800D3F8E03003F004030293029B05F080FD96
:1049A8000FB030BD2F4B09A92846D3F8E02042F0BC
:1049B8000802C3F8E020D3F8E03003F008030393BB
:1049C800039B05F06DFD0FB030BD264B09A92846A5
:1049D800D3F8E02042F01002C3F8E020D3F8E0302A
:1049E80003F010030493049B05F05AFD0FB030BD8B
:1049F8001C4B09A92846D3F8E02042F02002C3F84E
:104A0800E020D3F8E03003F020030593059B05F080
:104A180047FD0FB030BD134B09A92846D3F8E02055
:104A280042F04002C3F8E020D3F8E03003F040033E
:104A38000693069B05F034FD0FB030BD094B09A95C
:104A48002846D3F8E02042F08002C3F8E020D3F8EB
:104A5800E03003F080030793079B05F021FD0FB0BA
:104A680030BD00BF0044025870B506460D4603F03D
:104A780043FC0446304603F047FC2A1E0146204604
:104A880018BF0122BDE8704005F018BF00231222AC
:104A980070B586B0CDE9022304930368032B01D8CF
:104AA80004230593061D841D304603F025FC0546A6
:104AB800304603F029FC034601A92846019305F076
:104AC800EFFC204603F018FC034620461C4603F082
:104AD8001BFC01A903462046019305F0E1FC06B042
:104AE80070BD00BF634A0368934210B58CB028D0EC
:104AF800614A934258D0614A934200F09480604AD8
:104B0800934201D00CB010BD5E4C5F48D4F8E03041
:104B180043F00203C4F8E030D4F8E03003F00203B5
:104B28000A930A9BFFF7B2FFD4F8F43043F08003EE
:104B3800C4F8F430D4F8F43003F080030B930B9BE3
:104B4800E0E7504C5148D4F8E03043F00203C4F891
:104B5800E030D4F8E03003F002030193019BFFF743
:104B680095FFD4F8E83000221F2043F400131146C3
:104B7800C4F8E830D4F8E83003F400130293029B39
:104B8800D4F8D83043F00103C4F8D830D4F8D8307A
:104B980003F001030393039B04F0DAFA1F200CB01F
:104BA800BDE8104004F012BB364C3948D4F8E03068
:104BB80043F08003C4F8E030D4F8E03003F0800319
:104BC8000493049BD4F8E03043F00203C4F8E030C7
:104BD800D4F8E03003F002030593059BFFF756FF76
:104BE800D4F8E8300022212043F480031146C4F8A9
:104BF800E830D4F8E83003F480030693069BD4F831
:104C0800D83043F00103C4F8D830D4F8D83003F0D2
:104C180001030793079B04F09BFA21200CB0BDE821
:104C2800104004F0D3BA1B48FFF730FF154B0022A1
:104C38004820D3F8E840114644F40004C3F8E8409B
:104C4800D3F8E84004F400040894089CD3F8D8404A
:104C580044F00104C3F8D840D3F8D83003F0010376
:104C68000993099B04F074FA48200CB0BDE8104081
:104C780004F0ACBA0054004000580040005C00400A
:104C8800001C005800440258CCA10024449F002472
:104C98001CA00024F4A000242DE9F0431A4B87B08F
:104CA80000254FF010099E46EC46184BFF22E046BF
:104CB80067461A700EF118060EF13004CDE900555A
:104CC800CDE90255ADF80090BCE80F00CDE90455D8
:104CD800AEE80F009CE803000095ADF800908EE860
:104CE8000300B8E80F000FC69CE803000095ADF874
:104CF800009086E803000FCF0FC49CE8030084E807
:104D0800030007B0BDE8F08304000024409F00249E
:104D180010B5EFF3108472B6084B1A78120602D554
:104D280004B962B610BD1B78D82205485BB202FBF5
:104D38000300143005F062F8F2E700BF409F00243A
:104D4800449F0024014806F051BC00BFD09F0024B6
:104D5800014806F04BBC00BFA8A00024014806F09B
:104D680045BC00BF80A100242DE9F0430F68D8247A
:104D78003F4D85B007FB04F4032F05EB04030360E4
:104D880040DCCB680E46012B3CD84DD04FF0D808FC
:104D9800B646DFF8FC9008FB0758BEE80F00C4468B
:104DA800ACE80F00DEF800300DF1100ECCF8003042
:104DB800D8F808C099E80F000EE90F000EEB87033A
:104DC800BCF1010F53F8103CC8F88C3031D0BCF15D
:104DD800020F42D0BCF1000F35D0317C8C34D8237F
:104DE800002201202C4403FB07534900C3E9260293
:104DF800C3F894102046C3E92822C3E92A2206F002
:104E0800E7F918B1012005B0BDE8F0830146204656
:104E180006F0F8FB0028F5D10146204606F01CFCF8
:104E2800003818BF0120EEE70B7C103B672BADD98B
:104E3800E8E703F0D9F80F4B98420CBF0E4B0F4B25
:104E4800C8F89030C9E703F0CFF80A4B98420CBF76
:104E58000B4B0C4BC8F89030BFE703F0C5F8054B77
:104E680098420CBF084B094BC8F89030B5E700BF13
:104E7800449F0024000E27072D0FB0303211D02098
:104E88005F4390608A62E030200BA0101A098010FE
:104E98002C4601082DE9F041D0F8008082B00D467B
:104EA80017461E4608F18C04204606F0A7FB20286A
:104EB800FAD1D8F80C3073B96D002046089C3346F7
:104EC8003A46A9B2009406F0D9F9003818BF012073
:104ED80002B0BDE8F081089B32463946204606F00C
:104EE800A1FAF2E7044B10221A7483F8E82083F839
:104EF800C02183F898227047449F002430B50023CE
:104F080095B04FF48071062204460B9306921393D2
:104F1800CDE90C13CDE90E33CDE9113303F068F870
:104F280007282BD004F1100541F2883206A928463B
:104F380007F0A4F928B10123184684F85C3015B0AD
:104F480030BD0222022306A92846CDE900231022FB
:104F58000123CDE9022300224FF48003CDE9042385
:104F680005224FF0807306926A460F9341F2883308
:104F780007F0F0FA0028DED115B030BD0323012078
:104F880084F85C3015B030BD70B50023A4B04FF084
:104F980080724FF480750446ADF806300D93CDE964
:104FA80010320122CDE90E53CDE91223CDE9143395
:104FB800002943D0F02300F1100508AEADF8063003
:104FC800C02341F2883231462846089307F056F943
:104FD80028B10123184684F85C3024B070BD41F232
:104FE80088320DF10601284607F0B2F90346002879
:104FF800EFD105224FF480711E93284616924FF088
:1050080080721B9321931F9202AA9FED1F7BCDE90B
:105018001C13CDE922338DED027B9FED1D7B41F200
:10502800883316A98DED047B9FED1B7B8DED067BE8
:1050380007F090FA0028CCD124B070BD00F110051B
:1050480008AE612341F2883231462846089307F0BA
:1050580015F90028BDD141F288320DF10601284624
:1050680007F0F4F90028B4D1BDF80630204623F043
:10507800780343F04003ADF80630FFF73FFF002800
:105088009ED0A6E7AFF300800000000001000000FA
:1050980010000000010000000000000000004000B7
:1050A8002DE9F04F00234FF4807501264FF08078EA
:1050B80004462DED028BABB08DF807301393219386
:1050C800299314950E96CDF85C80CDE91533CDE97A
:1050D8001863CDE91A33CDE92253CDE92433CDE95C
:1050E800273306231C9302F083FF072808D004F116
:1050F800100741F288321CA9384607F0BFF840B1C2
:105108000123184684F85C302BB0BDEC028BBDE857
:10511800F08F4FF0020A4FF0020B4FF0050941F2F1
:10512800883308AA1CA93846CDF89480CDF8709029
:105138009FED2D8BCDE908AB4FF0000A4FF4800BA3
:105148008DED0A8BCDE90CAB07F004FA0028D7D116
:1051580041F2883238460EA907F090F80028CFD1DE
:10516800402341F288320DF1070138468DF80730A7
:1051780007F0EEF80028C3D141F288330EA902AA3D
:105188003846CDF83890CDF85C809FED197B8DEDD1
:10519800048BCDE906AB8DED027B07F0DBF9034606
:1051A8000028ADD1CDF870904FF00109CDF894806A
:1051B8004FF00008219308AA29931CA93846229584
:1051C800CDE92333CDE9273341F288338DED0A8BBE
:1051D800CDE90CABCDE9088907F0BCF9002893D0DC
:1051E800304684F85C608FE7100000000100000082
:1051F80040000000400000002DE9F043624CA3B0DD
:105208000D46046002F0F4FE072800F0A980286823
:1052180023466968AA6807C31E46AB8926F8043B7B
:105228003046257B677B07F00BF8E0B9574B012D1B
:105238004FF00108E061236114BF4FF480134FF46D
:105248000003C4E9058893FAA3F3B3FA83F34FF490
:105258008079013BC4F82490C4E90B0030462362EE
:1052680006F082FF38B10122134684F85C20184604
:1052780023B0BDE8F08366230B90139041F2883287
:1052880006A90693CDE90C90CDE90E00CDE91100F1
:10529800304606F0F3FF0028E5D1992341F2883221
:1052A80006A93046069306F0E9FF0028DBD105235E
:1052B8001C9019906A4614934FF08073219014A99A
:1052C8001D9341F288339FED2A7BCDE91A90CDE9F1
:1052D8001F008DED007B9FED287B30468DED027B16
:1052E8009FED277B8DED047B07F034F90028BAD1B8
:1052F80029462046FFF748FE0028B4D12046FFF78C
:10530800CFFE03460028AED1002FB0D11893304607
:105318000027002606AA14A9CDF86890CDE91F3306
:10532800EB2314934FF440631B934FF400531793EC
:105338004FF440431C93A0231693062319934FF070
:10534800805321934FF04073CDE906671D9307F012
:1053580079F9034600288AD0434684F85C8086E7BA
:1053680001230322184684F85C2023B0BDE8F083AB
:105378000000000001000000100000000100000013
:105388000000000000004000A4A2002400500052C9
:105398002DE9F04F8FB0414B0024026800AF9A42CC
:1053A8007C63C7E90944C7E90B4403D03C37BD46D1
:1053B800BDE8F08F3A4B40F609213A48EB46D3F85E
:1053C800D42007F11C0607F1220A4FF0020942F423
:1053D80080424FF00308C3F8D420D3F8D42002F455
:1053E8008042BA60BA68D3F8E02042F04002C3F8BD
:1053F800E020D3F8E02002F04002FA60FA68D3F81F
:10540800E02042F02002C3F8E020D3F8E02002F0C8
:1054180020023A613A69D3F8E02042F01002C3F85A
:10542800E020D3F8E02002F010027A617A69D3F81C
:10543800E02042F00202C3F8E020D3F8E030F8613F
:1054480003F002033984BB61174B7B60BB697B683F
:1054580053F8040F7B6002F04FFF7B68054618681D
:1054680002F052FF16F8013B786207F12401284642
:10547800C7F830807B63C7E90A9405F011F85645F0
:10548800E5D100225C20114603F062FE5C2003F0A7
:105498009DFE3C37DD46BD46BDE8F08F005000520A
:1054A800004402580A0A090900A30024114B0268A3
:1054B8009A4200D07047104A70B5D2F8D4300F4CD9
:1054C80023F4804304F11806C2F8D43054F8040FCA
:1054D80002F012FF0546206802F016FF0146284632
:1054E80005F01EF9B442F1D15C20BDE8704003F02C
:1054F8007BBE00BF005000520044025800A30024A5
:10550800014807F02BB900BFB4A20024084B1A1DAC
:10551800981D03F1080110B49C1C9A6603F10A0255
:10552800C3E91834C3E91B015DF8044B5A67704797
:10553800A4A2002438B5036871B9026A00F12805ED
:1055480000F5AC74012A0CBF002140218BBB1D4B18
:105558005722C0F858310DE0426A00F1C00500F545
:10556800E874012A0CBF00214021EBB1164B5A22E6
:10557800C0F8D03100232046C4E901214FF48052FD
:105588004FF48061636262614FF48042C4E9033181
:105598004FF48073C4E906234FF40033236204F008
:1055A800B5F858B1FFBEFEE7084B5822C0F8D03115
:1055B800E0E7074B5922C0F85831DBE7C5E920443A
:1055C800A56338BD10000240700002402800024068
:1055D800580002402DE9F043821D05468BB0031D9B
:1055E80005F10A010830CDE9052305F10C02AB6984
:1055F800CDE907010992002B3DD0EB69B3FA83F896
:105608004FEA58180123022205AE0AAF4FF00609E7
:105618000393CDE9012356F8044B2B792278934262
:1056280016D02B68F3B1012B02D1F2B10A230493EF
:10563800204602F069FE03462046009302F05CFE15
:10564800694604F02DFFBE42E5D10BB0BDE8F083FA
:10565800697963789942E4D1B8F1000FF3D02B68E7
:10566800002BE0D1CDF81090E2E76378022B14BF4D
:105678000A230823DBE74FF00108C3E7534A03680E
:10568800934230B505468BB055D02032934252D064
:105698004F4A934204D02032934201D00BB030BD20
:1056A8004C4C4D48D4F8E03043F00103C4F8E030E6
:1056B800D4F8E03003F001030593059BD4F8E030FB
:1056C80043F00803C4F8E030D4F8E03003F00803EE
:1056D8000693069BD4F8E03043F04003C4F8E0306A
:1056E800D4F8E03003F040030793079BD4F8F03078
:1056F80043F40003C4F8F030D4F8F03003F40003A6
:105708000893089BFFF766FFD4F8D830296843F060
:1057180001032F4A3048C4F8D830891AD4F8D83051
:1057280018BF012103F001030993099B0BB0BDE8E1
:105738003040FFF7FFBE274C2848D4F8E03043F04C
:105748000103C4F8E030D4F8E03003F0010300931B
:10575800009BD4F8E03043F01003C4F8E030D4F8EC
:10576800E03003F010030193019BD4F8E03043F0DC
:105778004003C4F8E030D4F8E03003F0400302936B
:10578800029BD4F8F03043F48003C4F8F030D4F826
:10579800F03003F480030393039BFFF71BFFD4F857
:1057A800D830296843F00103084A0C48C4F8D830B7
:1057B800891AD4F8D83018BF012103F001030493E3
:1057C800049B0BB0BDE83040FFF7B4BE045801405D
:1057D800045C01400044025878A500241CA300245E
:1057E800014804F00BBB00BF74A40024014804F076
:1057F80005BB00BFECA40024014804F0FFBA00BFB9
:10580800D0A60024014804F0F9BA00BF48A7002434
:105818001A4A0368934210B40BD02032934208D03E
:10582800174A934216D02032934213D05DF8044BA6
:105838007047144B0022D3F85442C3F85822002C66
:10584800F4D0D3F84802D3E9931223465DF8044B09
:10585800520818470B4B0022D3F8B044C3F8B424BD
:10586800002CE3D0D3F8AC24D3F8A814D3F8A404BC
:10587800520823465DF8044B184700BF04580140FE
:10588800045C01401CA30024184A0368934210B426
:105898000BD02032934208D0154A934217D02032B9
:1058A800934214D05DF8044B7047124BD3E994240B
:1058B8005208C3F85822002CF4D0D3E992012346A9
:1058C80001EB820100EB82005DF8044B1847094B9D
:1058D800D3F8AC24D3F8B0445208C3F8B424002C4D
:1058E800E0D0D3F8A814D3F8A404E8E7045801409A
:1058F800045C01401CA300242DE9F04F0C684FF410
:105908001776754F87B004FB06F6012C07EB060ADD
:10591800C0F800A000F3A0800D468E464FF00008A6
:10592800D44669A3D3E9002369A1D1E90001CDE9EF
:10593800022306ABCAF8508203EB8403CDE90401C5
:1059480053F810BC53F8083CCAE992880193BEE8A2
:105958000F00ACE80F00BEE80F00ACE80F00019B99
:105968009EE80300CAF828B0CAF8C0308CE80300E3
:105978002B69042B0CD8DFE803F0737D87910300B3
:105988004FF41773554A03FB04739A64C3F8E02075
:10599800AA692B6A002A43D0002B4FF4177308BF5B
:1059A800022203FB047318BF0322DA6201221A637E
:1059B800EA696B6A002A40D1191E4FF4177318BFA1
:1059C800012103FB0473C3E931126B69022B05D86B
:1059D800434A12F80380434A52F823904FF417734E
:1059E80006F128004246494603FB04740023384464
:1059F80063646363E365C4F8DC30C4F8CC30C4F88E
:105A0800F430C4E90F33C4E91533C4E93533C4E9C4
:105A18003B33022308F044FF002849D0FFBEFEE7CD
:105A2800191E4FF4177318BF012103FB0473C3E950
:105A38000B12EA696B6A002ABED0002B4FF4177369
:105A480008BF022203FB047318BF0322C3F8C42053
:105A58000122C3F8C820B8E7012007B0BDE8F08FDD
:105A68004FF417734FF4FA5203FB04739A64C3F8A4
:105A7800E0208DE74FF417734FF47A5203FB047359
:105A88009A64C3F8E02083E74FF417734FF4FA429F
:105A980003FB04739A64C3F8E02079E74FF41773A3
:105AA8004BF6803203FB04739A64C3F8E0206FE777
:105AB80006F1C000022342464946384408F0F0FE89
:105AC8000028CAD0FFBEFEE704580140045C01402C
