:020000040800F2
:1000000000000220990600089506000855490008DE
:1000100095060008950600089506000800000000F7
:10002000000000000000000000000000950600082D
:10003000950600080000000095060008D948000851
:100040009506000895060008950600089506000824
:100050009506000895060008950600089506000814
:10006000950600089506000895060008193800084E
:100070002538000895060008313800083D3800088A
:1000800069DC0008492D000895060008950600085F
:1000900095060008950600089506000895060008D4
:1000A00095060008950600089506000895060008C4
:1000B00081D000088DD0000899D000087D2D00085F
:1000C00095060008892D000895060008454200089D
:1000D000514200089DDA0008C9DA0008FDDA00087C
:1000E0009506000895060008000000009506000827
:1000F0009506000895060008950600089506000874
:100100009506000895060008A5D000085D42000885
:1001100031DB000865DB000895060008950600083D
:10012000950600089506000881420008B5420008BF
:100130009DDC000895060008950600089506000855
:1001400000000000000000000000000000000000AF
:1001500095060008950600089506000899DB00083A
:10016000952D000895060008E94800080D4900088B
:100170009506000831490008950600089506000814
:100180009506000895060008CDDB000801DC000894
:1001900069420008754200089506000895060008A7
:1001A00095060008950600089506000895060008C3
:1001B00039350008950600089506000895060008E0
:1001C00095060008950600089506000895060008A3
:1001D0009506000895060008950600089506000893
:1001E0009506000895060008950600089506000883
:1001F0009506000895060008950600089506000873
:100200009506000895060008950600089506000862
:100210009506000895060008950600089506000852
:1002200095060008950600089506000800000000E5
:1002300095060008950600080000000095060008D5
:100240009506000895060008950600089506000822
:100250009506000895060008950600089506000812
:100260009506000895060008950600089506000802
:10027000950600089506000835DC0008000000001F
:100280009506000895060008950600080000000085
:080290000000000095060008C3
:10029800034613F8012B002AFBD1181A01387047BE
:1002A80081F0004102E000BF83F0004330B54FEA1F
:1002B80041044FEA430594EA050F08BF90EA020F8C
:1002C8001FBF54EA000C55EA020C7FEA645C7FEA1F
:1002D800655C00F0E2804FEA5454D4EB5555B8BF42
:1002E8006D420CDD2C4480EA020281EA030382EAB3
:1002F800000083EA010180EA020281EA0303362D45
:1003080088BF30BD11F0004F4FEA01314FF4801C17
:100318004CEA113102D0404261EB410113F0004F29
:100328004FEA03334CEA133302D0524263EB4303E0
:1003380094EA050F00F0A780A4F10104D5F1200E7E
:100348000DDB02FA0EFC22FA05F2801841F10001D9
:1003580003FA0EF2801843FA05F359410EE0A5F1AD
:1003680020050EF1200E012A03FA0EFC28BF4CF0DE
:10037800020C43FA05F3C01851EBE37101F0004594
:1003880007D54FF0000EDCF1000C7EEB00006EEBA1
:100398000101B1F5801F1BD3B1F5001F0CD349082B
:1003A8005FEA30004FEA3C0C04F101044FEA445282
:1003B80012F5800F80F09A80BCF1004F08BF5FEA09
:1003C800500C50F1000041EB045141EA050130BDE9
:1003D8005FEA4C0C404141EB0101013C28BFB1F5FB
:1003E800801FE9D291F0000F04BF01460020B1FA46
:1003F80081F308BF2033A3F10B03B3F120020CDA19
:100408000C3208DD02F1140CC2F10C0201FA0CF0F6
:1004180021FA02F10CE002F11402D8BFC2F1200C5B
:1004280001FA02F120FA0CFCDCBF41EA0C01904011
:10043800E41AA2BF01EB0451294330BD6FEA04045A
:100448001F3C1CDA0C340EDC04F11404C4F1200245
:1004580020FA04F001FA02F340EA030021FA04F357
:1004680045EA030130BDC4F10C04C4F1200220FAAE
:1004780002F001FA04F340EA0300294630BD21FAEC
:1004880004F0294630BD94F0000F83F4801306BFB2
:1004980081F480110134013D4EE77FEA645C18BFA6
:1004A8007FEA655C29D094EA050F08BF90EA020F3D
:1004B80005D054EA000C04BF1946104630BD91EA35
:1004C800030F1EBF0021002030BD5FEA545C05D138
:1004D8004000494128BF41F0004130BD14F5800477
:1004E8003CBF01F5801130BD01F0004545F0FE41EB
:1004F80041F470014FF0000030BD7FEA645C1ABF20
:10050800194610467FEA655C1CBF0B46024650EA56
:10051800013406BF52EA033591EA030F41F4002182
:1005280030BD00BF90F0000F04BF0021704730B508
:100538004FF4806404F132044FF000054FF00001DD
:1005480050E700BF90F0000F04BF0021704730B59E
:100558004FF4806404F1320410F0004548BF404273
:100568004FF000013EE700BF42004FEAE2014FEAC8
:1005780031014FEA02701FBF12F07F4393F07F4FA3
:1005880081F06051704732F07F4208BF704793F0A6
:100598007F4F04BF41F40021704730B54FF46074B9
:1005A80001F0004521F000411CE700BF50EA0102BC
:1005B80008BF704730B54FF000050AE050EA010265
:1005C80008BF704730B511F0004502D5404261EBD5
:1005D80041014FF4806404F132045FEA915C3FF416
:1005E800D8AE4FF003025FEADC0C18BF03325FEAB3
:1005F800DC0C18BF033202EBDC02C2F1200300FA64
:1006080003FC20FA02F001FA03FE40EA0E0021FA88
:1006180002F11444BDE600BF53B94AB9002908BF26
:1006280000281CBF4FF0FF314FF0FF3000F00CB82E
:10063800ADF1080C6DE904CE10F0E8F8DDF804E03F
:10064800DDE9022304B07047704700BF10B5054CC0
:10065800237833B9044B13B10448AFF30080012366
:10066800237010BDD803002400000000E41B01081B
:1006780008B5034B1BB103490348AFF3008008BD1D
:1006880000000000DC030024E41B0108FEE700BFB3
:100698000C4A0D4B934204D0D21A0C49184610F05C
:1006A80003F80B4A0B4B934204D0D21A0021184688
:1006B8000FF0B6FF04F0A0FB0FF0D0FF01F062FAD4
:1006C800FEE700BFD803002400000024141C010822
:1006D80004360024D8030024704700BF49424FF471
:1006E80080621430C9B20FF09BBF00BF704700BFD3
:1006F800402070478020704710B5044640F21441EE
:100708000FF0CBFC204610BD2DE9F043B02683B096
:1007180000F1080500F1140800F2144905F1080475
:10072800002700218DF807602046013602F0B4F951
:10073800642301220DF107012846F6B203F0E4FF15
:10074800204639468DF8077002F0A6F90122642385
:100758000DF10701284603F0D7FF1023394620463C
:100768008DF8073002F098F9642301220DF1070192
:10077800284603F0C9FF0121204602F08DF94146C1
:1007880008F1800864238022284603F0BDFFC8458D
:10079800C4D103B0BDE8F0832DE9F04F87B0A1F1D3
:1007A800200906AC9DF8407004E90C005FFA89F353
:1007B8005E2B7CD803688846634A0646DB689DF84A
:1007C800105093429DF8114040F094808020B388E7
:1007D8002B4483426BDC33685C4A9B68934240F04D
:1007E8008B804020F2881319834260DCB6F804A09D
:1007F800002C64D06FF000430599944604FB09333C
:1008080004FB094401EB4303023903F1020901EB3C
:10081800440B5C88002D4ED04146CDE902B2BCF1B4
:100828003F0FCDF8049052464FF0000394BF4FF0AD
:1008380000084FF00108A1460EE04CB902EBC010C9
:100848000BFA0EFE3044047D07B344EA0E04047527
:1008580001330132AB4220D009FA03F07F2A94BF5A
:10086800444648F001040CF0070E4FF0010B10F459
:10087800004F4FEADC00E0D1002CE9D102EBC010B8
:100888000BFA0EFE3044047D002FDED0013324EA3B
:100898000E040132AB420475DED1DDF804900CF190
:1008A800010C029B4B4522D039F8024FB7E70020D4
:1008B80007B0BDE8F08FCB4509F10209FBD13368D9
:1008C80005EB0A042048D968A4B2814227D1802CBC
:1008D80028BF7F249B681D49B4808B420FD13F2AD3
:1008E80000D93F224046F28007B0BDE8F08F039A56
:1008F8008846E4E798476AE73046984772E70192E6
:1009080030469847019A8242ECD333680F4A9B6875
:100918009342E6D030469847431E9AB2E2E70192E6
:100928003046884784423368019AD3D3D968064849
:10093800814206D030468847441E3368A4B2019AE3
:10094800C8E77F24C6E700BFFD060008F9060008CF
:100958002DE9F04F89B00D7808AC9DF8488004E97E
:100968000C00002D00F0B4809DF818B02C46079BB1
:100978008A4606469DF819205D460593A4F120098C
:100988005FFA89F35E2B00F2A78033687149DB6850
:100998008B4240F0AB808020B3882B44834200F325
:1009A8009B8033686C499B688B4240F0A480402050
:1009B800F788BB18834200F38F80B188002A66D07D
:1009C8006FF00043059802FB093302FB092900EB8D
:1009D80043030238B3F802C000EB490B384603F171
:1009E8000209002D4FD043468846CDE901B4194687
:1009F8005446CDE903273F28CDF800904246A1464A
:100A080094BF4FF0000A4FF0010A00230C460EE095
:100A180049B902EBC7170BFA0EFE3744397D04B308
:100A280041EA0E01397501330132AB4220D00CFA8C
:100A380003F77F2A94BF51464AF0010100F0070EE0
:100A48004FF0010B17F4004F4FEAD007E0D100290F
:100A5800E9D102EBC7170BFA0EFE3744397D002C9B
:100A6800DED0013321EA0E010132AB423975DED105
:100A78002146019B4C46DDF8009001304B452DD0B6
:100A880039F802CFB7E7CB4509F10209FBD105EBED
:100A9800010931682F48CB681FFA89F9834241D18F
:100AA800B9F1800F28BF4FF07F098B682A49A6F853
:100AB80004908B4224D13F2F00D93F27F7809AF822
:100AC8000000A04205D11AF8014F002C7FF456AF60
:100AD800002009B0BDE8F08F0024F0E70B46A246DD
:100AE8004146029C9846DDE90327D0E7009230464C
:100AF8009847009A50E7009230469847009A57E77F
:100B08000092304698478742009AD7D333681249F3
:100B18009B688B42D1D0009230469847431E009A7A
:100B28009FB2CBE700923046984781453168009ADA
:100B3800BBD3CB680748834208D03046984700F1BA
:100B4800FF3931681FFA89F9009AAEE74FF07F093B
:100B5800ABE700BFFD060008F90600087F2914D896
:100B68003F2A12D84FEAD20C02F0070201EBCC114F
:100B78004FF0010C08440CFA02F1027D13B10A434C
:100B88000275704722EA0102027570472DE9F04F9D
:100B980083B05D1A0C9E002D9DF83490A6EB0208D8
:100BA800B8BF6D42B8F1000FB8BFC8F100088B425A
:100BB80094BF4FF0FF3A4FF0010A9642A5EB080E9A
:100BC8004DD84FF0FF347F2B019412D83F2E10D808
:100BD800F40806F007074FF0010C03EBC4140CFAF5
:100BE80007FC0444277DB9F1000F3FD047EA0C0702
:100BF80027758B4201D1964229D0C8F100077F2979
:100C080014D83F2A12D8D40802F0070B4FF0010C71
:100C180001EBC4140CFA0BFC044494F814B0B9F1B9
:100C2800000F17D04BEA0C0B84F814B0B7EB4E0F3B
:100C38004FEA4E0402DAAEEB080E5144A54202DD3B
:100C4800019CAE4422449942D9D19642D7D103B0EF
:100C5800BDE8F08F2BEA0C0B84F814B0E6E701240A
:100C68003F2E0194C9D87F2BB2D9C6E727EA0C07D3
:100C78008B422775BFD0C0E72DE9F04F2DED068BCD
:100C880083B0164698460D469DF850700190DDE9F0
:100C980012231344139A002A04DA52421392129A26
:100CA8001293134607EE903AB8EEE76BDDED127A31
:100CB8009FEDC15BB8EEE77B9FEDC14B27EE057B4F
:100CC80026EE056B87EE040B86EE045BF7EEC08B11
:100CD800B0EE680AB7EEC5AB0FF0DEFA07EE908A01
:100CE800B0EE408AB0EE680AF8EE679A0FF0DCF9C9
:100CF800F0EE408AB0EE4A0A0FF0CEFAB0EE409A13
:100D0800B0EE4A0A0FF0D0F968EEE98A20EE690AD7
:100D180029EE888A29EE899A70EE687AF0EE006AE0
:100D280039EE487A67EEA77AE7EE077AF4EEE67AC4
:100D3800F1EE10FA06D5139BB42B40F397804FF0D1
:100D4800010901E04FF000090124AE46C8F1000393
:100D5800CDF80090A4EB080C2146224600200CFA9E
:100D680004FC2546B946F046009F002F69D1594238
:100D780006EE900A424207EE901AB8EEE66A06EED0
:100D8800903AB8EEE77A07EE902A66EE084A139A88
:100D9800F8EEE77A27EE284AB42AF8EEE66A67EE14
:100DA800885A74EEC43A26EEA85A26EE096A66EE08
:100DB800806A67EE897A27EE007AF5EEC03A40F34A
:100DC8000381F1EE10FA00F15D8176EE473A74EE98
:100DD800C54AF5EEC03AF1EE10FAF5EEC04ACCBFBE
:100DE80001220022F1EE10FA00F1558136EE666A12
:100DF80035EEC55AB5EEC06AF1EE10FAB5EEC05A36
:100E0800CCBF01210021F1EE10FA00F14D8177EEFF
:100E1800E66AF5EEC06AF1EE10FACCBF01240024B0
:100E280075EEC45AF5EEC05AF1EE10FA00F12581BC
:100E380077EEC77AF5EEC07AF1EE10FACCBF01254D
:100E48000025002A40F0928000296CD1F4B9002DC9
:100E58003ED160455EDB01300CEB400ED8420EF10E
:100E6800010E08D0634558DB002B0DDD03B0BDEC47
:100E7800068BBDE8F08F63454FDB002BF4DA0133B6
:100E88000EEB430E0EF1010EF4466DE703EB080E70
:100E9800A6EB000ABEF17F0FD9D8BAF13F0FD6D81A
:100EA8004FEADA0B019F0AF0070A0EEBCB1E4FF050
:100EB800010BBE440BFA0AFB9EF814A0B9F1000F0F
:100EC80000F0B8804AEA0B0A8EF814A0002DC0D0B2
:100ED800A8EB030EA6EB000ABEF17F0FB9D8BAF152
:100EE8003F0FB6D84FEADA0B019F0AF0070A0EEB5C
:100EF800CB1E4FF0010BBE440BFA0AFB9EF814A060
:100F0800B9F1000F00F091804AEA0B0A60458EF8AB
:100F180014A0A0DA6345E646A6DA01330EEB430EC9
:100F28000EF1010EA0E703EB080E00EB060ABEF176
:100F38007F0F8BD8BAF13F0F88D84FEADA0B019FA1
:100F48000AF0070A0EEBCB1E4FF0010BBE440BFA5A
:100F58000AFB9EF814A0B9F1000F5ED04AEA0B0A0A
:100F68008EF814A0002C3FF472AF8FE7A8EB030EA5
:100F780000EB060ABEF17F0F3FF666AFBAF13F0FEE
:100F88003FF662AF4FEADA0B019F0AF0070A0EEB51
:100F9800CB1E4FF0010BBE440BFA0AFB9EF814A0BF
:100FA800B9F1000F31D04AEA0B0A8EF814A00029D3
:100FB8003FF44CAFB7E700BF7A008BFCFA21094039
:100FC8000000000000806640F1EE10FA4BD4009A51
:100FD80074EEC54AF5EEC04AF1EE10FA39D4002194
:100FE80035EEC55AB5EEC05AF1EE10FA27D40024F2
:100FF80075EEC45AF5EEC05AF1EE10FA3FF518AF87
:101008000025002A3FF420AFB0E72AEA0B0A8EF841
:1010180014A000293FF41AAF85E72AEA0B0A8EF8D4
:1010280014A0002C3FF413AF30E72AEA0B0A8EF81D
:1010380014A00EE72AEA0B0A8EF814A007E777EE49
:10104800E66AF5EEC06AF1EE10FACCBF012400247E
:10105800CEE736EE666AB5EEC06AF1EE10FACCBF9E
:1010680001210021BCE776EE473AF5EEC03AF1EEF1
:1010780010FACCBF01220022AAE70125002A3FF47A
:10108800E3AE73E774EEC54A0122F5EEC04AF1EE0D
:1010980010FA7FF5ABAE35EEC55A0121B5EEC05A50
:1010A800F1EE10FA7FF5B3AE0124B9E62DE9F04F61
:1010B800074610468BB0994610F8013B92468B467E
:1010C800149D159C9DF858801BB1FFF7E1F8431C4F
:1010D8009BB299F8002099F801E012FB03F3B5F9E7
:1010E80000C00FFA8EF6B5F904201BB2B5F9060058
:1010F80023EAE371B5F90230082C00F2BE81DFE87B
:1011080014F0F50025012E013C0145015101630150
:101118006A01090000286244B980B8BF0130521A38
:10112800FE8003EB600095B2A0EB56033D809CB2B5
:101138007C80DBF80030B649DA688A4240F0F180FA
:10114800802D28BF7F259A68B24BABF804509A428D
:10115800049340F0A4813F2C00D93F24D9F80430EF
:10116800ABF806409AF8005099F8006099F8012009
:101178000893002D00F0B6802C4645460997039148
:10118800A4F120085FFA88F35E2B00F23481DBF8C3
:1011980000300399DB688B4240F034818020BBF833
:1011A800043033449842C0F22681DBF800300499B9
:1011B8009B688B4240F030814020BBF80670BB181A
:1011C8009842C0F21881BBF80410002A64D06FF06E
:1011D8000043089802FB083302FB082800EB43038E
:1011E8000238B3F802C000EB4809384603F1020898
:1011F800002E4DD0CDF808900797CDE9054254460A
:101208003F28CDF804800A464FF0000394BF4FF002
:1012180000094FF0010988460EE049B902EBC717EB
:101228000AFA0EFE5F44397D05B341EA0E013975AD
:10123800013301329E4220D00CFA03F77F2A94BF73
:10124800494649F0010100F0070E4FF0010A17F472
:10125800004F4FEAD007E0D10029E9D102EBC717C8
:101268000AFA0EFE5F44397D002DDED0013321EAF3
:101278000E0101329E423975DED14146029BDDF8EE
:1012880004800130984500F0B88038F802CFB7E7FD
:10129800C14508F10208FBD106EB0108DBF8001094
:1012A8000398CB681FFA88F8834240F0CF80B8F1E2
:1012B800800F28BF4FF07F088B680499ABF8048033
:1012C8008B4240F0AE803F2F00D93F27ABF8067025
:1012D8009AF80030A34204D11AF8014F002C7FF489
:1012E8004FAF099F38460BB0BDE8F08F002AB98090
:1012F800FE80B8BF01320028B8BF01300CEB620590
:1013080003EB6004DBF80030A5EB61054049A4EB72
:101318005604DA68ADB2A4B28A423D807C803FF4BC
:101328000FAF0191584690478542DBF8003001998C
:10133800FFF409AFDA688A4200F0C980584690473E
:10134800431E01999DB2DBF80030FCE61FFA8CF5CC
:10135800B9809CB2FE80A7F800C07B80E9E6002A2D
:101368009CB27B80B8BF0132FE80B9800CEB620270
:10137800A2EB61039DB23D80DBE662449CB27B80B8
:10138800531AFE80B9809DB23D80D2E61C181FFA20
:101398008CF5B980A4EB0E04FE80A7F800C0A4B2B7
:1013A8007C80C6E6002A03EB0004FE80B8BF013249
:1013B800A4EB0E040CEB6202A2EB61039DB2B980B0
:1013C800A4B23D807C80B4E61C186244FE80A4EB85
:1013D8000E04531AF2E700281FFA8CF5B980B8BF3B
:1013E8000130A7F800C0FE8003EB6000A0EB5603B5
:1013F8009CB27C809DE600246AE7A246059CDDE954
:10140800062749E7019258469847019AC7E600BF60
:10141800FD060008F9060008019258469847019A07
:10142800CBE60192584698478742019AFFF44EAF9F
:10143800DBF8003004999B688B423FF446AF019279
:1014480058469847431E019A9FB23FE70192584673
:1014580098478045DBF80010019AFFF42DAFCB6860
:101468000398834230D05846984700F1FF38DBF89C
:1014780000101FFA88F8019A1EE7DBF80000002325
:101488001549C2683B608A427B6022D182681C464B
:101498001248ABF80430824204903FF45FAE0191E9
:1014A80058469047A04201993FF658AEDBF8003005
:1014B800049A9B6893423FF450AE0191584698476E
:1014C800441E0199A4B249E64FF07F08F4E67F254F
:1014D80039E61D461C4624E7FD060008F906000803
:1014E8002DE9F04F85B096469C469DF840400E9BEE
:1014F8009DF83C207CB361452AD89E4525D87F2994
:10150800754694BF0027012706E048EA060884F8D4
:1015180014800135AB4218D3EC083F2D05F00708BD
:101528004FF0010601EBC414F3D8002FF1D10444A5
:1015380006FA08F694F81480002AE6D1013528EA5C
:101548000608AB4284F81480E6D201318C45D4D227
:1015580005B0BDE8F08FACEB0109B9F1000FB8BFD9
:10156800C9F10009BCF17F0F94BF00270127BEF124
:101578003F0F94BF4FF0000B4FF0010B6145C0F0D7
:101588002F814FF0FF3AA7B9BBF1000F11D14FEAF5
:10159800DE040EF0070501260CEBC414AE4004442B
:1015A800257D002A00F05C81354325754FF0000B3E
:1015B8005F46614526D0C84675460E4601970E938C
:1015C8007F2E10D83F2D0ED8EC08012706EBC41447
:1015D800031905F0070407FA04F41F7D002A00F038
:1015E800138127431F754FEA4804002CC8BF56448F
:1015F800A14501DDC844013DB445E1D1AE45DFD187
:10160800019F0E9BA3EB0E09B9F1000FB8BFC9F1FA
:1016180000099E4580F001813F2BC9F1000894BF65
:1016280000240124002F40F03381002C40F0308149
:1016380001240194DC0803F0070501260CEBC4140F
:10164800AE400444257D002A00F0128135432575FB
:1016580000249E452DD0C24675466646CDE902B4A3
:101668007F2E14D83F2D12D8EC084FF0010B05F04F
:10167800070706EBC4140BFA07F7044494F814B0F0
:10168800002A00F0C5804BEA070B84F814B0BAEBC7
:10169800480F4FEA480402DAA8EB0908013E002C7B
:1016A80001DA019C2544B445DAD1AB42D8D1DDE951
:1016B80002B4A1EB0C08B8F1000FB8BFC8F10008DC
:1016C800614540F2C0807F294FF0010994BF002690
:1016D80001268CB986B9DC0803F00705012601EB61
:1016E800C414AE400444257D002A00F0C58035436B
:1016F80025750026614526D047461D460196BCF152
:101708007F0F13D83F2D11D8EC084FF0010A0CEBCE
:10171800C414061905F007040AFA04F496F814A08C
:10172800002A6CD04AEA040A86F814A07C00002C2F
:10173800C8BFCC44A04501DD4744013D6145DED129
:101748009D42DCD1019EAEEB030CBCF1000FB8BF8B
:10175800CCF1000C9E456CD9CCF10007BBF1000F11
:1017680040F09280002E40F08F804FF001094FEA40
:10177800DE040EF00705012601EBC414AE40044454
:10178800257D002A70D0354325759E453FF4E0AE8F
:10179800B8460D467F2D11D83F2B0FD8DC0803F033
:1017A800070A012605EBC41406FA0AF6044494F85D
:1017B80014A0FAB14AEA060A84F814A0B8EB470F55
:1017C8004FEA470402DAA7EB0C07013D002CB8BF2B
:1017D8004B44A942DED19E45DCD105B0BDE8F08F6F
:1017E8004FF0010A002F7FF4E6AEBBF1000F3FF483
:1017F800CEAEE0E62AEA060A84F814A0DEE72AEA72
:10180800040A86F814A091E727EA04071F75EAE698
:101818002BEA070B84F814B039E73F2BC9F100080D
:1018280094BF002401245FBB54BB4FF0FF340194E4
:1018380000E7CCF100074FF0FF39BBF1000FA4D14E
:10184800002E94D0A1E77F294FF0FF3994BF0026DE
:101858000126002C7FF44EAF002E3FF43CAF49E741
:1018680025EA06052575A1E625EA060525758CE70E
:1018780025EA06052575EBE625EA0605257538E708
:101888004FF0FF350195E4E6B8464FF0010980E7CF
:101898000125C2460195DFE684B02DE9F04182B00A
:1018A8000125064604460DF124088572274688E876
:1018B8000E00BDF84C3026F8083F304601F010F80D
:1018C800BDF84E30A57127F8043F384601F008F8F6
:1018D8004146204602F090FE0021384601F0DCF82F
:1018E8000A2003F0A3F829463846002701F0D4F867
:1018F8000A2003F09BF8AE23304600218DF807300C
:1019080001F0CAF82A460DF107016423204602F0C7
:10191800FBFED523304600218DF8073001F0BCF8D6
:101928002A460DF107016423204602F0EDFE8023CC
:10193800304600218DF8073001F0AEF82A460DF147
:1019480007016423204602F0DFFEA8233046002169
:101958008DF8073001F0A0F82A460DF1070164233D
:10196800204602F0D1FE3F23304600218DF8073093
:1019780001F092F82A460DF107016423204602F08F
:10198800C3FEDA23304600218DF8073001F084F8D1
:101998002A460DF107016423204602F0B5FE122302
:1019A800304600218DF8073001F076F82A460DF10F
:1019B80007016423204602F0A7FED3233046002106
:1019C8008DF8073001F068F82A4664230DF1070105
:1019D800204602F099FE394630468DF8077001F02E
:1019E8005BF82A460DF107016423204602F08CFEBD
:1019F8004023394630468DF8073001F04DF82A4625
:101A08000DF107016423204602F07EFEA623394625
:101A180030468DF8073001F03FF82A460DF10701EE
:101A28006423204602F070FEA423394630468DF820
:101A3800073001F031F82A460DF1070164232046EA
:101A480002F062FE8D23394630468DF8073001F0EA
:101A580023F82A460DF107016423204602F054FEBC
:101A68001423394630468DF8073001F015F82A4618
:101A78000DF107016423204602F046FEA1233946F2
:101A880030468DF8073001F007F82A460DF10701B6
:101A98006423204602F038FEC823394630468DF8C4
:101AA800073000F0F9FF2A460DF1070164232046AC
:101AB80002F02AFE8123394630468DF8073000F0BF
:101AC800EBFF2A460DF107016423204602F01CFEB5
:101AD8008F23394630468DF8073000F0DDFF2A465F
:101AE8000DF107016423204602F00EFED923394682
:101AF80030468DF8073000F0CFFF2A460DF1070178
:101B08006423204602F000FE2523394630468DF82E
:101B1800073000F0C1FF2A460DF107016423204673
:101B280002F0F2FDDB23394630468DF8073000F02D
:101B3800B3FF2A460DF107016423204602F0E4FDB5
:101B48003423394630468DF8073000F0A5FF2A4681
:101B58000DF107016423204602F0D6FDAF23394674
:101B680030468DF8073000F097FF64232A460DF1C0
:101B78000701204602F0C8FD02B0BDE8F04104B0FC
:101B8800704700BF2DE9F04FA648BBB000F086F9BA
:101B98000021A4484FF0000800F054FA40F606323D
:101BA800A14B0A20ADF83C200FAD109300F078F956
:101BB80003461E201AAC1DAFADF8643000F070F972
:101BC80002230B220121CDF85480CDF858806E46AF
:101BD8001391ADF86600ADF83E20DFF878B2CDE994
:101BE80017330823CDE9118814930FCD0FC40FCDF7
:101BF8000FC495E8070084E807000FCF0FC697E8E1
:101C08000F0086E80F001AAB454688480ECBFFF751
:101C180043FE4FF4FA7002F009FF6B1E032B00F22B
:101C2800FA80DFE813F0E700E500E3000400804BEA
:101C380093E80300ADF86C10090C1A908DF86E103B
:101C48006B1C7C4CFF217C48DBB2A4FB03244FF4C3
:101C5800806204F0FC0505EB94041B1BDDB20EF05A
:101C6800DFFC0023754ACBF804309DF8683092F801
:101C780000A051785768002B7DD01AACB94627468A
:101C8800203BDAB25E2A76D8BBF804E00EEB0A04F1
:101C9800802C70DCBBF80620501840286BDC00292B
:101CA8005AD06FF00046A9F10208104601FB0366FE
:101CB80001FB031309EB460608EB430806F1020C87
:101CC8007688BAF1000F43D0CDF820E00D92CDE927
:101CD8000B91A146CDE909573F28089A4FF0000318
:101CE80094BF002701270DE045B902EBC1110EFA98
:101CF80004F459440D7D25EA04050D7501330132BC
:101D080053451ED006FA03F17F2A94BF3D4647F09B
:101D1800010500F007044FF0010E11F4004F4FEADF
:101D2800D001E1D1002DE9D102EBC1110EFA04F482
:101D380001330132594453450D7D44EA05040C75BD
:101D4800E0D1E04500F101005DD03CF8026FC3E747
:101D5800E0450CF1020CFBD1A3B27F2B28BF7F23F7
:101D6800402AABF8043008BF3F2217F8013FABF810
:101D78000620002B84D1304FB024002600213048A3
:101D88008DF83B4000F088FE642301220DF13B01F1
:101D9800264802F0B9FC3146294801348DF83B60E9
:101DA80000F07AFE012264230DF13B011F4802F086
:101DB800ABFC1023314622488DF83B3000F06CFE16
:101DC800642301220DF13B01184802F09DFC01211A
:101DD8001B48E4B200F060FE3946642380221348B1
:101DE800803702F091FCB82CC7D112E7154B1FE7DA
:101DF800154B1DE7154A1AAB07CA03C323F8022B74
:101E0800120C1A701CE74C46DDF82C90DDE90957D6
:101E1800DDE90C12A0E70E4B1AAC0FCB07C42370F8
:101E28000EE700BF080800240105060AFC03002489
:101E38004C0B0108CDCCCCCC080400248401002430
:101E480004040024440B01083C0B0108300B010872
:101E5800200B0108F40300240A4B0B490B4A1846CF
:101E680010B500241C605C611C62DC630EF010F984
:101E78000748084B8460054A07490360BDE81040DD
:101E88000EF006B908080024E10600080000002446
:101E9800F40300245C0B0108F5060008704700BF36
:101EA800202882B009D8084B03EB400213F8103001
:101EB800507843EA002002B0704701230C2043EA1F
:101EC800002002B0704700BF900B010810B540F227
:101ED80003338EB000244FF60B7240F20341ADF885
:101EE800083009A80123ADF81020ADF824202246B7
:101EF800ADF80C100094029907940C94CDE90544B0
:101F0800CDE90A4400F0F0FB04A801232246039916
:101F1800009400F0E9FB09A800F0CCFC10B90120FE
:101F28000EB010BD04A800F0C5FCA0420CBF0220F2
:101F380020460EB010BD00BF2DE9F04103239AB032
:101F4800012700240646CDE914373B4BCDE9104361
:101F580040F20453CDE91647ADF84830FFF7B6FF15
:101F6800B842054625D0022845D040F60132334B09
:101F78000DF12C081894ADF82C200B981997CDF872
:101F88004A3000F0E3F810A906F13C0001F058FCD3
:101F9800302003224FF07E5341460D930E93CDE936
:101FA8000B02F26B06F1140000F04CFB1AB0BDE80E
:101FB800F0811023214A06A906908DF828300DF1EA
:101FC8002C081F4BCDF84A2007930294CDE918043A
:101FD800CDE9080402A800F0DFFE0823029A03A94D
:101FE8004046ADF80C508DF80E40049505930B94BF
:101FF80000F0ECF8C7E700200121104B0DF12C0888
:102008003A460094CDF84A304FF60B730C94ADF86D
:102018002C302346CDE9180140F601314046ADF891
:1020280018100699CDE90D4400F05EFB21464046A4
:1020380000F04CFCA7E700BF0402040404060403F4
:102048000704010B2DE9F04704462DED028B82B001
:1020580000294DD0012140F2011200230091ADF872
:1020680004208DF80630364A0127364B04F104095E
:10207800354904F12908626040F20272A36040F613
:102088000663E16004F1250AA4F82520A4F82930A4
:10209800278284F8277084F82B7002F063FE0546C7
:1020A80002F0C6FC6946064650BB4DB304F1300049
:1020B8008DF8067002F0DEFD072D3CD104F1140501
:1020C8002046FFF739FF284600F0F8FA2846B0EE18
:1020D800408A00F0EFFAD0ED007AF8EE677A88EEE1
:1020E800277A84ED0E7A02B0BDEC028BBDE8F0874A
:1020F80040F2011300918DF80610ADF80430B2E7F4
:1021080004F1300002F0B6FD072D11D049462046F3
:1021180001F08AF80EB9002DD0D1504600F0E0FB4E
:10212800404600F0DDFB04F1120000F079F9C5E744
:10213800002EF2D1C2E74946204601F075F8BDE706
:102148000508050905070506050A060610B584B041
:1021580003460124ADF8040003A8ADF80C30ADF82F
:102168000E4000F0BDFB214603A800F095FC204678
:1021780002F05CFC002103A800F08EFC204602F06F
:1021880055FC214603A800F087FC04B010BD00BF31
:1021980010B5C2F3002384B00C46017C8DF80D20E5
:1021A80043EA4402FA2402238DF80C2003AA00947F
:1021B80000F088FE18B10124204604B010BD044682
:1021C8000A2002F033FC204604B010BD034670B567
:1021D80043F8042B044684B007C983E80700A379B1
:1021E80083B91A210B461E22FA2523742046ADF81E
:1021F8000C20022303AA009500F064FE28B10120F8
:1022080004B070BD1B210B46EDE70A2002F00EFC5E
:102218004FF4B85200950223ADF80C20204603AACB
:10222800217C00F04FFE0028E9D10A2002F0FEFBD5
:1022380041F2027200950223ADF80C20204603AA51
:10224800217C00F03FFE0028D9D10A2002F0EEFBE5
:10225800042200950223ADF80C20204603AA217C15
:1022680000F030FE0028CAD10A2002F0DFFB062267
:1022780000950223ADF80C20204603AA217C00F02B
:1022880021FE0028BBD10A2002F0D0FB41F208222F
:1022980000950223ADF80C20204603AA217C00F00B
:1022A80011FE0028ABD10A20064602F0BFFB0095BC
:1022B800022303AA217C2046ADF80C6000F002FE40
:1022C80000289CD1304602F0B1FB009522790C23FE
:1022D8002046002A8DF80C3003AA4FF0020314BFE1
:1022E800622142218DF80D10217C00F0EBFD0028C1
:1022F80085D1304602F09AFB2279D4E902310B43AA
:10230800DBB20AB943F0400362790AB143F0200313
:102318000E22FA258DF80D302046009502238DF8FF
:102328000C2003AA217C00F0CDFD00287FF467AFC4
:102338000A2002F07BFB102200950223ADF80C2046
:10234800204603AA217C00F0BDFD00287FF457AF8A
:102358000A2002F06BFB122100950223ADF80C1045
:1023680003AA217C204600F0ADFD00287FF447AF8A
:102378000A2002F05BFB012209212046FFF708FF33
:10238800003818BF01203BE7F0B5102387B0234C75
:10239800012200250126002702A920460195CDE942
:1023A80002234FF48052CDE9046708F00DFB642046
:1023B80002F07EFF02A94FF480522046CDE904675F
:1023C80002261027CDE9026708F0FEFA032210233F
:1023D80002A92046CDE9022300230422CDE90423E3
:1023E8004FF4805208F0F0FA40F23223042202A996
:1023F800019310232046CDE90223019A0123059277
:102408004FF48052049308F0DFFA40F606012046A4
:1024180008F0FAFA284607B0F0BD00BF50080024BB
:102428001C4B00221C494FF0400C30B5054689B0C2
:102438000220596007219A601A620124DA620A228E
:102448004FF4006EDC6006922022CDE900010420E2
:102458000821CDE9020103201021CDE9040108205B
:102468006946C3E904024FF4C072181DC3E906C2E5
:102478004FF48052C3E909E208F07CFA38B92846DB
:10248800FFF782FF003818BF012009B030BD204691
:1024980009B030BD4C08002440410052614A002177
:1024A800D0B513688EB00A91002B40F0B9805E4B0E
:1024B80001214FF683700C2411600221D3F8D42037
:1024C8000026032742F48052C3F8D420D3F8D4203E
:1024D80002F480520092009AD3F8E02042F01002F1
:1024E800C3F8E020D3F8E02002F010020192019A2C
:1024F800D3F8E02042F04002C3F8E020D3F8E0200F
:1025080002F040020292029AD3F8E02042F0080258
:10251800C3F8E020D3F8E02002F008020392039AFF
:10252800D3F8E02042F48072C3F8E020D3F8E0202A
:1025380002F480720492049AD3F8E02042F08002F8
:10254800C3F8E020D3F8E02002F080020592059A53
:10255800D3F8E02042F02002C3F8E020D3F8E020CE
:1025680002F020020692069AD3F8E02042F0040214
:10257800C3F8E020D3F8E0300C9403F00403079389
:102588000323079A0B93CDE9080108A9274803F00C
:1025980035FF48F23712022308A925480C94CDE9E3
:1025A8000823CDE90A6703F029FF4CF203720223DE
:1025B80008A920480C94CDE90823CDE90A6703F05F
:1025C8001DFF40F2FF62022308A91B480C94CDE9C5
:1025D8000823CDE90A6703F011FF4FF60C720223B6
:1025E80008A916480C94CDE90823CDE90A6703F039
:1025F80005FF4FF63F02022308A911480C94CDE9C4
:102608000823CDE90A6703F0F9FE2022022308A96E
:102618000A480C94CDE90A67CDE9082303F0EEFED9
:102628000EB0D0BD480800240044025800100258DB
:1026380000180258000C025800200258001C0258CA
:102648000014025830B5184C154685B0046004F1E2
:10265800080EEC460FC98EE80F00D4ED047AF5EEAB
:10266800C07A8CE80F00F1EE10FA1ADDB7EE006AB6
:1026780094ED057A27EE277AC6EE276A84ED0D7A5F
:10268800C4ED0C6A6DB1204640F8185F01F0D0F92E
:10269800064903690020064A2162A262E36005B088
:1026A80030BD012005B030BD840800240020003072
:1026B8000000003000680830704700BF006818301C
:1026C80001F0B8B910B4074B4FF07E513024002206
:1026D800032019619C60D8605DF8044B5961C3E917
:1026E800062270478408002410B592B0ADF8041093
:1026F8000180C9B2149C0B29C460C0E901233FD0F2
:1027080090F801C0BCF10F0F3AD8022A3FD0032A33
:1027180002D0012A00D000220E92012B02D0022BF7
:1027280018BF0023022C0F932CD0032C2AD0012C85
:1027380028D000230A29109327D85C4A02EB81226B
:1027480002610A2914D8DFE801F0A39587796B5D47
:102758004F4133250600564BD3F8E01041F4806111
:10276800C3F8E010D3F8E03003F480630C930C9BBB
:1027780001230DA9104603FA0CF30D9303F03EFE56
:1027880012B010BD0A291094D7D90022D8E7112217
:102798000E92C2E7464BD3F8E01041F40071C3F83B
:1027A800E010D3F8E03003F400730B930B9BDFE7E2
:1027B8003F4BD3F8E01041F48071C3F8E010D3F830
:1027C800E03003F480730A930A9BD1E7384BD3F8BF
:1027D800E01041F08001C3F8E010D3F8E03003F0D6
:1027E80080030993099BC3E7314BD3F8E01041F00C
:1027F8004001C3F8E010D3F8E03003F04003089339
:10280800089BB5E72A4BD3F8E01041F02001C3F844
:10281800E010D3F8E03003F020030793079BA7E705
:10282800234BD3F8E01041F01001C3F8E010D3F8BF
:10283800E03003F010030693069B99E71C4BD3F88E
:10284800E01041F00801C3F8E010D3F8E03003F0DD
:1028580008030593059B8BE7154BD3F8E01041F06F
:102868000401C3F8E010D3F8E03003F00403049344
:10287800049B7DE70E4BD3F8E01041F00201C3F84A
:10288800E010D3F8E03003F002030393039B6FE7F3
:10289800074BD3F8E01041F00101C3F8E010D3F87A
:1028A800E03003F001030293029B61E70000025845
:1028B8000044025808B5012143780069994089B25B
:1028C80003F0A4FF003818BF012008BD01230A4601
:1028D8004178006903FA01F189B203F09DBF00BF96
:1028E8008378022B30B504468FB037D0032B33D012
:1028F800012B31D000230A93E378012B2AD0022B35
:1029080028D000230B93002320460C9302F0AEFB43
:102918000546204602F0B2FB23780990082B13D80D
:10292800DFE803F01F3245586B7E91A40500594B30
:10293800D3F8E02042F48072C3F8E020D3F8E03006
:1029480003F480730893089B09A9284603F056FDF1
:102958000FB030BD0B93D6E70A93CDE711230A9346
:10296800CAE74C4B09A92846D3F8E02042F00102F7
:10297800C3F8E020D3F8E03003F001030093009B94
:1029880003F03CFD0FB030BD424B09A92846D3F8EF
:10299800E02042F00202C3F8E020D3F8E03003F070
:1029A80002030193019B03F029FD0FB030BD394BA1
:1029B80009A92846D3F8E02042F00402C3F8E02031
:1029C800D3F8E03003F004030293029B03F016FDF2
:1029D8000FB030BD2F4B09A92846D3F8E02042F0AC
:1029E8000802C3F8E020D3F8E03003F008030393AB
:1029F800039B03F003FD0FB030BD264B09A9284601
:102A0800D3F8E02042F01002C3F8E020D3F8E03019
:102A180003F010030493049B03F0F0FC0FB030BDE7
:102A28001C4B09A92846D3F8E02042F02002C3F83D
:102A3800E020D3F8E03003F020030593059B03F072
:102A4800DDFC0FB030BD134B09A92846D3F8E020B0
:102A580042F04002C3F8E020D3F8E03003F040032E
:102A68000693069B03F0CAFC0FB030BD094B09A9B9
:102A78002846D3F8E02042F08002C3F8E020D3F8DB
:102A8800E03003F080030793079B03F0B7FC0FB017
:102A980030BD00BF0044025870B506460D4602F02E
:102AA800E5FA0446304602F0E9FA2A1E01462046B5
:102AB80018BF0122BDE8704003F0AEBE0023122209
:102AC80070B586B0CDE9022304930368032B01D8BF
:102AD80004230593061D841D304602F0C7FA0546F7
:102AE800304602F0CBFA034601A92846019303F0C9
:102AF80085FC204602F0BAFA034620461C4602F03E
:102B0800BDFA01A903462046019303F077FC06B0FD
:102B180070BD00BF634A0368934210B58CB028D0DB
:102B2800614A934258D0614A934200F09480604AC7
:102B3800934201D00CB010BD5E4C5F48D4F8E03031
:102B480043F00203C4F8E030D4F8E03003F00203A5
:102B58000A930A9BFFF7B2FFD4F8F43043F08003DE
:102B6800C4F8F430D4F8F43003F080030B930B9BD3
:102B7800E0E7504C5148D4F8E03043F00203C4F881
:102B8800E030D4F8E03003F002030193019BFFF733
:102B980095FFD4F8E83000221F2043F400131146B3
:102BA800C4F8E830D4F8E83003F400130293029B29
:102BB800D4F8D83043F00103C4F8D830D4F8D8306A
:102BC80003F001030393039B02F09CFB1F200CB04E
:102BD800BDE8104002F0D4BB364C3948D4F8E03098
:102BE80043F08003C4F8E030D4F8E03003F0800309
:102BF8000493049BD4F8E03043F00203C4F8E030B7
:102C0800D4F8E03003F002030593059BFFF756FF65
:102C1800D4F8E8300022212043F480031146C4F898
:102C2800E830D4F8E83003F480030693069BD4F820
:102C3800D83043F00103C4F8D830D4F8D83003F0C2
:102C480001030793079B02F05DFB21200CB0BDE850
:102C5800104002F095BB1B48FFF730FF154B0022D0
:102C68004820D3F8E840114644F40004C3F8E8408B
:102C7800D3F8E84004F400040894089CD3F8D8403A
:102C880044F00104C3F8D840D3F8D83003F0010366
:102C98000993099B02F036FB48200CB0BDE81040B0
:102CA80002F06EBB0054004000580040005C004039
:102CB800001C005800440258480B0024C008002497
:102CC80098090024700A00242DE9F0431A4B87B0B4
:102CD80000254FF010099E46EC46184BFF22E046AF
:102CE80067461A700EF118060EF13004CDE900554A
:102CF800CDE90255ADF80090BCE80F00CDE90455C8
:102D0800AEE80F009CE803000095ADF800908EE84F
:102D18000300B8E80F000FC69CE803000095ADF863
:102D2800009086E803000FCF0FC49CE8030084E8F6
:102D3800030007B0BDE8F08304000024BC080024A9
:102D480010B5EFF3108472B6084B1A78120602D544
:102D580004B962B610BD1B78D82205485BB202FBE5
:102D68000300143002F0F8FFF2E700BFBC080024AB
:102D7800C0080024014804F0E7BB00BF4C09002448
:102D8800014804F0E1BB00BF240A0024014804F014
:102D9800DBBB00BFFC0A00242DE9F0430F68D824F0
:102DA8003F4D85B007FB04F4032F05EB04030360D4
:102DB80040DCCB680E46012B3CD84DD04FF0D808EC
:102DC800B646DFF8FC9008FB0758BEE80F00C4467B
:102DD800ACE80F00DEF800300DF1100ECCF8003032
:102DE800D8F808C099E80F000EE90F000EEB87032A
:102DF800BCF1010F53F8103CC8F88C3031D0BCF14D
:102E0800020F42D0BCF1000F35D0317C8C34D8236E
:102E1800002201202C4403FB07534900C3E9260282
:102E2800C3F894102046C3E92822C3E92A2204F0F3
:102E38007DF918B1012005B0BDE8F08301462046B0
:102E480004F08EFB0028F5D10146204604F0B2FBC1
:102E5800003818BF0120EEE70B7C103B672BADD97B
:102E6800E8E701F07DFF0F4B98420CBF0E4B0F4B6C
:102E7800C8F89030C9E701F073FF0A4B98420CBFBD
:102E88000B4B0C4BC8F89030BFE701F069FF054BBE
:102E980098420CBF084B094BC8F89030B5E700BF03
:102EA800C0080024000E27072D0FB0303211D020A3
:102EB8005F4390608A62E030200BA0101A098010EE
:102EC800EC0A01082DE9F041D0F8008082B00D46E7
:102ED80017461E4608F18C04204604F03DFB2028C6
:102EE800FAD1D8F80C3073B96D002046089C3346E7
:102EF8003A46A9B2009404F06FF9003818BF0120CF
:102F080002B0BDE8F081089B32463946204604F0FD
:102F180037FAF2E7044B10221A7483F8E82083F892
:102F2800C02183F898227047C008002430B50023D8
:102F380095B04FF48071062204460B9306921393C2
:102F4800CDE90C13CDE90E33CDE9113301F00AFFB9
:102F580007282BD004F1100541F2883206A928462B
:102F680005F03AF928B10123184684F85C3015B009
:102F780030BD0222022306A92846CDE900231022EB
:102F88000123CDE9022300224FF48003CDE9042375
:102F980005224FF0807306926A460F9341F28833F8
:102FA80005F086FA0028DED115B030BD03230120D4
:102FB80084F85C3015B030BD70B50023A4B04FF074
:102FC80080724FF480750446ADF806300D93CDE954
:102FD80010320122CDE90E53CDE91223CDE9143385
:102FE800002943D0F02300F1100508AEADF80630F3
:102FF800C02341F2883231462846089305F0ECF8A0
:1030080028B10123184684F85C3024B070BD41F221
:1030180088320DF10601284605F048F903460028D4
:10302800EFD105224FF480711E93284616924FF077
:1030380080721B9321931F9202AA9FED1F7BCDE9FB
:103048001C13CDE922338DED027B9FED1D7B41F2F0
:10305800883316A98DED047B9FED1B7B8DED067BD8
:1030680005F026FA0028CCD124B070BD00F1100577
:1030780008AE612341F2883231462846089305F0AC
:10308800ABF80028BDD141F288320DF1060128467F
:1030980005F08AF90028B4D1BDF80630204623F09F
:1030A800780343F04003ADF80630FFF73FFF0028F0
:1030B8009ED0A6E7AFF300800000000001000000EA
:1030C80010000000010000000000000000004000A7
:1030D8002DE9F04F00234FF4807501264FF08078DA
:1030E80004462DED028BABB08DF807301393219376
:1030F800299314950E96CDF85C80CDE91533CDE96A
:103108001863CDE91A33CDE92253CDE92433CDE94B
:10311800273306231C9301F025FE072808D004F165
:10312800100741F288321CA9384605F055F840B11D
:103138000123184684F85C302BB0BDEC028BBDE847
:10314800F08F4FF0020A4FF0020B4FF0050941F2E1
:10315800883308AA1CA93846CDF89480CDF8709019
:103168009FED2D8BCDE908AB4FF0000A4FF4800B93
:103178008DED0A8BCDE90CAB05F09AF90028D7D173
:1031880041F2883238460EA905F026F80028CFD13A
:10319800402341F288320DF1070138468DF8073097
:1031A80005F084F80028C3D141F288330EA902AA99
:1031B8003846CDF83890CDF85C809FED197B8DEDC1
:1031C800048BCDE906AB8DED027B05F071F9034662
:1031D8000028ADD1CDF870904FF00109CDF894805A
:1031E8004FF00008219308AA29931CA93846229574
:1031F800CDE92333CDE9273341F288338DED0A8BAE
:10320800CDE90CABCDE9088905F052F9002893D037
:10321800304684F85C608FE7100000000100000071
:1032280040000000400000002DE9F043624CA3B0CC
:103238000D46046001F096FD072800F0A980286873
:1032480023466968AA6807C31E46AB8926F8043B6B
:103258003046257B677B04F0A1FFE0B9574B012D71
:103268004FF00108E061236114BF4FF480134FF45D
:103278000003C4E9058893FAA3F3B3FA83F34FF480
:103288008079013BC4F82490C4E90B0030462362DE
:1032980004F018FF38B10122134684F85C20184660
:1032A80023B0BDE8F08366230B90139041F2883277
:1032B80006A90693CDE90C90CDE90E00CDE91100E1
:1032C800304604F089FF0028E5D1992341F288327D
:1032D80006A93046069304F07FFF0028DBD10523BA
:1032E8001C9019906A4614934FF08073219014A98A
:1032F8001D9341F288339FED2A7BCDE91A90CDE9E1
:103308001F008DED007B9FED287B30468DED027B05
:103318009FED277B8DED047B05F0CAF80028BAD114
:1033280029462046FFF748FE0028B4D12046FFF77B
:10333800CFFE03460028AED1002FB0D118933046F7
:103348000027002606AA14A9CDF86890CDE91F33F6
:10335800EB2314934FF440631B934FF400531793DC
:103368004FF440431C93A0231693062319934FF060
:10337800805321934FF04073CDE906671D9305F004
:103388000FF9034600288AD0434684F85C8086E714
:1033980001230322184684F85C2023B0BDE8F0839B
:1033A8000000000001000000100000000100000003
:1033B8000000000000004000200C002400500052D3
:1033C8002DE9F04F8FB0414B0024026800AF9A42BC
:1033D8007C63C7E90944C7E90B4403D03C37BD46C1
:1033E800BDE8F08F3A4B40F609213A48EB46D3F84E
:1033F800D42007F11C0607F1220A4FF0020942F413
:1034080080424FF00308C3F8D420D3F8D42002F444
:103418008042BA60BA68D3F8E02042F04002C3F8AC
:10342800E020D3F8E02002F04002FA60FA68D3F80E
:10343800E02042F02002C3F8E020D3F8E02002F0B8
:1034480020023A613A69D3F8E02042F01002C3F84A
:10345800E020D3F8E02002F010027A617A69D3F80C
:10346800E02042F00202C3F8E020D3F8E030F8612F
:1034780003F002033984BB61174B7B60BB697B682F
:1034880053F8040F7B6001F0F1FD7B68054618686E
:1034980001F0F4FD16F8013B786207F12401284693
:1034A800C7F830807B63C7E90A9402F0A7FF564546
:1034B800E5D100225C20114601F024FF5C2001F0D8
:1034C8005FFF3C37DD46BD46BDE8F08F0050005237
:1034D800004402580A0A09097C0C0024114B0268AE
:1034E8009A4200D07047104A70B5D2F8D4300F4CC9
:1034F80023F4804304F11806C2F8D43054F8040FBA
:1035080001F0B4FD0546206801F0B8FD01462846E3
:1035180003F0B4F8B442F1D15C20BDE8704001F08A
:103528003DBF00BF00500052004402587C0C0024EC
:10353800014805F0C1B800BF300C0024084B1A1D23
:10354800981D03F1080110B49C1C9A6603F10A0245
:10355800C3E91834C3E91B015DF8044B5A67704787
:10356800200C002438B5036871B9026A00F12805F7
:1035780000F5AC74012A0CBF002140218BBB1D4B08
:103588005722C0F858310DE0426A00F1C00500F535
:10359800E874012A0CBF00214021EBB1164B5A22D6
:1035A800C0F8D03100232046C4E901214FF48052ED
:1035B8004FF48061636262614FF48042C4E9033171
:1035C8004FF48073C4E906234FF40033236202F0FA
:1035D8004BF858B1FFBEFEE7084B5822C0F8D0316F
:1035E800E0E7074B5922C0F85831DBE7C5E920442A
:1035F800A56338BD10000240700002402800024058
:10360800580002402DE9F043821D05468BB0031D8A
:1036180005F10A010830CDE9052305F10C02AB6973
:10362800CDE907010992002B3DD0EB69B3FA83F885
:103638004FEA58180123022205AE0AAF4FF00609D7
:103648000393CDE9012356F8044B2B792278934252
:1036580016D02B68F3B1012B02D1F2B10A230493DF
:10366800204601F00BFD03462046009301F0FEFCC6
:10367800694602F0C3FEBE42E5D10BB0BDE8F08357
:10368800697963789942E4D1B8F1000FF3D02B68D7
:10369800002BE0D1CDF81090E2E76378022B14BF3D
:1036A8000A230823DBE74FF00108C3E7534A0368FE
:1036B800934230B505468BB055D02032934252D054
:1036C8004F4A934204D02032934201D00BB030BD10
:1036D8004C4C4D48D4F8E03043F00103C4F8E030D6
:1036E800D4F8E03003F001030593059BD4F8E030EB
:1036F80043F00803C4F8E030D4F8E03003F00803DE
:103708000693069BD4F8E03043F04003C4F8E03059
:10371800D4F8E03003F040030793079BD4F8F03067
:1037280043F40003C4F8F030D4F8F03003F4000395
:103738000893089BFFF766FFD4F8D830296843F050
:1037480001032F4A3048C4F8D830891AD4F8D83041
:1037580018BF012103F001030993099B0BB0BDE8D1
:103768003040FFF7FFBE274C2848D4F8E03043F03C
:103778000103C4F8E030D4F8E03003F0010300930B
:10378800009BD4F8E03043F01003C4F8E030D4F8DC
:10379800E03003F010030193019BD4F8E03043F0CC
:1037A8004003C4F8E030D4F8E03003F0400302935B
:1037B800029BD4F8F03043F48003C4F8F030D4F816
:1037C800F03003F480030393039BFFF71BFFD4F847
:1037D800D830296843F00103084A0C48C4F8D830A7
:1037E800891AD4F8D83018BF012103F001030493D3
:1037F800049B0BB0BDE83040FFF7B4BE045801404D
:10380800045C014000440258F40E0024980C002483
:10381800014802F0A1BA00BFF00D0024014802F0EF
:103828009BBA00BF680E0024014802F095BA00BF99
:103838004C100024014802F08FBA00BFC4100024C5
:103848002DE9F04F0C684FF41776754F87B004FBDD
:1038580006F6012C07EB060AC0F800A000F3A080CA
:103868000D468E464FF00008D44669A3D3E90023DD
:1038780069A1D1E90001CDE9022306ABCAF850825B
:1038880003EB8403CDE9040153F810BC53F8083C5A
:10389800CAE992880193BEE80F00ACE80F00BEE8C1
:1038A8000F00ACE80F00019B9EE80300CAF828B09F
:1038B800CAF8C0308CE803002B69042B0CD8DFE869
:1038C80003F0737D879103004FF41773554A03FB88
:1038D80004739A64C3F8E020AA692B6A002A43D0CB
:1038E800002B4FF4177308BF022203FB047318BFA1
:1038F8000322DA6201221A63EA696B6A002A40D15C
:10390800191E4FF4177318BF012103FB0473C3E991
:1039180031126B69022B05D8434A12F80380434AD7
:1039280052F823904FF4177306F12800424649468F
:1039380003FB04740023384463646363E365C4F8D9
:10394800DC30C4F8CC30C4F8F430C4E90F33C4E92F
:103958001533C4E93533C4E93B33022306F04EFF7F
:10396800002849D0FFBEFEE7191E4FF4177318BF91
:10397800012103FB0473C3E90B12EA696B6A002A8D
:10398800BED0002B4FF4177308BF022203FB047349
:1039980018BF0322C3F8C4200122C3F8C820B8E71F
:1039A800012007B0BDE8F08F4FF417734FF4FA52B7
:1039B80003FB04739A64C3F8E0208DE74FF4177390
:1039C8004FF47A5203FB04739A64C3F8E02083E748
:1039D8004FF417734FF4FA4203FB04739A64C3F865
:1039E800E02079E74FF417734BF6803203FB04733A
:1039F8009A64C3F8E0206FE706F1C000022342464C
:103A08004946384406F0FAFE0028CAD0FFBEFEE751
:103A180004580140045C014024580140245C0140E2
:103A2800980C002400770100D40B0108D80B01087A
:103A38000068704703681B69042B05D8044A02EB29
:103A4800830393ED000A70479FED020A704700BF99
:103A5800E40B010800803B4770B5002304464FF48F
:103A6800806204214FF440353448C4F83821C4F842
:103A7800D410C4F83431C4F84C113149C4F8B0003A
:103A8800C4F82811C4E92F32C4E93133C4E9333505
:103A9800C4E93733C4E94F33C4E95135C4E9553370
:103AA800A2680323C4F8D830C4F85031042A0AD8CD
:103AB800DFE802F01F262D34030055225623C4F8F0
:103AC800B420C4F82C310022402304F1B005C4F816
:103AD800B8202846C4F8303101F0C6FD08B1FFBE51
:103AE800FEE704F59476304601F0BEFDE8B1FFBE6E
:103AF800FEE725222623C4F8B420C4F82C31E2E7D7
:103B080027222823C4F8B420C4F82C31DBE73D224F
:103B18003E23C4F8B420C4F82C31D4E753225423EC
:103B2800C4F8B420C4F82C31CDE704F12803C4E963
:103B38002865C4F8E830C4F8603170BD400402401C
:103B4800580402402DE9F04F814683B00E461746CF
:103B58001D4600F12804204607F08CFE0128824605
:103B6800F9D14846FFF778FF8046002835D1EFF3B2
:103B78001083019372B6DFF888B00C9B99F908207E
:103B8800DFF880A0DFF88090CBF800300D9B89F833
:103B98000020CAF800300DB11846A847BAB231461D
:103BA800204607F0DDF930B9019B03B962B64046FB
:103BB80003B0BDE8F08F0023CBF80030CAF800301E
:103BC800FF2389F800300C9B8BB101210D988846A2
:103BD8009847019B002BEAD1E8E70C9B53B1D046EC
:103BE8000D9851469847404603B0BDE8F08F4FF016
:103BF8000108D9E7D046404603B0BDE8F08F00BFC2
:103C0800701B0024781B0024741B00242DE9F04F3E
:103C1800814683B00E4617461D4600F1280420460B
:103C280007F028FE01288246F9D14846FFF714FF1D
:103C38008046002835D1EFF31083019372B6DFF880
:103C480088B00C9B99F90820DFF880A0DFF88090F5
:103C5800CBF800300D9B89F80020CAF800300DB170
:103C68001846A847BAB23146204607F03DFB30B99E
:103C7800019B03B962B6404603B0BDE8F08F00234C
:103C8800CBF80030CAF80030FF2389F800300C9BCD
:103C98008BB101210D9888469847019B002BEAD1EA
:103CA800E8E70C9B53B1D0460D98514698474046DB
:103CB80003B0BDE8F08F4FF00108D9E7D046404681
:103CC80003B0BDE8F08F00BF701B0024781B0024F0
:103CD800741B00242DE9F04F814683B00F46164629
:103CE800984600F12804204607F0C4FD0128FAD1BF
:103CF80082464846FFF7B0FE0546002838D1EFF364
:103D08001083019372B699F90830DFF88890DFF8CC
:103D180088B089F800300D9BDFF880A0CBF8003020
:103D28000E9BCAF800300C9B0BB10E9898471FFAEF
:103D380088F33A463146204607F0CAF930B9019B64
:103D480003B962B6284603B0BDE8F08F0023CBF86C
:103D58000030CAF80030FF2389F800300D9B8BB182
:103D680001210E980D469847019B002BEAD1E8E700
:103D78000D9B4BB155460E9851469847284603B0BF
:103D8800BDE8F08F0125DAE75546284603B0BDE8BF
:103D9800F08F00BF741B0024701B0024781B0024C4
:103DA8002DE9F043002387B00222044605690493F5
:103DB800CDE90223D0E902128E00FAB1022D7AD0A1
:103DC8002178B5FA85F54FF00108276A0B294FEAE3
:103DD800551521D1A2780B2A02D0B8F1000F38D19D
:103DE80023790B2B01D0002D6CD1A37917B10B2BA4
:103DF80040F09980002007B0BDE8F08335F0020359
:103E08002178276A0CBF4FF001084FF00008023DE7
:103E180018BF01250B29DDD07D4B94F801C053F85C
:103E2800262010780B2802D0884200F0AD80D37885
:103E3800D01C994202D10B2B40F0BD809379901D84
:103E48008B4202D10B2B40F0BC80012007B0BDE8AB
:103E5800F083711C6E4BE07853F8213019780B29E8
:103E680002D08A4200F0B580D97803F1030C0B29FF
:103E780002D08A4200F0BB80997903F1060C0B2925
:103E8800E3D08A42E1D1DB798342DED1634604F193
:103E980002099B784846059301F0E8F880464846B1
:103EA80001F0ECF801A90190404602F0A7FA237945
:103EB8000B2B98D199E70178076A0B2940F0868087
:103EC80001258DE7B11C524A607952F821201178FA
:103ED8000B2902D08B4200F08180D178D51C0B29A8
:103EE80002D08B4200F08D809179951D8B42ACD128
:103EF8000B29AAD0D3798342A7D12A46251D9378C6
:103F08002846059301F0B2F8034628461D4601F0FD
:103F1800B5F801A90190284602F070FAA379002F9C
:103F28007FF465AF66E7F11C394AE07952F8212041
:103F380011780B2901D08B425FD0D178D51C0B2981
:103F480001D08B424FD09179951D8B427FF47DAF84
:103F58000B293FF47AAFD37983427FF476AF2A46B0
:103F6800A51D93782846059301F080F80446284655
:103F780001F084F8034601A92046019302F03EFAB5
:103F8800002007B0BDE8F083537863457FF44FAF56
:103F980093782046059301F069F88146204601F0A0
:103FA8006DF801A90190484602F028FAA2780B2A78
:103FB8007FF413AF14E7137963457FF43FAF0246EC
:103FC800E6E7D37963457FF440AFF8E798460125E3
:103FD80022E7597881427FF447AF58E75178814208
:103FE8007FF47BAF8AE711798142ACD1B7E71979C1
:103FF80081427FF441AF634649E7517881429CD1C1
:10400800AEE7117981427FF46FAF2A4676E700BFA9
:10401800200C0108654A0368934200F0B980A2F5B4
:104028007842934200F0B68002F58062934200F035
:10403800B38002F57842934200F0B08002F5E05276
:10404800934200F0AD805A4A934240F0AB8005237A
:104058004FF4D071574A01FB03F310B5D418D05C64
:1040680086B001F013F8A07801F010F8207901F07B
:104078000DF8A07901F00AF8A368052B11D8DFE83C
:1040880003F0192F455B71034B4BD3F8F42042F032
:104098002002C3F8F420D3F8F43003F0200305938A
:1040A800059B2046FFF77CFE012801D006B010BD15
:1040B800FFBEFEE7404B00222320D3F8F01041F466
:1040C8008051C3F8F0101146D3F8F03003F4805350
:1040D8000093009B01F016F9232001F051F9E0E765
:1040E800354B00222420D3F8E81041F48041C3F86E
:1040F800E8101146D3F8E83003F480430193019B9C
:1041080001F000F9242001F03BF9CAE72A4B00220C
:104118003320D3F8E81041F40041C3F8E810114601
:10412800D3F8E83003F400430293029B01F0EAF865
:10413800332001F025F9B4E71F4B00225420D3F8AF
:10414800F01041F40051C3F8F0101146D3F8F030E4
:1041580003F400530393039B01F0D4F8542001F0B7
:104168000FF99EE7144B00225520D3F8F01041F4C4
:104178008011C3F8F0101146D3F8F03003F480131F
:104188000493049B01F0BEF8552001F0F9F888E784
:1041980000235DE701235BE7022359E7032357E781
:1041A800042355E700231B78FFDE00BF00300140E1
:1041B8000014005850110024004402582DE9F0431F
:1041C800002289B01B4B01210DF1040C9E461A4BAD
:1041D8000791E146E04667460EF11C060EF13805E8
:1041E8000EF15404CDE90122CDE90322CDE90522DF
:1041F800FF221A70BCE80F00AEE80F009CE8070029
:104208008EE80700B9E80F000FC69CE8070086E8AB
:104218000700B8E80F000FC59CE8070085E807000D
:104228000FCF0FC49CE8070084E8070009B0BDE879
:10423800F08300BF0C010024741B0024014807F020
:10424800EDB900BF78110024014807F0E7B900BFB5
:1042580018130024014807F0E1B900BFB81400247E
:10426800014807F0DBB900BF58160024014807F0E1
:10427800D5B900BFF817002410B5EFF3108472B653
:10428800084B1A78120602D504B962B610BD1B781D
:104298004FF4D07204485BB202FB0300B03001F067
:1042A8005BFDF1E7741B00245011002410B5EFF3F7
:1042B800108472B6094B1A78120602D504B962B690
:1042C80010BD1B784FF4D07205485BB202FB0300A7
:1042D80000F5947001F040FDF0E700BF741B002466
:1042E800501100242DE9F04184B0EFF3108772B625
:1042F800284AFF21284C1368217023B1002111603E
:10430800264A1068984723781B061CD5DFF8948046
:104318000025234E4446216879B162686AB1A369D1
:10432800012B22D0A3B96369304601932369009316
:10433800E3682289FFF76AFC18B301351C3406F5D7
:10434800D076042DE7D107B962B604B0BDE8F08194
:10435800D4E90430CDE90130E06823890090304683
:10436800FFF7B8FC0028E8D10BE0D4E90430114687
:10437800CDE900303046E3682289FFF7E3FB0028E7
:10438800DBD1C5EBC50508EB850348F82500586067
:10439800D9E700BF701B0024741B0024781B00247D
:1043A800501100240C0100242DE9F04184B0EFF3F2
:1043B800108772B6284AFF21284C1368217023B150
:1043C80000211160264A1068984723781B061CD5DF
:1043D800DFF894800025234E4446216879B162684D
:1043E8006AB1A369012B22D0A3B96369304601934E
:1043F80023690093E3682289FFF708FC18B30135A5
:104408001C3406F5D076042DE7D107B962B604B09E
:10441800BDE8F081D4E90430CDE90130E0682389B2
:1044280000903046FFF756FC0028E8D10BE0D4E9AD
:1044380004301146CDE900303046E3682289FFF7A1
:1044480081FB0028DBD1C5EBC50508EB850348F8DF
:1044580025005860D9E700BF701B0024741B002496
:10446800781B0024501100240C0100242DE9F04190
:1044780084B0EFF3108772B6284AFF21284C1368DE
:10448800217023B100211160264A106898472378CB
:104498001B061CD5DFF894800025234E444621686E
:1044A80079B162686AB1A369012B22D0A3B96369A3
:1044B8003046019323690093E3682289FFF7A6FB3E
:1044C80018B301351C3406F5D076042DE7D107B9A9
:1044D80062B604B0BDE8F081D4E90430CDE901301A
:1044E800E068238900903046FFF7F4FB0028E8D104
:1044F8000BE0D4E904301146CDE900303046E368DA
:104508002289FFF71FFB0028DBD1C5EBC50508EBA7
:10451800850348F825005860D9E700BF701B0024C0
:10452800741B0024781B0024501100240C01002463
:104538002DE9F04184B0EFF3108772B606F0D8FA8F
:10454800284A294CFF21136821702BB100211160E2
:104558000121264A1068984723781B061CD5DFF8E6
:1045680094800025224E4446216879B162686AB178
:10457800A369012B22D0A3B963693046019323694B
:104588000093E3682289FFF741FB18B301351C3417
:1045980006F5D076042DE7D107B962B604B0BDE8B8
:1045A800F081D4E90430CDE90130E0682389009036
:1045B8003046FFF78FFB0028E8D10BE0D4E9043040
:1045C8001146CDE900303046E3682289FFF7BAFA90
:1045D8000028DBD1C5EBC50508EB850348F82500A5
:1045E8005860D9E7701B0024741B0024781B002432
:1045F800501100240C0100242DE9F0418F684FF47C
:10460800D0743E4E8C4607FB04F4052F06EB0405D8
:104618000560AE46BCE80F00AEE80F00BCE80F002E
:10462800AEE80F009CE803008EE8030004D8EB68AE
:10463800002B60D0012B02D00120BDE8F0810021C1
:104648004FF4D07303FB07631A69032AF4D8D3F82D
:1046580014C0ACF104001C28EED89B691BB1012BD7
:10466800EAD14FF000734FF4D07000FB0760C069C7
:1046780018B10128E0D14FF080704FF4D07505FBD8
:104688000765D5F820E0BEF1020FD5D8D5F824800B
:10469800B8F1070FD0D85204E962C5E90E300CF121
:1046A800FF332A6304F128006B634FEA0873304430
:1046B8006B640023C5E91233C5E91433C5E918331F
:1046C800C5E91A33C5E91C33AB67C5F880300C4B14
:1046D80053F82E200B4B2A644FF0804253F82730B2
:1046E800EA65AB624FF00043EB6706F001FA002879
:1046F800A3D0FFBEFEE74FF48001A1E750110024CC
:10470800100C0108F80B0108006892B208B52830AF
:1047180006F09CFA003818BF012008BD30B4544B8D
:10472800002108220220534CD9615862C3F8BC11F9
:10473800C3F8C401C3F85C13C3F86403C3F8F424D2
:10474800C3F8F814C3F8FC14C3F80405C3F8942696
:10475800C3F89816C3F89C16C3F8A406C3F83428FF
:10476800C3F83818C3F83C18C3F84408424D434806
:10477800C3E90521C3E96D21C3E9D5212288A378BE
:104788003F49EA80CA800B723E492B72CA800B727D
:104798002168A0F803204371C28003723A4C3B4859
:1047A800E2802372A0F80320394C4371C28003725F
:1047B8003848E2802372A0F80320374C4371C28046
:1047C8000372080C2180A070A4F803206371E280B2
:1047D8002372324C324D2180A070A4F803206371FB
:1047E800E28023722F4CEA8021802B72A070A4F8FB
:1047F80003206371E28023722B4C2180A070A4F8FF
:1048080003206371E2802372284C2180A070A4F8F1
:1048180003206371E2802372254C2180A070A4F8E4
:1048280003206371E2802372224C2180A070A4F8D7
:1048380003206371E28023721F4C21801F49A070FE
:10484800A4F803201E486371E2802372A1F80320B4
:104858001C4C4B71CA800B721B49E2802372C280C8
:104868000372A1F803204B71CA800B7230BC7047E9
:10487800501100241C0C010894000024B8000024E6
:10488800880000244C000024A0000024DC00002440
:10489800C400002464000024401B0024281B0024BA
:1048A800D0000024341B0024101B0024641B0024A7
:1048B8004C1B0024581B00241C1B0024000100244E
:1048C800F4000024E800002470000024704700BFB2
:1048D80008B500F0DBFCBDE8084000F0DBBD00BF18
:1048E800064808B503680BB101F09AFF044803684D
:1048F8001BB1BDE8084002F089BE08BD881F00242E
:10490800801B0024064808B503680BB101F088FF36
:10491800044803681BB1BDE8084002F077BE08BD33
:10492800881F0024801B0024064808B503680BB1C3
:1049380001F076FF044803681BB1BDE8084002F0A7
:1049480065BE08BD881F0024801B0024364BDA6A28
:10495800520062D59A6A9A6A9A6A9B6A180600D5C2
:1049680000BE314B9B6A990600D500BE2E4B9B6A50
:10497800DA0600D500BE2C4B9B6A1B0700D500BE8B
:10498800294B9B6A980700D500BE274B9B6AD9071D
:1049980000D500BE244B9B6A1A0400D500BE224BEA
:1049A8009B6A9B0400D500BE1F4B9B6AD80400D5A8
:1049B80000BE1D4B9B6A190500D500BE1A4B9B6AA9
:1049C8005A0500D500BE184B9B6A9B0500D500BE52
:1049D800154B9B6AD80500D500BE134B9B6A9901FD
:1049E80000D500BE104B9B6ADA0100D500BE0E4B05
:1049F8009B6A1B0300D500BE0B4B9B6A580300D56E
:104A080000BE094B9B6A990300D500BE064B9B6A02
:104A1800DA0306D400BE00BEFEE7DB6A9B07FAD5C0
:104A2800F8E700BEF6E700BF00ED00E000F040BC8C
:104A38000A4B9B6803F17843B3F5003F0BD3084B4F
:104A4800986848B19868012806D09868022803D069
:104A58009B68032070470120704700BF00ED00E00D
:104A6800000080382DE9F041CEB004464C220021E8
:104A78000AA80BF0D5FD2022002102A80BF0D0FDDA
:104A8800BC2200211EA80BF0CBFD022003F032FA55
:104A98002368012B4FF0000354D0534A0225019399
:104AA800C820D16A514B21F00101D162D26A02F0CB
:104AB800010201929A6942F440429A619B6903F4A7
:104AC80040430193019B494A93699B04FCD548499B
:104AD8000224002201268B6A04274FF0080823F0DD
:104AE800030323438B62052316900AA818934FF4F7
:104AF80080331096179419941597CDF86880CDE9EE
:104B08001B222122CDE91344CDE90A2303F0DCFE60
:104B180000B1FEE73F220323294602A8CDE902237C
:104B280000220823CDE9042340224023CDE90623AF
:104B380040234FF48062CDE9082304F0F3F90346DB
:104B4800B8B1FEE7294A04250093F0209169264B65
:104B580041F440419161926902F440420092DA6A5C
:104B680042F00102DA62DB6A03F001030093009B62
:104B7800A9E720224FF4805125934FF440152B923A
:104B880080222D931EA83093269135914FF4807181
:104B9800249234920C223394439140F227112092AC
:104BA8001022CDF884802A971F96CDE92E34CDE9BE
:104BB8003B334FF48033CDE92246319300244693AA
:104BC8000623CDE93E4527934FF48063094C2C9387
:104BD8001E94CDE9281204F001FC00B1FEE703F0B1
:104BE800AFF94EB0BDE8F081000400580048025803
:104BF800004402580F130F0370B584B0012400F06D
:104C0800F7FB4FF480764FF04052194B6846002569
:104C1800ADF800400396CDE9012300F007FC192206
:104C28004FF0404368468DF8082001938DF80F40F7
:104C3800ADF80D608DF801408DF80A5000F0F6FBD4
:104C480002230B2268468DF80F508DF801304FF083
:104C580062538DF808200193ADF80D408DF80A4095
:104C680000F0E4FB042000F0D1FB04B070BD00BFED
:104C78000E00010330B50D46044685B0D1E90001A8
:104C880084E8030000F0D2FAAB79A3B309F082F903
:104C9800FEF71AF8FFF792FA08F074FE2B798BBB2F
:104CA8006B799BB1BFF34F8FBFF36F8F2A4B0022F5
:104CB800C3F85022BFF34F8FBFF36F8F5A6942F486
:104CC80000325A61BFF34F8FBFF36F8F4FF0FF323F
:104CD8000023002400256946204802928DF80C30F4
:104CE800CDE9004508F0E0F91C4808F045FA08F05D
:104CF80093F805B030BD2046FFF7B4FE2046FFF715
:104D08007BFFC3E7144C0023C4F88430BFF34F8FF4
:104D1800D4F8801043F6E07EC1F34E3CC1F3C901DC
:104D28004FEA4C1C0CEA0E000B4640EA8372013B2A
:104D3800C4F860225A1CF8D1ACF1200C1CF1200FE9
:104D4800F0D1BFF34F8F636943F480336361BFF3DE
:104D58004F8FBFF36F8FA3E700ED00E07C1B0024AB
:104D680004F010BA1C4B9B6803F17842B2F5003F7F
:104D780025D3B3F5803F20D303F16042B2F5003F5D
:104D88001FD303F15C42B2F5002F1CD303F170422C
:104D9800B2F5902F19D303F14842B2F5803F16D3EC
:104DA80003F18042B2F1806F13D303F1E043B3F50E
:104DB800000F2CBF082007207047012070470020F3
:104DC8007047022070470320704704207047052071
:104DD80070470620704700BF00ED00E0034800233D
:104DE800034A044903600BF053B900BF7C1B00243D
:104DF80000000024D548000810B4204C0022204BA5
:104E080083B0D4F888101F4841F47001C4F88810A2
:104E180019681D4C41F0010119601A6119680840B0
:104E28001A4918609A61DA611A629A62DA621A6338
:104E38005A639A63DA631A645A64186820F4802003
:104E480018601A66D3F8DC2042F06042C3F8DC2010
:104E5800D3F8DC300193019B23681940B1F1005F5E
:104E680003D20B4B0122C3F80821044B4FF0006218
:104E78009A6003B05DF8044B704700BF00ED00E096
:104E8800004402587FEDF6EA0010005C0000FFFFC6
:104E98000080005100F57171D0F8040407F0A4BB3C
:104EA800C1EBC10300EB8303D0F80404D3F8082254
:104EB80007F0C8BBC1EBC10300EB8303D0F80404BF
:104EC8009A6C07F0FDBB00BFD0F8040407F09CBC47
:104ED800C16810B5044619B1022900D0FEE70121C6
:104EE800D4F8040407F07AFCD4F80404BDE81040B0
:104EF80007F04CBC10B50446D0F8040407F072FC67
:104F08002268D2F8003E43F00103C2F8003E236A4B
:104F180023B1034A136943F00603136110BD00BFB0
:104F280000ED00E0D0F8040407F066BCD0F80404F3
:104F380007F07ABCD0F8040407F074BCD0F8040475
:104F480007F074BCD0F8040407F072BC9446D0F89B
:104F580098021A4608B5634602F0BCFE032802D838
:104F6800024B185C08BD022008BD00BF900C010868
:104F7800D0F8980208B502F03BFF032802D8024B8C
:104F8800185C08BD022008BD900C0108D0F89802F2
:104F980008B502F071FF032802D8024B185C08BD5F
:104FA800022008BD900C01080A06D0F8983206D4F1
:104FB800C1EBC10103EB810191F8FE01704701F0DB
:104FC8007F01C1EBC10103EB810191F83E007047FD
:104FD800D0F8980208B502F067FE032802D8024B01
:104FE800185C08BD022008BD900C0108D0F8980292
:104FF80008B502F0D5FE032802D8024B185C08BD9C
:10500800022008BD900C0108D0F8980208B502F0FB
:105018009FFE032802D8024B185C08BD022008BD79
:10502800900C0108D0F8C00207F0B0BED0F8C0025A
:1050380007F0C4BED0F8C00207F0CCBE704700BF6E
:10504800D0F8C00207F0B2BED0F8C00207F0B2BE76
:10505800D0F8D00308B501F0A3FF032802D8024B0B
:10506800185C08BD022008BD940C0108024B0278A8
:1050780053F82200704700BFB80C0108024B427871
:1050880033F81200704700BF980C01088CB00A284A
:1050980014D8DFE800F01523313F4D5B697785931D
:1050A80006004D4BD3F8E02042F48062C3F8E020BC
:1050B800D3F8E03003F480630B930B9B0CB070477C
:1050C800454BD3F8E02042F00102C3F8E020D3F8C2
:1050D800E03003F001030193019BEFE73E4BD3F867
:1050E800E02042F00202C3F8E020D3F8E03003F0F9
:1050F80002030293029BE1E7374BD3F8E02042F02A
:105108000402C3F8E020D3F8E03003F0040303936B
:10511800039BD3E7304BD3F8E02042F00802C3F8F2
:10512800E020D3F8E03003F008030493049BC5E7BC
:10513800294BD3F8E02042F01002C3F8E020D3F85E
:10514800E03003F010030593059BB7E7224BD3F833
:10515800E02042F02002C3F8E020D3F8E03003F06A
:1051680020030693069BA9E71B4BD3F8E02042F0E7
:105178004002C3F8E020D3F8E03003F0400307937F
:10518800079B9BE7144BD3F8E02042F08002C3F85A
:10519800E020D3F8E03003F080030893089B8DE704
:1051A8000D4BD3F8E02042F48072C3F8E020D3F826
:1051B800E03003F480730993099B7FE7064BD3F82B
:1051C800E02042F40072C3F8E020D3F8E03003F4A2
:1051D80000730A930A9B71E700440258704700BFA6
:1051E8000F4B1B780BB90120704710B504464FF4DC
:1051F8007A700C4AB0FBF3F31068B0FBF3F000F0E0
:10520800E1F80F2C00D808B1012010BD002221467A
:105218004FF0FF3000F076F8034B00201C6010BD03
:105228008C0100247C0100249001002438B503205F
:10523800124D00F055F8124C03F0D4FD114A1249F2
:105248009369C3F30323CB5C03F01F0320FA03F332
:105258000E202B60926902F00F028A5C02F01F0296
:10526800D3402360FFF7BCFF10B10124204638BDAE
:105278000446FFF7B3FF204638BD00BF7C01002479
:105288008001002400440258800C0108034A044BA2
:1052980011681B780B441360704700BF4C22002430
:1052A8008C010024014B1868704700BF4C22002471
:1052B80038B50446FFF7F6FF0546631C02D0044BD9
:1052C8001B781C44FFF7EEFF431BA342FAD338BDFB
:1052D8008C010024014B1868000C70470010005C1A
:1052E80006494FF6FF0C0002054BCA6800F4E0605F
:1052F80002EA0C0210430343CB60704700ED00E064
:105308000000FA051B4BDB68C3F3022300B5C3F1A9
:10531800070E03F1040CBEF1040F28BF4FF0040E72
:10532800BCF1060F1AD9033B4FF0FF3C0CFA03FC03
:1053380022EA0C024FF0FF3C00280CFA0EFC21EA8E
:105348000C0101FA03F141EA02010ADB09010A4BE7
:10535800C9B2034483F800135DF804FB0022134626
:10536800E8E700F00F000901044BC9B203441976BD
:105378005DF804FB00ED00E000E100E0FCEC00E07B
:10538800002807DB00F01F0101234009024A8B4077
:1053980042F82030704700BF00E100E000280DDB34
:1053A8004309012200F01F000549203302FA00F0EA
:1053B80041F82300BFF34F8FBFF36F8F704700BFD3
:1053C80000E100E0431EB3F1807F0CD24FF0E022F1
:1053D800002006494FF0F00C5361072381F823C0E1
:1053E8009061136170470120704700BF00ED00E035
:1053F800BFF35F8F044B00215A6A22F480325A624D
:10540800C3F89410704700BF00ED00E0064B40F071
:105418000100C3F894005A6A42F480325A62BFF31A
:105428004F8FBFF36F8F704700ED00E0174A437846
:10543800C2F89830017821B3436800B5C2F89C30AF
:10544800C37A90F80CC01B0690F80FE043EA0C737F
:1054580090F80AC00B43817B43EACC4390F80DC017
:1054680043EA8C4390F809C043EA4143017A43EA8E
:105478000E4343EA0C2343EA4103C2F8A0305DF827
:1054880004FBC2F89C10C2F8A010704700ED00E0C1
:10549800704700BF08B5FFF7FBFF08BD0268344B33
:1054A800344930B4344D354CAA4218BF9A420CBF27
:1054B800012300238A4208BF43F001033031A2428E
:1054C80008BF43F0010330348A4208BF43F00103A8
:1054D8003031A24208BF43F0010330348A4208BF8A
:1054E80043F0010301F55C71A24208BF43F00103D8
:1054F80004F55C748A4208BF43F001033031A242CC
:1055080008BF43F0010330348A4208BF43F0010367
:105518003031A24208BF43F0010330348A4208BF49
:1055280043F001033031A24208BF43F001038A422D
:1055380008BF43F0010313B9114B9A4213D1D3B2F8
:105548001049114C103BA1FB03515F2B0F4BC1F3CA
:10555800021103EA0203615C88BF0433C1658365F5
:10556800184630BC704722F0FF038365F8E700BF98
:10557800100002404000024028000240580002404B
:10558800B8040240ABAAAAAA441A010800FCFFFF0B
:105598000368294A294930B4294D2A4CAB4218BF1F
:1055A80093420CBF012200228B4208BF42F0010245
:1055B8002831A34208BF42F0010228348B4208BFB9
:1055C80042F001022831A34208BF42F001028B4297
:1055D80008BF42F0010212B91B4A934213D1DBB251
:1055E8001A4C1B4A0121083B1A4DA4FB034345668C
:1055F80002EB1312C3F30413920001FA03F30266D9
:10560800836630BC7047DAB21349144C1944103A17
:10561800A829A4FB02234FEA131300D80833104A21
:1056280003F01F0501210F4C1A44A940446692005B
:1056380081660266E5E700BF0854025830540258F4
:105648001C5402584454025894540258CDCCCCCC23
:105658000096001680580258F0FBFDBFABAAAAAA14
:10566800008200108008024070B50446FFF71AFE59
:10567800002C00F0C68023680546954A934248D01E
:105688001832934245D0303292498B4218BF934228
:1056980001F130010CBF012200228B4208BF42F009
:1056A800010218318B4208BF42F0010218318B42C7
:1056B80008BF42F0010218318B4208BF42F00102D4
:1056C80001F556718B4208BF42F0010218318B4236
:1056D80008BF42F0010218318B4208BF42F00102B4
:1056E80018318B4208BF42F0010218318B4208BFC3
:1056F80042F0010218318B4208BF42F00102183112
:105708008B4208BF42F001021AB9734A934240F033
:10571800F5800222002184F8352084F834101A68B4
:1057280022F001021A6005E0FFF7BCFD431B052BC0
:1057380040D823681A68D107F6D4D4E9022521692C
:105748002A43A0691D680A4361690A43E169024363
:105758000A4362492940256A2A430A43616A04299F
:105768002FD01A605A6922F0070211435961204666
:10577800FFF794FEE26D3F2302F01F02934083601F
:105788002046FFF705FFA368802B3CD06368A06E16
:10579800DAB2013BD4E91851072B2A60486026D9B0
:1057A8000023C4E91B33636700200123606584F884
:1057B800353070BD202203230120626584F835301E
:1057C80070BDD4E90B5129430A431A605969A26A8A
:1057D80021F00701114341F00401002DC6D0002833
:1057E8004FD1012A6ED032F00202BFD151E0501ED3
:1057F800072810D9626FD4E91B31002018604A606D
:10580800D2E7012070BD0023A16ED4E918026360BD
:1058180003605160C4E72168314B324DA94218BF7B
:10582800994205F114050CBF01230023A94208BFC2
:1058380043F001031435A94208BF43F001031435AE
:10584800A94208BF43F001031435A94208BF43F039
:1058580001031435A94208BF43F001033BB9224BA9
:10586800994204D0214B224913449B0003E0214B69
:10587800214913449B0001228240C4E91B3162671D
:10588800BBE7B0F5005F0ED0022A05D9032A7FF4E2
:105898006DAFEA017FF56AAF0123402218466265C1
:1058A80084F8353070BD032A3FF660AF01A050F888
:1058B80022F000BFA15800089B580008A158000812
:1058C800CD580008B5F1C07F7FF450AFE4E700BFC2
:1058D8001000024040000240B80402403F8010FE21
:1058E800085402581C540258945402583F8200101D
:1058F800400902403F96001640590258324A334840
:105908003349834218BF934200F128000CBF01229B
:1059180000228B4208BF42F001022831834208BFAF
:1059280042F0010228308B4208BF42F001022831C0
:10593800834208BF42F001028B4208BF42F00102D5
:1059480012B9244A934238D102220021224D84F808
:10595800341084F835201A681540A268402A2AD0E5
:10596800802A0CBF4FF480400846266AD4E9031207
:10597800D20842EAD102616942EAD102A16942EA47
:10598800D102E16942EAD102144942EA16121944E5
:105998002A4302431248A0FB010120461A600B0962
:1059A8009B00E365FFF77AFDE26D012302F01F0219
:1059B80093404360E4E61020D7E740220323012008
:1059C800626584F8353070BD085402581C5402587A
:1059D80030540258945402580F00FEFFF8ABFDA74C
:1059E800CDCCCCCC002800F0BC80844690F83400A4
:1059F800012800F0B88001202DE9F0419CF83540DD
:105A08008CF83400844208D000224FF400638CF8EC
:105A18003420CCF85430BDE8F0810220DCF8005086
:105A28007A4C8CF835000020794ECCF8540079482F
:105A3800854218BFA54200F118000CBF01240024BC
:105A4800854208BF44F001041830854208BF44F07D
:105A580001041830854208BF44F00104183085421B
:105A680008BF44F0010400F55670854208BF44F0B1
:105A780001041830854208BF44F0010418308542FB
:105A880008BF44F001041830854208BF44F00104FF
:105A98001830854208BF44F001041830854208BF19
:105AA80044F001041830854208BF44F0010418305E
:105AB800854208BF44F00104A0F59560B54218BFBF
:105AC8008542DCF86C600CBF0120002054EA000815
