:020000040800F2
:1000000000000220310700082D070008954F000866
:100010002D0700082D0700082D070008000000002C
:100020000000000000000000000000002D07000894
:100030002D070008000000002D070008194F0008D8
:100040002D0700082D0700082D0700082D070008C0
:100050002D0700082D0700082D0700082D070008B0
:100060002D0700082D0700082D070008013A000899
:100070000D3A00082D070008193A0008253A000833
:10008000814800082D2F00082D0700082D070008C3
:100090002D0700082D0700082D0700082D07000870
:1000A0002D0700082D0700082D0700082D07000860
:1000B000A5080108B1080108BD080108612F000862
:1000C0002D0700086D2F00082D07000815010108F5
:1000D00021010108B5460008E1460008154700085F
:1000E0002D0700082D070008000000002D0700085C
:1000F0002D0700082D0700082D0700082D07000810
:100100002D0700082D070008C90801082D01010866
:10011000494700087D4700082D0700082D07000803
:100120002D0700082D07000851010108850101086D
:10013000B54800082D0700082D0700082D07000806
:1001400000000000000000000000000000000000AF
:100150002D0700082D0700082D070008B1470008EB
:10016000792F00082D070008294F00084D4F00087F
:100170002D070008714F00082D0700082D07000803
:100180002D0700082D070008E5470008194800085A
:1001900039010108450101082D0700082D07000855
:1001A0002D0700082D0700082D0700082D0700085F
:1001B000213700082D0700082D0700082D0700082B
:1001C0002D0700082D070008B1280008BD280008E9
:1001D0002D070008C92800082D0700082D07000872
:1001E0002D0700082D0700082D0700082D0700081F
:1001F0002D0700082D0700082D0700082D0700080F
:100200002D0700082D0700082D0700082D070008FE
:100210002D0700082D0700082D0700082D070008EE
:100220002D0700082D0700082D070008000000001A
:100230002D0700082D070008000000002D0700080A
:100240002D0700082D0700082D0700082D070008BE
:100250002D0700082D0700082D0700082D070008AE
:100260002D0700082D0700082D0700082D0700089E
:100270002D0700082D0700084D4800080000000069
:100280002D0700082D0700082D07000800000000BA
:08029000000000002D0700082A
:1002A00001F0FF01102A2BDB10F0070F08D010F827
:1002B000013B013A8B422DD010F0070F42B3F6D12B
:1002C000F0B441EA012141EA014122F007047FF044
:1002D00000070023F0E80256083C85EA010586EA9B
:1002E000010685FA47F5A3FA87F586FA47F6A5FAD7
:1002F00087F68EB9EED1F0BC01F0FF0102F00702E3
:1003000032B110F8013B013A83EA010313B1F8D18D
:100310000020704701387047002D06BF354603386E
:10032000073815F0010F07D1013015F4807F02BFA7
:10033000013015F4C03F0130F0BC0138704700BFF8
:1003400081F0004102E000BF83F0004330B54FEA86
:1003500041044FEA430594EA050F08BF90EA020FF3
:100360001FBF54EA000C55EA020C7FEA645C7FEA86
:10037000655C00F0E2804FEA5454D4EB5555B8BFA9
:100380006D420CDD2C4480EA020281EA030382EA1A
:10039000000083EA010180EA020281EA0303362DAC
:1003A00088BF30BD11F0004F4FEA01314FF4801C7F
:1003B0004CEA113102D0404261EB410113F0004F91
:1003C0004FEA03334CEA133302D0524263EB430348
:1003D00094EA050F00F0A780A4F10104D5F1200EE6
:1003E0000DDB02FA0EFC22FA05F2801841F1000141
:1003F00003FA0EF2801843FA05F359410EE0A5F115
:1004000020050EF1200E012A03FA0EFC28BF4CF045
:10041000020C43FA05F3C01851EBE37101F00045FB
:1004200007D54FF0000EDCF1000C7EEB00006EEB08
:100430000101B1F5801F1BD3B1F5001F0CD3490892
:100440005FEA30004FEA3C0C04F101044FEA4452E9
:1004500012F5800F80F09A80BCF1004F08BF5FEA70
:10046000500C50F1000041EB045141EA050130BD50
:100470005FEA4C0C404141EB0101013C28BFB1F562
:10048000801FE9D291F0000F04BF01460020B1FAAD
:1004900081F308BF2033A3F10B03B3F120020CDA80
:1004A0000C3208DD02F1140CC2F10C0201FA0CF05E
:1004B00021FA02F10CE002F11402D8BFC2F1200CC3
:1004C00001FA02F120FA0CFCDCBF41EA0C01904079
:1004D000E41AA2BF01EB0451294330BD6FEA0404C2
:1004E0001F3C1CDA0C340EDC04F11404C4F12002AD
:1004F00020FA04F001FA02F340EA030021FA04F3BF
:1005000045EA030130BDC4F10C04C4F1200220FA15
:1005100002F001FA04F340EA0300294630BD21FA53
:1005200004F0294630BD94F0000F83F4801306BF19
:1005300081F480110134013D4EE77FEA645C18BF0D
:100540007FEA655C29D094EA050F08BF90EA020FA4
:1005500005D054EA000C04BF1946104630BD91EA9C
:10056000030F1EBF0021002030BD5FEA545C05D19F
:100570004000494128BF41F0004130BD14F58004DE
:100580003CBF01F5801130BD01F0004545F0FE4152
:1005900041F470014FF0000030BD7FEA645C1ABF87
:1005A000194610467FEA655C1CBF0B46024650EABE
:1005B000013406BF52EA033591EA030F41F40021EA
:1005C00030BD00BF90F0000F04BF0021704730B570
:1005D0004FF4806404F132044FF000054FF0000145
:1005E00050E700BF90F0000F04BF0021704730B506
:1005F0004FF4806404F1320410F0004548BF4042DB
:100600004FF000013EE700BF42004FEAE2014FEA2F
:1006100031014FEA02701FBF12F07F4393F07F4F0A
:1006200081F06051704732F07F4208BF704793F00D
:100630007F4F04BF41F40021704730B54FF4607420
:1006400001F0004521F000411CE700BF50EA010223
:1006500008BF704730B54FF000050AE050EA0102CC
:1006600008BF704730B511F0004502D5404261EB3C
:1006700041014FF4806404F132045FEA915C3FF47D
:10068000D8AE4FF003025FEADC0C18BF03325FEA1A
:10069000DC0C18BF033202EBDC02C2F1200300FACB
:1006A00003FC20FA02F001FA03FE40EA0E0021FAF0
:1006B00002F11444BDE600BF53B94AB9002908BF8E
:1006C00000281CBF4FF0FF314FF0FF3000F00CB896
:1006D000ADF1080C6DE904CE12F0CAFEDDF804E0BD
:1006E000DDE9022304B07047704700BF10B5054C28
:1006F000237833B9044B13B10448AFF300800123CE
:10070000237010BD0806002400000000C03F01084F
:1007100008B5034B1BB103490348AFF3008008BD84
:10072000000000000C060024C03F0108FEE700BFE7
:100730000C4A0D4B934204D0D21A0C49184611F0C2
:100740007AFF0B4A0B4B934204D0D21A0021184671
:1007500011F0E6FE04F076FE11F046FF00F0D8F846
:10076000FEE700BF0406002400000024F43F010857
:10077000683A022408060024704700BF704700BF93
:10078000704700BF704700BFBAB12DE9F0410E4677
:1007900090460024736800210848A70003EB8405F5
:1007A000013400F075FB3368A04585ED000A3B4439
:1007B00083ED000AEED1BDE8F081704724E000240B
:1007C0001BB913690BB1D26818477047C9B301440C
:1007D0002DE9F0431546A5B0441E02F124074E1E34
:1007E00001E0B4422AD06A4614F8011F384601F0ED
:1007F000F5FE0028F5D0D5F8CC0090226946D5E961
:10080000319303F1010803EBC30E1B1A09F1FF3CFE
:1008100048BF4B449C45E4D0D5F8C000C5F8C8801B
:1008200000EB0E1011F007FFD5E931239342A3EB43
:10083000020328BFC5F8C830B442D4D125B0BDE802
:10084000F083704702780B4610B4092A42D8DFE8DB
:1008500002F00E131B252B2D37393F05204A03CA02
:100860001288186059601A815DF8044B70471D4A60
:1008700003CA18605960F7E71B4A1068918892799B
:10088000186099809A71EFE7184C07CC24781860AB
:1008900059609A601C735DF8044B7047144A1188C4
:1008A000927819809A70DFE7124CEEE7124C07CC71
:1008B0002488186059609A609C815DF8044B7047E9
:1008C0000E4ACCE70E4C07CC186059609A60CBE713
:1008D0000C4CECE70C4A03CA18605960C4E700BF2F
:1008E0005C380108F0370108F837010800380108C2
:1008F0001038010814380108243801083438010878
:10090000403801084C380108683801080000000030
:100910002DE9F04F2DED028BADF5803D484842F2B8
:10092000681844F26817DBB0002400F043FB002194
:1009300043485AAD00F020FC40214148E84400F013
:1009400043FB012001F000FE3D4800F039FB3D482B
:10095000F0EE408A01F0EAFD9FED3B0A6F442E461F
:10096000B0EE408A20E0B4EEE48A35EE477AF1EE4C
:1009700010FA54BFF0EE466AF0EE656A0134A8EC56
:10098000017ADFED327AB4F5006F9FED310AE7ECC2
:10099000016A61D007EE104AB8EEC78A68EE277A7E
:1009A00027EE800A11F00CFAB5EEC00AA6EC010A97
:1009B000B0EEC00ADFED257A2021264828EE278AEE
:1009C000FDEEC07AF1EE10FAB8EEE77A17EE902A53
:1009D00048BF2D2130EE477A9FED176BB7EEC77AEF
:1009E00027EE067BFDEEC77B17EE903A01F09EFDE9
:1009F000B5EE006AF1EE007AF6EE085AB4EEC68A59
:100A0000F7EE006A28EE277AF1EE10FAB6D4B4EECB
:100A1000E58ABFEE006AF0EE665AF1EE10FAF6EEE5
:100A2000004AB0EE005AF0EE466A9CD437EE677A80
:100A3000A4E700BFAFF300800000000080842E41D7
:100A40008CE0012470380108000000000000003A2A
:100A5000DB0FC9408C3801080422B0EE680A294631
:100A6000B54800F0F7F9B0EE000A0021B24800F0F6
:100A700099FA00219FEDB10AA5F59876AE480027B6
:100A800000F088FAAE4801F051FDAE4801F04EFD8D
:100A900006A801F08FFDA5F5A873AB4C0FCB86E837
:100AA0000F0084E80F000123A5F5907645E9223771
:100AB00045F87C3C47F6122345F8783C022345F87C
:100AC000803C94E80F0086E80F0045F88C0C104637
:100AD0001A46B38825F88E3CF388C4E9050225F848
:100AE000903C12B1394611F01BFD984E36A997483B
:100AF00003F096FF06F1140001F028FE944801F07F
:100B000015FD944B304614212362E46104F0D6F9BC
:100B1000914B30460096DFF87082904ED4E9051272
:100B200003F0E8FF04F0A6FA04F0A4FAA5F5AA730E
:100B300040F202429FED8A0A82460AA81A8019688A
:100B400001F00AFE874801F0F1FC8749874800F070
:100B500033FA874801F0EAFC012004F08DFA04F032
:100B600089FA8146794804F04FF8002800F0D180D6
:100B7000D4E932329B1A72D4002B75D07D4801F033
:100B8000D5FCD4E93237BB4200F0A880D4F8C0309D
:100B900007EBC7019022A5F1900003EB011101378B
:100BA00011F049FDD4F8C430C4F8CC709F4202D390
:100BB000FF1AC4F8CC709022A5F19001A5F59070B1
:100BC00011F039FD15F8907C35F888BC002F00F045
:100BD0008D80012F21D1D8F8003036A903225B483F
:100BE00025F8903C25F88FBC04F012F85FFA8BF3DF
:100BF000F2EE087AB0EE000A393B07EE103AF8EE52
:100C0000C70AC0EEA70A10F037FFDFED5B7A0021BC
:100C1000494820EE270A00F0BDF97168D6E90223A1
:100C2000D31A48BF5B1801399942A1D0A5F590713C
:100C3000336802EBC20001320F7003EB0010B260A8
:100C4000A1F808B0902211F0F6FCD6E901239342F6
:100C50008ED39B1AB360D4E932329B1A8CD5D4F868
:100C6000C4201344002B89D1A9EB0A03052B7FF67E
:100C700073AFD6E90237BB422ED0336807EBC7010A
:100C8000A5F19000902203EB0111013711F0D3FC84
:100C90007368F7609F4201D3FF1AF7609022A5F1B5
:100CA0009001A5F5907011F0C6FC55F88C7C15F8F4
:100CB00088AC0EA915F887BC12A8FFF7C3FD0EABD0
:100CC0004A462E4936A8CDF808B0CDE9007A11F091
:100CD00085FB36A801F02AFCCA463DE74FF0000B21
:100CE00090220021A5F5907011F01AFCD8F8003080
:100CF000032236A9154825F8903C002725F88FBC1B
:100D000003F086FF9FED1E0A00210B4800F042F918
:100D100083E71C4801F01AFD0E4B14210B48236297
:100D2000E46104F0CBF80949A2690B4B0091074834
:100D3000616903F0DFFE1BE724E000240000254486
:100D4000A0380108B8380108C44E0024D44E00244D
:100D5000D4380108CD070008C10700082406002484
:100D600000007A44FC380108890700088CE001245F
:100D700010390108383901080000DC4348390108FE
:100D800000000000E84E0024A83701081D4B1E4952
:100D900018461E4A10B500241C605C611C62DC63AE
:100DA00010F062FE1A4800F041F8184A1949184834
:100DB00010F05AFE184801F0FDFB1749174A0723A7
:100DC0000C61C1F8B92001F1D00281F8BD3040F2C8
:100DD0000113C1F8C840C1F8CC400F48C1E9302325
:100DE0000A4A0F4910F040FE0E488121074A00F1DF
:100DF0001003C460C0E901140B490360BDE8104052
:100E000010F032BE8CE001247907000800000024B5
:100E100024E000247D070008C44E002480707F0F6A
:100E200085070008240600248107000810B5044641
:100E3000064820220021204411F072FB002104F515
:100E40008032034B20465160236010BD2800010012
:100E500000442C4738B50446154604304FF4803220
:100E60002DED028BB0EE408A11F0E5FB0648202202
:100E70000021204411F054FB04F580335D6084EDC3
:100E8000008ABDEC028B38BD280001000000000084
:100E900000EB810190ED003A00F5803301F58031DF
:100EA000B7EEC33A5A6891ED025AD1ED127AB7EE15
:100EB000C55AD1ED0A4ABDEEE74ABDEEE47A9FED90
:100EC000326B14EE10CAB8EEC70AB8EEC44A25EE6B
:100ED000065B0CF10103DBB277EEC47A9342A8BF44
:100EE000002317EE102A34EEC00A85EE036B00B51E
:100EF0001FFA82FE0EF1010292B2B2F5006FB7EE58
:100F0000C66B03D3AEF2FF7E1FFA8EF202EBC32E46
:100F1000F7EE006A5FFA8CFC36EE246A00EB8E0E68
:100F2000DFED1B4A02EBCC2236EEE75A76EEC05AD2
:100F3000DEED016A00EB8202B4EEE46A67EEA66AB7
:100F400092ED014A17EE102AF1EE10FAE5EE046A6E
:100F500092B202EBC323A8BF36EE646A02EBCC2246
:100F600000EB830300EB820020EE260AD3ED016A3A
:100F700090ED017A67EEA67A81ED0A6AE5EE077ACE
:100F8000A5EEA70A5DF804FB000000000000A040E9
:100F90000000004500F5803000EB810080ED020A82
:100FA000704700BF00F5803000EB810080ED120A31
:100FB000704700BF704700BF143001F009BA00BF8E
:100FC000143001F001BA00BF38B500F11405044631
:100FD0002DED028B284601F0E9F9284601F0F4F9DD
:100FE0002846B0EE408A01F0DDF9D0ED007AF8EE47
:100FF000677A88EE277ABDEC028B84ED0E7A38BDD5
:1010000010B540F203338EB000244FF60B7240F25D
:101010000341ADF8083009A80123ADF81020ADF860
:1010200024202246ADF80C100094029907940C94E9
:10103000CDE90544CDE90A4401F04CFC04A80123A4
:1010400022460399009401F045FC09A801F028FD0F
:1010500010B901200EB010BD04A801F021FDA0427E
:101060000CBF022020460EB010BD00BF2DE9F0419C
:1010700003239AB0012700240646CDE914373B4BE1
:10108000CDE9104340F20453CDE91647ADF848309E
:10109000FFF7B6FFB842054625D0022845D040F6F6
:1010A0000132334B0DF12C081894ADF82C200B981D
:1010B0001997CDF84A3000F0E3F810A906F13C008A
:1010C00002F02AFD302003224FF07E5341460D935B
:1010D0000E93CDE90B02F26B06F1140001F02AF930
:1010E0001AB0BDE8F0811023214A06A906908DF8B8
:1010F00028300DF12C081F4BCDF84A20079302949D
:10110000CDE91804CDE9080402A801F03BFF08234B
:10111000029A03A94046ADF80C508DF80E40049594
:1011200005930B9400F0ECF8C7E700200121104B69
:101130000DF12C083A460094CDF84A304FF60B7367
:101140000C94ADF82C302346CDE9180140F601315E
:101150004046ADF818100699CDE90D4401F0BAFBF0
:101160002146404601F0A8FCA7E700BF04020404A2
:10117000040604030704010B2DE9F04704462DED96
:10118000028B82B000294DD0012140F201120023D0
:101190000091ADF804208DF80630364A0127364B11
:1011A00004F10409354904F12908626040F2027231
:1011B000A36040F60663E16004F1250AA4F8252047
:1011C000A4F82930278284F8277084F82B7004F063
:1011D000EFF8054603F052FF6946064650BB4DB393
:1011E00004F130008DF8067004F06AF8072D3CD148
:1011F00004F114052046FFF739FF284601F0E4F812
:101200002846B0EE408A01F0CDF8D0ED007AF8EE35
:10121000677A88EE277A84ED0E7A02B0BDEC028BF5
:10122000BDE8F08740F2011300918DF80610ADF88B
:101230000430B2E704F1300004F042F8072D11D079
:101240004946204602F0E8F80EB9002DD0D15046AC
:1012500001F03CFC404601F039FC04F1120000F0C2
:1012600079F9C5E7002EF2D1C2E74946204602F0DF
:10127000D3F8BDE70508050905070506050A0606B2
:1012800010B584B003460124ADF8040003A8ADF8FE
:101290000C30ADF80E4001F019FC214603A801F016
:1012A000F1FC204603F0E8FE002103A801F0EAFC6F
:1012B000204603F0E1FE214603A801F0E3FC04B060
:1012C00010BD00BF10B5C2F3002384B00C46017CF2
:1012D0008DF80D2043EA4402FA2402238DF80C20F5
:1012E00003AA009401F0E4FE18B10124204604B0E2
:1012F00010BD04460A2003F0BFFE204604B010BD16
:10130000034670B543F8042B044684B007C983E84C
:101310000700A37983B91A210B461E22FA252374EC
:101320002046ADF80C20022303AA009501F0C0FE70
:1013300028B1012004B070BD1B210B46EDE70A2047
:1013400003F09AFE4FF4B85200950223ADF80C203A
:10135000204603AA217C01F0ABFE0028E9D10A2037
:1013600003F08AFE41F2027200950223ADF80C20D0
:10137000204603AA217C01F09BFE0028D9D10A2037
:1013800003F07AFE042200950223ADF80C202046DB
:1013900003AA217C01F08CFE0028CAD10A2003F0A8
:1013A0006BFE062200950223ADF80C20204603AA0E
:1013B000217C01F07DFE0028BBD10A2003F05CFEF9
:1013C00041F2082200950223ADF80C20204603AA22
:1013D000217C01F06DFE0028ABD10A20064603F007
:1013E0004BFE0095022303AA217C2046ADF80C6039
:1013F00001F05EFE00289CD1304603F03DFE0095D2
:1014000022790C232046002A8DF80C3003AA4FF0D5
:10141000020314BF622142218DF80D10217C01F0DE
:1014200047FE002885D1304603F026FE2279D4E914
:1014300002310B43DBB20AB943F0400362790AB1CF
:1014400043F020030E22FA258DF80D30204600953A
:1014500002238DF80C2003AA217C01F029FE00282C
:101460007FF467AF0A2003F007FE102200950223E5
:10147000ADF80C20204603AA217C01F019FE0028BB
:101480007FF457AF0A2003F0F7FD122100950223E5
:10149000ADF80C1003AA217C204601F009FE0028BB
:1014A0007FF447AF0A2003F0E7FD0122092120461F
:1014B000FFF708FF003818BF01203BE7F0B5102305
:1014C00087B0234C012200250126002702A92046CF
:1014D0000195CDE902234FF48052CDE904670AF06B
:1014E00017FC642004F0A2FD02A94FF480522046AC
:1014F000CDE9046702261027CDE902670AF008FC4F
:101500000322102302A92046CDE90223002304224E
:10151000CDE904234FF480520AF0FAFB40F2322363
:10152000042202A9019310232046CDE90223019A47
:10153000012305924FF4805204930AF0E9FB40F630
:10154000060120460AF004FC284607B0F0BD00BFA3
:10155000D4E001241C4B00221C494FF0400C30B554
:10156000054689B00220596007219A601A62012459
:10157000DA620A224FF4006EDC6006922022CDE986
:10158000000104200821CDE9020103201021CDE94A
:10159000040108206946C3E904024FF4C072181D13
:1015A000C3E906C24FF48052C3E909E20AF086FBA0
:1015B00038B92846FFF782FF003818BF012009B06C
:1015C00030BD204609B030BDD0E00124404100527A
:1015D000614A0021D0B513688EB00A91002B40F00B
:1015E000B9805E4B01214FF683700C2411600221FB
:1015F000D3F8D4200026032742F48052C3F8D42025
:10160000D3F8D42002F480520092009AD3F8E0205C
:1016100042F01002C3F8E020D3F8E02002F01002FC
:101620000192019AD3F8E02042F04002C3F8E02092
:10163000D3F8E02002F040020292029AD3F8E020B0
:1016400042F00802C3F8E020D3F8E02002F00802DC
:101650000392039AD3F8E02042F48072C3F8E020AA
:10166000D3F8E02002F480720492049AD3F8E020C8
:1016700042F08002C3F8E020D3F8E02002F08002BC
:101680000592059AD3F8E02042F02002C3F8E0204A
:10169000D3F8E02002F020020692069AD3F8E02068
:1016A00042F00402C3F8E020D3F8E0300C9403F0D9
:1016B000040307930323079A0B93CDE9080108A9B4
:1016C000274805F059FD48F23712022308A925489A
:1016D0000C94CDE90823CDE90A6705F04DFD4CF2E5
:1016E0000372022308A920480C94CDE90823CDE910
:1016F0000A6705F041FD40F2FF62022308A91B487A
:101700000C94CDE90823CDE90A6705F035FD4FF6C5
:101710000C72022308A916480C94CDE90823CDE9E0
:101720000A6705F029FD4FF63F02022308A9114878
:101730000C94CDE90823CDE90A6705F01DFD2022B0
:10174000022308A90A480C94CDE90A67CDE90823C9
:1017500005F012FD0EB0D0BDCCE0012400440258CB
:101760000010025800180258000C025800200258BD
:10177000001C0258001402582DE9F04FDFF81084C5
:1017800006460D46144608F118002DED028B89B06F
:1017900000AF02F0B9FAD8F8183073B3D8F81C309B
:1017A000D8F80490002B43690BBF4FF0080A4FF0A4
:1017B000100A4FF0020B4FF0040BB9F1000F2AD0C2
:1017C000A200EA46012B02F1070222F00702ADEB6C
:1017D000020D6846ADEB020D694600F03F81022B19
:1017E00000F0D680002B6FD02246C847D54624375C
:1017F000BD46BDEC028BBDE8F08FD8F81C30002B45
:10180000F5D0D8F804904FF0080A4FF0020B436966
:10181000B9F1000FD4D1FB61D8F80030BB61002BC7
:10182000E5D0D54802F0E2FA6B46BBF1020F7861D1
:1018300008EE103AFB6900F083816A465146A2EB3C
:10184000C40295466200EA46B2FBFBF2AAEBC40072
:1018500085460AEB8200EE46F861ADEB010DF869B2
:101860000EEB820CC7F810C0EC46ADEB010D00EB9F
:101870008201CCF80400CCF8081001EB8201386931
:10188000E946CCF80C1000EB8201CCF800A001EB8B
:101890008202C9E900E0C9E90212012B00F0648369
:1018A000022B00F06C82002B00F080816208494618
:1018B0006046BB69984718EE103A24379D46BD46EE
:1018C000BDEC028BBDE8F08F002C8DD01A46D8ED10
:1018D0000C6A9FEDB27A8446331D36F922E00CF192
:1018E000080C07EE90EA33F922E00232F8EEE77ACC
:1018F000944267EE877A67EEA67A4CED027A07EE9D
:1019000090EAF8EEE77A67EE877A67EEA67A4CED12
:10191000017AE2D8F9612246C847984ED8ED0D6A9F
:101920000020F9692B1D9FED9E7A9FED9E6ADFEDE9
:101930009E5A22E0F4EEC67AF1EE10FAC0F2C884A4
:1019400047F6FE72D1ED017A45F8202066EEA77ABF
:10195000F4EEC77AF1EE10FA40F2F080F4EEC67AB7
:10196000F1EE10FAC0F2D58447F6FE7243F820205B
:101970000230083184427FF639AFD1ED007A66EE4D
:10198000A77AF4EEC77AF1EE10FAD3D83246D9E747
:10199000002C3FF429AFD8ED0C6A84469FED787A8D
:1019A0000022331D8E4656F822100CF1080C07EE6B
:1019B000901A53F822100232F8EEE77A944267EE5A
:1019C000877A67EEA67A4CED027A07EE901AF8EE67
:1019D000E77A67EE877A67EEA67A4CED017AE2D86D
:1019E00071462246C7F81CE0C847664ED8ED0D6A1E
:1019F0000020F9692B1D9FED6A7A9FED6A6ADFF876
:101A000094C120E0F4EEC67AF1EE10FAC0F27984C7
:101A10003246D1ED017A45F8202066EEA77AF4EE41
:101A2000C77AF1EE10FA40F28780F4EEC67AF1EE52
:101A300010FAC0F25E84324643F8202002300831AA
:101A400084427FF6D3AED1ED007A66EEA77AF4EE4B
:101A5000C77AF1EE10FAD5D86246DAE7002C3FF4E7
:101A6000C3AED8ED0C6A86469FED477A4FF0000C66
:101A7000331D56F82C200EF1080E82F40002A2F558
:101A8000000207EE902A53F82C200CF1020CF8EE1D
:101A9000E77A82F400026445A2F5000267EE877AD5
:101AA00067EEA67A4EED027A07EE902AF8EEE77A14
:101AB00067EE877A67EEA67A4EED017AD9D8F9619A
:101AC0002246C847314ED8ED0D6A0020F9692B1D1A
:101AD0009FED337A9FED336ADFF8BCC01FE0F4EE70
:101AE000C67AF1EE10FAC0F2FC833246D1ED017AEB
:101AF00045F8202066EEA77AF4EEC77AF1EE10FAE8
:101B000018D9F4EEC67AF1EE10FAC0F2DA83324652
:101B100043F820200230083184427FF667AED1EDD1
:101B2000007A66EEA77AF4EEC77AF1EE10FAD6D80C
:101B30006246DBE76246EBE762467DE7324615E741
:101B4000A100D6466208073121F00701ADEB010D77
:101B5000EA46ADEB010D6946ADEB0E0D0AEB8200D6
:101B6000EC46ADEB0E0D01EB8202F861E946CCE9E3
:101B700000A0C9E9001290E624E101240280FFFFE1
:101B8000000000300082FF7F0000003482FF7F00F1
:101B900008E10124007E00807E0080FF0000003804
:101BA00004FF7FBF04FF7F3F00FEFF46002C00F0D4
:101BB000C982BBF1020FD8F8242000F0FA827969BB
:101BC000C7F8049002EB810E5FED0C5A8A00DCF836
:101BD00008100EF104007A611A46DCF80C303B6103
:101BE000331DD7F810903D61FD69C7E902CB8C46E3
:101BF000834636F92210D8ED0C7A06EE101A33F926
:101C0000221006EE901A3EF92210B8EEC66A07EED0
:101C1000101AF8EEE66A3BF92210B8EEC77A26EE03
:101C2000256A66EEA56A27EE257A26EE276A66EE15
:101C3000A76A27EE277A07EE901A51080232F8EECB
:101C4000E77A0AEB8100944280ED006A05EB81009F
:101C500067EEA57AC0ED006A0CEB810009EB81010B
:101C600080ED007A98ED0C7A67EE877AC1ED007A04
:101C7000BFD8D7F804903D69D7E902CB6046620827
:101C8000BB6949469847D8F82C307A69D8ED0D6A77
:101C90001A441FED3D7A1FED3D6A2B1D904602F15F
:101CA000040A5FED3F5A0022A84ED9E900EC51E04A
:101CB000F4EEC67AF1EE10FAC0F2C78247F6FE7073
:101CC00045F822000CEB0100D0ED007A66EEA77A11
:101CD000F4EEC77AF1EE10FA4BD9F4EEC67AF1EED3
:101CE00010FAC0F2BA8247F6FE70BBF1020F43F859
:101CF00022002BD0D9F808000844D0ED007A66EE17
:101D0000A77AF4EEC77AF1EE10FA36D9F4EEC67A75
:101D1000F1EE10FAC0F2CD8247F6FE7048F82200CC
:101D2000D9F80C000144D1ED007A66EEA77AF4EE02
:101D3000C77AF1EE10FA1ED9F4EEC67AF1EE10FA77
:101D4000C0F2AF8247F6FE714AF822100232944286
:101D50007FF6B1AD51080EEB81008900D0ED007A1D
:101D600066EEA77AF4EEC77AF1EE10FAA0D8304604
:101D7000A6E73046B9E73146E6E73046CEE7002C25
:101D800000F0E081BBF1020FD8F8243000F0E181CF
:101D90007A69DCF8081003EB820EC7F80490930010
:101DA000DFED6B5A0EF1040000227B61DCF80C3091
:101DB0003B61331DD7F810903D61FD69C7E902CB47
:101DC0008C46834656F82210D8ED0C7A07EE101A8E
:101DD00053F82210B8EEC76A07EE101A5EF8221008
:101DE000F8EEC76A07EE101A26EE256A5BF8221095
:101DF000B8EEC77A66EEA56A26EE276A27EE257A40
:101E000066EEA76A27EE277A07EE901A510802328B
:101E1000F8EEE77A0AEB8100944280ED006A05EB68
:101E2000810067EEA57AC0ED006A0CEB810009EB3A
:101E3000810180ED007A98ED0C7A67EE877AC1ED2A
:101E4000007ABFD8D7F804903D69D7E902CB604645
:101E50006208BB6949469847D8F82C307A69D8EDB2
:101E60000D6A1A449FED3E7A9FED3E6A131D92461D
:101E7000DFF8E4C00022FB612B1D364ED9E9008E4D
:101E80004EE0F4EEC67AF1EE10FAC0F2FC81304674
:101E900045F822000EEB0100D0ED007A66EEA77A3D
:101EA000F4EEC77AF1EE10FA49D9F4EEC67AF1EE03
:101EB00010FAC0F2EF813046BBF1020F43F8220066
:101EC0002AD0D9F808000844D0ED007A66EEA77A47
:101ED000F4EEC77AF1EE10FA35D9F4EEC67AF1EEE7
:101EE00010FAC0F2C98130464AF82200D9F80C0035
:101EF0000144D1ED007A66EEA77AF4EEC77AF1EEEE
:101F000010FA1ED9F4EEC67AF1EE10FAC0F2AD81E5
:101F10003146F86940F82210023294427FF6CBAC89
:101F2000510808EB81008900D0ED007A66EEA77AAF
:101F3000F4EEC77AF1EE10FAA3D86046A8E760463F
:101F4000BAE76146E5E76046CEE700BF0280FFFFE3
:101F5000000000300082FF7F007E0080000000341F
:101F600004FF7FBF04FF7F3F002C00F0EB807A6905
:101F70000021D8F82430C7F8109003EB820ED7F870
:101F80001C909300FD610EF104021FED0C6A7B6151
:101F9000331D154656F821204808D8ED0C6ABBF1D0
:101FA000020F82F40002A2F5000207EE902A53F815
:101FB000212082F40002B8EEE77AA2F5000227EEB3
:101FC000067A07EE902A0AEB8002F8EEE77A27EE0F
:101FD000267A67EE867A82ED007A09EB80024FEA74
:101FE000800067EEA67AC2ED007A27D05EF8212045
:101FF00082F40002A2F5000207EE902A55F8212093
:1020000082F40002B8EEE77AA2F5000227EE067A23
:1020100007EE902ADCF80820F8EEE77A024427EE73
:10202000267A67EE867A82ED007A98ED0C7ADCF8F3
:102030000C2067EE877A0244C2ED007A02318C42AE
:10204000A8D8D7F8109060466208BB694946FD6978
:102050009847D8F82C307A69D8ED0D6A1A441FEDEC
:10206000407A1FED406A131D9246DFF8C4C2002279
:10207000FB612B1DAB4ED9E9008E4EE0F4EEC67A23
:10208000F1EE10FAC0F2C580304645F822000EEBA2
:102090000100D0ED007A66EEA77AF4EEC77AF1EE91
:1020A00010FA49D9F4EEC67AF1EE10FAC0F2BF8008
:1020B0003046BBF1020F43F822002AD0D9F80800BD
:1020C0000844D0ED007A66EEA77AF4EEC77AF1EE16
:1020D00010FA35D9F4EEC67AF1EE10FAC0F2AE80FD
:1020E00030464AF82200D9F80C000144D1ED007ABC
:1020F00066EEA77AF4EEC77AF1EE10FA1ED9F4EE86
:10210000C67AF1EE10FAC0F28B803146F86940F8D9
:102110002210023294427FF6CEAB510808EB8100C8
:102120008900D0ED007A66EEA77AF4EEC77AF1EE78
:1021300010FAA3D86046A8E76046BAE76146E5E72B
:102140006046CEE7224649466046BB699847FFF79E
:10215000B2BBC7F810B0002298ED0C6A331DDFED5A
:10216000726AD7F81CB0786956F8221007EE901AF8
:1021700053F82210B8EEE77A07EE901A51080232AF
:10218000F8EEE77A27EE267A0AEB810E94420BEB03
:10219000810167EEA67A27EE067A67EE867A8EEDE3
:1021A000007AC1ED007ADFD88300D7F810B07B61E8
:1021B0004DE61A46C7F810B098ED0C6A331DDFEDF6
:1021C0005B6AD7F81CB0786936F9221007EE101A4E
:1021D00033F9221007EE901AB8EEC77A510802328E
:1021E000F8EEE77A27EE267A0AEB810E94420BEBA3
:1021F000810167EEA67A27EE067A67EE867A8EED83
:10220000007AC1ED007ADFD88300D7F810B07B6187
:1022100034E5F0EE675AFEEEE45A15EE900A34E724
:10222000F0EE675AFEEEE45A15EE901A6EE7F0EE05
:10223000675AFEEEE45A15EE900A3AE7F0EE675A56
:10224000FEEEE45A15EE900A4BE767EEA57AFDEE36
:10225000E77A17EE900A00B232E567EEA57AFDEE56
:10226000E77A17EE900A00B23FE5F0EE675AFEEE0D
:10227000E05A15EE901A4CE6F0EE675AFEEEE05A80
:1022800015EE900A30E6F0EE675AFEEEE05A15EED3
:10229000900AFDE5F0EE675AFEEEE05A15EE900A60
:1022A0000AE667EEA57AFDEEE77A17EE901A09B214
:1022B0004AE567EEA57AFDEEE77A17EE900A00B2DE
:1022C0002CE5F0EE675AFEEEE45A15EE902A1FE474
:1022D00067EEA57AFDEEE77A17EE902A12B2FFF7C5
:1022E00031BBF0EE675AFEEEE45A15EE902AFFF786
:1022F000FDBBF0EE675AFEEEE05A15EE902AFFF7AE
:102300009BBBF0EE675AFEEEE05A15EE902AFFF7FF
:1023100080BB67EEA57AFDEEE77A17EE902A12B23F
:10232000FFF724BB82FF7F00000000300000003870
:102330007E0080FF30B5184C154685B0046004F16E
:10234000080EEC460FC98EE80F00D4ED047AF5EEC6
:10235000C07A8CE80F00F1EE10FA1ADDB7EE006AD1
:1023600094ED057A27EE277AC6EE276A84ED0D7A7A
:10237000C4ED0C6A6DB1204640F8185F01F0C4FC52
:10238000064903690020064A2162A262E36005B0A3
:1023900030BD012005B030BD08E10124002000302F
:1023A0000000003000680830704700BFB1F5807F42
:1023B00003680A4628BF4FF48072B1F5807F9A60A7
:1023C00094BF0020012070470068183001F0FCBC69
:1023D00030B5046883B00D46E3694BB1A3680020B3
:1023E000E26A616A9B00009004F11C0001F08EFC1F
:1023F000A3680748A26A9B00216A009004F11800B4
:1024000001F084FC0020C4E9005003B030BD00BFDF
:102410007917000810B4074B4FF07E51302400228A
:10242000032019619C60D8605DF8044B5961C3E9D1
:102430000622704708E10124704700BFF8B5134F2A
:102440003C687F2C07D98023114A42F224411C4664
:102450003B60A2F87E100F4D2B68012B0AD90C4E61
:102460000D4D22463146284600F018FA0028F8D1D2
:102470003860F8BD22460649074800F00FFA0028E8
:10248000F7D12B68386001332B60F8BD44E101249B
:1024900048E1012440E10124C8E1012430B4154C95
:1024A0002168F1B14B1E144DE81810F801298C4633
:1024B00019460A2A01D00D2A02D14BB1013BF4E79B
:1024C0000CF102037F2B10D98023236030BC7047AE
:1024D0000122022323600D200A236854AB5430BC30
:1024E000704701220223044DF4E70CF1010261461A
:1024F000F0E700BF44E1012448E1012410B5094C94
:1025000002460B46084821680844C1F180010FF0DB
:10251000F9FF236818442060FFF7C0FFFFF78EFF24
:1025200010BD00BF44E1012448E101240FB400B50F
:1025300083B004A951F8040B0191FFF7DFFF03B04A
:102540005DF804EB04B0704710B5044600210A485A
:1025500000F01EF9002C094B14BF0222002208488B
:102560001A60FFF7E3FF0748FFF7E0FF0A20BDE826
:10257000104002F081BD00BFC8E1012440E1012408
:102580008439010894390108064A0749074808B503
:102590000FF06AFA034A04490548BDE808400FF005
:1025A00063BA00BF0000002439240008C8E10124F8
:1025B000CCE10124074A118830B481800024064D03
:1025C00091884FF4807285600460C180C26030BC25
:1025D000704700BFAC3701080040003038B50446F2
:1025E000104694F895301942237815D0032B19D052
:1025F00094F89820002594F896300A4025700B40F6
:10260000A26001F0F8021B09F82A237100F086800D
:10261000092B73D9002038BD032BFBD8DFE803F06A
:10262000112A5102F7291CD094F98E2094F88E308B
:10263000002AEFDBE21801330020917384F88E301A
:1026400038BD94F8942094F8973022711940131FE4
:10265000012B217305D994F88F3003F0FD03012B72
:1026600045D10023237018B19022211D0FF0E3FF04
:10267000012038BD94F8973094F894201940131F26
:102680002173012B05D994F88F3003F0FD03012B42
:1026900029D10023237000284CD09022211D0FF057
:1026A000CAFF94F894200120032AB4D1237B772B0E
:1026B000B1D90922783B227184F8942084F89130B2
:1026C00038BD94F8973094F894201940012A61732A
:1026D00000D181B118B19022211D0FF0ACFF002371
:1026E0000120237038BD022300202370DCE7022381
:1026F0000020237038BD00232371EBE70122072B54
:10270000227019D101F00703A56084F88F30CBB98E
:102710000322184684F88E30227038BD08232371B6
:1027200094F8993000221940227084F89010002803
:102730009AD19DE70120B7E7082BF1D0284684F80D
:10274000943038BD4B077FF565AF8AE700220A2336
:1027500002700371704700BF70B5044682B0C1F3C8
:102760000726CDB2ADF8041002F084FC4FF480725D
:102770004FF001232060A01DA571A280E671A36027
:1027800002B0BDE8704000F0A1B900BF704700BFC3
:10279000012910B506D0022915D051B1BDE810406D
:1027A00006F0CCBB0A46344834490CF0F7FBE8B1DC
:1027B000FEE7334B0A46334C334934481C600CF077
:1027C000EDFB68B1FEE701222C492B480CF0E6FB3B
:1027D00000B1FEE72E4928480CF002FCC0B1FEE72C
:1027E0002B492A480CF0FCFB60B1FEE7284922483F
:1027F0000CF0F6FB00B1FEE726491F480CF07EFB0B
:1028000008B3FEE7244921480CF078FBA8B1FEE7A5
:10281000204919480CF072FB00B1FEE716480CF095
:10282000F5FB024640B9164B164C174917481C6079
:102830000CF0B4FB68B1FEE7FEE714480CF0E6FBD1
:102840000028ABD0FEE70C480CF0E0FB0028A5D038
:10285000FEE70F490D480CF0C3FB00B1FEE70E493F
:102860000A480CF04BFB00B1FEE708480CF0CEFB29
:10287000002893D0FEE700BF6CE4012490020024FE
:1028800008E701248D27000874020024D0E1012408
:10289000F80200245402002444020024084691B2A5
:1028A00008B502F0BFFE003818BF012008BD00BF08
:1028B000014805F021BE00BF181F0224014805F0A1
:1028C0001BBE00BF181F0224014805F015BE00BF43
:1028D000181F022410B592B0ADF804100180C9B2DF
:1028E000149C0B29C460C0E901233FD090F801C0BB
:1028F000BCF10F0F3AD8022A3FD0032A02D0012A96
:1029000000D000220E92012B02D0022B18BF002310
:10291000022C0F932CD0032C2AD0012C28D000237A
:102920000A29109327D85C4A02EB812202610A2906
:1029300014D8DFE801F0A39587796B5D4F4133250B
:102940000600564BD3F8E01041F48061C3F8E01064
:10295000D3F8E03003F480630C930C9B01230DA9A2
:10296000104603FA0CF30D9304F006FC12B010BDF0
:102970000A291094D7D90022D8E711220E92C2E773
:10298000464BD3F8E01041F40071C3F8E010D3F8DF
:10299000E03003F400730B930B9BDFE73F4BD3F85E
:1029A000E01041F48071C3F8E010D3F8E03003F494
:1029B00080730A930A9BD1E7384BD3F8E01041F0BB
:1029C0008001C3F8E010D3F8E03003F080030993EE
:1029D000099BC3E7314BD3F8E01041F04001C3F845
:1029E000E010D3F8E03003F040030893089BB5E70C
:1029F0002A4BD3F8E01041F02001C3F8E010D3F8DF
:102A0000E03003F020030793079BA7E7234BD3F89D
:102A1000E01041F01001C3F8E010D3F8E03003F00B
:102A200010030693069B99E71C4BD3F8E01041F086
:102A30000801C3F8E010D3F8E03003F00803059371
:102A4000059B8BE7154BD3F8E01041F00401C3F868
:102A5000E010D3F8E03003F004030493049B7DE717
:102A60000E4BD3F8E01041F00201C3F8E010D3F8A8
:102A7000E03003F002030393039B6FE7074BD3F8A7
:102A8000E01041F00101C3F8E010D3F8E03003F0AA
:102A900001030293029B61E70000025800440258C0
:102AA00008B5012143780069994089B204F06CFDB2
:102AB000003818BF012008BD01230A46417800698B
:102AC00003FA01F189B204F065BD00BF8378022BDF
:102AD00030B504468FB037D0032B33D0012B31D023
:102AE00000230A93E378012B2AD0022B28D000235D
:102AF0000B93002320460C9303F076F905462046FD
:102B000003F07AF923780990082B13D8DFE803F053
:102B10001F3245586B7E91A40500594BD3F8E02035
:102B200042F48072C3F8E020D3F8E03003F48073FD
:102B30000893089B09A9284604F01EFB0FB030BD7E
:102B40000B93D6E70A93CDE711230A93CAE74C4BC0
:102B500009A92846D3F8E02042F00102C3F8E0209A
:102B6000D3F8E03003F001030093009B04F004FB72
:102B70000FB030BD424B09A92846D3F8E02042F0FF
:102B80000202C3F8E020D3F8E03003F0020301931F
:102B9000019B04F0F1FA0FB030BD394B09A928466A
:102BA000D3F8E02042F00402C3F8E020D3F8E0308C
:102BB00003F004030293029B04F0DEFA0FB030BD71
:102BC0002F4B09A92846D3F8E02042F00802C3F8A9
:102BD000E020D3F8E03003F008030393039B04F0F4
:102BE000CBFA0FB030BD264B09A92846D3F8E02018
:102BF00042F01002C3F8E020D3F8E03003F01003F5
:102C00000493049B04F0B8FA0FB030BD1C4B09A923
:102C10002846D3F8E02042F02002C3F8E020D3F8A1
:102C2000E03003F020030593059B04F0A5FA0FB0F4
:102C300030BD134B09A92846D3F8E02042F04002EA
:102C4000C3F8E020D3F8E03003F040030693069B7E
:102C500004F092FA0FB030BD094B09A92846D3F809
:102C6000E02042F08002C3F8E020D3F8E03003F027
:102C700080030793079B04F07FFA0FB030BD00BFBD
:102C80000044025870B506460D4603F0ADF8044600
:102C9000304603F0B1F82A1E0146204618BF012233
:102CA000BDE8704004F076BC0023122270B586B0F7
:102CB000CDE9022304930368032B01D80423059371
:102CC000061D841D304603F08FF80546304603F09C
:102CD00093F8034601A92846019304F04DFA2046D3
:102CE00003F082F8034620461C4603F085F801A94C
:102CF00003462046019304F03FFA06B070BD00BFC2
:102D0000634A0368934210B58CB028D0614A93425D
:102D100058D0614A934200F09480604A934201D0B7
:102D20000CB010BD5E4C5F48D4F8E03043F00203B5
:102D3000C4F8E030D4F8E03003F002030A930A9BB1
:102D4000FFF7B2FFD4F8F43043F08003C4F8F43056
:102D5000D4F8F43003F080030B930B9BE0E7504C66
:102D60005148D4F8E03043F00203C4F8E030D4F81E
:102D7000E03003F002030193019BFFF795FFD4F8C5
:102D8000E83000221F2043F400131146C4F8E83055
:102D9000D4F8E83003F400130293029BD4F8D8303F
:102DA00043F00103C4F8D830D4F8D83003F001035D
:102DB0000393039B03F064F91F200CB0BDE810409F
:102DC00003F09CB9364C3948D4F8E03043F0800326
:102DD000C4F8E030D4F8E03003F080030493049B9F
:102DE000D4F8E03043F00203C4F8E030D4F8E03027
:102DF00003F002030593059BFFF756FFD4F8E83074
:102E00000022212043F480031146C4F8E830D4F8AE
:102E1000E83003F480030693069BD4F8D83043F0DF
:102E20000103C4F8D830D4F8D83003F00103079375
:102E3000079B03F025F921200CB0BDE8104003F0FA
:102E40005DB91B48FFF730FF154B00224820D3F82F
:102E5000E840114644F40004C3F8E840D3F8E840E1
:102E600004F400040894089CD3F8D84044F001040A
:102E7000C3F8D840D3F8D83003F001030993099B75
:102E800003F0FEF848200CB0BDE8104003F036B95E
:102E90000054004000580040005C0040001C0058F6
:102EA0000044025898E9012410E70124E8E70124CE
:102EB000C0E801242DE9F0431A4B87B000254FF0FC
:102EC00010099E46EC46184BFF22E04667461A70F2
:102ED0000EF118060EF13004CDE90055CDE902558A
:102EE000ADF80090BCE80F00CDE90455AEE80F0046
:102EF0009CE803000095ADF800908EE80300B8E868
:102F00000F000FC69CE803000095ADF8009086E81E
:102F100003000FCF0FC49CE8030084E8030007B050
:102F2000BDE8F083040000240DE7012410B5EFF3A1
:102F3000108472B6084B1A78120602D504B962B62C
:102F400010BD1B78D82205485BB202FB0300143089
:102F500003F0C0FDF2E700BF0DE7012410E70124F4
:102F6000014805F0AFB900BF9CE70124014805F016
:102F7000A9B900BF74E80124014805F0A3B900BF56
:102F80004CE901242DE9F0430F68D8243F4D85B06A
:102F900007FB04F4032F05EB0403036040DCCB685C
:102FA0000E46012B3CD84DD04FF0D808B646DFF87E
:102FB000FC9008FB0758BEE80F00C446ACE80F00C1
:102FC000DEF800300DF1100ECCF80030D8F808C053
:102FD00099E80F000EE90F000EEB8703BCF1010F1B
:102FE00053F8103CC8F88C3031D0BCF1020F42D0FD
:102FF000BCF1000F35D0317C8C34D8230022012065
:103000002C4403FB07534900C3E92602C3F894107C
:103010002046C3E92822C3E92A2204F045FF18B15B
:10302000012005B0BDE8F0830146204605F056F9C1
:103030000028F5D10146204605F07AF9003818BF7E
:103040000120EEE70B7C103B672BADD9E8E702F0DF
:10305000ADF90F4B98420CBF0E4B0F4BC8F8903098
:10306000C9E702F0A3F90A4B98420CBF0B4B0C4B7B
:10307000C8F89030BFE702F099F9054B98420CBFB1
:10308000084B094BC8F89030B5E700BF10E70124A2
:10309000000E27072D0FB0303211D0205F43906013
:1030A0008A62E030200BA0101A098010B4370108A2
:1030B0002DE9F041D0F8008082B00D4617461E463B
:1030C00008F18C04204605F005F92028FAD1D8F83B
:1030D0000C3073B96D002046089C33463A46A9B2BD
:1030E000009404F037FF003818BF012002B0BDE89B
:1030F000F081089B32463946204604F0FFFFF2E794
:10310000044B10221A7483F8E82083F8C02183F856
:103110009822704710E7012430B5002395B04FF492
:103120008071062204460B9306921393CDE90C138B
:10313000CDE90E33CDE9113302F03AF907282BD04F
:1031400004F1100541F2883206A9284606F042F83B
:1031500028B10123184684F85C3015B030BD022236
:10316000022306A92846CDE9002310220123CDE938
:10317000022300224FF48003CDE9042305224FF0FF
:10318000807306926A460F9341F2883306F08EF9F7
:103190000028DED115B030BD0323012084F85C3057
:1031A00015B030BD0000000070B50023A4B04FF092
:1031B00080724FF480750446ADF806300D93CDE96A
:1031C00010320122CDE90E53CDE91223CDE914339B
:1031D000002943D0F02300F1100508AEADF8063009
:1031E000C02341F2883231462846089305F0F2FFA9
:1031F00028B10123184684F85C3024B070BD41F238
:1032000088320DF10601284606F04EF803460028E4
:10321000EFD105224FF480711E93284616924FF08D
:1032200080721B9321931F9202AA9FED1F7BCDE911
:103230001C13CDE922338DED027B9FED1D7B41F206
:10324000883316A98DED047B9FED1B7B8DED067BEE
:1032500006F02CF90028CCD124B070BD00F1100587
:1032600008AE612341F2883231462846089305F0C2
:10327000B1FF0028BDD141F288320DF10601284688
:1032800006F090F80028B4D1BDF80630204623F0AF
:10329000780343F04003ADF80630FFF73DFF002808
:1032A0009ED0A6E7AFF30080000000000100000000
:1032B00010000000010000000000000000004000BD
:1032C0002DE9F04F00234FF4807501264FF08078F0
:1032D00004462DED028BABB08DF80730139321938C
:1032E000299314950E96CDF85C80CDE91533CDE980
:1032F0001863CDE91A33CDE92253CDE92433CDE962
:10330000273306231C9302F053F8072808D004F152
:10331000100741F288321CA9384605F05BFF40B126
:103320000123184684F85C302BB0BDEC028BBDE85D
:10333000F08F4FF0020A4FF0020B4FF0050941F2F7
:10334000883308AA1CA93846CDF89480CDF870902F
:103350009FED2D8BCDE908AB4FF0000A4FF4800BA9
:103360008DED0A8BCDE90CAB06F0A0F80028D7D183
:1033700041F2883238460EA905F02CFF0028CFD143
:10338000402341F288320DF1070138468DF80730AD
:1033900005F08AFF0028C3D141F288330EA902AAA2
:1033A0003846CDF83890CDF85C809FED197B8DEDD7
:1033B000048BCDE906AB8DED027B06F077F8034672
:1033C0000028ADD1CDF870904FF00109CDF8948070
:1033D0004FF00008219308AA29931CA9384622958A
:1033E000CDE92333CDE9273341F288338DED0A8BC4
:1033F000CDE90CABCDE9088906F058F8002893D048
:10340000304684F85C608FE7100000000100000087
:1034100040000000400000002DE9F043624CA3B0E2
:103420000D46046001F0C4FF072800F0A980286859
:1034300023466968AA6807C31E46AB8926F8043B81
:103440003046257B677B05F0A7FEE0B9574B012D81
:103450004FF00108E061236114BF4FF480134FF473
:103460000003C4E9058893FAA3F3B3FA83F34FF496
:103470008079013BC4F82490C4E90B0030462362F4
:1034800005F01EFE38B10122134684F85C20184670
:1034900023B0BDE8F08366230B90139041F288328D
:1034A00006A90693CDE90C90CDE90E00CDE91100F7
:1034B000304605F08FFE0028E5D1992341F288328D
:1034C00006A93046069305F085FE0028DBD10523CA
:1034D0001C9019906A4614934FF08073219014A9A0
:1034E0001D9341F288339FED2A7BCDE91A90CDE9F7
:1034F0001F008DED007B9FED287B30468DED027B1C
:103500009FED277B8DED047B05F0D0FF0028BAD11D
:1035100029462046FFF748FE0028B4D12046FFF791
:10352000CFFE03460028AED1002FB0D1189330460D
:103530000027002606AA14A9CDF86890CDE91F330C
:10354000EB2314934FF440631B934FF400531793F2
:103550004FF440431C93A0231693062319934FF076
:10356000805321934FF04073CDE906671D9306F019
:1035700015F8034600288AD0434684F85C8086E725
:1035800001230322184684F85C2023B0BDE8F083B1
:103590000000000001000000100000000100000019
:1035A000000000000000400070EA012400500052BA
:1035B0002DE9F04F8FB0414B0024026800AF9A42D2
:1035C0007C63C7E90944C7E90B4403D03C37BD46D7
:1035D000BDE8F08F3A4B40F609213A48EB46D3F864
:1035E000D42007F11C0607F1220A4FF0020942F429
:1035F00080424FF00308C3F8D420D3F8D42002F45B
:103600008042BA60BA68D3F8E02042F04002C3F8C2
:10361000E020D3F8E02002F04002FA60FA68D3F824
:10362000E02042F02002C3F8E020D3F8E02002F0CE
:1036300020023A613A69D3F8E02042F01002C3F860
:10364000E020D3F8E02002F010027A617A69D3F822
:10365000E02042F00202C3F8E020D3F8E030F86145
:1036600003F002033984BB61174B7B60BB697B6845
:1036700053F8040F7B6002F0B7FB7B6805461868BF
:1036800002F0BAFB16F8013B786207F124012846E4
:10369000C7F830807B63C7E90A9403F06DFD564597
:1036A000E5D100225C20114602F0EAFC5C2002F029
:1036B00025FD3C37DD46BD46BDE8F08F0050005289
:1036C000004402580A0A0909CCEA0124114B026895
:1036D0009A4200D07047104A70B5D2F8D4300F4CDF
:1036E00023F4804304F11806C2F8D43054F8040FD0
:1036F00002F07AFB0546206802F07EFB0146284670
:1037000003F07AFEB442F1D15C20BDE8704002F0D3
:1037100003BD00BF0050005200440258CCEA01240F
:10372000014805F0C7BF00BF80EA0124084B1A1DFD
:10373000981D03F1080110B49C1C9A6603F10A025B
:10374000C3E91834C3E91B015DF8044B5A6770479D
:1037500070EA012438B5036871B9026A00F12805DE
:1037600000F5AC74012A0CBF002140218BBB1D4B1E
:103770005722C0F858310DE0426A00F1C00500F54B
:10378000E874012A0CBF00214021EBB1164B5A22EC
:10379000C0F8D03100232046C4E901214FF4805203
:1037A0004FF48061636262614FF48042C4E9033187
:1037B0004FF48073C4E906234FF40033236202F010
:1037C00011FE58B1FFBEFEE7084B5822C0F8D031B9
:1037D000E0E7074B5922C0F85831DBE7C5E9204440
:1037E000A56338BD1000024070000240280002406E
:1037F000580002402DE9F043821D05468BB0031DA1
:1038000005F10A010830CDE9052305F10C02AB6989
:10381000CDE907010992002B3DD0EB69B3FA83F89B
:103820004FEA58180123022205AE0AAF4FF00609ED
:103830000393CDE9012356F8044B2B792278934268
:1038400016D02B68F3B1012B02D1F2B10A230493F5
:10385000204602F0D1FA03462046009302F0C4FA53
:10386000694603F089FCBE42E5D10BB0BDE8F083A8
:10387000697963789942E4D1B8F1000FF3D02B68ED
:10388000002BE0D1CDF81090E2E76378022B14BF53
:103890000A230823DBE74FF00108C3E7534A036814
:1038A000934230B505468BB055D02032934252D06A
:1038B0004F4A934204D02032934201D00BB030BD26
:1038C0004C4C4D48D4F8E03043F00103C4F8E030EC
:1038D000D4F8E03003F001030593059BD4F8E03001
:1038E00043F00803C4F8E030D4F8E03003F00803F4
:1038F0000693069BD4F8E03043F04003C4F8E03070
:10390000D4F8E03003F040030793079BD4F8F0307D
:1039100043F40003C4F8F030D4F8F03003F40003AB
:103920000893089BFFF766FFD4F8D830296843F066
:1039300001032F4A3048C4F8D830891AD4F8D83057
:1039400018BF012103F001030993099B0BB0BDE8E7
:103950003040FFF7FFBE274C2848D4F8E03043F052
:103960000103C4F8E030D4F8E03003F00103009321
:10397000009BD4F8E03043F01003C4F8E030D4F8F2
:10398000E03003F010030193019BD4F8E03043F0E2
:103990004003C4F8E030D4F8E03003F04003029371
:1039A000029BD4F8F03043F48003C4F8F030D4F82C
:1039B000F03003F480030393039BFFF71BFFD4F85D
:1039C000D830296843F00103084A0C48C4F8D830BD
:1039D000891AD4F8D83018BF012103F001030493E9
:1039E000049B0BB0BDE83040FFF7B4BE0458014063
:1039F000045C01400044025844ED0124E8EA01243B
:103A0000014803F067B800BF40EC0124014803F00F
:103A100061B800BFB8EC0124014803F05BB800BFF7
:103A20009CEE0124014803F055B800BF14EF0124B7
:103A30001A4A0368934210B40BD02032934208D044
:103A4000174A934216D02032934213D05DF8044BAC
:103A50007047144B0022D3F85442C3F85822002C6C
:103A6000F4D0D3F84802D3E9931223465DF8044B0F
:103A7000520818470B4B0022D3F8B044C3F8B424C3
:103A8000002CE3D0D3F8AC24D3F8A814D3F8A404C2
:103A9000520823465DF8044B184700BF0458014004
:103AA000045C0140E8EA0124184A0368934210B418
:103AB0000BD02032934208D0154A934217D02032BF
:103AC000934214D05DF8044B7047124BD3E9942411
:103AD0005208C3F85822002CF4D0D3E992012346AF
:103AE00001EB820100EB82005DF8044B1847094BA3
:103AF000D3F8AC24D3F8B0445208C3F8B424002C53
:103B0000E0D0D3F8A814D3F8A404E8E7045801409F
:103B1000045C0140E8EA01242DE9F04F0C684FF401
:103B20001776754F87B004FB06F6012C07EB060AE3
:103B3000C0F800A000F3A0800D468E464FF00008AC
:103B4000D44669A3D3E9002369A1D1E90001CDE9F5
:103B5000022306ABCAF8508203EB8403CDE90401CB
:103B600053F810BC53F8083CCAE992880193BEE8A8
:103B70000F00ACE80F00BEE80F00ACE80F00019B9F
:103B80009EE80300CAF828B0CAF8C0308CE80300E9
:103B90002B69042B0CD8DFE803F0737D87910300B9
:103BA0004FF41773554A03FB04739A64C3F8E0207B
:103BB000AA692B6A002A43D0002B4FF4177308BF61
:103BC000022203FB047318BF0322DA6201221A6384
:103BD000EA696B6A002A40D1191E4FF4177318BFA7
:103BE000012103FB0473C3E931126B69022B05D871
:103BF000434A12F80380434A52F823904FF4177354
:103C000006F128004246494603FB04740023384469
:103C100063646363E365C4F8DC30C4F8CC30C4F893
:103C2000F430C4E90F33C4E91533C4E93533C4E9CA
:103C30003B33022307F0E0FD002849D0FFBEFEE73A
:103C4000191E4FF4177318BF012103FB0473C3E956
:103C50000B12EA696B6A002ABED0002B4FF417736F
:103C600008BF022203FB047318BF0322C3F8C42059
:103C70000122C3F8C820B8E7012007B0BDE8F08FE3
:103C80004FF417734FF4FA5203FB04739A64C3F8AA
:103C9000E0208DE74FF417734FF47A5203FB04735F
:103CA0009A64C3F8E02083E74FF417734FF4FA42A5
:103CB00003FB04739A64C3F8E02079E74FF41773A9
:103CC0004BF6803203FB04739A64C3F8E0206FE77D
:103CD00006F1C000022342464946384407F08CFDF5
:103CE0000028CAD0FFBEFEE704580140045C014032
:103CF00024580140245C0140E8EA012400770100D7
:103D00003C3A0108403A01080068704770B5046801
:103D100082B015460E46C4F85032C4E99212069A93
:103D2000C4F85422A269012A26D0626A012A9AB2F2
:103D300011D0294604F1C000019207F019FE236A50
:103D4000019A012B10D0294604F1280007F010FE3B
:103D5000002002B070BD04F1C000019207F09AFE8D
:103D6000236A019A012BEED1314604F1280007F0B5
:103D700091FE002002B070BD226A012A9AB211D0D1
:103D8000294604F12800019207F0F2FD636A019AC6
:103D9000012B10D0294604F1C00007F0E9FD0020F6
:103DA00002B070BD04F12800019207F073FE636A4F
:103DB000019A012BEED1314604F1C00007F06AFEF2
:103DC000002002B070BD00BF03681B69042B05D83A
:103DD000044A02EB830393ED000A70479FED020A49
:103DE000704700BF4C3A010800803B470368D3F896
:103DF000580270471F4BC1680268F0B5D3F88C5069
:103E000083B00369ADB24D1BA2B1AB4212D00446E0
:103E1000866811D2F018E91ACDE9001001F064F8B3
:103E20000023DDE90010D4E90062B047E3682561B2
:103E3000AB421BD003B0F0BDF018C91ACDE90001A8
:103E400001F052F80023DDE90001D4E90072B8471F
:103E50003046294601F048F800233046626829467A
:103E60002668B047E3682561AB42E3D100232361B4
:103E700003B0F0BD000002402DE9F84F04460F46A4
:103E800090461E4600F13405284608F01FFA202807
:103E9000FAD14FF480630020C4F8D030C4F8483120
:103EA0004FF44033C4F8CC00C4F8E030C4F85831C3
:103EB0004E4BC4F8DC00C4F8C03003F57A73C4F884
:103EC000E400C4F838314023C4F8C800C4F84031D5
:103ED000E369C4F84401C4F85401C4F85C01C4E9BE
:103EE0003500C4E95300072B0BD8DFE803F061531A
:103EF0005A373E454C045123C4F8C4305223C4F809
:103F00003C3104F59C79484602F06CFA08B1FFBEDA
:103F1000FEE7C4F8A890C4F87051EFF3108972B6A8
:103F2000DFF8D0B094F91C30DFF8CCA08BF800306B
:103F30000A9B2F4CCAF800300B9B23600EB1184629
:103F4000B0471FFA88F23946284607F0A9FFB0BBF0
:103F5000B9F1000F00D162B6BDE8F88F3F23C4F875
:103F6000C4304023C4F83C31CBE74123C4F8C4300B
:103F70004223C4F83C31C4E74723C4F8C430482383
:103F8000C4F83C31BDE74F23C4F8C4305023C4F813
:103F90003C31B6E72B23C4F8C4302C23C4F83C31A1
:103FA000AFE72D23C4F8C4302E23C4F83C31A8E772
:103FB0002923C4F8C4302A23C4F83C31A1E7FF23E5
:103FC0008BF800300023CAF8003023600A9B3BB115
:103FD0000B98012198470120B9F1000FBCD1BAE735
:103FE0000120B9F1000FB7D1B5E700BF880002404A
:103FF000D8FE0124D4FE0124D0FE01242DE9F84F7F
:1040000004460F4690461E4600F13405284608F047
:104010005DF92028FAD14FF480630020C4F8D03035
:10402000C4F848314FF44033C4F8CC00C4F8E03051
:10403000C4F858314E4BC4F8DC00C4F8C03003F566
:104040007A73C4F8E400C4F838314023C4F8C800D7
:10405000C4F84031E369C4F84401C4F85401C4F819
:104060005C01C4E93500C4E95300072B0BD8DFE835
:1040700003F061535A373E454C045123C4F8C43011
:104080005223C4F83C3104F1C009484602F0AAF9B1
:1040900008B1FFBEFEE7C4F8AC90C4F8F850EFF3E7
:1040A000108972B6DFF8D0B094F91C30DFF8CCA0DC
:1040B0008BF800300A9B2F4CCAF800300B9B236012
:1040C0000EB11846B0471FFA88F23946284607F065
:1040D00039FFB0BBB9F1000F00D162B6BDE8F88F6F
:1040E0003F23C4F8C4304023C4F83C31CBE741231C
:1040F000C4F8C4304223C4F83C31C4E74723C4F8B1
:10410000C4304823C4F83C31BDE74F23C4F8C43061
:104110005023C4F83C31B6E72B23C4F8C4302C2319
:10412000C4F83C31AFE72D23C4F8C4302E23C4F8C3
:104130003C31A8E72923C4F8C4302A23C4F83C3111
:10414000A1E7FF238BF800300023CAF8003023607A
:104150000A9B3BB10B98012198470120B9F1000F50
:10416000BCD1BAE70120B9F1000FB7D1B5E700BF64
:1041700088000240D8FE0124D4FE0124D0FE012490
:104180002DE9F0410D4682B0EFF3108772B6002999
:1041900048D1FF23254A264C237013682BB10020F9
:1041A00029461060234A1068984723781B0625D5B6
:1041B000DFF888800025204E444605E001351C3498
:1041C00006F5D876092D19D0A369012B1BD0002B39
:1041D000F4D1216830460029F0D063690193236946
:1041E0000093E3682289FFF709FF0028E6D1C5EBB9
:1041F000C50508EB850348F82500586007B962B685
:1042000002B0BDE8F08161680029D7D0636930460B
:10421000019323690093E3682289FFF72DFE0028AC
:10422000CCD1E4E709F04EFBB3E700BFD0FE012498
:10423000D4FE0124D8FE0124A0EF01244C00002468
:10424000F0B5002387B0022204460493CDE902238F
:10425000027EC3690B2A4FEA430523D1A27E0B2AB3
:1042600002D1002007B0F0BD48496B1C484851F806
:104270002330457801781878E67E884269D08242FA
:1042800077D0D87803F1030C81426ED0824278D087
:10429000987903F1060C88426FD0824233D0012016
:1042A00007B0F0BD394B3A4853F8253001784678CD
:1042B000187894F819C081423DD0824241D0D87814
:1042C00003F1030E814240D082424AD0987903F133
:1042D000060E884241D08242E1D1DB796345DED1CE
:1042E000734604F118069B783046059301F07CFD77
:1042F000034630461E4601F07FFD01A9019030467D
:1043000002F03AFFAAE7DB79B342C8D163461A3418
:104310009B782046059301F067FD034620461C4626
:1043200001F06AFD034601A92046019302F024FF33
:10433000002007B0F0BD93F801E0B645BFD082423F
:10434000BDD158786045BAD1CBE71F79B742BBD110
:10435000BCE75F78AF4292D193E7D979B142BAD145
:104360009DE718796045B1D1BAE71F79AF428DD189
:104370008EE75878B04284D1C9E7D979A9428CD167
:104380008DE71879B04283D1C0E700BF64010024F3
:10439000600100247E4A03689342F0B58FB000F0BC
:1043A000E380A2F54C42934200F0E08002F5806287
:1043B000934200F0DD8002F58062934200F0DA80E3
:1043C00002F58062934200F0D98002F544429342A4
:1043D00000F0D280A2F51C42934200F0D18002F599
:1043E0008062934200F0CE806A4A934240F0CC80D3
:1043F0000826694D4FF4D87404FB0654A07E01F0E2
:1044000003FD207E01F000FDE369082B13D8DFE8EF
:1044100003F03B49576573818F9D05005F4BD3F8CF
:10442000F42042F00802C3F8F420D3F8F43003F08B
:1044300008030893089B2046FFF702FF012801D1DB
:10444000FFBEFEE74FF4D8740EAA554F0DF1240CB1
:1044500004FB0654E36902EB43050FCFACE80F0001
:104460003B680022ACF80030114635F9140C01F01D
:1044700007FEE3690EAA02EB430333F9140C0FB0F5
:10448000BDE8F04001F03ABE444BD3F8F02042F0D2
:104490001002C3F8F020D3F8F03003F010030093BB
:1044A000009BC8E73D4BD3F8E82042F40032C3F844
:1044B000E820D3F8E83003F400330193019BBAE716
:1044C000364BD3F8E82042F48022C3F8E820D3F832
:1044D000E83003F480230293029BACE72F4BD3F820
:1044E000E82042F40022C3F8E820D3F8E83003F4CF
:1044F00000230393039B9EE7284BD3F8E82042F464
:104500008012C3F8E820D3F8E83003F48013049352
:10451000049B90E7214BD3F8F02042F02002C3F82F
:10452000F020D3F8F03003F020030593059B82E7D9
:104530001A4BD3F8E82042F08042C3F8E820D3F8C1
:10454000E83003F080430693069B74E7134BD3F8DF
:10455000E82042F00042C3F8E820D3F8E83003F046
:1045600000430793079B66E7002642E7012640E7E2
:1045700002263EE703263CE705263AE7042638E70D
:10458000062636E7072634E700239B7EFFDE00BFC2
:1045900000100140000C0058A0EF01240044025814
:1045A000C43701082DE9F04F91B0002301223F49A3
:1045B0000DF1240A09938B4601F11C09CAF8143045
:1045C00001F13808CDF800A001F15407CDF804A09E
:1045D00001F17006CDF808A001F18C05CDF80CA012
:1045E00001F1A804CDF810A001F1C40ECDF814A07B
:1045F00001F1E00CCAE90133CAE903330F92FF224B
:104600002B4BCDE906AA1A70BAE80F00ABE80F00F1
:104610009AE80700009B8BE807009B46BBE80F0069
:10462000A9E80F009AE80700019B89E8070099466E
:10463000B9E80F00A8E80F009AE80700029B88E895
:1046400007009846B8E80F000FC79AE80700039BD9
:1046500087E807001F460FCF0FC69AE80700049BA4
:1046600086E807001E460FCE0FC59AE80700059B97
:1046700085E807001D460FCD0FC49AE80700069B8A
:1046800084E807001C460FCCAEE80F00079B9AE8B1
:1046900007001C468EE807000FCCACE80F009AE834
:1046A00007008CE8070011B0BDE8F08F4C00002433
:1046B000D4FE012410B5094C04F1340007F014FDB8
:1046C000237D1BB1636BDB69DB0600D410BD204684
:1046D000FFF790FB636B10221A6210BDA0EF01245C
:1046E00010B50B4C04F5F27007F0FEFC94F8C431E1
:1046F00023B1D4F8E431DB69DB0600D410BD04F546
:10470000D870FFF777FBD4F8E43110221A6210BD9D
:10471000A0EF012410B50B4C04F5657007F0E4FC24
:1047200094F8743323B1D4F89433DB69DB0600D4F6
:1047300010BD04F55870FFF75DFBD4F894331022D8
:104740001A6210BDA0EF012410B50B4C04F24450C6
:1047500007F0CAFC94F8243523B1D4F84435DB695A
:10476000DB0600D410BD04F5A260FFF743FBD4F8CC
:10477000443510221A6210BDA0EF012410B50B4C75
:1047800004F2F46007F0B0FC94F8D43623B1D4F806
:10479000F436DB69DB0600D410BD04F5D860FFF702
:1047A00029FBD4F8F43610221A6210BDA0EF0124C0
:1047B00010B50B4C04F6A40007F096FC94F884386E
:1047C00023B1D4F8A438DB69DB0600D410BD04F5AE
:1047D0000760FFF70FFBD4F8A43810221A6210BD4F
:1047E000A0EF012410B50B4C04F6542007F07CFC1C
:1047F00094F8343A23B1D4F8543ADB69DB0600D498
:1048000010BD04F52260FFF7F5FAD4F8543A1022EF
:104810001A6210BDA0EF012410B50B4C04F6044041
:1048200007F062FC94F8E43B23B1D4F8043CDB6964
:10483000DB0600D410BD04F53D60FFF7DBFAD4F8C9
:10484000043C10221A6210BDA0EF012410B50B4CDD
:1048500004F6B45007F048FC94F8943D23B1D4F822
:10486000B43DDB69DB0600D410BD04F55860FFF7EA
:10487000C1FAD4F8B43D10221A6210BDA0EF012491
:1048800010B5EFF3108472B6084B1A78120602D5F1
:1048900004B962B610BD1B784FF4D87204485BB2FD
:1048A00002FB0300C03002F015F9F1E7D4FE012449
:1048B000A0EF012410B5EFF3108472B6094B1A78FB
:1048C000120602D504B962B610BD1B784FF4D87237
:1048D00005485BB202FB030000F59C7002F0FAF899
:1048E000F0E700BFD4FE0124A0EF01240021FFF770
:1048F00047BC00BF214A036893422BD0A2F54C422B
:10490000934229D002F58062934227D002F580625B
:10491000934225D002F58062934223D002F54442AF
:10492000934221D0A2F51C4293421FD002F580622F
:1049300093421DD0124A93421CD108224FF4D871E1
:10494000104B01FB0233197D11B11846FFF752BA23
:10495000FFF716BC0022F1E70122EFE70222EDE7A4
:104960000322EBE70422E9E70522E7E70622E5E771
:104970000722E3E700231B7DFFDE00BF001001409C
:10498000000C0058A0EF0124204A0368934229D06C
:10499000A2F54C42934227D002F58062934225D083
:1049A00002F58062934223D002F58062934221D0C7
:1049B00002F5444293421FD0A2F51C4293421DD0FF
:1049C00002F5806293421BD0114A93421AD1082308
:1049D00010484FF4D87202FB0300037D03B97047FF
:1049E000FFF708BA0023F3E70123F1E70223EFE71B
:1049F0000323EDE70423EBE70523E9E70623E7E7D5
:104A00000723E5E700231B7DFFDE00BF0010014008
:104A1000000C0058A0EF01240121FFF7B1BB00BF3B
:104A20002DE9F0414F684FF4D876DFF8C0808E460C
:104A300007FB06F60C46082F08EB0605056005F196
:104A4000180CBEE80F00ACE80F009EE807008CE8E9
:104A5000070002D86B6A022B02D90120BDE8F08161
:104A60002A6A032AF9D8A96A0229F6D8E86A02282C
:104A7000F3D80131DFF878C0343689005CF827704C
:104A800046446F63A469A9641549AC6351F82330A7
:104A90006B64144B53F82230134A2B64002352F8F2
:104AA000201001223046EB65E963C5E91333C5E9FF
:104AB000153208F007FF0028CFD10146304608F034
:104AC00059FF0028C9D10146304608F0A1FF00284F
:104AD000C3D1304608F030FF0028BED12875BDE7AD
:104AE000843A0108903A0108A03A0108A0EF012495
:104AF000603A0108F8B504681646069A4FF48077C4
:104B0000236000236260012223610D4622753C4A26
:104B1000C4F8CC30C4F8C0204FF48062C4F8E4304C
:104B2000C4F8C830C4F8D0204FF44032A160E66029
:104B3000C4E93533E369C4E93772072B0BD8DFE8E2
:104B400003F02E353C434A51580451225223C4F8F5
:104B5000C420C4F83C3104F1C007384601F042FCDF
:104B600008B10120F8BD626B04F13403C4F8AC70E5
:104B70003146C4F8F8301F461368284643F0100346
:104B8000136000F0B1F92946B2B2384607F0DAF9FD
:104B90000028E6D194F91C201A4B1A70F8BD29227E
:104BA0002A23C4F8C420C4F83C31D4E72B222C2398
:104BB000C4F8C420C4F83C31CDE72D222E23C4F81C
:104BC000C420C4F83C31C6E73F224023C4F8C420C7
:104BD000C4F83C31BFE741224223C4F8C420C4F8E2
:104BE0003C31B8E747224823C4F8C420C4F83C311C
:104BF000B1E74F225023C4F8C420C4F83C31AAE7DF
:104C000088000240D4FE01240368187D704700BF6D
:104C1000006892B208B534300A2307F0B1F80038C2
:104C200018BF012008BD00BF534B0122002047F6EA
:104C3000122130B4C3E97420C3E97721C3E9E0202D
:104C4000C3E9E3211A62DA6258621963C3F83025B6
:104C5000C3F83405C3F83C25C3F84015C3F8E02673
:104C6000C3F8E406C3F8EC26C3F8F016C3F890289E
:104C7000C3F89408C3F89C28C3F8A018C3F8402AC6
:104C8000C3F8440AC3F84C2AC3F8501AC3F8F02BEF
:104C9000C3F8F40BC3F8FC2BC3F8001CC3F8A40D35
:104CA0003648C3F8A02DC3F8AC2DC3F8B01D028858
:104CB000837833490068334CCA804FEA104C0B723A
:104CC0003149E2802372A1F80320A4F80320637124
:104CD0004B712E4CCA800B722D492E4DE2802372EF
:104CE000A1F80320A4F8032063714B712A4CCA80F9
:104CF0000B722A49EA8008802B7281F802C0E28098
:104D00002372A1F803204B71CA800B722449A1F8C9
:104D100003204B71CA800B722249A1F803204B710A
:104D2000CA800B722049088081F802C0A1F80320D4
:104D30004B71CA800B721D49088081F802C0A1F82E
:104D400003204B71CA800B721949088081F802C098
:104D50001848A1F803204B71CA800B721649A0F8BD
:104D600003204371C2800372A1F803204B71CA80F3
:104D70000B7230BC704700BFA0EF0124600100241B
:104D8000E80100240C020024000200242402002474
:104D900018020024F4010024D001002400FF0124A3
:104DA00030020024DC010024DCFE0124F4FE012496
:104DB000E8FE012454010024480100243E4B002257
:104DC0000B20114610B5D3F8D84082B044F001044E
:104DD000C3F8D840D3F8D84004F001040094009CF4
:104DE000D3F8D84044F00204C3F8D840D3F8D83000
:104DF00003F002030193019B01F042F90B2001F043
:104E00007DF900220C20114601F03AF90C2001F046
:104E100075F900220D20114601F032F90D2001F044
:104E20006DF900220E20114601F02AF90E2001F042
:104E300065F900220F20114601F022F90F2001F040
:104E40005DF900221020114601F01AF9102001F03E
:104E500055F900223C20114601F012F93C2001F0E6
:104E60004DF900221120114601F00AF9112001F03C
:104E700045F900223820114601F002F9382001F0EE
:104E80003DF900223920114601F0FAF8392001F0ED
:104E900035F900223A20114601F0F2F83A2001F0EB
:104EA0002DF900223B20114601F0EAF83B2002B028
:104EB000BDE8104001F022B90044025820F01F0064
:104EC0002031BFF34F8F002907DD064A0144C2F8A5
:104ED000680220300B1A002BF9DCBFF34F8FBFF3B1
:104EE0006F8F704700ED00E020F01F002031BFF30E
:104EF0004F8F002907DD064A0144C2F85C022030CA
:104F00000B1A002BF9DCBFF34F8FBFF36F8F704785
:104F100000ED00E0704700BF08B501F075F8BDE88E
:104F2000084001F075B900BF064808B503680BB129
:104F300002F034FB044803681BB1BDE8084003F0ED
:104F4000DBBA08BD2829022420230224064808B51C
:104F500003680BB102F022FB044803681BB1BDE8F3
:104F6000084003F0C9BA08BD2829022420230224DE
:104F7000064808B503680BB102F010FB044803684B
:104F80001BB1BDE8084003F0B7BA08BD28290224C8
:104F900020230224364BDA6A520062D59A6A9A6A52
:104FA0009A6A9B6A180600D500BE314B9B6A990627
:104FB00000D500BE2E4B9B6ADA0600D500BE2C4BF6
:104FC0009B6A1B0700D500BE294B9B6A980700D53A
:104FD00000BE274B9B6AD90700D500BE244B9B6AB5
:104FE0001A0400D500BE224B9B6A9B0400D500BE6C
:104FF0001F4B9B6AD80400D500BE1D4B9B6A190548
:1050000000D500BE1A4B9B6A5A0500D500BE184B4E
:105010009B6A9B0500D500BE154B9B6AD80500D541
:1050200000BE134B9B6A990100D500BE104B9B6AD2
:10503000DA0100D500BE0E4B9B6A1B0300D500BEF3
:105040000B4B9B6A580300D500BE094B9B6A990322
:1050500000D500BE064B9B6ADA0306D400BE00BE34
:10506000FEE7DB6A9B07FAD5F8E700BEF6E700BF6C
:1050700000ED00E000F0D4BF00F0D8BF0A4B9B6801
:1050800003F17843B3F5003F0BD3084B986848B160
:105090009868012806D09868022803D09B680320EE
:1050A00070470120704700BF00ED00E0000080382D
:1050B0002DE9F041CEB004464C2200210AA80DF0A3
:1050C0002FFA2022002102A80DF02AFABC2200218A
:1050D0001EA80DF025FA022003F00AFF2368012B19
:1050E0004FF0000354D0534A02250193C820D16ADF
:1050F000514B21F00101D162D26A02F0010201920A
:105100009A6942F440429A619B6903F440430193D7
:10511000019B494A93699B04FCD54849022400221B
:1051200001268B6A04274FF0080823F0030323436A
:105130008B62052316900AA818934FF480331096BB
:10514000179419941597CDF86880CDE91B22212278
:10515000CDE91344CDE90A2304F0B4FB00B1FEE726
:105160003F220323294602A8CDE902230022082377
:10517000CDE9042340224023CDE9062340234FF408
:105180008062CDE9082304F0CBFE0346B8B1FEE708
:10519000294A04250093F0209169264B41F44041AF
:1051A0009161926902F440420092DA6A42F001028F
:1051B000DA62DB6A03F001030093009BA9E7202277
:1051C0004FF4805125934FF440152B9280222D935C
:1051D0001EA83093269135914FF480712492349219
:1051E0000C223394439140F2271120921022CDF8E3
:1051F00084802A971F96CDE92E34CDE93B334FF4B6
:105200008033CDE922463193002446930623CDE92D
:105210003E4527934FF48063094C2C931E94CDE9AF
:10522000281205F0D9F800B1FEE703F087FE4EB072
:10523000BDE8F081000400580048025800440258BC
:105240000F130F0370B584B0012400F08FFF4FF4EB
:1052500080764FF04052194B68460025ADF800406B
:105260000396CDE9012300F09FFF19224FF0404340
:1052700068468DF8082001938DF80F40ADF80D6059
:105280008DF801408DF80A5000F08EFF02230B22AA
:1052900068468DF80F508DF801304FF062538DF84D
:1052A00008200193ADF80D408DF80A4000F07CFF16
:1052B000042000F069FF04B070BD00BF0E000103C0
:1052C00030B50D46044685B0D1E9000184E80300FD
:1052D00000F06AFEAB79A3B3FFF770FDFDF7EAFDBE
:1052E0000AF0D8FEFFF75EF92B798BBB6B799BB187
:1052F000BFF34F8FBFF36F8F2A4B0022C3F85022AA
:10530000BFF34F8FBFF36F8F5A6942F400325A6177
:10531000BFF34F8FBFF36F8F4FF0FF320023002496
:1053200000256946204802928DF80C30CDE90045F1
:105330000BF0D0FA1C480BF035FB0AF0DBFA05B095
:1053400030BD2046FFF7B4FE2046FFF77BFFC3E7E2
:10535000144C0023C4F88430BFF34F8FD4F880106E
:1053600043F6E07EC1F34E3CC1F3C9014FEA4C1C49
:105370000CEA0E000B4640EA8372013BC4F860223F
:105380005A1CF8D1ACF1200C1CF1200FF0D1BFF366
:105390004F8F636943F480336361BFF34F8FBFF373
:1053A0006F8FA3E700ED00E00CFF012404F0E8BEDE
:1053B0001C4B9B6803F17842B2F5003F25D3B3F54F
:1053C000803F20D303F16042B2F5003F1FD303F1C9
:1053D0005C42B2F5002F1CD303F17042B2F5902F5E
:1053E00019D303F14842B2F5803F16D303F180424E
:1053F000B2F1806F13D303F1E043B3F5000F2CBF7C
:1054000008200720704701207047002070470220C5
:10541000704703207047042070470520704706201E
:10542000704700BF00ED00E003480023034A044931
:1054300003600CF019BB00BF0CFF01240000002426
:10544000154F000810B4204C0022204B83B0D4F834
:1054500088101F4841F47001C4F8881019681D4C69
:1054600041F0010119601A61196808401A49186071
:105470009A61DA611A629A62DA621A635A639A630B
:10548000DA631A645A64186820F4802018601A6677
:10549000D3F8DC2042F06042C3F8DC20D3F8DC30E3
:1054A0000193019B23681940B1F1005F03D20B4BBC
:1054B0000122C3F80821044B4FF000629A6003B048
:1054C0005DF8044B704700BF00ED00E00044025857
:1054D0007FEDF6EA0010005C0000FFFF0080005145
:1054E000704700BF0020704770B50446074E0D4658
:1054F0003046214609F014FD304609F033FD044BD7
:10550000204629461B689847002070BDD0E1012441
:10551000101F022470B50446074E0D463046214642
:1055200009F0FEFC304609F01DFD044B20462946DB
:105530001B689847002070BD6CE40124141F0224EE
:1055400000220949094808B509F0E0FC0849074864
:1055500009F0E6FC074B1A680AB1002008BD064AAC
:1055600000201A6008BD00BF100F0224D0E1012402
:1055700010FF0124101F0224E154000800220949F1
:10558000094808B509F0C2FC0849074809F0C8FCF9
:10559000074B1A680AB1002008BD064A00201A60AD
:1055A00008BD00BF101702246CE401241007022478
:1055B000141F0224E154000820280AD0212806D113
:1055C000094B18689A889B7908608A808B71002043
:1055D0007047054B0868B1F804C08A79186000204C
:1055E000A3F804C09A7170476402002420280AD0EE
:1055F000212806D1094B18689A889B7908608A800F
:105600008B7100207047054B0868B1F804C08A7997
:1056100018600020A3F804C09A7170476C0200243F
:105620000020704710B5094CD4F89032D3F81432EA
:105630000BB1012010BD0A460146204609F066FC68
:105640002046BDE8104009F073BC00BFD0E1012442
:105650004B4A036830B593428BB04FF00004CDE95C
:105660000444CDE90644089404D0464A934249D004
:105670000BB030BD444D4FF4C0524448D5F8E03033
:1056800043F00103C5F8E030D5F8E03003F0010342
:1056900000930223009904A9CDE904230A23089367
:1056A00001F06AFD4FF40072002304A93748069404
:1056B000CDE9042301F060FDD5F8D830224621461B
:1056C00043F000636220C5F8D830D5F8D83003F035
:1056D00000630193019B00F0D3FC622000F00EFDFB
:1056E00022462146632000F0CBFC632000F006FD3B
:1056F00022462146652000F0C3FC652000F0FEFC38
:105700000BB030BD204D4FF4404204A9D5F8E03035
:1057100043F00203C5F8E030D5F8E03003F00203AF
:105720000293022302981A48CDE904230C2308931C
:1057300001F022FDD5F8D830224621464A2043F018
:105740000073C5F8D830D5F8D83003F00073039350
:10575000039B00F095FC4A2000F0D0FC2246214635
:105760004B2000F08DFC4B2000F0C8FC2246214667
:105770004D2000F085FC4D2000F0C0FC0BB030BD8A
:105780000000084000000440004402580000025895
:105790000004025800F57171D0F8040409F04EBC01
:1057A000C1EBC10300EB8303D0F80404D3F8082253
:1057B00009F072BCC1EBC10300EB8303D0F8040411
:1057C0009A6C09F0A7BC00BFD0F8040409F046BDEC
:1057D000C16810B5044619B1022900D0FEE70121C5
:1057E000D4F8040409F024FDD4F80404BDE8104002
:1057F00009F0F6BC10B50446D0F8040409F01CFD0D
:105800002268D2F8003E43F00103C2F8003E236A4A
:1058100023B1034A136943F00603136110BD00BFAF
:1058200000ED00E0D0F8040409F010BDD0F8040445
:1058300009F024BDD0F8040409F01EBDD0F804041A
:1058400009F01EBDD0F8040409F01CBD70B506783F
:1058500004461EB1012E30D0002070BD304D09230A
:10586000304AC5F80404C0F8985228462E612E63C9
:10587000C5E9002302230222EB600023C5E90623C9
:1058800000220023C5E9082301220123C5E90A23D8
:1058900002F07AFD00B1FEE78021284603F008FB04
:1058A00031464022284603F0D9FA802201212846B9
:1058B00003F0D4FA2678012ECED11B4D09221B4BC2
:1058C00000216A6002222B600223C5F804442846A6
:1058D000EB600023C4F898522961C5E90623002231
:1058E0000023C5E90823C5E90C2301220023C5E9EB
:1058F0000A2302F049FD044600B1FEE74FF40071AF
:10590000284603F0D5FA21468022284603F0A6FA5D
:105910004FF4BA723146284603F0A0FA9CE700BF64
:10592000181F022400000840202302240000044025
:10593000D0F8980208B502F0BDFD032802D8024B4A
:10594000185C08BD022008BDBC3A01089446D0F896
:1059500098021A4608B5634603F032F9032802D8C4
:10596000024B185C08BD022008BD00BFBC3A01080C
:10597000D0F8980208B503F061F9032802D8024B69
:10598000185C08BD022008BDBC3A0108D0F8980296
:1059900008B503F0E3F9032802D8024B185C08BDF0
:1059A000022008BDBC3A0108D0F8980208B503F0FF
:1059B00019FA032802D8024B185C08BD022008BD62
:1059C000BC3A01080A06D0F8983206D4C1EBC101EE
:1059D00003EB810191F8FE01704701F07F01C1EBFB
:1059E000C10103EB810191F83E007047D0F89802A5
:1059F00008B503F0CFF8032802D8024B185C08BDA5
:105A0000022008BDBC3A0108D0F8980208B503F09E
:105A10007DF9032802D8024B185C08BD022008BD9E
:105A2000BC3A0108D0F8980208B503F03DF9032804
:105A300002D8024B185C08BD022008BDBC3A010820
:105A4000D0F8980203F058B9122301480B80704730
:105A5000C0020024122301480B807047AC020024CE
:105A6000042301480B807047D402002410B5044C75
:105A70000A460448214609F085FE204610BD00BFB5
:105A800028270224A439010810B5044C0A4604480A
:105A9000214609F077FE204610BD00BF28270224CA
:105AA000B439010810B5044C0A460448214609F0EF
:105AB00069FE204610BD00BF28270224C83901080E
:105AC00010B5044C0A460448214609F05BFE204606
:105AD00010BD00BF28270224D439010810B5044C9A
