:020000040800F2
:1000000000000220010A0008FD09000895520008BE
:10001000FD090008FD090008FD09000800000000B6
:10002000000000000000000000000000FD090008C2
:10003000FD09000800000000FD0900081952000831
:10004000FD090008FD090008FD090008FD09000878
:10005000FD090008FD090008FD090008FD09000868
:10006000FD090008FD090008FD090008193D000808
:10007000253D0008FD090008313D00083D3D000810
:10008000994B000849320008FD090008FD090008E5
:10009000FD090008FD090008FD090008FD09000828
:1000A000FD090008FD090008FD090008FD09000818
:1000B000850A0108910A01089D0A01087D3200089D
:1000C000FD09000889320008FD090008F502010851
:1000D00001030108CD490008F94900082D4A00082C
:1000E000FD090008FD09000800000000FD090008E6
:1000F000FD090008FD090008FD090008FD090008C8
:10010000FD090008FD090008A90A01080D030108FE
:10011000614A0008954A0008FD090008FD09000829
:10012000FD090008FD090008310301086503010805
:10013000CD4B0008FD090008FD090008FD09000875
:1001400000000000000000000000000000000000AF
:10015000FD090008FD090008FD090008C94A00085A
:1001600095320008FD090008295200084D52000888
:10017000FD09000871520008FD090008FD0900088A
:10018000FD090008FD090008FD4A0008314B000880
:100190001903010825030108FD090008FD090008ED
:1001A000FD090008FD090008FD090008FD09000817
:1001B000393A0008FD090008FD090008FD0900089A
:1001C000FD090008FD090008CD2B0008D92B000807
:1001D000FD090008E52B0008FD090008FD090008DD
:1001E000FD090008FD090008FD090008FD090008D7
:1001F000FD090008FD090008FD090008FD090008C7
:10020000FD090008FD090008FD090008FD090008B6
:10021000FD090008FD090008FD090008FD090008A6
:10022000FD090008FD090008FD09000800000000A4
:10023000FD090008FD09000800000000FD09000894
:10024000FD090008FD090008FD090008FD09000876
:10025000FD090008FD090008FD090008FD09000866
:10026000FD090008FD090008FD090008FD09000856
:10027000FD090008FD090008654B000800000000AA
:10028000FD090008FD090008FD0900080000000044
:0802900000000000FD09000858
:1002A00010B5054C237833B9044B13B10448AFF3B0
:1002B00000800123237010BD080600240000000008
:1002C000403B010808B5034B1BB103490348AFF39A
:1002D000008008BD000000000C060024403B01081F
:1002E00001F0FF01102A2BDB10F0070F08D010F8E7
:1002F000013B013A8B422DD010F0070F42B3F6D1EB
:10030000F0B441EA012141EA014122F007047FF003
:1003100000070023F0E80256083C85EA010586EA5A
:10032000010685FA47F5A3FA87F586FA47F6A5FA96
:1003300087F68EB9EED1F0BC01F0FF0102F00702A2
:1003400032B110F8013B013A83EA010313B1F8D14D
:100350000020704701387047002D06BF354603382E
:10036000073815F0010F07D1013015F4807F02BF67
:10037000013015F4C03F0130F0BC0138704700BFB8
:1003800081F0004102E000BF83F0004330B54FEA46
:1003900041044FEA430594EA050F08BF90EA020FB3
:1003A0001FBF54EA000C55EA020C7FEA645C7FEA46
:1003B000655C00F0E2804FEA5454D4EB5555B8BF69
:1003C0006D420CDD2C4480EA020281EA030382EADA
:1003D000000083EA010180EA020281EA0303362D6C
:1003E00088BF30BD11F0004F4FEA01314FF4801C3F
:1003F0004CEA113102D0404261EB410113F0004F51
:100400004FEA03334CEA133302D0524263EB430307
:1004100094EA050F00F0A780A4F10104D5F1200EA5
:100420000DDB02FA0EFC22FA05F2801841F1000100
:1004300003FA0EF2801843FA05F359410EE0A5F1D4
:1004400020050EF1200E012A03FA0EFC28BF4CF005
:10045000020C43FA05F3C01851EBE37101F00045BB
:1004600007D54FF0000EDCF1000C7EEB00006EEBC8
:100470000101B1F5801F1BD3B1F5001F0CD3490852
:100480005FEA30004FEA3C0C04F101044FEA4452A9
:1004900012F5800F80F09A80BCF1004F08BF5FEA30
:1004A000500C50F1000041EB045141EA050130BD10
:1004B0005FEA4C0C404141EB0101013C28BFB1F522
:1004C000801FE9D291F0000F04BF01460020B1FA6D
:1004D00081F308BF2033A3F10B03B3F120020CDA40
:1004E0000C3208DD02F1140CC2F10C0201FA0CF01E
:1004F00021FA02F10CE002F11402D8BFC2F1200C83
:1005000001FA02F120FA0CFCDCBF41EA0C01904038
:10051000E41AA2BF01EB0451294330BD6FEA040481
:100520001F3C1CDA0C340EDC04F11404C4F120026C
:1005300020FA04F001FA02F340EA030021FA04F37E
:1005400045EA030130BDC4F10C04C4F1200220FAD5
:1005500002F001FA04F340EA0300294630BD21FA13
:1005600004F0294630BD94F0000F83F4801306BFD9
:1005700081F480110134013D4EE77FEA645C18BFCD
:100580007FEA655C29D094EA050F08BF90EA020F64
:1005900005D054EA000C04BF1946104630BD91EA5C
:1005A000030F1EBF0021002030BD5FEA545C05D15F
:1005B0004000494128BF41F0004130BD14F580049E
:1005C0003CBF01F5801130BD01F0004545F0FE4112
:1005D00041F470014FF0000030BD7FEA645C1ABF47
:1005E000194610467FEA655C1CBF0B46024650EA7E
:1005F000013406BF52EA033591EA030F41F40021AA
:1006000030BD00BF90F0000F04BF0021704730B52F
:100610004FF4806404F132044FF000054FF0000104
:1006200050E700BF90F0000F04BF0021704730B5C5
:100630004FF4806404F1320410F0004548BF40429A
:100640004FF000013EE700BF42004FEAE2014FEAEF
:1006500031014FEA02701FBF12F07F4393F07F4FCA
:1006600081F06051704732F07F4208BF704793F0CD
:100670007F4F04BF41F40021704730B54FF46074E0
:1006800001F0004521F000411CE700BF50EA0102E3
:1006900008BF704730B54FF000050AE050EA01028C
:1006A00008BF704730B511F0004502D5404261EBFC
:1006B00041014FF4806404F132045FEA915C3FF43D
:1006C000D8AE4FF003025FEADC0C18BF03325FEADA
:1006D000DC0C18BF033202EBDC02C2F1200300FA8B
:1006E00003FC20FA02F001FA03FE40EA0E0021FAB0
:1006F00002F11444BDE600BF53B94AB9002908BF4E
:1007000000281CBF4FF0FF314FF0FF3000F074B9EC
:10071000ADF1080C6DE904CE00F006F8DDF804E058
:10072000DDE9022304B070472DE9F047089D044637
:100730008E46002B4DD18A42944669D9B2FA82F294
:1007400052B101FA02F3C2F1200120FA01F10CFAD0
:1007500002FC41EA030E94404FEA1C48210CBEFB08
:10076000F8F61FFA8CF708FB16E341EA034306FB91
:1007700007F199420AD91CEB030306F1FF3080F020
:100780001F81994240F21C81023E63445B1AA4B26D
:10079000B3FBF8F008FB103344EA034400FB07F70F
:1007A000A7420AD91CEB040400F1FF3380F00A8150
:1007B000A74240F207816444023840EA0640E41B45
:1007C00000261DB1D4400023C5E900433146BDE8F1
:1007D000F0878B4209D9002D00F0EF800026C5E993
:1007E000000130463146BDE8F087B3FA83F6002EAB
:1007F0004AD18B4202D3824200F2F980841A61EB23
:10080000030301209E46002DE0D0C5E9004EDDE740
:1008100002B9FFDEB2FA82F2002A40F09280A1EB28
:100820000C014FEA1C471FFA8CFE0126200CB1FB7D
:10083000F7F307FB131140EA01410EFB03F0884276
:1008400008D91CEB010103F1FF3802D2884200F203
:10085000CB804346091AA4B2B1FBF7F007FB101195
:1008600044EA01440EFB00FEA64508D91CEB040433
:1008700000F1FF3102D2A64500F2BB800846A4EB8E
:100880000E0440EA03409CE7C6F12007B34022FA79
:1008900007FC4CEA030C20FA07F401FA06F31C43A8
:1008A000F9404FEA1C4900FA06F3B1FBF9F8200CB5
:1008B0001FFA8CFE09FB181140EA014108FB0EF0FB
:1008C000884202FA06F20BD91CEB010108F1FF3A4B
:1008D00080F08880884240F28580A8F10208614457
:1008E000091AA4B2B1FBF9F009FB101144EA014165
:1008F00000FB0EFE8E4508D91CEB010100F1FF3410
:100900006CD28E456AD90238614440EA0840A0FBA7
:100910000294A1EB0E01A142C846A64656D353D07D
:100920005DB1B3EB080261EB0E0101FA07F722FAA1
:1009300006F3F1401F43C5E9007100263146BDE8CA
:10094000F087C2F12003D8400CFA02FC21FA03F32D
:10095000914001434FEA1C471FFA8CFEB3FBF7F0AE
:1009600007FB10360B0C43EA064300FB0EF69E42D3
:1009700004FA02F408D91CEB030300F1FF382FD26C
:100980009E422DD9023863449B1B89B2B3FBF7F614
:1009900007FB163341EA034106FB0EF38B4208D9ED
:1009A0001CEB010106F1FF3816D28B4214D9023E2E
:1009B0006144C91A46EA004638E72E46284605E74C
:1009C0000646E3E61846F8E64B45A9D2B9EB02081D
:1009D00064EB0C0E0138A3E74646EAE7204694E7AD
:1009E0004046D1E7D0467BE7023B614432E73046E0
:1009F00009E76444023842E7704700BFFEE700BFE2
:100A00000B480C4A904203D0121A0B4911F08EFA8F
:100A10000A480B4A904203D0121A002111F094FAAE
:100A200004F090FE11F056FA00F0FEF8FEE700BF69
:100A30000000002408060024743B01080806002476
:100A4000CC370224704700BF704700BF704700BF1B
:100A5000704700BF002A3AD02DE9F043884689B09C
:100A6000914600261A4F1B4D00231B4968461B4C1C
:100A70003B6000F041FBEC4697ED007ABCE80F00CC
:100A80000FC49CE80F00A4F1100C84E80F00BCEC2C
:100A9000016AB7EEC77AB4EE005BB7EEC66A654589
:100AA000A6EE057BB7EEC77BF1D1D8E9003287ED22
:100AB000007A02EB860203EB8603013682ED007AB0
:100AC000B14583ED007ACFD109B0BDE8F08370471E
:100AD00064E0002488E0002488E0002468E000242A
:100AE0001BB913690BB1D26818477047B9B30144F9
:100AF000F0B51546A5B002F12407441E4E1E01E0D4
:100B0000A6422AD014F8011F6A46384601F00EFFAB
:100B10000028F5D0D5F8C4C090226946D5E9320343
:100B2000C31A00F1010E00EBC00048BF63440CF192
:100B3000FF3C9C45E4D0D5F8C030C5F8C8E003EBD5
:100B4000001011F0F3F9D5E931239342A3EB02032E
:100B500028BFC5F8C830A642D4D125B0F0BD704733
:100B600002780B4610B4092A42D8DFE802F00E13CF
:100B70001B252B2D37393F05204A03CA12881860E0
:100B800059601A815DF8044B70471D4A03CA18600A
:100B90005960F7E71B4A106891889279186099802C
:100BA0009A71EFE7184C07CC2478186059609A6066
:100BB0001C735DF8044B7047144A118892781980B1
:100BC0009A70DFE7124CEEE7124C07CC24881860CD
:100BD00059609A609C815DF8044B70470E4ACCE7DF
:100BE0000E4C07CC186059609A60CBE70C4CECE7D0
:100BF0000C4A03CA18605960C4E700BF04340108F6
:100C000098330108A0330108A8330108B83301085C
:100C1000BC330108CC330108DC330108E833010898
:100C2000F4330108103401082DE9F04F2DED028B4B
:100C3000ADF5803DBE4842F2501644F25015D5B095
:100C4000002400F05FFB0021B94854AF00F03CFCE9
:100C50004021B7486E4400F05FFB012001F01CFE0C
:100C6000B34800F055FBB348F0EE408A01F006FEB1
:100C70009FEDB10A6D44B0EE408A26E027EE877AF8
:100C8000B6EE005A0134F7EE006AA6EC017AFFEEE8
:100C9000005A9FEDAA6AF4EEC57A9FEDA90AF1EE1B
:100CA00010FA54BFF0EE657AF0EE667AB4F5006F94
:100CB000E5EC017A2DD007EE904AB8EEE78A28EEEF
:100CC000066A26EE000A10F0C7FFDFED9C7AF5EE0B
:100CD000006AB6EE086AA7EC010A68EE277AB1EE60
:100CE000007AF4EEE67AF1EE10FAC7D4F4EEC67AA2
:100CF000F1EE006AB9EE007AF1EE10FAB0EE006A99
:100D000004D5B0EE467AA7EEE67AB9E7A7EEA67A62
:100D1000B6E7B0EE680A042254A98A48002400F01D
:100D2000C7F921460134B7EE080A864800F06EFA8A
:100D3000082CF6D1844808AC01F0A0FD834801F0EE
:100D40009DFD04A801F0DEFD04AB814E00250FCB14
:100D500084E80F0086E80F0001230CACCDE93235A2
:100D6000359347F6122336930223349396E80F0007
:100D700084E80F00319010461A46A388ADF8C230BF
:100D8000E388C6E90502ADF8C03012B1294611F07A
:100D9000DBF8704C30A96F4803F0CEFF04F114006B
:100DA00001F07CFE6C4801F069FD6C4B142120467B
:100DB0003362F66104F002FA694B00942046694DF3
:100DC000D6E9051204F022F804F0D4FA04F0D2FABD
:100DD00065498146564800F097FA644801F04EFD97
:100DE0004521584800F01AFA012004F0C5FA04F031
:100DF000C1FA8046574804F093F8002800F0D080EC
:100E0000D6E932341A1B58D4002A5BD0A34200F032
:100E1000B38004EBC40AD6F8C070902230A84FEA21
:100E20000A1B013407EB0A1A514611F07FF8D6F875
:100E3000C43017F80B709C429AF808A0C6F8CC4052
:100E400002D3E41AC6F8CC4054AB902230A9A3F5E3
:100E5000907011F06BF8002F00F0B680012F0BD1CD
:100E60004349524630A811F06BF930A801F006FD55
:100E70005146344800F0D2F96968D5E90223D31A03
:100E800048BF5B1801399942BAD02B6802EBC20007
:100E900001320CA903EB00100F70AA60902281F8B8
:100EA00008A011F043F8D5E901239342A8D39B1A77
:100EB000AB60D6E932341A1BA6D5D6F8C4100A4462
:100EC000002AA3D1A8EB0903052B8DD9D5E902345B
:100ED000A34277D02B6804EBC401902230A803EB27
:100EE0000111013411F022F86B68EC609C4201D3CF
:100EF000E41AEC600CAC54AB9022C146A3F1900113
:100F0000204611F013F808A92046FFF729FE617A60
:100F1000227A08AB6068CDE901210090424615496C
:100F200030A811F00DF930A801F0A8FC5CE700BF73
:100F30002406002418340108000000000000003AD4
:100F4000DB0FC94088E00024343401084C34010828
:100F5000044F0024144F002468340108ED0A0008EF
:100F6000E10A000864060024550A000890340108CC
:100F7000B8340108D8340108902200210CA810F0E0
:100F8000E3FF00229246114930A811F0D9F830A8A9
:100F900001F074FC51460E48002700F07BF96BE726
:100FA0000C4801F07BFD0C4B14210C483362F661B8
:100FB00004F004F909480A4BD6E90512009003F041
:100FC00025FF1DE7C1460FE75246DCE7C83401089C
:100FD00088E00024284F0024ED0A0008144F002464
:100FE000E10A000838B51E4800251E4C1E4A1F495C
:100FF000056045610562C56310F026FE204600F0DD
:1010000043F820461A4C184A1A4910F01DFE204693
:1010100001F078FC184940F20F73134AC4F8B81075
:1010200004F1D001A4F8BC3040F201132046256140
:10103000C4F8C850C4F8CC50C4E930130F4910F0BC
:1010400003FE0F488121084A00F11003C560C0E982
:10105000011503600B49BDE8384010F0F5BD00BF35
:101060002406002488E0002400000024450A00082B
:10107000044F0024490A00080080707F510A0008CC
:10108000640600244D0A000810B5044606482022D4
:101090000021204410F058FF04F580320021034B5A
:1010A00020465160236010BD2800010000442C47F9
:1010B00038B50446154604304FF480322DED028BCE
:1010C000B0EE408A10F032FF09482022002120446F
:1010D00010F03AFF074A04F580314FF0FF334D60BE
:1010E000A11884ED008AA3504B60BDEC028B38BD83
:1010F000280001006800010091ED005A01F58033DD
:1011000001F1040CB7EEC55A2DE9F0433C4C86467C
:101110003C4D0C445E680D44B4EC014A0023DFED05
:101120003A3AB7EEC44A94ED0F7A9FED336BFDEE79
:10113000C77A24EE064B17EE902AD4ED077A511C9D
:10114000C9B284EE056B04EE902AB142B8BF4B03DE
:10115000D1B2F8EEE44A6344B7EE004A0CEB4131F9
:1011600037EE647A74EE474AB7EEC66BFDEEE76A77
:1011700036EE276A16EE907A16EE902AF8EEE66AB8
:1011800092B2B4EEE36A1FFA87F803EB820977EEB6
:10119000E67A01EB820708F10102A8F2FF78D9EDA7
:1011A000006A92B2D7ED002A67EE266AB2F5006FA8
:1011B00034EE674A28BF1FFA88F2E4EEA26AF1EE25
:1011C00010FA03EB820301EB820293ED002AA8BF21
:1011D00036EE636A92ED003AA54227EE027A84ED7C
:1011E000076AA4EE837A67EE877AE4EE267AEEEC5D
:1011F000017A91D1BDE8F083000000000000A0401A
:1012000008000100280001000000004500F58030C2
:1012100000EB810080ED120A704700BF1A4B0022DC
:101220000344F0B59C46174600F5803E1CF8014B80
:101230000EEB07051646FF2C0AD09CF8076095F8C0
:101240007040A64288BFD7B20132082AEED13E468E
:101250000E4A0F4C02EB8102044415680EEB0602A5
:1012600082F868100EEB8602956013F8012BFF2AB6
:1012700002D0DA790132DA71A342F6D1B644012301
:101280008EF87030F0BD00BF680001001435010811
:1012900070000100184A0023024412F801CB8C456B
:1012A00003D00133082BF8D1704700F5803C00EBE8
:1012B000830210B50CEB0301FF2402F5803281F8A4
:1012C000684000210D4C9162916004440C49014436
:1012D0000CEB030211F8010B92F8702000F1FF3EB5
:1012E000824238BF01F801EC8C42F1D16344002204
:1012F00083F8702010BD00BF680001007800010075
:1013000070000100704700BF143001F009BA00BF3F
:10131000143001F001BA00BF38B500F114050446DD
:101320002DED028B284601F0E9F9284601F0F4F989
:101330002846B0EE408A01F0DDF9D0ED007AF8EEF3
:10134000677A88EE277ABDEC028B84ED0E7A38BD81
:1013500010B540F203338EB000244FF60B7240F20A
:101360000341ADF8083009A80123ADF81020ADF80D
:1013700024202246ADF80C100094029907940C9496
:10138000CDE90544CDE90A4401F032FC04A801236B
:1013900022460399009401F02BFC09A801F00EFDF0
:1013A00010B901200EB010BD04A801F007FDA04245
:1013B0000CBF022020460EB010BD00BF2DE9F04149
:1013C00003239AB0012700240646CDE914373B4B8E
:1013D000CDE9104340F20453CDE91647ADF848304B
:1013E000FFF7B6FFB842054625D0022845D040F6A3
:1013F0000132334B0DF12C081894ADF82C200B98CA
:101400001997CDF84A3000F0E3F810A906F13C0036
:1014100002F00EFD302003224FF07E5341460D9323
:101420000E93CDE90B02F26B06F1140001F02AF9DC
:101430001AB0BDE8F0811023214A06A906908DF864
:1014400028300DF12C081F4BCDF84A200793029449
:10145000CDE91804CDE9080402A801F021FF082312
:10146000029A03A94046ADF80C508DF80E40049541
:1014700005930B9400F0ECF8C7E700200121104B16
:101480000DF12C083A460094CDF84A304FF60B7314
:101490000C94ADF82C302346CDE9180140F601310B
:1014A0004046ADF818100699CDE90D4401F0A0FBB7
:1014B0002146404601F08EFCA7E700BF0402040469
:1014C000040604030704010B2DE9F04704462DED43
:1014D000028B82B000294DD0012140F2011200237D
:1014E0000091ADF804208DF80630364A0127364BBE
:1014F00004F10409354904F12908626040F20272DE
:10150000A36040F60663E16004F1250AA4F82520F3
:10151000A4F82930278284F8277084F82B7004F00F
:10152000C7F8054603F02AFF6946064650BB4DB38F
:1015300004F130008DF8067004F042F8072D3CD11C
:1015400004F114052046FFF739FF284601F0E4F8BE
:101550002846B0EE408A01F0CDF8D0ED007AF8EEE2
:10156000677A88EE277A84ED0E7A02B0BDEC028BA2
:10157000BDE8F08740F2011300918DF80610ADF838
:101580000430B2E704F1300004F01AF8072D11D04E
:101590004946204602F0CCF80EB9002DD0D1504675
:1015A00001F022FC404601F01FFC04F1120000F0A3
:1015B00079F9C5E7002EF2D1C2E74946204602F08C
:1015C000B7F8BDE70508050905070506050A06067B
:1015D00010B584B003460124ADF8040003A8ADF8AB
:1015E0000C30ADF80E4001F0FFFB214603A801F0DE
:1015F000D7FC204603F0C0FE002103A801F0D0FC78
:10160000204603F0B9FE214603A801F0C9FC04B04E
:1016100010BD00BF10B5C2F3002384B00C46017C9E
:101620008DF80D2043EA4402FA2402238DF80C20A1
:1016300003AA009401F0CAFE18B10124204604B0A8
:1016400010BD04460A2003F097FE204604B010BDEA
:10165000034670B543F8042B044684B007C983E8F9
:101660000700A37983B91A210B461E22FA25237499
:101670002046ADF80C20022303AA009501F0A6FE37
:1016800028B1012004B070BD1B210B46EDE70A20F4
:1016900003F072FE4FF4B85200950223ADF80C200F
:1016A000204603AA217C01F091FE0028E9D10A20FE
:1016B00003F062FE41F2027200950223ADF80C20A5
:1016C000204603AA217C01F081FE0028D9D10A20FE
:1016D00003F052FE042200950223ADF80C202046B0
:1016E00003AA217C01F072FE0028CAD10A2003F06F
:1016F00043FE062200950223ADF80C20204603AAE3
:10170000217C01F063FE0028BBD10A2003F034FEE7
:1017100041F2082200950223ADF80C20204603AACE
:10172000217C01F053FE0028ABD10A20064603F0CD
:1017300023FE0095022303AA217C2046ADF80C600D
:1017400001F044FE00289CD1304603F015FE0095C0
:1017500022790C232046002A8DF80C3003AA4FF082
:10176000020314BF622142218DF80D10217C01F08B
:101770002DFE002885D1304603F0FEFD2279D4E904
:1017800002310B43DBB20AB943F0400362790AB17C
:1017900043F020030E22FA258DF80D3020460095E7
:1017A00002238DF80C2003AA217C01F00FFE0028F3
:1017B0007FF467AF0A2003F0DFFD102200950223BB
:1017C000ADF80C20204603AA217C01F0FFFD002883
:1017D0007FF457AF0A2003F0CFFD122100950223BA
:1017E000ADF80C1003AA217C204601F0EFFD002883
:1017F0007FF447AF0A2003F0BFFD012209212046F4
:10180000FFF708FF003818BF01203BE7F0B51023B1
:1018100087B0234C012200250126002702A920467B
:101820000195CDE902234FF48052CDE904670AF017
:10183000EFFB642004F07AFD02A94FF480522046A9
:10184000CDE9046702261027CDE902670AF0E0FB24
:101850000322102302A92046CDE9022300230422FB
:10186000CDE904234FF480520AF0D2FB40F2322338
:10187000042202A9019310232046CDE90223019AF4
:10188000012305924FF4805204930AF0C1FB40F605
:10189000060120460AF0DCFB284607B0F0BD00BF79
:1018A00008E101241C4B00221C494FF0400C30B5CC
:1018B000054689B00220596007219A601A62012406
:1018C000DA620A224FF4006EDC6006922022CDE933
:1018D000000104200821CDE9020103201021CDE9F7
:1018E000040108206946C3E904024FF4C072181DC0
:1018F000C3E906C24FF48052C3E909E20AF05EFB75
:1019000038B92846FFF782FF003818BF012009B018
:1019100030BD204609B030BD04E1012440410052F1
:10192000614A0021D0B513688EB00A91002B40F0B7
:10193000B9805E4B01214FF683700C2411600221A7
:10194000D3F8D4200026032742F48052C3F8D420D1
:10195000D3F8D42002F480520092009AD3F8E02009
:1019600042F01002C3F8E020D3F8E02002F01002A9
:101970000192019AD3F8E02042F04002C3F8E0203F
:10198000D3F8E02002F040020292029AD3F8E0205D
:1019900042F00802C3F8E020D3F8E02002F0080289
:1019A0000392039AD3F8E02042F48072C3F8E02057
:1019B000D3F8E02002F480720492049AD3F8E02075
:1019C00042F08002C3F8E020D3F8E02002F0800269
:1019D0000592059AD3F8E02042F02002C3F8E020F7
:1019E000D3F8E02002F020020692069AD3F8E02015
:1019F00042F00402C3F8E020D3F8E0300C9403F086
:101A0000040307930323079A0B93CDE9080108A960
:101A1000274805F031FD48F23712022308A925486E
:101A20000C94CDE90823CDE90A6705F025FD4CF2B9
:101A30000372022308A920480C94CDE90823CDE9BC
:101A40000A6705F019FD40F2FF62022308A91B484E
:101A50000C94CDE90823CDE90A6705F00DFD4FF69A
:101A60000C72022308A916480C94CDE90823CDE98D
:101A70000A6705F001FD4FF63F02022308A911484D
:101A80000C94CDE90823CDE90A6705F0F5FC202286
:101A9000022308A90A480C94CDE90A67CDE9082376
:101AA00005F0EAFC0EB0D0BD00E10124004402586C
:101AB0000010025800180258000C0258002002586A
:101AC000001C0258001402582DE9F04FDFF8108472
:101AD00006460D46144608F118002DED028B89B01C
:101AE00000AF02F09DFAD8F8183073B3D8F81C3064
:101AF000D8F80490002B43690BBF4FF0080A4FF051
:101B0000100A4FF0020B4FF0040BB9F1000F2AD06E
:101B1000A200EA46012B02F1070222F00702ADEB18
:101B2000020D6846ADEB020D694600F03F81022BC5
:101B300000F0D680002B6FD02246C847D546243708
:101B4000BD46BDEC028BBDE8F08FD8F81C30002BF1
:101B5000F5D0D8F804904FF0080A4FF0020B436913
:101B6000B9F1000FD4D1FB61D8F80030BB61002B74
:101B7000E5D0D54802F0C6FA6B46BBF1020F78619A
:101B800008EE103AFB6900F083816A465146A2EBE9
:101B9000C40295466200EA46B2FBFBF2AAEBC4001F
:101BA00085460AEB8200EE46F861ADEB010DF8695F
:101BB0000EEB820CC7F810C0EC46ADEB010D00EB4C
:101BC0008201CCF80400CCF8081001EB82013869DE
:101BD000E946CCF80C1000EB8201CCF800A001EB38
:101BE0008202C9E900E0C9E90212012B00F0648316
:101BF000022B00F06C82002B00F0808162084946C5
:101C00006046BB69984718EE103A24379D46BD469A
:101C1000BDEC028BBDE8F08F002C8DD01A46D8EDBC
:101C20000C6A9FEDB27A8446331D36F922E00CF13E
:101C3000080C07EE90EA33F922E00232F8EEE77A78
:101C4000944267EE877A67EEA67A4CED027A07EE49
:101C500090EAF8EEE77A67EE877A67EEA67A4CEDBF
:101C6000017AE2D8F9612246C847984ED8ED0D6A4C
:101C70000020F9692B1D9FED9E7A9FED9E6ADFED96
:101C80009E5A22E0F4EEC67AF1EE10FAC0F2C88451
:101C900047F6FE72D1ED017A45F8202066EEA77A6C
:101CA000F4EEC77AF1EE10FA40F2F080F4EEC67A64
:101CB000F1EE10FAC0F2D58447F6FE7243F8202008
:101CC0000230083184427FF639AFD1ED007A66EEFA
:101CD000A77AF4EEC77AF1EE10FAD3D83246D9E7F4
:101CE000002C3FF429AFD8ED0C6A84469FED787A3A
:101CF0000022331D8E4656F822100CF1080C07EE18
:101D0000901A53F822100232F8EEE77A944267EE06
:101D1000877A67EEA67A4CED027A07EE901AF8EE13
:101D2000E77A67EE877A67EEA67A4CED017AE2D819
:101D300071462246C7F81CE0C847664ED8ED0D6ACA
:101D40000020F9692B1D9FED6A7A9FED6A6ADFF822
:101D500094C120E0F4EEC67AF1EE10FAC0F2798474
:101D60003246D1ED017A45F8202066EEA77AF4EEEE
:101D7000C77AF1EE10FA40F28780F4EEC67AF1EEFF
:101D800010FAC0F25E84324643F820200230083157
:101D900084427FF6D3AED1ED007A66EEA77AF4EEF8
:101DA000C77AF1EE10FAD5D86246DAE7002C3FF494
:101DB000C3AED8ED0C6A86469FED477A4FF0000C13
:101DC000331D56F82C200EF1080E82F40002A2F505
:101DD000000207EE902A53F82C200CF1020CF8EECA
:101DE000E77A82F400026445A2F5000267EE877A82
:101DF00067EEA67A4EED027A07EE902AF8EEE77AC1
:101E000067EE877A67EEA67A4EED017AD9D8F96146
:101E10002246C847314ED8ED0D6A0020F9692B1DC6
:101E20009FED337A9FED336ADFF8BCC01FE0F4EE1C
:101E3000C67AF1EE10FAC0F2FC833246D1ED017A97
:101E400045F8202066EEA77AF4EEC77AF1EE10FA94
:101E500018D9F4EEC67AF1EE10FAC0F2DA833246FF
:101E600043F820200230083184427FF667AED1ED7E
:101E7000007A66EEA77AF4EEC77AF1EE10FAD6D8B9
:101E80006246DBE76246EBE762467DE7324615E7EE
:101E9000A100D6466208073121F00701ADEB010D24
:101EA000EA46ADEB010D6946ADEB0E0D0AEB820083
:101EB000EC46ADEB0E0D01EB8202F861E946CCE990
:101EC00000A0C9E9001290E658E101240280FFFF5A
:101ED000000000300082FF7F0000003482FF7F009E
:101EE0003CE10124007E00807E0080FF000000387D
:101EF00004FF7FBF04FF7F3F00FEFF46002C00F081
:101F0000C982BBF1020FD8F8242000F0FA82796967
:101F1000C7F8049002EB810E5FED0C5A8A00DCF8E2
:101F200008100EF104007A611A46DCF80C303B61AF
:101F3000331DD7F810903D61FD69C7E902CB8C468F
:101F4000834636F92210D8ED0C7A06EE101A33F9D2
:101F5000221006EE901A3EF92210B8EEC66A07EE7D
:101F6000101AF8EEE66A3BF92210B8EEC77A26EEB0
:101F7000256A66EEA56A27EE257A26EE276A66EEC2
:101F8000A76A27EE277A07EE901A51080232F8EE78
:101F9000E77A0AEB8100944280ED006A05EB81004C
:101FA00067EEA57AC0ED006A0CEB810009EB8101B8
:101FB00080ED007A98ED0C7A67EE877AC1ED007AB1
:101FC000BFD8D7F804903D69D7E902CB60466208D4
:101FD000BB6949469847D8F82C307A69D8ED0D6A24
:101FE0001A441FED3D7A1FED3D6A2B1D904602F10C
:101FF000040A5FED3F5A0022A84ED9E900EC51E0F7
:10200000F4EEC67AF1EE10FAC0F2C78247F6FE701F
:1020100045F822000CEB0100D0ED007A66EEA77ABD
:10202000F4EEC77AF1EE10FA4BD9F4EEC67AF1EE7F
:1020300010FAC0F2BA8247F6FE70BBF1020F43F805
:1020400022002BD0D9F808000844D0ED007A66EEC3
:10205000A77AF4EEC77AF1EE10FA36D9F4EEC67A22
:10206000F1EE10FAC0F2CD8247F6FE7048F8220079
:10207000D9F80C000144D1ED007A66EEA77AF4EEAF
:10208000C77AF1EE10FA1ED9F4EEC67AF1EE10FA24
:10209000C0F2AF8247F6FE714AF822100232944233
:1020A0007FF6B1AD51080EEB81008900D0ED007ACA
:1020B00066EEA77AF4EEC77AF1EE10FAA0D83046B1
:1020C000A6E73046B9E73146E6E73046CEE7002CD2
:1020D00000F0E081BBF1020FD8F8243000F0E1817C
:1020E0007A69DCF8081003EB820EC7F804909300BD
:1020F000DFED6B5A0EF1040000227B61DCF80C303E
:102100003B61331DD7F810903D61FD69C7E902CBF3
:102110008C46834656F82210D8ED0C7A07EE101A3A
:1021200053F82210B8EEC76A07EE101A5EF82210B4
:10213000F8EEC76A07EE101A26EE256A5BF8221041
:10214000B8EEC77A66EEA56A26EE276A27EE257AEC
:1021500066EEA76A27EE277A07EE901A5108023238
:10216000F8EEE77A0AEB8100944280ED006A05EB15
:10217000810067EEA57AC0ED006A0CEB810009EBE7
:10218000810180ED007A98ED0C7A67EE877AC1EDD7
:10219000007ABFD8D7F804903D69D7E902CB6046F2
:1021A0006208BB6949469847D8F82C307A69D8ED5F
:1021B0000D6A1A449FED3E7A9FED3E6A131D9246CA
:1021C000DFF8E4C00022FB612B1D364ED9E9008EFA
:1021D0004EE0F4EEC67AF1EE10FAC0F2FC81304621
:1021E00045F822000EEB0100D0ED007A66EEA77AEA
:1021F000F4EEC77AF1EE10FA49D9F4EEC67AF1EEB0
:1022000010FAC0F2EF813046BBF1020F43F8220012
:102210002AD0D9F808000844D0ED007A66EEA77AF3
:10222000F4EEC77AF1EE10FA35D9F4EEC67AF1EE93
:1022300010FAC0F2C98130464AF82200D9F80C00E1
:102240000144D1ED007A66EEA77AF4EEC77AF1EE9A
:1022500010FA1ED9F4EEC67AF1EE10FAC0F2AD8192
:102260003146F86940F82210023294427FF6CBAC36
:10227000510808EB81008900D0ED007A66EEA77A5C
:10228000F4EEC77AF1EE10FAA3D86046A8E76046EC
:10229000BAE76146E5E76046CEE700BF0280FFFF90
:1022A000000000300082FF7F007E008000000034CC
:1022B00004FF7FBF04FF7F3F002C00F0EB807A69B2
:1022C0000021D8F82430C7F8109003EB820ED7F81D
:1022D0001C909300FD610EF104021FED0C6A7B61FE
:1022E000331D154656F821204808D8ED0C6ABBF17D
:1022F000020F82F40002A2F5000207EE902A53F8C2
:10230000212082F40002B8EEE77AA2F5000227EE5F
:10231000067A07EE902A0AEB8002F8EEE77A27EEBB
:10232000267A67EE867A82ED007A09EB80024FEA20
:10233000800067EEA67AC2ED007A27D05EF82120F1
:1023400082F40002A2F5000207EE902A55F821203F
:1023500082F40002B8EEE77AA2F5000227EE067AD0
:1023600007EE902ADCF80820F8EEE77A024427EE20
:10237000267A67EE867A82ED007A98ED0C7ADCF8A0
:102380000C2067EE877A0244C2ED007A02318C425B
:10239000A8D8D7F8109060466208BB694946FD6925
:1023A0009847D8F82C307A69D8ED0D6A1A441FED99
:1023B000407A1FED406A131D9246DFF8C4C2002226
:1023C000FB612B1DAB4ED9E9008E4EE0F4EEC67AD0
:1023D000F1EE10FAC0F2C580304645F822000EEB4F
:1023E0000100D0ED007A66EEA77AF4EEC77AF1EE3E
:1023F00010FA49D9F4EEC67AF1EE10FAC0F2BF80B5
:102400003046BBF1020F43F822002AD0D9F8080069
:102410000844D0ED007A66EEA77AF4EEC77AF1EEC2
:1024200010FA35D9F4EEC67AF1EE10FAC0F2AE80A9
:1024300030464AF82200D9F80C000144D1ED007A68
:1024400066EEA77AF4EEC77AF1EE10FA1ED9F4EE32
:10245000C67AF1EE10FAC0F28B803146F86940F886
:102460002210023294427FF6CEAB510808EB810075
:102470008900D0ED007A66EEA77AF4EEC77AF1EE25
:1024800010FAA3D86046A8E76046BAE76146E5E7D8
:102490006046CEE7224649466046BB699847FFF74B
:1024A000B2BBC7F810B0002298ED0C6A331DDFED07
:1024B000726AD7F81CB0786956F8221007EE901AA5
:1024C00053F82210B8EEE77A07EE901A510802325C
:1024D000F8EEE77A27EE267A0AEB810E94420BEBB0
:1024E000810167EEA67A27EE067A67EE867A8EED90
:1024F000007AC1ED007ADFD88300D7F810B07B6195
:102500004DE61A46C7F810B098ED0C6A331DDFEDA2
:102510005B6AD7F81CB0786936F9221007EE101AFA
:1025200033F9221007EE901AB8EEC77A510802323A
:10253000F8EEE77A27EE267A0AEB810E94420BEB4F
:10254000810167EEA67A27EE067A67EE867A8EED2F
:10255000007AC1ED007ADFD88300D7F810B07B6134
:1025600034E5F0EE675AFEEEE45A15EE900A34E7D1
:10257000F0EE675AFEEEE45A15EE901A6EE7F0EEB2
:10258000675AFEEEE45A15EE900A3AE7F0EE675A03
:10259000FEEEE45A15EE900A4BE767EEA57AFDEEE3
:1025A000E77A17EE900A00B232E567EEA57AFDEE03
:1025B000E77A17EE900A00B23FE5F0EE675AFEEEBA
:1025C000E05A15EE901A4CE6F0EE675AFEEEE05A2D
:1025D00015EE900A30E6F0EE675AFEEEE05A15EE80
:1025E000900AFDE5F0EE675AFEEEE05A15EE900A0D
:1025F0000AE667EEA57AFDEEE77A17EE901A09B2C1
:102600004AE567EEA57AFDEEE77A17EE900A00B28A
:102610002CE5F0EE675AFEEEE45A15EE902A1FE420
:1026200067EEA57AFDEEE77A17EE902A12B2FFF771
:1026300031BBF0EE675AFEEEE45A15EE902AFFF732
:10264000FDBBF0EE675AFEEEE05A15EE902AFFF75A
:102650009BBBF0EE675AFEEEE05A15EE902AFFF7AC
:1026600080BB67EEA57AFDEEE77A17EE902A12B2EC
:10267000FFF724BB82FF7F0000000030000000381D
:102680007E0080FF30B5184C154685B0046004F11B
:10269000080EEC460FC98EE80F00D4ED047AF5EE73
:1026A000C07A8CE80F00F1EE10FA1ADDB7EE006A7E
:1026B00094ED057A27EE277AC6EE276A84ED0D7A27
:1026C000C4ED0C6A6DB1204640F8185F01F0A8FC1B
:1026D000064903690020064A2162A262E36005B050
:1026E00030BD012005B030BD3CE1012400200030A8
:1026F0000000003000680830704700BFB1F5807FEF
:1027000003680A4628BF4FF48072B1F5807F9A6053
:1027100094BF0020012070470068183001F0E0BC31
:1027200030B5046883B00D46E3694BB1A36800205F
:10273000E26A616A9B00009004F11C0001F072FCE7
:10274000A3680748A26A9B00216A009004F1180060
:1027500001F068FC0020C4E9005003B030BD00BFA8
:10276000C91A000810B4074B4FF07E5130240022E4
:10277000032019619C60D8605DF8044B5961C3E97E
:10278000062270473CE10124704700BFF8B5134FA3
:102790003C687F2C07D98023114A42F224411C4611
:1027A0003B60A2F87E100F4D2B68012B0AD90C4E0E
:1027B0000D4D22463146284600F0FEF90028F8D19A
:1027C0003860F8BD22460649074800F0F5F90028B0
:1027D000F7D12B68386001332B60F8BD78E1012414
:1027E0007CE1012474E10124FCE1012430B4154CA6
:1027F0002168F1B14B1E144DE81810F801298C46E0
:1028000019460A2A01D00D2A02D14BB1013BF4E747
:102810000CF102037F2B10D98023236030BC70475A
:102820000122022323600D200A236854AB5430BCDC
:10283000704701220223044DF4E70CF101026146C6
:10284000F0E700BF78E101247CE1012410B5094CD8
:1028500002460B46084821680844C1F180010FF088
:10286000BBFC236818442060FFF7C0FFFFF78EFF12
:1028700010BD00BF78E101247CE101240FB400B554
:1028800083B004A951F8040B0191FFF7DFFF03B0F7
:102890005DF804EB04B0704710B5044600210A4807
:1028A00000F004F9002C094B14BF02220022084852
:1028B0001A60FFF7E3FF0748FFF7E0FF0A20BDE8D3
:1028C000104002F059BD00BFFCE1012474E1012475
:1028D0001437010824370108064A0749074808B594
:1028E0000FF0B2F9034A04490548BDE808400FF06B
:1028F000ABB900BF0000002489270008FCE10124D7
:1029000000E20124074A118830B481800024064D7A
:1029100091884FF4807285600460C180C26030BCD1
:10292000704700BF543301080040003038B50446FA
:10293000104694F895301942237815D0032B19D0FE
:1029400094F89820002594F896300A4025700B40A2
:10295000A26001F0F8021B09F82A237100F08680BA
:10296000092B73D9002038BD032BFBD8DFE803F017
:10297000112A5102F7291CD094F98E2094F88E3038
:10298000002AEFDBE21801330020917384F88E30C7
:1029900038BD94F8942094F8973022711940131F91
:1029A000012B217305D994F88F3003F0FD03012B1F
:1029B00045D10023237018B19022211D0FF0B6FAE3
:1029C000012038BD94F8973094F894201940131FD3
:1029D0002173012B05D994F88F3003F0FD03012BEF
:1029E00029D10023237000284CD09022211D0FF004
:1029F0009DFA94F894200120032AB4D1237B772BED
:102A0000B1D90922783B227184F8942084F891305E
:102A100038BD94F8973094F894201940012A6173D6
:102A200000D181B118B19022211D0FF07FFA00234F
:102A30000120237038BD022300202370DCE702232D
:102A40000020237038BD00232371EBE70122072B00
:102A5000227019D101F00703A56084F88F30CBB93B
:102A60000322184684F88E30227038BD0823237163
:102A700094F8993000221940227084F890100028B0
:102A80009AD19DE70120B7E7082BF1D0284684F8BA
:102A9000943038BD4B077FF565AF8AE700220A23E3
:102AA00002700371704700BF704700BF012910B565
:102AB00006D0022915D051B1BDE8104006F0BEBBCA
:102AC0000A46344834490CF059FBE8B1FEE7334B71
:102AD0000A46334C334934481C600CF04FFB68B154
:102AE000FEE701222C492B480CF048FB00B1FEE721
:102AF0002E4928480CF064FBC0B1FEE72B492A4858
:102B00000CF05EFB60B1FEE7284922480CF058FB50
:102B100000B1FEE726491F480CF0E0FA08B3FEE7D3
:102B2000244921480CF0DAFAA8B1FEE720491948F7
:102B30000CF0D4FA00B1FEE716480CF057FB024641
:102B400040B9164B164C174917481C600CF016FB81
:102B500068B1FEE7FEE714480CF048FB0028ABD054
:102B6000FEE70C480CF042FB0028A5D0FEE70F4919
:102B70000D480CF025FB00B1FEE70E490A480CF0A9
:102B8000ADFA00B1FEE708480CF030FB002893D006
:102B9000FEE700BFA0E40124900200243CE70124EA
:102BA000A92A00087402002404E20124F802002487
:102BB0005402002444020024084691B208B502F0F1
:102BC000B1FE003818BF012008BD00BF014805F064
:102BD00013BE00BF501F0224014805F00DBE00BF08
:102BE000501F0224014805F007BE00BF501F0224F9
:102BF00010B592B0ADF804100180C9B2149C0B2935
:102C0000C460C0E901233FD090F801C0BCF10F0FB0
:102C10003AD8022A3FD0032A02D0012A00D000224B
:102C20000E92012B02D0022B18BF0023022C0F930F
:102C30002CD0032C2AD0012C28D000230A29109351
:102C400027D85C4A02EB812202610A2914D8DFE806
:102C500001F0A39587796B5D4F4133250600564BF4
:102C6000D3F8E01041F48061C3F8E010D3F8E0300D
:102C700003F480630C930C9B01230DA9104603FA07
:102C80000CF30D9304F0F8FB12B010BD0A29109458
:102C9000D7D90022D8E711220E92C2E7464BD3F8CB
:102CA000E01041F40071C3F8E010D3F8E03003F411
:102CB00000730B930B9BDFE73F4BD3F8E01041F41D
:102CC0008071C3F8E010D3F8E03003F480730A9306
:102CD0000A9BD1E7384BD3F8E01041F08001C3F8EC
:102CE000E010D3F8E03003F080030993099BC3E7B9
:102CF000314BD3F8E01041F04001C3F8E010D3F8B5
:102D0000E03003F040030893089BB5E72A4BD3F863
:102D1000E01041F02001C3F8E010D3F8E03003F0F8
:102D200020030793079BA7E7234BD3F8E01041F05C
:102D30001001C3F8E010D3F8E03003F0100306935D
:102D4000069B99E71C4BD3F8E01041F00801C3F84B
:102D5000E010D3F8E03003F008030593059B8BE700
:102D6000154BD3F8E01041F00401C3F8E010D3F89C
:102D7000E03003F004030493049B7DE70E4BD3F88B
:102D8000E01041F00201C3F8E010D3F8E03003F0A6
:102D900002030393039B6FE7074BD3F8E01041F066
:102DA0000101C3F8E010D3F8E03003F0010302930F
:102DB000029B61E7000002580044025808B5012157
:102DC00043780069994089B204F05EFD003818BF6D
:102DD000012008BD01230A464178006903FA01F188
:102DE00089B204F057BD00BF8378022B30B504468A
:102DF0008FB037D0032B33D0012B31D000230A936F
:102E0000E378012B2AD0022B28D000230B93002338
:102E100020460C9303F068F90546204603F06CF950
:102E200023780990082B13D8DFE803F01F324558A8
:102E30006B7E91A40500594BD3F8E02042F48072D8
:102E4000C3F8E020D3F8E03003F480730893089BC4
:102E500009A9284604F010FB0FB030BD0B93D6E74C
:102E60000A93CDE711230A93CAE74C4B09A92846D8
:102E7000D3F8E02042F00102C3F8E020D3F8E030BC
:102E800003F001030093009B04F0F6FA0FB030BD8D
:102E9000424B09A92846D3F8E02042F00202C3F8C9
:102EA000E020D3F8E03003F002030193019B04F02B
:102EB000E3FA0FB030BD394B09A92846D3F8E0201A
:102EC00042F00402C3F8E020D3F8E03003F004033A
:102ED0000293029B04F0D0FA0FB030BD2F4B09A92A
:102EE0002846D3F8E02042F00802C3F8E020D3F8E7
:102EF000E03003F008030393039B04F0BDFA0FB026
:102F000030BD264B09A92846D3F8E02042F0100234
:102F1000C3F8E020D3F8E03003F010030493049BDF
:102F200004F0AAFA0FB030BD1C4B09A92846D3F80B
:102F3000E02042F02002C3F8E020D3F8E03003F0B4
:102F400020030593059B04F097FA0FB030BD134B97
:102F500009A92846D3F8E02042F04002C3F8E02057
:102F6000D3F8E03003F040030693069B04F084FAA4
:102F70000FB030BD094B09A92846D3F8E02042F034
:102F80008002C3F8E020D3F8E03003F08003079319
:102F9000079B04F071FA0FB030BD00BF0044025827
:102FA00070B506460D4603F09FF80446304603F020
:102FB000A3F82A1E0146204618BF0122BDE8704032
:102FC00004F068BC0023122270B586B0CDE902235C
:102FD00004930368032B01D804230593061D841D65
:102FE000304603F081F80546304603F085F8034685
:102FF00001A92846019304F03FFA204603F074F833
:10300000034620461C4603F077F801A903462046F4
:10301000019304F031FA06B070BD00BF634A036843
:10302000934210B58CB028D0614A934258D0614A7F
:10303000934200F09480604A934201D00CB010BDDE
:103040005E4C5F48D4F8E03043F00203C4F8E0304F
:10305000D4F8E03003F002030A930A9BFFF7B2FFB3
:10306000D4F8F43043F08003C4F8F430D4F8F430EA
:1030700003F080030B930B9BE0E7504C5148D4F8CE
:10308000E03043F00203C4F8E030D4F8E03003F05D
:1030900002030193019BFFF795FFD4F8E83000226B
:1030A0001F2043F400131146C4F8E830D4F8E83088
:1030B00003F400130293029BD4F8D83043F00103C9
:1030C000C4F8D830D4F8D83003F001030393039B3D
:1030D00003F056F91F200CB0BDE8104003F08EB984
:1030E000364C3948D4F8E03043F08003C4F8E0307F
:1030F000D4F8E03003F080030493049BD4F8E0306C
:1031000043F00203C4F8E030D4F8E03003F00203E7
:103110000593059BFFF756FFD4F8E83000222120E5
:1031200043F480031146C4F8E830D4F8E83003F4DF
:1031300080030693069BD4F8D83043F00103C4F80B
:10314000D830D4F8D83003F001030793079B03F07D
:1031500017F921200CB0BDE8104003F04FB91B480F
:10316000FFF730FF154B00224820D3F8E840114606
:1031700044F40004C3F8E840D3F8E84004F4000441
:103180000894089CD3F8D84044F00104C3F8D84010
:10319000D3F8D83003F001030993099B03F0F0F84A
:1031A00048200CB0BDE8104003F028B9005400409E
:1031B00000580040005C0040001C005800440258C9
:1031C000CCE9012444E701241CE80124F4E80124AB
:1031D0002DE9F0431A4B87B000254FF010099E46A9
:1031E000EC46184BFF22E04667461A700EF11806AF
:1031F0000EF13004CDE90055CDE90255ADF800904F
:10320000BCE80F00CDE90455AEE80F009CE80300D0
:103210000095ADF800908EE80300B8E80F000FC6E7
:103220009CE803000095ADF8009086E803000FCFFE
:103230000FC49CE8030084E8030007B0BDE8F083F6
:103240000400002441E7012410B5EFF3108472B6A6
:10325000084B1A78120602D504B962B610BD1B7865
:10326000D82205485BB202FB0300143003F0B2FD24
:10327000F2E700BF41E7012444E70124014805F0DB
:10328000A1B900BFD0E70124014805F09BB900BFF8
:10329000A8E80124014805F095B900BF80E90124A0
:1032A0002DE9F0430F68D8243F4D85B007FB04F4A7
:1032B000032F05EB0403036040DCCB680E46012BB3
:1032C0003CD84DD04FF0D808B646DFF8FC9008FB4C
:1032D0000758BEE80F00C446ACE80F00DEF8003027
:1032E0000DF1100ECCF80030D8F808C099E80F00A6
:1032F0000EE90F000EEB8703BCF1010F53F8103CF1
:10330000C8F88C3031D0BCF1020F42D0BCF1000FB4
:1033100035D0317C8C34D823002201202C4403FB8F
:1033200007534900C3E92602C3F894102046C3E9B5
:103330002822C3E92A2204F037FF18B1012005B082
:10334000BDE8F0830146204605F048F90028F5D194
:103350000146204605F06CF9003818BF0120EEE761
:103360000B7C103B672BADD9E8E702F09FF90F4BC0
:1033700098420CBF0E4B0F4BC8F89030C9E702F0D3
:1033800095F90A4B98420CBF0B4B0C4BC8F8903088
:10339000BFE702F08BF9054B98420CBF084B094B75
:1033A000C8F89030B5E700BF44E70124000E2707B6
:1033B0002D0FB0303211D0205F4390608A62E03030
:1033C000200BA0101A0980105C3301082DE9F04190
:1033D000D0F8008082B00D4617461E4608F18C04D6
:1033E000204605F0F7F82028FAD1D8F80C3073B948
:1033F0006D002046089C33463A46A9B2009404F07A
:1034000029FF003818BF012002B0BDE8F081089BF9
:1034100032463946204604F0F1FFF2E7044B102211
:103420001A7483F8E82083F8C02183F89822704743
:1034300044E7012430B5002395B04FF48071062293
:1034400004460B9306921393CDE90C13CDE90E338A
:10345000CDE9113302F02CF907282BD004F1100527
:1034600041F2883206A9284606F034F828B1012333
:10347000184684F85C3015B030BD0222022306A93C
:103480002846CDE9002310220123CDE902230022A2
:103490004FF48003CDE9042305224FF08073069298
:1034A0006A460F9341F2883306F080F90028DED196
:1034B00015B030BD0323012084F85C3015B030BD59
:1034C00070B50023A4B04FF080724FF480750446AD
:1034D000ADF806300D93CDE910320122CDE90E533F
:1034E000CDE91223CDE91433002943D0F02300F1B4
:1034F000100508AEADF80630C02341F288323146DF
:103500002846089305F0E6FF28B10123184684F801
:103510005C3024B070BD41F288320DF106012846BE
:1035200006F042F803460028EFD105224FF48071DF
:103530001E93284616924FF080721B9321931F9280
:1035400002AA9FED1F7BCDE91C13CDE922338DED3F
:10355000027B9FED1D7B41F2883316A98DED047B24
:103560009FED1B7B8DED067B06F020F90028CCD16A
:1035700024B070BD00F1100508AE612341F288321D
:1035800031462846089305F0A5FF0028BDD141F239
:1035900088320DF10601284606F084F80028B4D1DF
:1035A000BDF80630204623F0780343F04003ADF821
:1035B0000630FFF73FFF00289ED0A6E7AFF300805C
:1035C00000000000010000001000000001000000E9
:1035D00000000000000040002DE9F04F00234FF4F0
:1035E000807501264FF0807804462DED028BABB03C
:1035F0008DF8073013932193299314950E96CDF8E7
:103600005C80CDE91533CDE91863CDE91A33CDE9F6
:103610002253CDE92433CDE9273306231C9302F04E
:1036200047F8072808D004F1100741F288321CA996
:10363000384605F04FFF40B10123184684F85C304E
:103640002BB0BDEC028BBDE8F08F4FF0020A4FF0BB
:10365000020B4FF0050941F2883308AA1CA938462D
:10366000CDF89480CDF870909FED2D8BCDE908AB0F
:103670004FF0000A4FF4800B8DED0A8BCDE90CABB7
:1036800006F094F80028D7D141F2883238460EA9C6
:1036900005F020FF0028CFD1402341F288320DF100
:1036A000070138468DF8073005F07EFF0028C3D1AA
:1036B00041F288330EA902AA3846CDF83890CDF8E9
:1036C0005C809FED197B8DED048BCDE906AB8DED14
:1036D000027B06F06BF803460028ADD1CDF8709060
:1036E0004FF00109CDF894804FF00008219308AA0B
:1036F00029931CA938462295CDE92333CDE92733F8
:1037000041F288338DED0A8BCDE90CABCDE9088908
:1037100006F04CF8002893D0304684F85C608FE7C0
:103720001000000001000000400000004000000008
:103730002DE9F043624CA3B00D46046001F0B8FFE0
:10374000072800F0A980286823466968AA6807C38B
:103750001E46AB8926F8043B3046257B677B05F087
:103760009BFEE0B9574B012D4FF00108E06123614A
:1037700014BF4FF480134FF40003C4E9058893FA93
:10378000A3F3B3FA83F34FF48079013BC4F8249098
:10379000C4E90B003046236205F012FE38B1012265
:1037A000134684F85C20184623B0BDE8F0836623F6
:1037B0000B90139041F2883206A90693CDE90C9044
:1037C000CDE90E00CDE91100304605F083FE00285A
:1037D000E5D1992341F2883206A93046069305F0D7
:1037E00079FE0028DBD105231C9019906A461493BA
:1037F0004FF08073219014A91D9341F288339FEDFF
:103800002A7BCDE91A90CDE91F008DED007B9FED5D
:10381000287B30468DED027B9FED277B8DED047B71
:1038200005F0C4FF0028BAD129462046FFF748FE1C
:103830000028B4D12046FFF7CFFE03460028AED1C2
:10384000002FB0D1189330460027002606AA14A9ED
:10385000CDF86890CDE91F33EB2314934FF4406308
:103860001B934FF4005317934FF440431C93A02332
:103870001693062319934FF0805321934FF0407312
:10388000CDE906671D9306F009F8034600288AD0A3
:10389000434684F85C8086E701230322184684F8B7
:1038A0005C2023B0BDE8F0830000000001000000B0
:1038B00010000000010000000000000000004000B7
:1038C000A4EA0124005000522DE9F04F8FB0414B83
:1038D0000024026800AF9A427C63C7E90944C7E943
:1038E0000B4403D03C37BD46BDE8F08F3A4B40F661
:1038F00009213A48EB46D3F8D42007F11C0607F11A
:10390000220A4FF0020942F480424FF00308C3F844
:10391000D420D3F8D42002F48042BA60BA68D3F835
:10392000E02042F04002C3F8E020D3F8E02002F0AB
:103930004002FA60FA68D3F8E02042F02002C3F8AF
:10394000E020D3F8E02002F020023A613A69D3F88F
:10395000E02042F01002C3F8E020D3F8E02002F0AB
:1039600010027A617A69D3F8E02042F00202C3F8CB
:10397000E020D3F8E030F86103F002033984BB6142
:10398000174B7B60BB697B6853F8040F7B6002F0C8
:10399000ABFB7B680546186802F0AEFB16F8013BEE
:1039A000786207F124012846C7F830807B63C7E9B5
:1039B0000A9403F061FD5645E5D100225C201146D2
:1039C00002F0DEFC5C2002F019FD3C37DD46BD460E
:1039D000BDE8F08F00500052004402580A0A09095D
:1039E00000EB0124114B02689A4200D07047104A44
:1039F00070B5D2F8D4300F4C23F4804304F118068C
:103A0000C2F8D43054F8040F02F06EFB054620686B
:103A100002F072FB0146284603F06EFEB442F1D17B
:103A20005C20BDE8704002F0F7BC00BF00500052BF
:103A30000044025800EB0124014805F0BBBF00BF61
:103A4000B4EA0124084B1A1D981D03F1080110B4B3
:103A50009C1C9A6603F10A02C3E91834C3E91B01EE
:103A60005DF8044B5A677047A4EA012438B503682F
:103A700071B9026A00F1280500F5AC74012A0CBF87
:103A8000002140218BBB1D4B5722C0F858310DE05F
:103A9000426A00F1C00500F5E874012A0CBF00215C
:103AA0004021EBB1164B5A22C0F8D03100232046FA
:103AB000C4E901214FF480524FF480616362626176
:103AC0004FF48042C4E903314FF48073C4E9062304
:103AD0004FF40033236202F005FE58B1FFBEFEE74B
:103AE000084B5822C0F8D031E0E7074B5922C0F804
:103AF0005831DBE7C5E92044A56338BD100002401A
:103B00007000024028000240580002402DE9F043B6
:103B1000821D05468BB0031D05F10A010830CDE971
:103B2000052305F10C02AB69CDE907010992002BD1
:103B30003DD0EB69B3FA83F84FEA5818012302220B
:103B400005AE0AAF4FF006090393CDE9012356F8FD
:103B5000044B2B792278934216D02B68F3B1012BBA
:103B600002D1F2B10A230493204602F0C5FA0346BB
:103B70002046009302F0B8FA694603F07DFCBE428D
:103B8000E5D10BB0BDE8F083697963789942E4D15F
:103B9000B8F1000FF3D02B68002BE0D1CDF81090D6
:103BA000E2E76378022B14BF0A230823DBE74FF018
:103BB0000108C3E7534A0368934230B505468BB00A
:103BC00055D02032934252D04F4A934204D02032F3
:103BD000934201D00BB030BD4C4C4D48D4F8E0308E
:103BE00043F00103C4F8E030D4F8E03003F00103FF
:103BF0000593059BD4F8E03043F00803C4F8E030A7
:103C0000D4F8E03003F008030693069BD4F8E030C4
:103C100043F04003C4F8E030D4F8E03003F0400350
:103C20000793079BD4F8F03043F40003C4F8F03056
:103C3000D4F8F03003F400030893089BFFF766FF05
:103C4000D4F8D830296843F001032F4A3048C4F82B
:103C5000D830891AD4F8D83018BF012103F00103F5
:103C60000993099B0BB0BDE83040FFF7FFBE274C1E
:103C70002848D4F8E03043F00103C4F8E030D4F829
:103C8000E03003F001030093009BD4F8E03043F0F0
:103C90001003C4F8E030D4F8E03003F010030193CF
:103CA000019BD4F8E03043F04003C4F8E030D4F88E
:103CB000E03003F040030293029BD4F8F03043F469
:103CC0008003C4F8F030D4F8F03003F48003039399
:103CD000039BFFF71BFFD4F8D830296843F001039A
:103CE000084A0C48C4F8D830891AD4F8D83018BF1C
:103CF000012103F001030493049B0BB0BDE83040A5
:103D0000FFF7B4BE04580140045C0140004402586F
:103D100078ED01241CEB0124014803F05BB800BFDF
:103D200074EC0124014803F055B800BFECEC012409
:103D3000014803F04FB800BFD0EE0124014803F062
:103D400049B800BF48EF01241A4A0368934210B4EF
:103D50000BD02032934208D0174A934216D020321B
:103D6000934213D05DF8044B7047144B0022D3F8F4
:103D70005442C3F85822002CF4D0D3F84802D3E9B7
:103D8000931223465DF8044B520818470B4B002250
:103D9000D3F8B044C3F8B424002CE3D0D3F8AC2457
:103DA000D3F8A814D3F8A404520823465DF8044BB2
:103DB000184700BF04580140045C01401CEB01247B
:103DC000184A0368934210B40BD02032934208D0B3
:103DD000154A934217D02032934214D05DF8044B19
:103DE0007047124BD3E994245208C3F85822002C90
:103DF000F4D0D3E99201234601EB820100EB82006B
:103E00005DF8044B1847094BD3F8AC24D3F8B04401
:103E10005208C3F8B424002CE0D0D3F8A814D3F887
:103E2000A404E8E704580140045C01401CEB0124B1
:103E30002DE9F04F0C684FF41776754F87B004FBEF
:103E400006F6012C07EB060AC0F800A000F3A080DC
:103E50000D468E464FF00008D44669A3D3E90023EF
:103E600069A1D1E90001CDE9022306ABCAF850826D
:103E700003EB8403CDE9040153F810BC53F8083C6C
:103E8000CAE992880193BEE80F00ACE80F00BEE8D3
:103E90000F00ACE80F00019B9EE80300CAF828B0B1
:103EA000CAF8C0308CE803002B69042B0CD8DFE87B
:103EB00003F0737D879103004FF41773554A03FB9A
:103EC00004739A64C3F8E020AA692B6A002A43D0DD
:103ED000002B4FF4177308BF022203FB047318BFB3
:103EE0000322DA6201221A63EA696B6A002A40D16E
:103EF000191E4FF4177318BF012103FB0473C3E9A4
:103F000031126B69022B05D8434A12F80380434AE9
:103F100052F823904FF4177306F1280042464946A1
:103F200003FB04740023384463646363E365C4F8EB
:103F3000DC30C4F8CC30C4F8F430C4E90F33C4E941
:103F40001533C4E93533C4E93B33022307F0D4FD0C
:103F5000002849D0FFBEFEE7191E4FF4177318BFA3
:103F6000012103FB0473C3E90B12EA696B6A002A9F
:103F7000BED0002B4FF4177308BF022203FB04735B
:103F800018BF0322C3F8C4200122C3F8C820B8E731
:103F9000012007B0BDE8F08F4FF417734FF4FA52C9
:103FA00003FB04739A64C3F8E0208DE74FF41773A2
:103FB0004FF47A5203FB04739A64C3F8E02083E75A
:103FC0004FF417734FF4FA4203FB04739A64C3F877
:103FD000E02079E74FF417734BF6803203FB04734C
:103FE0009A64C3F8E0206FE706F1C000022342465E
:103FF0004946384407F080FD0028CAD0FFBEFEE7DE
:1040000004580140045C014024580140245C0140F4
:104010001CEB012400770100343701083837010810
:104020000068704770B5046882B015460E46C4F843
:104030005032C4E99212069AC4F85422A269012AA5
:1040400026D0626A012A9AB211D0294604F1C00032
:10405000019207F00DFE236A019A012B10D0294628
:1040600004F1280007F004FE002002B070BD04F146
:10407000C000019207F08EFE236A019A012BEED157
:10408000314604F1280007F085FE002002B070BD23
:10409000226A012A9AB211D0294604F1280001921D
:1040A00007F0E6FD636A019A012B10D0294604F15E
:1040B000C00007F0DDFD002002B070BD04F1280053
:1040C000019207F067FE636A019A012BEED1314637
:1040D00004F1C00007F05EFE002002B070BD00BF1A
:1040E00003681B69042B05D8044A02EB830393ED94
:1040F000000A70479FED020A704700BF443701086D
:1041000000803B470368D3F8580270471F4BC168D3
:104110000268F0B5D3F88C5083B00369ADB24D1B83
:10412000A2B1AB4212D00446866811D2F018E91A47
:10413000CDE9001001F058F80023DDE90010D4E9C2
:104140000062B047E3682561AB421BD003B0F0BD0D
:10415000F018C91ACDE9000101F046F80023DDE9A5
:104160000001D4E90072B8473046294601F03CF816
:1041700000233046626829462668B047E368256117
:10418000AB42E3D10023236103B0F0BD0000024045
:104190002DE9F84F04460F4690461E4600F13405BF
:1041A000284608F083F92028FAD14FF480630020D4
:1041B000C4F8D030C4F848314FF44033C4F8CC00D0
:1041C000C4F8E030C4F858314E4BC4F8DC00C4F8F1
:1041D000C03003F57A73C4F8E400C4F838314023E2
:1041E000C4F8C800C4F84031E369C4F84401C4F815
:1041F0005401C4F85C01C4E93500C4E95300072B3D
:104200000BD8DFE803F061535A373E454C04512385
:10421000C4F8C4305223C4F83C3104F59C794846B4
:1042200002F060FA08B1FFBEFEE7C4F8A890C4F837
:104230007051EFF3108972B6DFF8D0B094F91C30EA
:10424000DFF8CCA08BF800300A9B2F4CCAF8003066
:104250000B9B23600EB11846B0471FFA88F239460F
:10426000284607F00DFFB0BBB9F1000F00D162B6D0
:10427000BDE8F88F3F23C4F8C4304023C4F83C3174
:10428000CBE74123C4F8C4304223C4F83C31C4E72F
:104290004723C4F8C4304823C4F83C31BDE74F235A
:1042A000C4F8C4305023C4F83C31B6E72B23C4F81B
:1042B000C4302C23C4F83C31AFE72D23C4F8C430FC
:1042C0002E23C4F83C31A8E72923C4F8C4302A239C
:1042D000C4F83C31A1E7FF238BF800300023CAF873
:1042E000003023600A9B3BB10B98012198470120C5
:1042F000B9F1000FBCD1BAE70120B9F1000FB7D175
:10430000B5E700BF880002400CFF012408FF01242C
:1043100004FF01242DE9F84F04460F4690461E463F
:1043200000F13405284608F0C1F82028FAD14FF4EE
:1043300080630020C4F8D030C4F848314FF44033D3
:10434000C4F8CC00C4F8E030C4F858314E4BC4F87F
:10435000DC00C4F8C03003F57A73C4F8E400C4F894
:1043600038314023C4F8C800C4F84031E369C4F8C8
:104370004401C4F85401C4F85C01C4E93500C4E93F
:104380005300072B0BD8DFE803F061535A373E4543
:104390004C045123C4F8C4305223C4F83C3104F116
:1043A000C009484602F09EF908B1FFBEFEE7C4F816
:1043B000AC90C4F8F850EFF3108972B6DFF8D0B0C3
:1043C00094F91C30DFF8CCA08BF800300A9B2F4CFE
:1043D000CAF800300B9B23600EB11846B0471FFA95
:1043E00088F23946284607F09DFEB0BBB9F1000FB0
:1043F00000D162B6BDE8F88F3F23C4F8C430402333
:10440000C4F83C31CBE74123C4F8C4304223C4F89C
:104410003C31C4E74723C4F8C4304823C4F83C31D6
:10442000BDE74F23C4F8C4305023C4F83C31B6E78D
:104430002B23C4F8C4302C23C4F83C31AFE72D2320
:10444000C4F8C4302E23C4F83C31A8E72923C4F8AB
:10445000C4302A23C4F83C31A1E7FF238BF8003095
:104460000023CAF8003023600A9B3BB10B9801215E
:1044700098470120B9F1000FBCD1BAE70120B9F18A
:10448000000FB7D1B5E700BF880002400CFF012440
:1044900008FF012404FF01242DE9F0410D4682B0FC
:1044A000EFF3108772B6002948D1FF23254A264C26
:1044B000237013682BB1002029461060234A10682E
:1044C000984723781B0625D5DFF888800025204EE5
:1044D000444605E001351C3406F5D876092D19D07F
:1044E000A369012B1BD0002BF4D121683046002991
:1044F000F0D06369019323690093E3682289FFF791
:1045000009FF0028E6D1C5EBC50508EB850348F88F
:104510002500586007B962B602B0BDE8F081616855
:104520000029D7D063693046019323690093E3687B
:104530002289FFF72DFE0028CCD1E4E709F0B2FA7A
:10454000B3E700BF04FF012408FF01240CFF01248E
:10455000D4EF01244C000024F0B5002387B00222E0
:1045600004460493CDE90223027EC3690B2A4FEA75
:10457000430523D1A27E0B2A02D1002007B0F0BD53
:1045800048496B1C484851F8233045780178187821
:10459000E67E884269D0824277D0D87803F1030C56
:1045A00081426ED0824278D0987903F1060C88421D
:1045B0006FD0824233D0012007B0F0BD394B3A486A
:1045C00053F8253001784678187894F819C081425C
:1045D0003DD0824241D0D87803F1030E814240D0D1
:1045E00082424AD0987903F1060E884241D0824235
:1045F000E1D1DB796345DED1734604F118069B787F
:104600003046059301F070FD034630461E4601F02A
:1046100073FD01A90190304602F02EFFAAE7DB7975
:10462000B342C8D163461A349B782046059301F003
:104630005BFD034620461C4601F05EFD034601A9D2
:104640002046019302F018FF002007B0F0BD93F858
:1046500001E0B645BFD08242BDD158786045BAD19D
:10466000CBE71F79B742BBD1BCE75F78AF4292D1AD
:1046700093E7D979B142BAD19DE718796045B1D1B4
:10468000BAE71F79AF428DD18EE75878B04284D116
:10469000C9E7D979A9428CD18DE71879B04283D185
:1046A000C0E700BF64010024600100247E4A036863
:1046B0009342F0B58FB000F0E380A2F54C429342F4
:1046C00000F0E08002F58062934200F0DD8002F5A8
:1046D0008062934200F0DA8002F58062934200F03B
:1046E000D98002F54442934200F0D280A2F51C42E8
:1046F000934200F0D18002F58062934200F0CE80B8
:104700006A4A934240F0CC800826694D4FF4D87431
:1047100004FB0654A07E01F0F7FC207E01F0F4FCBF
:10472000E369082B13D8DFE803F03B495765738131
:104730008F9D05005F4BD3F8F42042F00802C3F8C8
:10474000F420D3F8F43003F008030893089B2046C4
:10475000FFF702FF012801D1FFBEFEE74FF4D87436
:104760000EAA554F0DF1240C04FB0654E36902EB2D
:1047700043050FCFACE80F003B680022ACF80030D7
:10478000114635F9140C01F0FBFDE3690EAA02EBAA
:10479000430333F9140C0FB0BDE8F04001F02EBE16
:1047A000444BD3F8F02042F01002C3F8F020D3F8C5
:1047B000F03003F010030093009BC8E73D4BD3F8A3
:1047C000E82042F40032C3F8E820D3F8E83003F4DC
:1047D00000330193019BBAE7364BD3F8E82042F44B
:1047E0008022C3F8E820D3F8E83003F48023029352
:1047F000029BACE72F4BD3F8E82042F40022C3F829
:10480000E820D3F8E83003F400230393039B9EE7EA
:10481000284BD3F8E82042F48012C3F8E820D3F8FC
:10482000E83003F480130493049B90E7214BD3F802
:10483000F02042F02002C3F8F020D3F8F03003F06B
:1048400020030593059B82E71A4BD3F8E82042F03A
:104850008042C3F8E820D3F8E83003F080430693A1
:10486000069B74E7134BD3F8E82042F00042C3F8EC
:10487000E820D3F8E83003F000430793079B66E78E
:10488000002642E7012640E702263EE703263CE7F2
:1048900005263AE7042638E7062636E7072634E7F2
:1048A00000239B7EFFDE00BF00100140000C00587B
:1048B000D4EF0124004402586C3301082DE9F04F75
:1048C00091B0002301223F490DF1240A09938B4640
:1048D00001F11C09CAF8143001F13808CDF800A024
:1048E00001F15407CDF804A001F17006CDF808A03D
:1048F00001F18C05CDF80CA001F1A804CDF810A0B1
:1049000001F1C40ECDF814A001F1E00CCAE90133A5
:10491000CAE903330F92FF222B4BCDE906AA1A7086
:10492000BAE80F00ABE80F009AE80700009B8BE89D
:1049300007009B46BBE80F00A9E80F009AE80700B4
:10494000019B89E807009946B9E80F00A8E80F0025
:104950009AE80700029B88E807009846B8E80F002D
:104960000FC79AE80700039B87E807001F460FCF91
:104970000FC69AE80700049B86E807001E460FCE84
:104980000FC59AE80700059B85E807001D460FCD77
:104990000FC49AE80700069B84E807001C460FCC6A
:1049A000AEE80F00079B9AE807001C468EE8070058
:1049B0000FCCACE80F009AE807008CE8070011B0B4
:1049C000BDE8F08F4C00002408FF012410B5094C0D
:1049D00004F1340007F078FC237D1BB1636BDB69C5
:1049E000DB0600D410BD2046FFF790FB636B10225E
:1049F0001A6210BDD4EF012410B50B4C04F5F2700F
:104A000007F062FC94F8C43123B1D4F8E431DB69D7
:104A1000DB0600D410BD04F5D870FFF777FBD4F89F
:104A2000E43110221A6210BDD4EF012410B50B4CF2
:104A300004F5657007F048FC94F8743323B1D4F89A
:104A40009433DB69DB0600D410BD04F55870FFF722
:104A50005DFBD4F8943310221A6210BDD4EF012408
:104A600010B50B4C04F2445007F02EFC94F824359A
:104A700023B1D4F84435DB69DB0600D410BD04F55E
:104A8000A260FFF743FBD4F8443510221A6210BD30
:104A9000D4EF012410B50B4C04F2F46007F014FCC1
:104AA00094F8D43623B1D4F8F436DB69DB0600D4AD
:104AB00010BD04F5D860FFF729FBD4F8F4361022B6
:104AC0001A6210BDD4EF012410B50B4C04F6A400FB
:104AD00007F0FAFB94F8843823B1D4F8A438DB69E2
:104AE000DB0600D410BD04F50760FFF70FFBD4F818
:104AF000A43810221A6210BDD4EF012410B50B4C5B
:104B000004F6542007F0E0FB94F8343A23B1D4F8CB
:104B1000543ADB69DB0600D410BD04F52260FFF7D0
:104B2000F5FAD4F8543A10221A6210BDD4EF0124D9
:104B300010B50B4C04F6044007F0C6FB94F8E43BB8
:104B400023B1D4F8043CDB69DB0600D410BD04F5C6
:104B50003D60FFF7DBFAD4F8043C10221A6210BD66
:104B6000D4EF012410B50B4C04F6B45007F0ACFBA5
:104B700094F8943D23B1D4F8B43DDB69DB0600D44E
:104B800010BD04F55860FFF7C1FAD4F8B43D102207
:104B90001A6210BDD4EF012410B5EFF3108472B681
:104BA000084B1A78120602D504B962B610BD1B78FC
:104BB0004FF4D87204485BB202FB0300C03002F02D
:104BC00009F9F1E708FF0124D4EF012410B5EFF350
:104BD000108472B6094B1A78120602D504B962B66F
:104BE00010BD1B784FF4D87205485BB202FB03007E
:104BF00000F59C7002F0EEF8F0E700BF08FF01241A
:104C0000D4EF01240021FFF747BC00BF214A03680D
:104C100093422BD0A2F54C42934229D002F58062F8
:104C2000934227D002F58062934225D002F580623C
:104C3000934223D002F54442934221D0A2F51C4274
:104C400093421FD002F5806293421DD0124A9342D4
:104C50001CD108224FF4D871104B01FB0233197D8F
:104C600011B11846FFF752BAFFF716BC0022F1E760
:104C70000122EFE70222EDE70322EBE70422E9E756
:104C80000522E7E70622E5E70722E3E700231B7D8D
:104C9000FFDE00BF00100140000C0058D4EF0124DB
:104CA000204A0368934229D0A2F54C42934227D070
:104CB00002F58062934225D002F58062934223D0B0
:104CC00002F58062934221D002F5444293421FD004
:104CD000A2F51C4293421DD002F5806293421BD084
:104CE000114A93421AD1082310484FF4D87202FB9C
:104CF0000300037D03B97047FFF708BA0023F3E709
:104D00000123F1E70223EFE70323EDE70423EBE7B9
:104D10000523E9E70623E7E70723E5E700231B7DF3
:104D2000FFDE00BF00100140000C0058D4EF01244A
:104D30000121FFF7B1BB00BF2DE9F0414F684FF4EF
:104D4000D876DFF8C0808E4607FB06F60C46082FA3
:104D500008EB0605056005F1180CBEE80F00ACE88D
:104D60000F009EE807008CE8070002D86B6A022B50
:104D700002D90120BDE8F0812A6A032AF9D8A96A7C
:104D80000229F6D8E86A0228F3D80131DFF878C0A2
:104D9000343689005CF8277046446F63A469A964BF
:104DA0001549AC6351F823306B64144B53F822302F
:104DB000134A2B64002352F8201001223046EB6581
:104DC000E963C5E91333C5E9153208F06BFE002825
:104DD000CFD10146304608F0BDFE0028C9D10146BA
:104DE000304608F005FF0028C3D1304608F094FE95
:104DF0000028BED12875BDE77C3701088837010837
:104E000098370108D4EF012458370108F8B5046831
:104E10001646069A4FF480772360002362600122D1
:104E200023610D4622753C4AC4F8CC30C4F8C0203A
:104E30004FF48062C4F8E430C4F8C830C4F8D0201D
:104E40004FF44032A160E660C4E93533E369C4E958
:104E50003772072B0BD8DFE803F02E353C434A515D
:104E6000580451225223C4F8C420C4F83C3104F140
:104E7000C007384601F036FC08B10120F8BD626B6E
:104E800004F13403C4F8AC703146C4F8F8301F465E
:104E90001368284643F01003136000F0A5F9294673
:104EA000B2B2384607F03EF90028E6D194F91C204A
:104EB0001A4B1A70F8BD29222A23C4F8C420C4F85A
:104EC0003C31D4E72B222C23C4F8C420C4F83C3155
:104ED000CDE72D222E23C4F8C420C4F83C31C6E708
:104EE0003F224023C4F8C420C4F83C31BFE741222C
:104EF0004223C4F8C420C4F83C31B8E74722482311
:104F0000C4F8C420C4F83C31B1E74F225023C4F8A0
:104F1000C420C4F83C31AAE78800024008FF0124FD
:104F20000368187D704700BF534B0122002047F6ED
:104F3000122130B4C3E97420C3E97721C3E9E0202A
:104F4000C3E9E3211A62DA6258621963C3F83025B3
:104F5000C3F83405C3F83C25C3F84015C3F8E02670
:104F6000C3F8E406C3F8EC26C3F8F016C3F890289B
:104F7000C3F89408C3F89C28C3F8A018C3F8402AC3
:104F8000C3F8440AC3F84C2AC3F8501AC3F8F02BEC
:104F9000C3F8F40BC3F8FC2BC3F8001CC3F8A40D32
:104FA0003648C3F8A02DC3F8AC2DC3F8B01D028855
:104FB000837833490068334CCA804FEA104C0B7237
:104FC0003149E2802372A1F80320A4F80320637121
:104FD0004B712E4CCA800B722D492E4DE2802372EC
:104FE000A1F80320A4F8032063714B712A4CCA80F6
:104FF0000B722A49EA8008802B7281F802C0E28095
:105000002372A1F803204B71CA800B722449A1F8C6
:1050100003204B71CA800B722249A1F803204B7107
:10502000CA800B722049088081F802C0A1F80320D1
:105030004B71CA800B721D49088081F802C0A1F82B
:1050400003204B71CA800B721949088081F802C095
:105050001848A1F803204B71CA800B721649A0F8BA
:1050600003204371C2800372A1F803204B71CA80F0
:105070000B7230BC704700BFD4EF012460010024E4
:10508000E80100240C020024000200242402002471
:1050900018020024F4010024D001002434FF01246C
:1050A00030020024DC01002410FF012428FF012429
:1050B0001CFF012454010024480100243E4B00221F
:1050C0000B20114610B5D3F8D84082B044F001044B
:1050D000C3F8D840D3F8D84004F001040094009CF1
:1050E000D3F8D84044F00204C3F8D840D3F8D830FD
:1050F00003F002030193019B01F042F90B2001F040
:105100007DF900220C20114601F03AF90C2001F043
:1051100075F900220D20114601F032F90D2001F041
:105120006DF900220E20114601F02AF90E2001F03F
:1051300065F900220F20114601F022F90F2001F03D
:105140005DF900221020114601F01AF9102001F03B
:1051500055F900223C20114601F012F93C2001F0E3
:105160004DF900221120114601F00AF9112001F039
:1051700045F900223820114601F002F9382001F0EB
:105180003DF900223920114601F0FAF8392001F0EA
:1051900035F900223A20114601F0F2F83A2001F0E8
:1051A0002DF900223B20114601F0EAF83B2002B025
:1051B000BDE8104001F022B90044025820F01F0061
:1051C0002031BFF34F8F002907DD064A0144C2F8A2
:1051D000680220300B1A002BF9DCBFF34F8FBFF3AE
:1051E0006F8F704700ED00E020F01F002031BFF30B
:1051F0004F8F002907DD064A0144C2F85C022030C7
:105200000B1A002BF9DCBFF34F8FBFF36F8F704782
:1052100000ED00E0704700BF08B501F075F8BDE88B
:10522000084001F075B900BF064808B503680BB126
:1052300002F034FB044803681BB1BDE8084003F0EA
:10524000DBBA08BD6029022458230224064808B5A9
:1052500003680BB102F022FB044803681BB1BDE8F0
:10526000084003F0C9BA08BD60290224582302246B
:10527000064808B503680BB102F010FB0448036848
:105280001BB1BDE8084003F0B7BA08BD602902248D
:1052900058230224364BDA6A520062D59A6A9A6A17
:1052A0009A6A9B6A180600D500BE314B9B6A990624
:1052B00000D500BE2E4B9B6ADA0600D500BE2C4BF3
:1052C0009B6A1B0700D500BE294B9B6A980700D537
:1052D00000BE274B9B6AD90700D500BE244B9B6AB2
:1052E0001A0400D500BE224B9B6A9B0400D500BE69
:1052F0001F4B9B6AD80400D500BE1D4B9B6A190545
:1053000000D500BE1A4B9B6A5A0500D500BE184B4B
:105310009B6A9B0500D500BE154B9B6AD80500D53E
:1053200000BE134B9B6A990100D500BE104B9B6ACF
:10533000DA0100D500BE0E4B9B6A1B0300D500BEF0
:105340000B4B9B6A580300D500BE094B9B6A99031F
:1053500000D500BE064B9B6ADA0306D400BE00BE31
:10536000FEE7DB6A9B07FAD5F8E700BEF6E700BF69
:1053700000ED00E000F0D4BF00F0D8BF0A4B9B68FE
:1053800003F17843B3F5003F0BD3084B986848B15D
:105390009868012806D09868022803D09B680320EB
:1053A00070470120704700BF00ED00E0000080382A
:1053B0002DE9F041CEB004464C2200210AA80CF0A1
:1053C000C3FD2022002102A80CF0BEFDBC2200215A
:1053D0001EA80CF0B9FD022003F00AFF2368012B80
:1053E0004FF0000354D0534A02250193C820D16ADC
:1053F000514B21F00101D162D26A02F00102019207
:105400009A6942F440429A619B6903F440430193D4
:10541000019B494A93699B04FCD548490224002218
:1054200001268B6A04274FF0080823F00303234367
:105430008B62052316900AA818934FF480331096B8
:10544000179419941597CDF86880CDE91B22212275
:10545000CDE91344CDE90A2304F0B4FB00B1FEE723
:105460003F220323294602A8CDE902230022082374
:10547000CDE9042340224023CDE9062340234FF405
:105480008062CDE9082304F0CBFE0346B8B1FEE705
:10549000294A04250093F0209169264B41F44041AC
:1054A0009161926902F440420092DA6A42F001028C
:1054B000DA62DB6A03F001030093009BA9E7202274
:1054C0004FF4805125934FF440152B9280222D9359
:1054D0001EA83093269135914FF480712492349216
:1054E0000C223394439140F2271120921022CDF8E0
:1054F00084802A971F96CDE92E34CDE93B334FF4B3
:105500008033CDE922463193002446930623CDE92A
:105510003E4527934FF48063094C2C931E94CDE9AC
:10552000281205F0D9F800B1FEE703F087FE4EB06F
:10553000BDE8F081000400580048025800440258B9
:105540000F130F0370B584B0012400F08FFF4FF4E8
:1055500080764FF04052194B68460025ADF8004068
:105560000396CDE9012300F09FFF19224FF040433D
:1055700068468DF8082001938DF80F40ADF80D6056
:105580008DF801408DF80A5000F08EFF02230B22A7
:1055900068468DF80F508DF801304FF062538DF84A
:1055A00008200193ADF80D408DF80A4000F07CFF13
:1055B000042000F069FF04B070BD00BF0E000103BD
:1055C00030B50D46044685B0D1E9000184E80300FA
:1055D00000F06AFEAB79A3B3FFF770FDFDF7F8FDAD
:1055E0000AF048FEFFF76AF92B798BBB6B799BB108
:1055F000BFF34F8FBFF36F8F2A4B0022C3F85022A7
:10560000BFF34F8FBFF36F8F5A6942F400325A6174
:10561000BFF34F8FBFF36F8F4FF0FF320023002493
:1056200000256946204802928DF80C30CDE90045EE
:105630000BF040FA1C480BF0A5FA0AF04BFA05B043
:1056400030BD2046FFF7B4FE2046FFF77BFFC3E7DF
:10565000144C0023C4F88430BFF34F8FD4F880106B
:1056600043F6E07EC1F34E3CC1F3C9014FEA4C1C46
:105670000CEA0E000B4640EA8372013BC4F860223C
:105680005A1CF8D1ACF1200C1CF1200FF0D1BFF363
:105690004F8F636943F480336361BFF34F8FBFF370
:1056A0006F8FA3E700ED00E040FF012404F0E8BEA7
:1056B0001C4B9B6803F17842B2F5003F25D3B3F54C
:1056C000803F20D303F16042B2F5003F1FD303F1C6
:1056D0005C42B2F5002F1CD303F17042B2F5902F5B
:1056E00019D303F14842B2F5803F16D303F180424B
:1056F000B2F1806F13D303F1E043B3F5000F2CBF79
:1057000008200720704701207047002070470220C2
:10571000704703207047042070470520704706201B
:10572000704700BF00ED00E003480023034A04492E
:1057300003600CF089BA00BF40FF01240000002480
:105740001552000810B4204C0022204B83B0D4F82E
:1057500088101F4841F47001C4F8881019681D4C66
:1057600041F0010119601A61196808401A4918606E
:105770009A61DA611A629A62DA621A635A639A6308
:10578000DA631A645A64186820F4802018601A6674
:10579000D3F8DC2042F06042C3F8DC20D3F8DC30E0
:1057A0000193019B23681940B1F1005F03D20B4BB9
:1057B0000122C3F80821044B4FF000629A6003B045
:1057C0005DF8044B704700BF00ED00E00044025854
:1057D0007FEDF6EA0010005C0000FFFF0080005142
:1057E000704700BF0020704770B50446074E0D4655
:1057F0003046214609F084FC304609F0A3FC044BF6
:10580000204629461B689847002070BD04E2012409
:10581000441F022470B50446074E0D46304621460B
:1058200009F06EFC304609F08DFC044B20462946F9
:105830001B689847002070BDA0E40124481F022483
:1058400000220949094808B509F050FC08490748F1
:1058500009F056FC074B1A680AB1002008BD064A39
:1058600000201A6008BD00BF440F022404E2012496
:1058700044FF0124441F0224E15700080022094983
:10588000094808B509F032FC0849074809F038FC16
:10589000074B1A680AB1002008BD064A00201A60AA
:1058A00008BD00BF44170224A0E4012444070224D9
:1058B000481F0224E157000820280AD0212806D1D9
:1058C000094B18689A889B7908608A808B71002040
:1058D0007047054B0868B1F804C08A791860002049
:1058E000A3F804C09A7170476402002420280AD0EB
:1058F000212806D1094B18689A889B7908608A800C
:105900008B7100207047054B0868B1F804C08A7994
:1059100018600020A3F804C09A7170476C0200243C
:105920000020704710B5094CD4F89032D3F81432E7
:105930000BB1012010BD0A460146204609F0D6FBF6
:105940002046BDE8104009F0E3BB00BF04E201249B
:105950004B4A036830B593428BB04FF00004CDE959
:105960000444CDE90644089404D0464A934249D001
:105970000BB030BD444D4FF4C0524448D5F8E03030
:1059800043F00103C5F8E030D5F8E03003F001033F
:1059900000930223009904A9CDE904230A23089364
:1059A00001F06AFD4FF40072002304A93748069401
:1059B000CDE9042301F060FDD5F8D8302246214618
:1059C00043F000636220C5F8D830D5F8D83003F032
:1059D00000630193019B00F0D3FC622000F00EFDF8
:1059E00022462146632000F0CBFC632000F006FD38
:1059F00022462146652000F0C3FC652000F0FEFC35
:105A00000BB030BD204D4FF4404204A9D5F8E03032
:105A100043F00203C5F8E030D5F8E03003F00203AC
:105A20000293022302981A48CDE904230C23089319
:105A300001F022FDD5F8D830224621464A2043F015
:105A40000073C5F8D830D5F8D83003F0007303934D
:105A5000039B00F095FC4A2000F0D0FC2246214632
:105A60004B2000F08DFC4B2000F0C8FC2246214664
:105A70004D2000F085FC4D2000F0C0FC0BB030BD87
:105A80000000084000000440004402580000025892
:105A90000004025800F57171D0F8040409F0BEBB8F
:105AA000C1EBC10300EB8303D0F80404D3F8082250
:105AB00009F0E2BBC1EBC10300EB8303D0F804049F
:105AC0009A6C09F017BC00BFD0F8040409F0B6BC0A
:105AD000C16810B5044619B1022900D0FEE70121C2
