:020000040800F2
:1000000000000220010A0008FD0900083966000806
:10001000FD090008FD090008FD09000800000000B6
:10002000000000000000000000000000FD090008C2
:10003000FD09000800000000FD090008BD6500087A
:10004000FD090008FD090008FD090008FD09000878
:10005000FD090008FD090008FD090008FD09000868
:10006000FD090008FD090008FD09000851500008BD
:100070005D500008B13D0008695000087550000847
:10008000D15E00087D450008FD090008FD09000853
:10009000FD090008FD090008FD090008FD09000828
:1000A000FD090008FD090008FD090008FD09000818
:1000B000E9290108F5290108012A0108B1450008CC
:1000C000FD090008BD450008FD0900085922010886
:1000D00065220108055D0008315D0008655D0008C6
:1000E000FD090008FD09000800000000FD090008E6
:1000F000FD090008FD090008FD090008FD090008C8
:10010000FD090008FD0900080D2A010871220108F7
:10011000995D0008CD5D0008FD090008FD09000893
:10012000FD090008FD09000895220108C9220108FF
:10013000055F0008FD090008FD090008FD09000829
:1001400000000000000000000000000000000000AF
:10015000FD090008FD090008FD090008015E00080E
:10016000C9450008FD090008CD650008F1650008D3
:10017000FD09000815660008FD090008FD090008D2
:10018000FD090008FD090008355E0008695E0008E9
:100190007D22010889220108FD090008FD090008E7
:1001A000FD090008FD090008FD090008FD09000817
:1001B000714D0008FD090008FD090008FD0900084F
:1001C000FD090008FD0900086538000871380008BD
:1001D000FD0900087D380008FD090008FD09000838
:1001E000FD090008FD090008FD090008FD090008D7
:1001F000FD090008FD090008FD090008FD090008C7
:10020000FD090008FD090008FD090008FD090008B6
:10021000FD090008FD090008FD090008FD090008A6
:10022000FD090008FD090008FD09000800000000A4
:10023000FD090008FD09000800000000FD09000894
:10024000FD090008FD090008FD090008FD09000876
:10025000FD090008FD090008FD090008FD09000866
:10026000FD090008FD090008FD090008FD09000856
:10027000FD090008FD0900089D5E0008000000005F
:10028000FD090008FD090008FD0900080000000044
:0802900000000000FD09000858
:1002A00010B5054C237833B9044B13B10448AFF3B0
:1002B00000800123237010BD080600240000000008
:1002C0006866010808B5034B1BB103490348AFF347
:1002D000008008BD000000000C06002468660108CC
:1002E00001F0FF01102A2BDB10F0070F08D010F8E7
:1002F000013B013A8B422DD010F0070F42B3F6D1EB
:10030000F0B441EA012141EA014122F007047FF003
:1003100000070023F0E80256083C85EA010586EA5A
:10032000010685FA47F5A3FA87F586FA47F6A5FA96
:1003300087F68EB9EED1F0BC01F0FF0102F00702A2
:1003400032B110F8013B013A83EA010313B1F8D14D
:100350000020704701387047002D06BF354603382E
:10036000073815F0010F07D1013015F4807F02BF67
:10037000013015F4C03F0130F0BC0138704700BFB8
:1003800081F0004102E000BF83F0004330B54FEA46
:1003900041044FEA430594EA050F08BF90EA020FB3
:1003A0001FBF54EA000C55EA020C7FEA645C7FEA46
:1003B000655C00F0E2804FEA5454D4EB5555B8BF69
:1003C0006D420CDD2C4480EA020281EA030382EADA
:1003D000000083EA010180EA020281EA0303362D6C
:1003E00088BF30BD11F0004F4FEA01314FF4801C3F
:1003F0004CEA113102D0404261EB410113F0004F51
:100400004FEA03334CEA133302D0524263EB430307
:1004100094EA050F00F0A780A4F10104D5F1200EA5
:100420000DDB02FA0EFC22FA05F2801841F1000100
:1004300003FA0EF2801843FA05F359410EE0A5F1D4
:1004400020050EF1200E012A03FA0EFC28BF4CF005
:10045000020C43FA05F3C01851EBE37101F00045BB
:1004600007D54FF0000EDCF1000C7EEB00006EEBC8
:100470000101B1F5801F1BD3B1F5001F0CD3490852
:100480005FEA30004FEA3C0C04F101044FEA4452A9
:1004900012F5800F80F09A80BCF1004F08BF5FEA30
:1004A000500C50F1000041EB045141EA050130BD10
:1004B0005FEA4C0C404141EB0101013C28BFB1F522
:1004C000801FE9D291F0000F04BF01460020B1FA6D
:1004D00081F308BF2033A3F10B03B3F120020CDA40
:1004E0000C3208DD02F1140CC2F10C0201FA0CF01E
:1004F00021FA02F10CE002F11402D8BFC2F1200C83
:1005000001FA02F120FA0CFCDCBF41EA0C01904038
:10051000E41AA2BF01EB0451294330BD6FEA040481
:100520001F3C1CDA0C340EDC04F11404C4F120026C
:1005300020FA04F001FA02F340EA030021FA04F37E
:1005400045EA030130BDC4F10C04C4F1200220FAD5
:1005500002F001FA04F340EA0300294630BD21FA13
:1005600004F0294630BD94F0000F83F4801306BFD9
:1005700081F480110134013D4EE77FEA645C18BFCD
:100580007FEA655C29D094EA050F08BF90EA020F64
:1005900005D054EA000C04BF1946104630BD91EA5C
:1005A000030F1EBF0021002030BD5FEA545C05D15F
:1005B0004000494128BF41F0004130BD14F580049E
:1005C0003CBF01F5801130BD01F0004545F0FE4112
:1005D00041F470014FF0000030BD7FEA645C1ABF47
:1005E000194610467FEA655C1CBF0B46024650EA7E
:1005F000013406BF52EA033591EA030F41F40021AA
:1006000030BD00BF90F0000F04BF0021704730B52F
:100610004FF4806404F132044FF000054FF0000104
:1006200050E700BF90F0000F04BF0021704730B5C5
:100630004FF4806404F1320410F0004548BF40429A
:100640004FF000013EE700BF42004FEAE2014FEAEF
:1006500031014FEA02701FBF12F07F4393F07F4FCA
:1006600081F06051704732F07F4208BF704793F0CD
:100670007F4F04BF41F40021704730B54FF46074E0
:1006800001F0004521F000411CE700BF50EA0102E3
:1006900008BF704730B54FF000050AE050EA01028C
:1006A00008BF704730B511F0004502D5404261EBFC
:1006B00041014FF4806404F132045FEA915C3FF43D
:1006C000D8AE4FF003025FEADC0C18BF03325FEADA
:1006D000DC0C18BF033202EBDC02C2F1200300FA8B
:1006E00003FC20FA02F001FA03FE40EA0E0021FAB0
:1006F00002F11444BDE600BF53B94AB9002908BF4E
:1007000000281CBF4FF0FF314FF0FF3000F074B9EC
:10071000ADF1080C6DE904CE00F006F8DDF804E058
:10072000DDE9022304B070472DE9F047089D044637
:100730008E46002B4DD18A42944669D9B2FA82F294
:1007400052B101FA02F3C2F1200120FA01F10CFAD0
:1007500002FC41EA030E94404FEA1C48210CBEFB08
:10076000F8F61FFA8CF708FB16E341EA034306FB91
:1007700007F199420AD91CEB030306F1FF3080F020
:100780001F81994240F21C81023E63445B1AA4B26D
:10079000B3FBF8F008FB103344EA034400FB07F70F
:1007A000A7420AD91CEB040400F1FF3380F00A8150
:1007B000A74240F207816444023840EA0640E41B45
:1007C00000261DB1D4400023C5E900433146BDE8F1
:1007D000F0878B4209D9002D00F0EF800026C5E993
:1007E000000130463146BDE8F087B3FA83F6002EAB
:1007F0004AD18B4202D3824200F2F980841A61EB23
:10080000030301209E46002DE0D0C5E9004EDDE740
:1008100002B9FFDEB2FA82F2002A40F09280A1EB28
:100820000C014FEA1C471FFA8CFE0126200CB1FB7D
:10083000F7F307FB131140EA01410EFB03F0884276
:1008400008D91CEB010103F1FF3802D2884200F203
:10085000CB804346091AA4B2B1FBF7F007FB101195
:1008600044EA01440EFB00FEA64508D91CEB040433
:1008700000F1FF3102D2A64500F2BB800846A4EB8E
:100880000E0440EA03409CE7C6F12007B34022FA79
:1008900007FC4CEA030C20FA07F401FA06F31C43A8
:1008A000F9404FEA1C4900FA06F3B1FBF9F8200CB5
:1008B0001FFA8CFE09FB181140EA014108FB0EF0FB
:1008C000884202FA06F20BD91CEB010108F1FF3A4B
:1008D00080F08880884240F28580A8F10208614457
:1008E000091AA4B2B1FBF9F009FB101144EA014165
:1008F00000FB0EFE8E4508D91CEB010100F1FF3410
:100900006CD28E456AD90238614440EA0840A0FBA7
:100910000294A1EB0E01A142C846A64656D353D07D
:100920005DB1B3EB080261EB0E0101FA07F722FAA1
:1009300006F3F1401F43C5E9007100263146BDE8CA
:10094000F087C2F12003D8400CFA02FC21FA03F32D
:10095000914001434FEA1C471FFA8CFEB3FBF7F0AE
:1009600007FB10360B0C43EA064300FB0EF69E42D3
:1009700004FA02F408D91CEB030300F1FF382FD26C
:100980009E422DD9023863449B1B89B2B3FBF7F614
:1009900007FB163341EA034106FB0EF38B4208D9ED
:1009A0001CEB010106F1FF3816D28B4214D9023E2E
:1009B0006144C91A46EA004638E72E46284605E74C
:1009C0000646E3E61846F8E64B45A9D2B9EB02081D
:1009D00064EB0C0E0138A3E74646EAE7204694E7AD
:1009E0004046D1E7D0467BE7023B614432E73046E0
:1009F00009E76444023842E7704700BFFEE700BFE2
:100A00000B480C4A904203D0121A0B4913F052FEC5
:100A10000A480B4A904203D0121A002113F058FEE4
:100A200006F062F813F01AFE00F0EAF9FEE700BFE4
:100A300000000024080600249C6601080806002423
:100A40004C3D0224704700BF704700BF704700BF95
:100A5000704700BF704700BF704700BF704700BFBE
:100A6000002A50D02DE9F04F894692464FF00008F9
:100A7000274E284F2DED028B89B02749684601F09B
:100A8000B7F8EC46254C96ED008A254DDFF898B076
:100A9000BCE80F000FC49CE80F0084E80F00103C76
:100AA000F4EC018A584615F8011F0BF1300B13F0D6
:100AB0009BF928EE800AB7EEC87ABC429FED126B14
:100AC000B7EEC00AA0EE067BB7EEC78B86ED008AB4
:100AD000E6D1144B002193ED007AD9E9003228EEDB
:100AE000077A02EB880203EB880308F1010882ED24
:100AF000007AC24583ED007A3160BED109B0BDEC09
:100B0000028BBDE8F08F70479A9999999999C93FDE
:100B10005CE20024B8E20024B8E3002498E2002458
:100B20005FE20024B4E30024640600241BB91369C7
:100B30000BB1D26818477047B9B30144F0B51546F8
:100B4000A5B002F12407441E4E1E01E0A6422AD0A1
:100B500014F8011F6A46384602F0ECFC0028F5D074
:100B6000D5F8C4C090226946D5E93203C31A00F112
:100B7000010E00EBC00048BF63440CF1FF3C9C45F4
:100B8000E4D0D5F8C030C5F8C8E003EB001013F08E
:100B900091FDD5E931239342A3EB020328BFC5F8A9
:100BA000C830A642D4D125B0F0BD704702780B46BC
:100BB00010B4092A42D8DFE802F00E131B252B2DB2
:100BC00037393F05204A03CA1288186059601A81D4
:100BD0005DF8044B70471D4A03CA18605960F7E777
:100BE0001B4A106891889279186099809A71EFE792
:100BF000184C07CC2478186059609A601C735DF813
:100C0000044B7047144A1188927819809A70DFE774
:100C1000124CEEE7124C07CC2488186059609A6099
:100C20009C815DF8044B70470E4ACCE70E4C07CC14
:100C3000186059609A60CBE70C4CECE70C4A03CA89
:100C400018605960C4E700BF8C5B0108205B010895
:100C5000285B0108305B0108405B0108445B010828
:100C6000545B0108645B0108705B01087C5B010850
:100C7000985B01082E49AA222E4B2F4810B50978FF
:100C800082B000781A704A1E59709870032A4CD8A6
:100C9000DFE802F02D1C0E02FF210422D970002390
:100CA00024492648CDE9003305F04CFA02B010BDC6
:100CB000234C244A2448254912782478007809785E
:100CC0001A710722DC7058719971E8E72049214AAE
:100CD00009781278D97022BB1F4C2048204924780B
:100CE0000722007809781C7158719971D7E71D485F
:100CF0001D4900781D4A1E4CD87002F1080E02F101
:100D0000100C03C982E8030094E80300194C1D226B
:100D10008EE80300184903C98CE80300217819778D
:100D2000BDE7164C16481749D9E70322B7E700BFBD
:100D3000C450002400000030BE500024B0E3002462
:100D4000C5500024CC500024F9500024F850002451
:100D5000B6500024B5500024B7500024B8500024E9
:100D6000B950002450E30024E407002404000030BC
:100D700048E3002440E3002438E30024BA50002470
:100D8000BB500024BC500024124A002312481349CF
:100D900010B41278124C032A037023700B600BD02E
:100DA00010481149114A03600B601360104B002278
:100DB0005DF8044B1A7070470E490F4B0C780F4AC0
:100DC00019780848084B046012781960074B1A60BC
:100DD000ECE700BFC450002450E30024C8500024B6
:100DE000BE5000246CE2002484E3002458E3002475
:100DF000B5500024B7500024B8500024B950002446
:100E00002DE9F04F2DED028BADF5803D00213448EA
:100E100042F23816CFB044F2381501F0EBF8402119
:100E20002F484EAF01F00EF8002002F039FB2C489D
:100E300001F004F89FED2B7AF0EE408A6E44B0EE9C
:100E4000478A6D4400242AE0F1EE006A67EEA66A44
:100E5000F6EE005A0134B7EE007AE6EC016ABFEE16
:100E6000006AF4EEE57AF1EE10FA54BFF0EE467A3D
:100E7000F0EE477AB4F5006FE5EC017A38D007EE72
:100E8000904A9FED190AB8EEE78ADFED187A68EE0E
:100E9000277A27EE800A13F06FFAB0EE407ADFED82
:100EA000137AF5EE006AA7EC017A68EE277AF4EE81
:100EB000E67AF1EE10FAC7D4B6EE087AF4EEC77A05
:100EC000B1EE007AF1EE10FA04D5F0EE006AE7EE2A
:100ED000C76ABDE7F9EE006AE7EE876AB8E700BFC8
:100EE0002406002400000000DB0FC9400000003A87
:100EF0000024B0EE680A04224EA9CF4800F054FE48
:100F0000214601349FEDCD0ACB4800F0FBFE082CB2
:100F1000F6D10027CA4B0124022523A9C948CDE9EF
:100F200023374FF4E133CDE927542993CDE9254701
:100F300005F09EF817A802F0E9FA47F612234EAA28
:100F40002E95309317ABC04DA2F1BC062C942F9474
:100F50001BAC2D970FCB86E80F0084E80F0085E8C7
:100F60000F002B9010461A46BDF88030ADF8AA301D
:100F7000BDF88230C5E90502ADF8A83012B1394696
:100F800013F0A6FBB14E2AA9B048022405F070F870
:100F900006F1140002F086FBAD4B304614212B62A3
:100FA0004FF0030AED61012705F0DAFAA94B00962C
:100FB000304600264FF007094FF00608D5E9051224
:100FC00005F0F6F822468DF814402AA88DF8156031
:100FD00005AB196802F058FC22468DF818600DF137
:100FE000BA008DF819A006AB196802F04DFC224634
:100FF0008DF81C7033A88DF81D7007AB196802F0CE
:1010000043FC22468DF820600DF1DE008DF8219022
:1010100008AB196802F038FC22468DF824603CA821
:101020008DF8258009AB196802F02EFC22468DF858
:1010300028400DF581708DF829700AAB196802F00F
:1010400023FC42462AA90423834802F031FC82484B
:1010500002F03CFE304600F0D3FE0BAE03463846AD
:10106000338000F0CDFE034620460CAC238000F018
:10107000C7FE0DAB226831680EAC9FED700A188078
:1010800076481B6802F016F9504600F0B9FE208041
:10109000042000F0B5FEADF83C00052000F0B0FEE5
:1010A0009FED660AADF840006D482168DDE90F2329
:1010B00002F000F9404600F0A3FEADF844004846B7
:1010C00000F09EFEADF84800082000F099FE9FED6C
:1010D0005B0A1199ADF84C006248DDE9122302F079
:1010E000E9F8092000F08CFEADF850000A2000F06D
:1010F00087FEADF854000B2000F082FE9FED4F0AF2
:101100001499ADF858005848DDE9152302F0D2F8DB
:101110001D2000F075FEADF86C00B7EE000A1B99BB
:10112000524802F0C5FA1E2000F06AFEADF87C00BD
:10113000B7EE000A1F994E4802F0BAFA4D4B03F57C
:10114000C0761C4601212046B0EE680A12F02EFD42
:10115000F6EE080A20469FED480A12F09FFD204651
:10116000B6EE000A12F0F0FD4FF07A53204630340C
:1011700044F8303C9FED400A12F00EFEA642E1D149
:10118000FFF778FD3D493E4800F054FE45212A48CE
:1011900000F0C0FD01233B4A0021DFF8F08013542A
:1011A00000EB4000334BDFF8B4A003EB0010DFF896
:1011B000E0B012F06BFD012005F0B0FA05F0ACFADA
:1011C000C8F80000214805F07DF8002800F075817E
:1011D000D5E932341E1B00F18E80002E00F0918084
:1011E0009C4200F0448104EBC403D5F8C0909022E7
:1011F0004EA809EB031701341E01394613F05AFAC1
:10120000D5F8C43019F806609C423F7AC5F8CC4046
:1012100002D3E41AC5F8CC404EA99022A1F1900067
:1012200013F048FA002E00F0D183012E3ED13A4649
:1012300015494EA82EE000BFB8E3002400000000CE
:1012400001060107B0E30024FC5000240C510024E7
:10125000390B00082D0B00083C060024D050002458
:1012600070E2002488E300245CE30024A4500024FE
:10127000F0070024640600249A99193E610A0008C8
:101280002406002460E20024A05B010868E2002438
:10129000C050002413F018FB4EA802F0F3F83946B2
:1012A000954800F037FD082840F3FA80934CD4E9C4
:1012B00002236168D31A48BF5B180139994287D06D
:1012C000236802EBC20001322AA903EB00108DF85B
:1012D000A860A26090228DF8B07013F0EBF9D4E909
:1012E00001239342FFF474AF9B1AA360D5E9323413
:1012F0001E1B7FF572AFD5F8C4201644002E7FF474
:101300006FAF7F4802F006F87E4802F003F87E488F
:1013100002F000F87D4801F0FDFF7D4802F0E2F99F
:101320007C4802F0DFF99AF80430002B00F0C3800B
:10133000BAF92400734B197909B1B3F92410724B2F
:101340001A790AB1B3F92420704C23790BB1B4F99E
:10135000243018B1704F3C682044386019B16F4890
:101360000468214401601AB16D49086802440A60AA
:101370001BB16C4A11680B441360D8F80020DBF8ED
:101380000030D31A052B7FF616AF00216648CBF844
:10139000002002F0B1FC654B0121634883ED000A97
:1013A00002F0AAFCF2EE007A614B02215E48614C29
:1013B00020EE270A83ED000A02F09EFCF1EE0C7A83
:1013C0005D4B0321584820EE270A83ED000A02F006
:1013D00093FCF0EE047A594B0421534820EE270A7F
:1013E00083ED000A02F088FC554B05214E4883ED41
:1013F000000A02F081FCF7EE0C7A524B20EE270A2D
:1014000083ED000A13E0B7EE007AF4EE477AF1EECE
:1014100010FA77FE277A4B4B01362046C4ED007A4E
:1014200093ED000A303412F0B7FC082E58D0404B30
:101430003146314893ED000A00F064FC3E4BF6EE75
:10144000080A204693ED000A12F028FC3B4B204688
:1014500093ED000A12F078FC394BD3ED007AF5EEEB
:10146000C07AF1EE10FACED8DFED377AD3E79022CA
:1014700000212AA813F02CF90022174633494EA860
:1014800013F022FA4EA801F0FDFF39461A4800F089
:1014900083FC082802DC00232D4A1354002605E7AC
:1014A0002B4B00211E5400EB4000224B03EB00109D
:1014B00012F0ECFBFAE630463CE7264802F0F2F880
:1014C000254B142125482B62ED6105F049F8234B8B
:1014D00022480093224BD5E9051204F069FE77E615
:1014E000204B1B78052B42D8DFE813F06A017E0100
:1014F0003A01D300A7003E00B8E30024040800240A
:10150000D050002470E2002488E300245CE300242F
:10151000A4500024F0070024C85000246CE20024EA
:1015200084E3002458E300243C060024B4E30024B0
:1015300030E4012464060024EC07002400080024A1
:1015400054E3002444E300240AD723BCB05B010821
:1015500060E2002420510024390B00080C510024C3
:101560002D0B0008C45000240123AE4A1370FFF76E
:1015700081FBAD4BAD49D3ED005AAD4BAD4E93ED74
:10158000005AAD4BAD4893ED006AAD4BBDEEC66A57
:10159000D3ED007AAB4BFDEEE77A93ED007AAA4BE0
:1015A000BDEEC77AD3ED006ACDED017AFDEEC57AC6
:1015B000FDEEE66A8DED006A8DED027A17EE903A47
:1015C000FDEEE57ACDED036A17EE902A13F07CF973
:1015D0009A4801F057FFD6E90234A3423FF4EBAD3D
:1015E000336804EBC40190224EA803EB01110134CF
:1015F00013F060F87368F4609C4201D3E41AF4605D
:101600004EA99022A1F1900013F054F823A92AA822
:10161000FFF7CCFA9DF8B1308C494EA802939DF8A3
:10162000B03001932B9B009323ABD8F8002013F02C
:101630004BF94EA801F026FFBDE5854B1A791AB18A
:101640009B7A7F2B00F0B5817B4B824C93ED007A27
:101650007B4BBCEEC77AD3ED007A7A4BFCEEE77A8F
:1016600017EE100A93ED006A774B17EE901AFCEE16
:10167000C67AD3ED006A2070774817EE902AFCEE08
:10168000E67A0170754917EE903A0A70744A137041
:101690006DE7744C2178002900F04C81724F734E35
:1016A0003B6873485A4203F0030302F0030258BF39
:1016B00053423B603A683378D2B2027003EB830046
:1016C0006C4F02EB400262483A7002793AB1827A7A
:1016D0007F2A04D1002900F0728100222270664A1C
:1016E000117921B1927A7F2A01D101222270634CB3
:1016F00022789A4200F05781002B00F04E81604A18
:1017000060481178604A127806786048237001605A
:101710005F490A605F4A166000680968002B00F0A4
:101720001B811368C7175C4ACE1782FB00C4C7EB46
:10173000641782FB01C4C6EB641682FB0342DC170C
:10174000C4EB6212642404FB12334D4A04FB1700FD
:1017500004FB161110704C4A11704A4A137006E7C8
:101760004E4B1B789A1E012A40F215811A1F012A3E
:1017700040F21D81063B012B00F22A8109223A4EDC
:1017800033493368464C93FBF2F002FB10330A797D
:1017900033603368DBB223701AB18A7A7F2A00F093
:1017A0008380002B40F08980384803685A4203F058
:1017B000070302F0070258BF5342384A1370D6E6B7
:1017C0004FF4FA71374800F031FB354A1378013392
:1017D000DBB2032B13707FF6CAAE124A13780133C3
:1017E0001370FFF7D1FAC2E61F4C234923682C4837
:1017F0005A4203F0030302F0030258BF53420A792E
:1018000023602368DBB20370002A3FF4B0AE8A7A0B
:101810007F2A7FF4ACAE032B7DD8DFE803F083870B
:101820007F7900BFC4500024B4E30024C05B0108EA
:1018300030E4012404080024EC070024B8E200246A
:101840000008002454E3002444E30024F05B010872
:10185000F0070024C5500024CC500024F950002487
:10186000F850002450E30024C8500024B550002450
:10187000B4500024B6500024A4500024BD500024CD
:10188000BA500024BC500024BB5000246CE2002459
:1018900084E3002458E300241F85EB5140E3002437
:1018A000BE5000242406002401234B4A1370FFF786
:1018B0006BFA2378002B3FF477AF4848013B484A46
:1018C00000684849484F0C68116887FB0027474A61
:1018D00082FB0462464EA2EBE47202EB4202A41ABF
:1018E00086FB0126C2170E44C2EB6712642707FB72
:1018F0001202C817C0EB26264FF4B470013200FB69
:1019000016113C48C2543C4AD4543C4AD1542EE6A9
:101910000523314A1370FFF737FA28E604232E4ACD
:101920001370F8E702232C4A1370F4E703232A4AC2
:101930001370F0E7324A334E13681046002B03F061
:101940000103B8BF5B4213602F4B1A780368003B5A
:1019500018BF01233370B1E61368C717224ACE17A8
:1019600082FB00C4C7EB641782FB01C4C6EB64169C
:1019700082FB0342DC17C4EB6212642404FB1233C3
:10198000224A04FB170004FB16111070204A117044
:10199000204A1370EBE50322F1E61C4A1D4811783A
:1019A0001B4A1278B0E60D480E490D4AB4E60522EE
:1019B000E5E60123084A1370FFF7E6F944E6012340
:1019C000054A1370FFF7E0F9337888E63A4655E5A3
:1019D0000B4B1B68FFDE00BFC45000246CE20024E8
:1019E00058E3002484E300241F85EB5156555555D8
:1019F000B7600BB6E407002448E3002438E3002472
:101A0000C8500024B5500024B4500024B75000241E
:101A1000B8500024B950002438B541480024414A48
:101A20004149046044610462C46312F035FA3F4BDB
:101A30003C4A1C603E493F4812F02EFA394A3C4964
:101A40003D4812F029FA374A39493C4812F024FA45
:101A5000344A37493A483B4D12F01EFA314A3A4966
:101A60003A4812F019FA2F4A3749394812F014FA55
:101A7000284601F04BFD40F20F7305F1D001354AC5
:101A8000A5F8BC3040F201132C612846C5F8B820F7
:101A9000244AC5E93013C5E932442F49812512F0A3
:101AA000FBF92E481F4A00F110032D49C0E900350B
:101AB000C0E9024412F0F0F92A4800F061F8194A2E
:101AC0002949284812F0E8F9284B03F5C07430334F
:101AD000002227490020A34243F8302C43F82C2C45
:101AE00043F8281C43F8242C43F8201C43F81C1C02
:101AF00043F8181C43F8142C43F8102C43F80C2C12
:101B000003F8040C03F8030CE1D1064A194912F05A
:101B1000C3F904F001FE184A184B1060186038BD74
:101B200024060024000000244D0A0008B0E300242D
:101B3000490A0008D050002470E2002488E3002401
:101B40005CE30024FC500024450A0008A450002453
:101B5000F00700240080707F5D0A0008040800245C
:101B6000550A0008B8E30024510A0008640600245E
:101B7000000080BF590A000868E20024C050002419
:101B800010B50446064820220021204412F0A0FD92
:101B900004F580320021034B20465160236010BDC4
:101BA0002800010000442C4738B50446154604308F
:101BB0004FF480322DED028BB0EE408A12F07AFDA8
:101BC000094820220021204412F082FD074A04F532
:101BD00080314FF0FF334D60A11884ED008AA3508F
:101BE0004B60BDEC028B38BD28000100680001008D
:101BF00091ED005A01F5803301F1040CB7EEC55A9E
:101C00002DE9F0433C4C86463C4D0C445E680D4447
:101C1000B4EC014A0023DFED3A3AB7EEC44A94ED42
:101C20000F7A9FED336BFDEEC77A24EE064B17EE6D
:101C3000902AD4ED077A511CC9B284EE056B04EEEC
:101C4000902AB142B8BF4B03D1B2F8EEE44A6344E4
:101C5000B7EE004A0CEB413137EE647A74EE474A36
:101C6000B7EEC66BFDEEE76A36EE276A16EE907A9F
:101C700016EE902AF8EEE66A92B2B4EEE36A1FFA24
:101C800087F803EB820977EEE67A01EB820708F129
:101C90000102A8F2FF78D9ED006A92B2D7ED002ACE
:101CA00067EE266AB2F5006F34EE674A28BF1FFA66
:101CB00088F2E4EEA26AF1EE10FA03EB820301EB84
:101CC000820293ED002AA8BF36EE636A92ED003AD5
:101CD000A54227EE027A84ED076AA4EE837A67EEC6
:101CE000877AE4EE267AEEEC017A91D1BDE8F083B2
:101CF000000000000000A0400800010028000100D2
:101D00000000004500F5803000EB810080ED120AF4
:101D1000704700BF1D4B00220344F0B59C46164699
:101D200000F580351CF801EBAC191746BEF1FF0F2A
:101D30000BD09CF807E094F87040A64588BFD6B257
:101D40000132082AEED132463746114C00EB8706A5
:101D500004EB810406F58036D4F800C00D4C044431
:101D6000E81980F86810C6F808C013F8011BFF29AD
:101D700002D0D9790131D971A342F6D13D44012174
:101D80000023104685F87010B362F0BD68000100B2
:101D90002C5C010870000100164A0023024412F86E
:101DA00001CB8C4505D00133082BF8D10923184607
:101DB000704700F5803C104910B50CEB0302FF247E
:101DC000014482F868400D4C04440CEB030211F806
:101DD000010B92F8702000F1FF3E824238BF01F8FB
:101DE00001EC8C42F1D19C44002218468CF8702002
:101DF00010BD00BF68000100700001007800010004
:101E0000202882B009D8084B03EB400213F81030A9
:101E1000507843EA002002B0704701230C2043EAC7
:101E2000002002B0704700BF2C5E0108084604F095
:101E300075BC00BF143001F009BA00BF143001F0C6
:101E400001BA00BF38B500F1140504462DED028B30
:101E5000284601F0E9F9284601F0F4F92846B0EEE9
:101E6000408A01F0DDF9D0ED007AF8EE677A88EE6D
:101E7000277ABDEC028B84ED0E7A38BD10B540F2A6
:101E800003338EB000244FF60B7240F20341ADF8DD
:101E9000083009A80123ADF81020ADF8242022460F
:101EA000ADF80C100094029907940C94CDE9054408
:101EB000CDE90A4402F028F804A801232246039938
:101EC000009402F021F809A802F004F910B90120E9
:101ED0000EB010BD04A802F0FDF8A0420CBF022015
:101EE00020460EB010BD00BF2DE9F04103239AB08B
:101EF000012700240646CDE914373B4BCDE91043BA
:101F000040F20453CDE91647ADF84830FFF7B6FF6D
:101F1000B842054625D0022845D040F60132334B61
:101F20000DF12C081894ADF82C200B981997CDF8CA
:101F30004A3000F0E3F810A906F13C0003F014F970
:101F4000302003224FF07E5341460D930E93CDE98E
:101F50000B02F26B06F1140001F02AF91AB0BDE889
:101F6000F0811023214A06A906908DF828300DF142
:101F70002C081F4BCDF84A2007930294CDE9180492
:101F8000CDE9080402A802F025FB0823029A03A960
:101F90004046ADF80C508DF80E40049505930B9417
:101FA00000F0ECF8C7E700200121104B0DF12C08E0
:101FB0003A460094CDF84A304FF60B730C94ADF8C6
:101FC0002C302346CDE9180140F601314046ADF8EA
:101FD00018100699CDE90D4401F096FF21464046C0
:101FE00002F084F8A7E700BF040204040406040317
:101FF0000704010B2DE9F04704462DED028B82B05A
:1020000000294DD0012140F2011200230091ADF8CA
:1020100004208DF80630364A0127364B04F10409B6
:10202000354904F12908626040F20272A36040F66B
:102030000663E16004F1250AA4F82520A4F82930FC
:10204000278284F8277084F82B7004F003FD05467E
:1020500004F066FB6946064650BB4DB304F1300000
:102060008DF8067004F07EFC072D3CD104F11405B8
:102070002046FFF739FF284601F0E4F82846B0EE85
:10208000408A01F0CDF8D0ED007AF8EE677A88EE5C
:10209000277A84ED0E7A02B0BDEC028BBDE8F087A2
:1020A00040F2011300918DF80610ADF80430B2E74C
:1020B00004F1300004F056FC072D11D049462046AB
:1020C00002F0D2FC0EB9002DD0D1504602F018F823
:1020D000404602F015F804F1120000F079F9C5E766
:1020E000002EF2D1C2E74946204602F0BDFCBDE712
:1020F0000508050905070506050A060610B584B09A
:1021000003460124ADF8040003A8ADF80C30ADF887
:102110000E4001F0F5FF214603A802F0DBF820464F
:1021200004F0FCFA002103A802F0D4F8204604F0E1
:10213000F5FA214603A802F0CDF804B010BD00BFA7
:1021400010B5C2F3002384B00C46017C8DF80D203D
:1021500043EA4402FA2402238DF80C2003AA0094D7
:1021600002F0CEFA18B10124204604B010BD044696
:102170000A2004F0D3FA204604B010BD034670B51F
:1021800043F8042B044684B007C983E80700A37909
:1021900083B91A210B461E22FA2523742046ADF876
:1021A0000C20022303AA009502F0AAFA28B101200C
:1021B00004B070BD1B210B46EDE70A2004F0AEFA17
:1021C0004FF4B85200950223ADF80C20204603AA24
:1021D000217C02F095FA0028E9D10A2004F09EFA49
:1021E00041F2027200950223ADF80C20204603AAAA
:1021F000217C02F085FA0028D9D10A2004F08EFA59
:10220000042200950223ADF80C20204603AA217C6D
:1022100002F076FA0028CAD10A2004F07FFA0622DA
:1022200000950223ADF80C20204603AA217C02F081
:1022300067FA0028BBD10A2004F070FA41F20822A4
:1022400000950223ADF80C20204603AA217C02F061
:1022500057FA0028ABD10A20064604F05FFA009531
:10226000022303AA217C2046ADF80C6002F048FA54
:1022700000289CD1304604F051FA009522790C23B5
:102280002046002A8DF80C3003AA4FF0020314BF39
:10229000622142218DF80D10217C02F031FA0028D4
:1022A00085D1304604F03AFA2279D4E902310B4361
:1022B000DBB20AB943F0400362790AB143F020036C
:1022C0000E22FA258DF80D302046009502238DF858
:1022D0000C2003AA217C02F013FA00287FF467AFD8
:1022E0000A2004F01BFA102200950223ADF80C20FE
:1022F000204603AA217C02F003FA00287FF457AF9E
:102300000A2004F00BFA122100950223ADF80C10FC
:1023100003AA217C204602F0F3F900287FF447AF9E
:102320000A2004F0FBF9012209212046FFF708FFEB
:10233000003818BF01203BE7F0B5102387B0234CCD
:10234000012200250126002702A920460195CDE99A
:1023500002234FF48052CDE904670BF00BFE64209A
:1023600005F0B6F902A94FF480522046CDE9046782
:1023700002261027CDE902670BF0FCFD0322102393
:1023800002A92046CDE9022300230422CDE904233B
:102390004FF480520BF0EEFD40F23223042202A9EA
:1023A000019310232046CDE90223019A01230592CF
:1023B0004FF4805204930BF0DDFD40F606012046F9
:1023C0000BF0F8FD284607B0F0BD00BF3CE4012447
:1023D0001C4B00221C494FF0400C30B5054689B01B
:1023E0000220596007219A601A620124DA620A22E7
:1023F0004FF4006EDC6006922022CDE9000104203B
:102400000821CDE9020103201021CDE904010820B3
:102410006946C3E904024FF4C072181DC3E906C23D
:102420004FF48052C3E909E20BF07AFD38B928462F
:10243000FFF782FF003818BF012009B030BD2046E9
:1024400009B030BD38E4012440410052614A002106
:10245000D0B513688EB00A91002B40F0B9805E4B66
:1024600001214FF683700C2411600221D3F8D4208F
:102470000026032742F48052C3F8D420D3F8D42096
:1024800002F480520092009AD3F8E02042F0100249
:10249000C3F8E020D3F8E02002F010020192019A84
:1024A000D3F8E02042F04002C3F8E020D3F8E02067
:1024B00002F040020292029AD3F8E02042F00802B1
:1024C000C3F8E020D3F8E02002F008020392039A58
:1024D000D3F8E02042F48072C3F8E020D3F8E02083
:1024E00002F480720492049AD3F8E02042F0800251
:1024F000C3F8E020D3F8E02002F080020592059AAC
:10250000D3F8E02042F02002C3F8E020D3F8E02026
:1025100002F020020692069AD3F8E02042F004026C
:10252000C3F8E020D3F8E0300C9403F004030793E1
:102530000323079A0B93CDE9080108A9274806F061
:102540004DFF48F23712022308A925480C94CDE923
:102550000823CDE90A6706F041FF4CF2037202231B
:1025600008A920480C94CDE90823CDE90A6706F0B4
:1025700035FF40F2FF62022308A91B480C94CDE905
:102580000823CDE90A6706F029FF4FF60C720223F3
:1025900008A916480C94CDE90823CDE90A6706F08E
:1025A0001DFF4FF63F02022308A911480C94CDE904
:1025B0000823CDE90A6706F011FF2022022308A9AB
:1025C0000A480C94CDE90A67CDE9082306F006FF16
:1025D0000EB0D0BD34E4012400440258001002586B
:1025E00000180258000C025800200258001C025823
:1025F000001402582DE9F04FDFF8108406460D460E
:10260000144608F118002DED028B89B000AF02F0DE
:10261000A3FED8F8183073B3D8F81C30D8F804905B
:10262000002B43690BBF4FF0080A4FF0100A4FF020
:10263000020B4FF0040BB9F1000F2AD0A200EA46BA
:10264000012B02F1070222F00702ADEB020D6846F2
:10265000ADEB020D694600F03F81022B00F0D68001
:10266000002B6FD02246C847D5462437BD46BDEC67
:10267000028BBDE8F08FD8F81C30002BF5D0D8F8CD
:1026800004904FF0080A4FF0020B4369B9F1000FB4
:10269000D4D1FB61D8F80030BB61002BE5D0D54820
:1026A00002F0CCFE6B46BBF1020F786108EE103AE7
:1026B000FB6900F083816A465146A2EBC40295464D
:1026C0006200EA46B2FBFBF2AAEBC40085460AEBC5
:1026D0008200EE46F861ADEB010DF8690EEB820C5D
:1026E000C7F810C0EC46ADEB010D00EB8201CCF851
:1026F0000400CCF8081001EB82013869E946CCF8F7
:102700000C1000EB8201CCF800A001EB8202C9E9B9
:1027100000E0C9E90212012B00F06483022B00F0F3
:102720006C82002B00F08081620849466046BB69DC
:10273000984718EE103A24379D46BD46BDEC028BF3
:10274000BDE8F08F002C8DD01A46D8ED0C6A9FEDB5
:10275000B27A8446331D36F922E00CF1080C07EEFC
:1027600090EA33F922E00232F8EEE77A944267EE1B
:10277000877A67EEA67A4CED027A07EE90EAF8EED9
:10278000E77A67EE877A67EEA67A4CED017AE2D8AF
:10279000F9612246C847984ED8ED0D6A0020F969C4
:1027A0002B1D9FED9E7A9FED9E6ADFED9E5A22E0E3
:1027B000F4EEC67AF1EE10FAC0F2C88447F6FE7263
:1027C000D1ED017A45F8202066EEA77AF4EEC77ABB
:1027D000F1EE10FA40F2F080F4EEC67AF1EE10FA63
:1027E000C0F2D58447F6FE7243F82020023008314B
:1027F00084427FF639AFD1ED007A66EEA77AF4EE27
:10280000C77AF1EE10FAD3D83246D9E7002C3FF45C
:1028100029AFD8ED0C6A84469FED787A0022331DEB
:102820008E4656F822100CF1080C07EE901A53F859
:1028300022100232F8EEE77A944267EE877A67EE6A
:10284000A67A4CED027A07EE901AF8EEE77A67EE78
:10285000877A67EEA67A4CED017AE2D87146224675
:10286000C7F81CE0C847664ED8ED0D6A0020F9692C
:102870002B1D9FED6A7A9FED6A6ADFF894C120E014
:10288000F4EEC67AF1EE10FAC0F279843246D1ED58
:10289000017A45F8202066EEA77AF4EEC77AF1EEC9
:1028A00010FA40F28780F4EEC67AF1EE10FAC0F228
:1028B0005E84324643F820200230083184427FF69D
:1028C000D3AED1ED007A66EEA77AF4EEC77AF1EED8
:1028D00010FAD5D86246DAE7002C3FF4C3AED8ED43
:1028E0000C6A86469FED477A4FF0000C331D56F870
:1028F0002C200EF1080E82F40002A2F5000207EE71
:10290000902A53F82C200CF1020CF8EEE77A82F4AE
:1029100000026445A2F5000267EE877A67EEA67AA8
:102920004EED027A07EE902AF8EEE77A67EE877AA4
:1029300067EEA67A4EED017AD9D8F9612246C847EA
:10294000314ED8ED0D6A0020F9692B1D9FED337AC9
:102950009FED336ADFF8BCC01FE0F4EEC67AF1EEFB
:1029600010FAC0F2FC833246D1ED017A45F82020FE
:1029700066EEA77AF4EEC77AF1EE10FA18D9F4EE03
:10298000C67AF1EE10FAC0F2DA83324643F820201C
:102990000230083184427FF667AED1ED007A66EEF0
:1029A000A77AF4EEC77AF1EE10FAD6D86246DBE7E2
:1029B0006246EBE762467DE7324615E7A100D64660
:1029C0006208073121F00701ADEB010DEA46ADEBDE
:1029D000010D6946ADEB0E0D0AEB8200EC46ADEB46
:1029E0000E0D01EB8202F861E946CCE900A0C9E9CD
:1029F000001290E68CE401240280FFFF000000300A
:102A00000082FF7F0000003482FF7F0070E4012419
:102A1000007E00807E0080FF0000003804FF7FBF42
:102A200004FF7F3F00FEFF46002C00F0C982BBF18F
:102A3000020FD8F8242000F0FA827969C7F80490D0
:102A400002EB810E5FED0C5A8A00DCF808100EF1E3
:102A500004007A611A46DCF80C303B61331DD7F86C
:102A600010903D61FD69C7E902CB8C46834636F97B
:102A70002210D8ED0C7A06EE101A33F9221006EE69
:102A8000901A3EF92210B8EEC66A07EE101AF8EE58
:102A9000E66A3BF92210B8EEC77A26EE256A66EEA2
:102AA000A56A27EE257A26EE276A66EEA76A27EE44
:102AB000277A07EE901A51080232F8EEE77A0AEB0D
:102AC0008100944280ED006A05EB810067EEA57AF3
:102AD000C0ED006A0CEB810009EB810180ED007A0A
:102AE00098ED0C7A67EE877AC1ED007ABFD8D7F8F7
:102AF00004903D69D7E902CB60466208BB6949464C
:102B00009847D8F82C307A69D8ED0D6A1A441FED31
:102B10003D7A1FED3D6A2B1D904602F1040A5FEDE0
:102B20003F5A0022A84ED9E900EC51E0F4EEC67AF3
:102B3000F1EE10FAC0F2C78247F6FE7045F82200A7
:102B40000CEB0100D0ED007A66EEA77AF4EEC77ABE
:102B5000F1EE10FA4BD9F4EEC67AF1EE10FAC0F2AB
:102B6000BA8247F6FE70BBF1020F43F822002BD069
:102B7000D9F808000844D0ED007A66EEA77AF4EEA2
:102B8000C77AF1EE10FA36D9F4EEC67AF1EE10FA01
:102B9000C0F2CD8247F6FE7048F82200D9F80C004A
:102BA0000144D1ED007A66EEA77AF4EEC77AF1EE31
:102BB00010FA1ED9F4EEC67AF1EE10FAC0F2AF8226
:102BC00047F6FE714AF82210023294427FF6B1AD08
:102BD00051080EEB81008900D0ED007A66EEA77AED
:102BE000F4EEC77AF1EE10FAA0D83046A6E73046E8
:102BF000B9E73146E6E73046CEE7002C00F0E08149
:102C0000BBF1020FD8F8243000F0E1817A69DCF8DA
:102C1000081003EB820EC7F804909300DFED6B5AA7
:102C20000EF1040000227B61DCF80C303B61331DA7
:102C3000D7F810903D61FD69C7E902CB8C46834609
:102C400056F82210D8ED0C7A07EE101A53F822101D
:102C5000B8EEC76A07EE101A5EF82210F8EEC76ADF
:102C600007EE101A26EE256A5BF82210B8EEC77A36
:102C700066EEA56A26EE276A27EE257A66EEA76A33
:102C800027EE277A07EE901A51080232F8EEE77A1B
:102C90000AEB8100944280ED006A05EB810067EE4B
:102CA000A57AC0ED006A0CEB810009EB810180ED93
:102CB000007A98ED0C7A67EE877AC1ED007ABFD87A
:102CC000D7F804903D69D7E902CB60466208BB693A
:102CD00049469847D8F82C307A69D8ED0D6A1A44DD
:102CE0009FED3E7A9FED3E6A131D9246DFF8E4C0E9
:102CF0000022FB612B1D364ED9E9008E4EE0F4EE2A
:102D0000C67AF1EE10FAC0F2FC81304645F8220096
:102D10000EEB0100D0ED007A66EEA77AF4EEC77AEA
:102D2000F1EE10FA49D9F4EEC67AF1EE10FAC0F2DB
:102D3000EF813046BBF1020F43F822002AD0D9F8C8
:102D400008000844D0ED007A66EEA77AF4EEC77A60
:102D5000F1EE10FA35D9F4EEC67AF1EE10FAC0F2BF
:102D6000C98130464AF82200D9F80C000144D1ED5F
:102D7000007A66EEA77AF4EEC77AF1EE10FA1ED961
:102D8000F4EEC67AF1EE10FAC0F2AD813146F86980
:102D900040F82210023294427FF6CBAC510808EB87
:102DA00081008900D0ED007A66EEA77AF4EEC77A4A
:102DB000F1EE10FAA3D86046A8E76046BAE761468C
:102DC000E5E76046CEE700BF0280FFFF000000306D
:102DD0000082FF7F007E00800000003404FF7FBF80
:102DE00004FF7F3F002C00F0EB807A690021D8F8C7
:102DF0002430C7F8109003EB820ED7F81C90930094
:102E0000FD610EF104021FED0C6A7B61331D154656
:102E100056F821204808D8ED0C6ABBF1020F82F465
:102E20000002A2F5000207EE902A53F8212082F456
:102E30000002B8EEE77AA2F5000227EE067A07EE66
:102E4000902A0AEB8002F8EEE77A27EE267A67EE00
:102E5000867A82ED007A09EB80024FEA800067EE05
:102E6000A67AC2ED007A27D05EF8212082F4000213
:102E7000A2F5000207EE902A55F8212082F4000204
:102E8000B8EEE77AA2F5000227EE067A07EE902A5E
:102E9000DCF80820F8EEE77A024427EE267A67EE9F
:102EA000867A82ED007A98ED0C7ADCF80C2067EED9
:102EB000877A0244C2ED007A02318C42A8D8D7F852
:102EC000109060466208BB694946FD699847D8F88A
:102ED0002C307A69D8ED0D6A1A441FED407A1FED47
:102EE000406A131D9246DFF8C4C20022FB612B1D0D
:102EF000AB4ED9E9008E4EE0F4EEC67AF1EE10FA50
:102F0000C0F2C580304645F822000EEB0100D0ED3E
:102F1000007A66EEA77AF4EEC77AF1EE10FA49D994
:102F2000F4EEC67AF1EE10FAC0F2BF803046BBF183
:102F3000020F43F822002AD0D9F808000844D0ED47
:102F4000007A66EEA77AF4EEC77AF1EE10FA35D978
:102F5000F4EEC67AF1EE10FAC0F2AE8030464AF8CE
:102F60002200D9F80C000144D1ED007A66EEA77A70
:102F7000F4EEC77AF1EE10FA1ED9F4EEC67AF1EE4D
:102F800010FAC0F28B803146F86940F82210023204
:102F900094427FF6CEAB510808EB81008900D0ED5A
:102FA000007A66EEA77AF4EEC77AF1EE10FAA3D8AB
:102FB0006046A8E76046BAE76146E5E76046CEE7C7
:102FC000224649466046BB699847FFF7B2BBC7F83F
:102FD00010B0002298ED0C6A331DDFED726AD7F84D
:102FE0001CB0786956F8221007EE901A53F8221098
:102FF000B8EEE77A07EE901A51080232F8EEE77A57
:1030000027EE267A0AEB810E94420BEB810167EEE4
:10301000A67A27EE067A67EE867A8EED007AC1ED03
:10302000007ADFD88300D7F810B07B614DE61A46EE
:10303000C7F810B098ED0C6A331DDFED5B6AD7F866
:103040001CB0786936F9221007EE101A33F92210F5
:1030500007EE901AB8EEC77A51080232F8EEE77A16
:1030600027EE267A0AEB810E94420BEB810167EE84
:10307000A67A27EE067A67EE867A8EED007AC1EDA3
:10308000007ADFD88300D7F810B07B6134E5F0EE2A
:10309000675AFEEEE45A15EE900A34E7F0EE675AEE
:1030A000FEEEE45A15EE901A6EE7F0EE675AFEEE69
:1030B000E45A15EE900A3AE7F0EE675AFEEEE45A4B
:1030C00015EE900A4BE767EEA57AFDEEE77A17EE6C
:1030D000900A00B232E567EEA57AFDEEE77A17EEC8
:1030E000900A00B23FE5F0EE675AFEEEE05A15EEA8
:1030F000901A4CE6F0EE675AFEEEE05A15EE900A92
:1031000030E6F0EE675AFEEEE05A15EE900AFDE565
:10311000F0EE675AFEEEE05A15EE900A0AE667EE08
:10312000A57AFDEEE77A17EE901A09B24AE567EE46
:10313000A57AFDEEE77A17EE900A00B22CE5F0EEE4
:10314000675AFEEEE45A15EE902A1FE467EEA57A60
:10315000FDEEE77A17EE902A12B2FFF731BBF0EEE0
:10316000675AFEEEE45A15EE902AFFF7FDBBF0EE2B
:10317000675AFEEEE05A15EE902AFFF79BBBF0EE81
:10318000675AFEEEE05A15EE902AFFF780BB67EE15
:10319000A57AFDEEE77A17EE902A12B2FFF724BB6C
:1031A00082FF7F0000000030000000387E0080FFBA
:1031B00030B5184C154685B0046004F1080EEC4695
:1031C0000FC98EE80F00D4ED047AF5EEC07A8CE8D2
:1031D0000F00F1EE10FA1ADDB7EE006A94ED057AF1
:1031E00027EE277AC6EE276A84ED0D7AC4ED0C6AC5
:1031F0006DB1204640F8185F02F0AEF80649036949
:103200000020064A2162A262E36005B030BD0120C1
:1032100005B030BD70E40124402000304000003093
:1032200000680830704700BFB1F5807F03680A4628
:1032300028BF4FF48072B1F5807F9A6094BF002060
:10324000012070470068183002F0E6B830B5046815
:1032500083B00D46E3694BB1A3680020E26A616A5E
:103260009B00009004F11C0002F078F8A368074866
:10327000A26A9B00216A009004F1180002F06EF827
:103280000020C4E9005003B030BD00BFF5250008A0
:1032900010B4074B4FF07E513024002203201961F7
:1032A0009C60D8605DF8044B5961C3E90622704701
:1032B00070E4012430B585B004460025ADF80C104B
:1032C000ADF80820ADF8043003F026FABDF80C2064
:1032D0004FF48073206004F118002283BDF80820A9
:1032E0006383E383A283257100F00AFF04F11C00CD
:1032F00000F006FF9FED060A019904F1080000F0B6
:10330000D7F94FF6FF736562238405B030BD00BF67
:1033100000000000F8B5044603F0FEF9002623681B
:103320002671834205D104F10800BDE8F84000F0A1
:10333000D9B9012794F82050206004F11800BD404D
:10334000277100F0B9FF6DB2284394F82150BD40B9
:1033500084F8200004F11C0000F0AEFF94F8203047
:103360006DB2666203F003032843022BC0B284F8F7
:10337000210009D000F003000228D4D1002BD2D1C3
:103380004FF0FF336362CEE78307CCD16762CAE7B1
:10339000704700BFF8B5134F3C687F2C07D98023D6
:1033A000114A42F224411C463B60A2F87E100F4DA8
:1033B0002B68012B0AD90C4E0D4D2246314628466A
:1033C00000F046FA0028F8D13860F8BD22460649D8
:1033D000074800F03DFA0028F7D12B683860013328
:1033E0002B60F8BDACE40124B0E40124A8E401247E
:1033F00030E5012430B4154C2168F1B14B1E144D59
:10340000E81810F801298C4619460A2A01D00D2A1D
:1034100002D14BB1013BF4E70CF102037F2B10D931
:103420008023236030BC70470122022323600D20DB
:103430000A236854AB5430BC704701220223044D68
:10344000F4E70CF101026146F0E700BFACE40124AF
:10345000B0E4012410B5094C02460B460848216827
:103460000844C1F1800111F07BFA23681844206000
:10347000FFF7C0FFFFF78EFF10BD00BFACE40124D3
:10348000B0E401240FB400B583B004A951F8040BD3
:103490000191FFF7DFFF03B05DF804EB04B0704764
:1034A00010B5044600210A4800F04CF9002C094BE5
:1034B00014BF0222002208481A60FFF7E3FF074802
:1034C000FFF7E0FF0A20BDE8104003F027B900BF76
:1034D00030E50124A8E40124705E0108805E010843
:1034E000064A0749074808B510F0D6FC034A0449C4
:1034F0000548BDE8084010F0CFBC00BF0000002424
:103500009133000830E5012434E50124074A11888D
:1035100030B481800024064D91884FF4807285601C
:103520000460C180C26030BC704700BFDC5A010833
:103530004040003038B50446104694F895301942A2
:10354000237815D0032B19D094F89820002594F8EF
:1035500096300A4025700B40A26001F0F8021B096A
:10356000F82A237100F08680092B73D9002038BD1A
:10357000032BFBD8DFE803F0112A5102F7291CD0F6
:1035800094F98E2094F88E30002AEFDBE218013394
:103590000020917384F88E3038BD94F8942094F80C
:1035A000973022711940131F012B217305D994F80C
:1035B0008F3003F0FD03012B45D10023237018B198
:1035C0009022211D11F076F8012038BD94F8973033
:1035D00094F894201940131F2173012B05D994F8F6
:1035E0008F3003F0FD03012B29D100232370002825
:1035F0004CD09022211D11F05DF894F89420012008
:10360000032AB4D1237B772BB1D90922783B2271CD
:1036100084F8942084F8913038BD94F8973094F869
:1036200094201940012A617300D181B118B1902210
:10363000211D11F03FF800230120237038BD022323
:1036400000202370DCE702230020237038BD002314
:103650002371EBE70122072B227019D101F0070338
:10366000A56084F88F30CBB90322184684F88E30D9
:10367000227038BD0823237194F899300022194034
:10368000227084F8901000289AD19DE70120B7E7B6
:10369000082BF1D0284684F8943038BD4B077FF5CD
:1036A00065AF8AE700220A2302700371704700BFEA
:1036B00070B5044682B0C1F30726CDB2ADF8041050
:1036C00003F02AF84FF480724FF001232060A01D10
:1036D000A571A280E671A36002B0BDE8704000F061
:1036E0000FBD00BF38B5044603F016F8002223686A
:1036F0002271834210D00122A57AE37A954020609E
:103700002271A01D6DB243B900F0D6FD40B228432E
:10371000C0B27F28A0720AD038BD00F0CDFDB0FA4B
:1037200080F040092843C0B27F28A072F4D102F093
:10373000F3FF07EE900AF8EE677AC4ED037A38BD1E
:10374000704700BF012910B506D0022915D051B12C
:10375000BDE8104007F024BD0A46344834490DF056
:10376000BFFCE8B1FEE7334B0A46334C33493448DB
:103770001C600DF0B5FC68B1FEE701222C492B4816
:103780000DF0AEFC00B1FEE72E4928480DF0CAFC52
:10379000C0B1FEE72B492A480DF0C4FC60B1FEE73A
:1037A000284922480DF0BEFC00B1FEE726491F481B
:1037B0000DF046FC08B3FEE7244921480DF040FC1B
:1037C000A8B1FEE7204919480DF03AFC00B1FEE728
:1037D00016480DF0BDFC024640B9164B164C174971
:1037E00017481C600DF07CFC68B1FEE7FEE714484A
:1037F0000DF0AEFC0028ABD0FEE70C480DF0A8FCA5
:103800000028A5D0FEE70F490D480DF08BFC00B154
:10381000FEE70E490A480DF013FC00B1FEE7084828
:103820000DF096FC002893D0FEE700BFD4E70124FA
:103830009002002470EA0124413700087402002439
:1038400038E50124F8020024540200244402002434
:10385000084691B208B503F037FA003818BF0120C6
:1038600008BD00BF014806F079BF00BFD024022484
:10387000014806F073BF00BFD0240224014806F0BF
:103880006DBF00BFD024022400B583B04FF0000EFE
:103890004FF0030C4274ADF80410BDF8043080F80A
:1038A00010E0A0F802C0038003B05DF804FB00BF85
:1038B0002DE9F04FDFF81C8300258DB0C04C03705C
:1038C00008F140034260074601920E462022294635
:1038D0004046C4F86831C4F86481CDE90255CDE9A9
:1038E0000455CDE90655CDE90855CDE90A5510F046
:1038F000EFFE2022294604F5A170C4F83151C4F826
:103900003551C4F83951C4F83D5110F0E1FE019B26
:1039100084F8485284F830317A68002A6AD02B46FD
:1039200004F59871454606F1100A9E46F01856F8BF
:1039300003B0E2180EF1010ED0F80CC0D0F80490DC
:10394000D0F8088044F803B0C2F80CC04FF0000C67
:10395000C2F80490C2F80880008A25F802CB1082D1
:103960001AF8032001F8012F002A70D07A684FF06E
:1039700001001233724584F84802D7D84FF48022F0
:1039800090489DF8043008214FF000084FF00009DE
:10399000C4F884310023C4E95B020122C4F8743105
:1039A00084F88031C4E95E2194F84812C4E964893E
:1039B000A9B3C4F89821002284F8813184F88831B1
:1039C0003B78C4E96722002B38D001220020012176
:1039D000013B84F8A421C4E96C01082B30D8DFE84E
:1039E00013F0BD00C200C700CC00D100D600DB0040
:1039F000E100E8009DF804300121C4F87421C4F806
:103A000084314FF4802384F880216E4AC4E95B231B
:103A100008230022C4E95E130023C4E964230123C0
:103A2000002284F88131002384F888310323C4F80C
:103A300098313B78C4E96722002BC6D184F8A431C1
:103A4000614804F07DFA034638B1FFBEFEE77A68AC
:103A5000123372453FF66AAF90E702A95A480293C3
:103A600004F0CCFB8246002876D1042240F2FF719C
:103A70000A90CDE9081294F83021002A00F0F38072
:103A80004FF006080AEBCA034FEACA0904EB4303E6
:103A90005B7C072B07D8DFE803F0595C5653504D89
:103AA0004A04072307930FFA8AF6D14406EBC606A9
:103AB00004EB490904EB46077500384600F020FB8B
:103AC00099F81030042B00F3AA80022B00F3BD807C
:103AD00000F0B98004EB0A03002283F8202114F8D7
:103AE0001630002B78D0022B00F08A80012B40F09A
:103AF000B2807B78012B00F0B080002B334B18BFD5
:103B0000002305A93048CDE9053803F045FE00281B
:103B100040F0AC800AF1010A94F830315FFA8AFA79
:103B2000534540F2A0802A4B53F82A80AAE7062387
:103B30000793B8E705230793B5E704230793B2E794
:103B400003230793AFE702230793ACE70023079310
:103B5000A9E701230793A6E7FFBEFEE70322402360
:103B6000C4E96A236CE707226023C4E96A2367E794
:103B70000F228023C4E96A2362E71F22A023C4E93D
:103B80006A235DE73F22C023C4E96A2358E77F2206
:103B9000E023C4E96A2353E7FF224FF48073C4E9AA
:103BA0006A234DE740F2FF124FF49073C4E96A2391
:103BB00046E740F2FF324FF4A073C4E96A233FE7BF
:103BC00078EA012400200240E4EB01240002B02541
:103BD000905E0108404100307B78062B37D0072BE0
:103BE0003DD0022B4AD0032B4AD0002B4CD0012BC6
:103BF00048D0042B4AD0052B254B18BF002380E763
:103C00007B78042B25D0052B2BD08BB3012B31D007
:103C1000022B31D0032B1F4B18BF002371E7032366
:103C2000043504EB0A0B4FF0000925448BF82031D2
:103C3000284609F1010900F063FA9BF820310435A8
:103C40004B45F5DC4BE70123EAE70223E8E7124B9B
:103C500057E7124B55E7002353E7114B51E7114B40
:103C60004FE7114B4DE70DB0BDE8F08FFFBEFEE70B
:103C70000E4B46E70E4B44E70E4B42E70E4B40E738
:103C80000E4B3EE70E4B3CE70E4B3AE70E4B38E748
:103C90000000B84F002090360800900C1000C010B3
:103CA0002000F0148000501D000180210004002A33
:103CB0000008302E001060320040C03A0080F03E14
:103CC00000005247000021430000844B38B5094CE6
:103CD00040F2FF724FF0011104F5B675284604F06A
:103CE0003BFA94F83021D4F864112846BDE83840F6
:103CF00003F0A6BF78EA0124064B0F29D3F86431FC
:103D000098BF03EB41031B8800EE103ABBEEC80AD4
:103D1000704700BF78EA0124214B02689A4200D024
:103D20007047204A00232048D2F8D81030B51F4CE5
:103D300041F0200183B0C4F8D001092004F5E875F2
:103D4000C4E975034FF48060C2F8D810D2F8D820C7
:103D50004FF40061C4E9773094F8480202F0200281
:103D6000C4F8E4114FF40051984201922846C4F877
:103D7000E811C4E97C33019B14BF00234FF4807326
:103D8000C4F8EC3104F060FC08B1FFBEFEE704F5B6
:103D9000B673C4F8B851C4F8083203B030BD00BFE0
:103DA00000200240004402584000024078EA01240A
:103DB000014804F0C1BF00BF48EC012402682DE9AE
:103DC000F84F4B4B9A4201D0BDE8F88F494D95F81A
:103DD0004832002BF8D095F83031002B77D00024F2
:103DE00005F10C0905F5A17605F59877A04613E0D5
:103DF00003F0010117F811BCA9F1080000F06AFAFC
:103E0000BBF1010F25D895F83031013409F11209C1
:103E10000236A2B293422BD917F8012F002AF4D010
:103E2000D5F864310021327833F81400D5F86831C0
:103E300003EB041323F81200338801339BB2338061
:103E40005FFA83FA3A789A42D2D88A46A6F8008076
:103E5000D0E7CAF34001A9F1040000F03BFABBF13E
:103E6000020FCAF38001CED0484600F033FACAE709
:103E7000002395F84802204909229842C5F8D83114
:103E80004FF48060C5F8D011C5F8D4214FF400611B
:103E90004FF40052C5F8DC3108BF4FF48073C5F809
:103EA000E821C5E9780100221448C5E97B32C5F84C
:103EB000F42104F0C9FB08B1FFBEFEE795F83021FC
:103EC000D5F864110E48BDE8F84F03F0B9BE0A49B1
:103ED00009224FF48060C5F8D831C5E974124FF457
:103EE00000614FF40052C5E97730C5E97912DAE78D
:103EF0000020024078EA01244000024048EC0124FE
:103F0000E4EB0124704700BF10B592B0ADF8041087
:103F10000180C9B2149C0B29C460C0E901233FD0C1
:103F200090F801C0BCF10F0F3AD8022A3FD0032A03
:103F300002D0012A00D000220E92012B02D0022BC7
:103F400018BF0023022C0F932CD0032C2AD0012C55
:103F500028D000230A29109327D85C4A02EB81223B
:103F600002610A2914D8DFE801F0A39587796B5D17
:103F70004F4133250600564BD3F8E01041F48061E1
:103F8000C3F8E010D3F8E03003F480630C930C9B8B
:103F900001230DA9104603FA0CF30D9305F01EFA48
:103FA00012B010BD0A291094D7D90022D8E71122E7
:103FB0000E92C2E7464BD3F8E01041F40071C3F80B
:103FC000E010D3F8E03003F400730B930B9BDFE7B2
:103FD0003F4BD3F8E01041F48071C3F8E010D3F800
:103FE000E03003F480730A930A9BD1E7384BD3F88F
:103FF000E01041F08001C3F8E010D3F8E03003F0A6
:1040000080030993099BC3E7314BD3F8E01041F0DB
:104010004001C3F8E010D3F8E03003F04003089308
:10402000089BB5E72A4BD3F8E01041F02001C3F814
:10403000E010D3F8E03003F020030793079BA7E7D5
:10404000234BD3F8E01041F01001C3F8E010D3F88F
:10405000E03003F010030693069B99E71C4BD3F85E
:10406000E01041F00801C3F8E010D3F8E03003F0AD
:1040700008030593059B8BE7154BD3F8E01041F03F
:104080000401C3F8E010D3F8E03003F00403049314
:10409000049B7DE70E4BD3F8E01041F00201C3F81A
:1040A000E010D3F8E03003F002030393039B6FE7C3
:1040B000074BD3F8E01041F00101C3F8E010D3F84A
:1040C000E03003F001030293029B61E70000025815
:1040D0000044025808B5012143780069994089B22B
:1040E00005F084FB003818BF012008BD01230A46F3
:1040F0004178006903FA01F189B205F07DBB00BF88
:104100008378022B30B504468FB037D0032B33D0E1
:10411000012B31D000230A93E378012B2AD0022B04
:1041200028D000230B93002320460C9303F0AEF914
:104130000546204603F0B2F923780990082B13D8DE
:10414000DFE803F01F3245586B7E91A40500594B00
:10415000D3F8E02042F48072C3F8E020D3F8E030D6
:1041600003F480730893089B09A9284605F036F9E3
:104170000FB030BD0B93D6E70A93CDE711230A9316
:10418000CAE74C4B09A92846D3F8E02042F00102C7
:10419000C3F8E020D3F8E03003F001030093009B64
:1041A00005F01CF90FB030BD424B09A92846D3F8E1
:1041B000E02042F00202C3F8E020D3F8E03003F040
:1041C00002030193019B05F009F90FB030BD394B93
:1041D00009A92846D3F8E02042F00402C3F8E02001
:1041E000D3F8E03003F004030293029B05F0F6F8E5
:1041F0000FB030BD2F4B09A92846D3F8E02042F07C
:104200000802C3F8E020D3F8E03003F0080303937A
:10421000039B05F0E3F80FB030BD264B09A92846F3
:10422000D3F8E02042F01002C3F8E020D3F8E030E9
:1042300003F010030493049B05F0D0F80FB030BDD9
:104240001C4B09A92846D3F8E02042F02002C3F80D
:10425000E020D3F8E03003F020030593059B05F040
:10426000BDF80FB030BD134B09A92846D3F8E020A4
:1042700042F04002C3F8E020D3F8E03003F04003FE
:104280000693069B05F0AAF80FB030BD094B09A9AB
:104290002846D3F8E02042F08002C3F8E020D3F8AB
:1042A000E03003F080030793079B05F097F80FB009
:1042B00030BD00BF0044025838B5054603F0E6F8AB
:1042C0000446284603F0EAF801462046BDE8384097
:1042D00005F08CBA70B506460D4603F0D7F80446D3
:1042E000304603F0DBF82A1E0146204618BF0122A3
:1042F000BDE8704005F080BA0023122270B586B088
:10430000CDE9022304930368032B01D8042305930A
:10431000061D841D304603F0B9F80546304603F00B
:10432000BDF8034601A92846019305F057F8204639
:1043300003F0ACF8034620461C4603F0AFF801A991
:1043400003462046019305F049F806B070BD00BF52
:10435000634A0368934210B58CB028D0614A9342F7
:1043600058D0614A934200F09480604A934201D051
:104370000CB010BD5E4C5F48D4F8E03043F002034F
:10438000C4F8E030D4F8E03003F002030A930A9B4B
:10439000FFF7B2FFD4F8F43043F08003C4F8F430F0
:1043A000D4F8F43003F080030B930B9BE0E7504C00
:1043B0005148D4F8E03043F00203C4F8E030D4F8B8
:1043C000E03003F002030193019BFFF795FFD4F85F
:1043D000E83000221F2043F400131146C4F8E830EF
:1043E000D4F8E83003F400130293029BD4F8D830D9
:1043F00043F00103C4F8D830D4F8D83003F00103F7
:104400000393039B03F06EFF1F200CB0BDE8104028
:1044100003F0A6BF364C3948D4F8E03043F08003AF
:10442000C4F8E030D4F8E03003F080030493049B38
:10443000D4F8E03043F00203C4F8E030D4F8E030C0
:1044400003F002030593059BFFF756FFD4F8E8300D
:104450000022212043F480031146C4F8E830D4F848
:10446000E83003F480030693069BD4F8D83043F079
:104470000103C4F8D830D4F8D83003F0010307930F
:10448000079B03F02FFF21200CB0BDE8104003F084
:1044900067BF1B48FFF730FF154B00224820D3F8B9
:1044A000E840114644F40004C3F8E840D3F8E8407B
:1044B00004F400040894089CD3F8D84044F00104A4
:1044C000C3F8D840D3F8D83003F001030993099B0F
:1044D00003F008FF48200CB0BDE8104003F040BFD7
:1044E0000054004000580040005C0040001C005890
:1044F0000044025850EF0124C8EC0124A0ED01242F
:1045000078EE01242DE9F0431A4B87B000254FF0D7
:1045100010099E46EC46184BFF22E04667461A708B
:104520000EF118060EF13004CDE90055CDE9025523
:10453000ADF80090BCE80F00CDE90455AEE80F00DF
:104540009CE803000095ADF800908EE80300B8E801
:104550000F000FC69CE803000095ADF8009086E8B8
:1045600003000FCF0FC49CE8030084E8030007B0EA
:10457000BDE8F08304000024C4EC012410B5EFF37F
:10458000108472B6084B1A78120602D504B962B6C6
:1045900010BD1B78D82205485BB202FB0300143023
:1045A00004F0CAFBF2E700BFC4EC0124C8EC01240C
:1045B000014805F0B9BF00BF54ED0124014805F0E2
:1045C000B3BF00BF2CEE0124014805F0ADBF00BF12
:1045D00004EF01242DE9F0430F68D8243F4D85B046
:1045E00007FB04F4032F05EB0403036040DCCB68F6
:1045F0000E46012B3CD84DD04FF0D808B646DFF818
:10460000FC9008FB0758BEE80F00C446ACE80F005A
:10461000DEF800300DF1100ECCF80030D8F808C0EC
:1046200099E80F000EE90F000EEB8703BCF1010FB4
:1046300053F8103CC8F88C3031D0BCF1020F42D096
:10464000BCF1000F35D0317C8C34D82300220120FE
:104650002C4403FB07534900C3E92602C3F8941016
:104660002046C3E92822C3E92A2205F04FFD18B1EC
:10467000012005B0BDE8F0830146204605F060FF4B
:104680000028F5D10146204605F084FF003818BF08
:104690000120EEE70B7C103B672BADD9E8E702F079
:1046A000D7F90F4B98420CBF0E4B0F4BC8F8903008
:1046B000C9E702F0CDF90A4B98420CBF0B4B0C4BEB
:1046C000C8F89030BFE702F0C3F9054B98420CBF21
:1046D000084B094BC8F89030B5E700BFC8EC01247F
:1046E000000E27072D0FB0303211D0205F439060AD
:1046F0008A62E030200BA0101A098010E45A0108E9
:104700002DE9F041D0F8008082B00D4617461E46D4
:1047100008F18C04204605F00FFF2028FAD1D8F8C4
:104720000C3073B96D002046089C33463A46A9B256
:10473000009405F041FD003818BF012002B0BDE82B
:10474000F081089B32463946204605F009FEF2E723
:10475000044B10221A7483F8E82083F8C02183F8F0
:1047600098227047C8EC012430B5002395B04FF46F
:104770008071062204460B9306921393CDE90C1325
:10478000CDE90E33CDE9113302F064F907282BD0BF
:1047900004F1100541F2883206A9284606F04CFEC5
:1047A00028B10123184684F85C3015B030BD0222D0
:1047B000022306A92846CDE9002310220123CDE9D2
:1047C000022300224FF48003CDE9042305224FF099
:1047D000807306926A460F9341F2883306F098FF81
:1047E0000028DED115B030BD0323012084F85C30F1
:1047F00015B030BD0000000070B50023A4B04FF02C
:1048000080724FF480750446ADF806300D93CDE903
:1048100010320122CDE90E53CDE91223CDE9143334
:10482000002943D0F02300F1100508AEADF80630A2
:10483000C02341F2883231462846089306F0FCFD39
:1048400028B10123184684F85C3024B070BD41F2D1
:1048500088320DF10601284606F058FE034600286E
:10486000EFD105224FF480711E93284616924FF027
:1048700080721B9321931F9202AA9FED1F7BCDE9AB
:104880001C13CDE922338DED027B9FED1D7B41F2A0
:10489000883316A98DED047B9FED1B7B8DED067B88
:1048A00006F036FF0028CCD124B070BD00F1100511
:1048B00008AE612341F2883231462846089306F05B
:1048C000BBFD0028BDD141F288320DF1060128461A
:1048D00006F09AFE0028B4D1BDF80630204623F039
:1048E000780343F04003ADF80630FFF73DFF0028A2
:1048F0009ED0A6E7AFF3008000000000010000009A
:104900001000000001000000000000000000400056
:104910002DE9F04F00234FF4807501264FF0807889
:1049200004462DED028BABB08DF807301393219325
:10493000299314950E96CDF85C80CDE91533CDE919
:104940001863CDE91A33CDE92253CDE92433CDE9FB
:10495000273306231C9302F07DF8072808D004F1C2
:10496000100741F288321CA9384606F065FD40B1B7
:104970000123184684F85C302BB0BDEC028BBDE8F7
:10498000F08F4FF0020A4FF0020B4FF0050941F291
:10499000883308AA1CA93846CDF89480CDF87090C9
:1049A0009FED2D8BCDE908AB4FF0000A4FF4800B43
:1049B0008DED0A8BCDE90CAB06F0AAFE0028D7D10D
:1049C00041F2883238460EA906F036FD0028CFD1D4
:1049D000402341F288320DF1070138468DF8073047
:1049E00006F094FD0028C3D141F288330EA902AA33
:1049F0003846CDF83890CDF85C809FED197B8DED71
:104A0000048BCDE906AB8DED027B06F081FE0346FB
:104A10000028ADD1CDF870904FF00109CDF8948009
:104A20004FF00008219308AA29931CA93846229523
:104A3000CDE92333CDE9273341F288338DED0A8B5D
:104A4000CDE90CABCDE9088906F062FE002893D0D1
:104A5000304684F85C608FE7100000000100000021
:104A600040000000400000002DE9F043624CA3B07C
:104A70000D46046001F0EEFF072800F0A9802868C9
:104A800023466968AA6807C31E46AB8926F8043B1B
:104A90003046257B677B06F0B1FCE0B9574B012D12
:104AA0004FF00108E061236114BF4FF480134FF40D
:104AB0000003C4E9058893FAA3F3B3FA83F34FF430
:104AC0008079013BC4F82490C4E90B00304623628E
:104AD00006F028FC38B10122134684F85C20184601
:104AE00023B0BDE8F08366230B90139041F2883227
:104AF00006A90693CDE90C90CDE90E00CDE9110091
:104B0000304606F099FC0028E5D1992341F288321D
:104B100006A93046069306F08FFC0028DBD105235A
:104B20001C9019906A4614934FF08073219014A939
:104B30001D9341F288339FED2A7BCDE91A90CDE990
:104B40001F008DED007B9FED287B30468DED027BB5
:104B50009FED277B8DED047B06F0DAFD0028BAD1AE
:104B600029462046FFF748FE0028B4D12046FFF72B
:104B7000CFFE03460028AED1002FB0D118933046A7
:104B80000027002606AA14A9CDF86890CDE91F33A6
:104B9000EB2314934FF440631B934FF4005317938C
:104BA0004FF440431C93A0231693062319934FF010
:104BB000805321934FF04073CDE906671D9306F0B3
:104BC0001FFE034600288AD0434684F85C8086E7AF
:104BD00001230322184684F85C2023B0BDE8F0834B
:104BE00000000000010000001000000001000000B3
:104BF000000000000000400028F001240050005296
:104C00002DE9F04F8FB0414B0024026800AF9A426B
:104C10007C63C7E90944C7E90B4403D03C37BD4670
:104C2000BDE8F08F3A4B40F609213A48EB46D3F8FD
:104C3000D42007F11C0607F1220A4FF0020942F4C2
:104C400080424FF00308C3F8D420D3F8D42002F4F4
:104C50008042BA60BA68D3F8E02042F04002C3F85C
:104C6000E020D3F8E02002F04002FA60FA68D3F8BE
:104C7000E02042F02002C3F8E020D3F8E02002F068
:104C800020023A613A69D3F8E02042F01002C3F8FA
:104C9000E020D3F8E02002F010027A617A69D3F8BC
:104CA000E02042F00202C3F8E020D3F8E030F861DF
:104CB00003F002033984BB61174B7B60BB697B68DF
:104CC00053F8040F7B6002F0E1FB7B68054618682F
:104CD00002F0E4FB16F8013B786207F12401284654
:104CE000C7F830807B63C7E90A9404F077FB564528
:104CF000E5D100225C20114603F0F4FA5C2003F0B9
:104D00002FFB3C37DD46BD46BDE8F08F005000521A
:104D1000004402580A0A090984F00124114B026870
:104D20009A4200D07047104A70B5D2F8D4300F4C78
:104D300023F4804304F11806C2F8D43054F8040F69
:104D400002F0A4FB0546206802F0A8FB01462846B5
:104D500004F084FCB442F1D15C20BDE8704003F063
:104D60000DBB00BF005000520044025884F00124E3
:104D7000014806F0D1BD00BF38F00124084B1A1DD0
:104D8000981D03F1080110B49C1C9A6603F10A02F5
:104D9000C3E91834C3E91B015DF8044B5A67704737
:104DA00028F0012438B5036871B9026A00F12805BA
:104DB00000F5AC74012A0CBF002140218BBB1D4BB8
:104DC0005722C0F858310DE0426A00F1C00500F5E5
:104DD000E874012A0CBF00214021EBB1164B5A2286
:104DE000C0F8D03100232046C4E901214FF480529D
:104DF0004FF48061636262614FF48042C4E9033121
:104E00004FF48073C4E906234FF40033236203F0A8
:104E10001BFC58B1FFBEFEE7084B5822C0F8D0314A
:104E2000E0E7074B5922C0F85831DBE7C5E92044D9
:104E3000A56338BD10000240700002402800024007
:104E4000580002402DE9F043821D05468BB0031D3A
:104E500005F10A010830CDE9052305F10C02AB6923
:104E6000CDE907010992002B3DD0EB69B3FA83F835
:104E70004FEA58180123022205AE0AAF4FF0060987
:104E80000393CDE9012356F8044B2B792278934202
:104E900016D02B68F3B1012B02D1F2B10A2304938F
:104EA000204602F0FBFA03462046009302F0EEFA99
:104EB000694604F093FABE42E5D10BB0BDE8F08339
:104EC000697963789942E4D1B8F1000FF3D02B6887
:104ED000002BE0D1CDF81090E2E76378022B14BFED
:104EE0000A230823DBE74FF00108C3E7534A0368AE
:104EF000934230B505468BB055D02032934252D004
:104F00004F4A934204D02032934201D00BB030BDBF
:104F10004C4C4D48D4F8E03043F00103C4F8E03085
:104F2000D4F8E03003F001030593059BD4F8E0309A
:104F300043F00803C4F8E030D4F8E03003F008038D
:104F40000693069BD4F8E03043F04003C4F8E03009
:104F5000D4F8E03003F040030793079BD4F8F03017
:104F600043F40003C4F8F030D4F8F03003F4000345
:104F70000893089BFFF766FFD4F8D830296843F000
:104F800001032F4A3048C4F8D830891AD4F8D830F1
:104F900018BF012103F001030993099B0BB0BDE881
:104FA0003040FFF7FFBE274C2848D4F8E03043F0EC
:104FB0000103C4F8E030D4F8E03003F001030093BB
:104FC000009BD4F8E03043F01003C4F8E030D4F88C
:104FD000E03003F010030193019BD4F8E03043F07C
:104FE0004003C4F8E030D4F8E03003F0400302930B
:104FF000029BD4F8F03043F48003C4F8F030D4F8C6
:10500000F03003F480030393039BFFF71BFFD4F8F6
:10501000D830296843F00103084A0C48C4F8D83056
:10502000891AD4F8D83018BF012103F00103049382
:10503000049B0BB0BDE83040FFF7B4BE04580140FC
:10504000045C014000440258FCF20124A0F0012459
:10505000014803F071BE00BFF8F10124014803F0DC
:105060006BBE00BF70F20124014803F065BE00BFB3
:1050700054F40124014803F05FBE00BFCCF40124C6
:105080001A4A0368934210B40BD02032934208D0DE
:10509000174A934216D02032934213D05DF8044B46
:1050A0007047144B0022D3F85442C3F85822002C06
:1050B000F4D0D3F84802D3E9931223465DF8044BA9
:1050C000520818470B4B0022D3F8B044C3F8B4245D
:1050D000002CE3D0D3F8AC24D3F8A814D3F8A4045C
:1050E000520823465DF8044B184700BF045801409E
:1050F000045C0140A0F00124184A0368934210B4F4
:105100000BD02032934208D0154A934217D0203258
:10511000934214D05DF8044B7047124BD3E99424AA
:105120005208C3F85822002CF4D0D3E99201234648
:1051300001EB820100EB82005DF8044B1847094B3C
:10514000D3F8AC24D3F8B0445208C3F8B424002CEC
:10515000E0D0D3F8A814D3F8A404E8E70458014039
:10516000045C0140A0F001242DE9F04F0C684FF4DD
:105170001776754F87B004FB06F6012C07EB060A7D
:10518000C0F800A000F3A0800D468E464FF0000846
:10519000D44669A3D3E9002369A1D1E90001CDE98F
:1051A000022306ABCAF8508203EB8403CDE9040165
:1051B00053F810BC53F8083CCAE992880193BEE842
:1051C0000F00ACE80F00BEE80F00ACE80F00019B39
:1051D0009EE80300CAF828B0CAF8C0308CE8030083
:1051E0002B69042B0CD8DFE803F0737D8791030053
:1051F0004FF41773554A03FB04739A64C3F8E02015
:10520000AA692B6A002A43D0002B4FF4177308BFFA
:10521000022203FB047318BF0322DA6201221A631D
:10522000EA696B6A002A40D1191E4FF4177318BF40
:10523000012103FB0473C3E931126B69022B05D80A
:10524000434A12F80380434A52F823904FF41773ED
:1052500006F128004246494603FB04740023384403
:1052600063646363E365C4F8DC30C4F8CC30C4F82D
:10527000F430C4E90F33C4E91533C4E93533C4E964
:105280003B33022308F0EAFB002849D0FFBEFEE7CB
:10529000191E4FF4177318BF012103FB0473C3E9F0
:1052A0000B12EA696B6A002ABED0002B4FF4177309
:1052B00008BF022203FB047318BF0322C3F8C420F3
:1052C0000122C3F8C820B8E7012007B0BDE8F08F7D
:1052D0004FF417734FF4FA5203FB04739A64C3F844
:1052E000E0208DE74FF417734FF47A5203FB0473F9
:1052F0009A64C3F8E02083E74FF417734FF4FA423F
:1053000003FB04739A64C3F8E02079E74FF4177342
:105310004BF6803203FB04739A64C3F8E0206FE716
:1053200006F1C000022342464946384408F096FB85
:105330000028CAD0FFBEFEE704580140045C0140CB
:1053400024580140245C0140A0F0012400770100B2
:10535000D05E0108D45E01080068704770B504682B
:1053600082B015460E46C4F85032C4E99212069A2D
:10537000C4F85422A269012A26D0626A012A9AB28C
:1053800011D0294604F1C000019208F023FC236AE1
:10539000019A012B10D0294604F1280008F01AFCCC
:1053A000002002B070BD04F1C000019208F0A4FC1E
:1053B000236A019A012BEED1314604F1280008F04E
:1053C0009BFC002002B070BD226A012A9AB211D063
:1053D000294604F12800019208F0FCFB636A019A57
:1053E000012B10D0294604F1C00008F0F3FB002087
:1053F00002B070BD04F12800019208F07DFC636AE0
:10540000019A012BEED1314604F1C00008F074FC82
:10541000002002B070BD00BF03681B69042B05D8D3
:10542000044A02EB830393ED000A70479FED020AE2
:10543000704700BFE05E010800803B470368D3F877
:10544000580270471F4BC1680268F0B5D3F88C5002
:1054500083B00369ADB24D1BA2B1AB4212D004467A
:10546000866811D2F018E91ACDE9001001F08EF823
:105470000023DDE90010D4E90062B047E36825614C
:10548000AB421BD003B0F0BDF018C91ACDE9000142
:1054900001F07CF80023DDE90001D4E90072B8478F
:1054A0003046294601F072F80023304662682946EA
:1054B0002668B047E3682561AB42E3D1002323614E
:1054C00003B0F0BD000002402DE9F84F04460F463E
:1054D00090461E4600F13405284608F099FF202822
:1054E000FAD14FF480630020C4F8D030C4F84831BA
:1054F0004FF44033C4F8CC00C4F8E030C4F858315D
:105500004E4BC4F8DC00C4F8C03003F57A73C4F81D
:10551000E400C4F838314023C4F8C800C4F840316E
:10552000E369C4F84401C4F85401C4F85C01C4E957
:105530003500C4E95300072B0BD8DFE803F06153B3
:105540005A373E454C045123C4F8C4305223C4F8A2
:105550003C3104F59C79484603F076F808B1FFBE6B
:10556000FEE7C4F8A890C4F87051EFF3108972B642
:10557000DFF8D0B094F91C30DFF8CCA08BF8003005
:105580000A9B2F4CCAF800300B9B23600EB11846C3
:10559000B0471FFA88F23946284608F023FDB0BB11
:1055A000B9F1000F00D162B6BDE8F88F3F23C4F80F
:1055B000C4304023C4F83C31CBE74123C4F8C430A5
:1055C0004223C4F83C31C4E74723C4F8C43048231D
:1055D000C4F83C31BDE74F23C4F8C4305023C4F8AD
:1055E0003C31B6E72B23C4F8C4302C23C4F83C313B
:1055F000AFE72D23C4F8C4302E23C4F83C31A8E70C
:105600002923C4F8C4302A23C4F83C31A1E7FF237E
:105610008BF800300023CAF8003023600A9B3BB1AE
:105620000B98012198470120B9F1000FBCD1BAE7CE
:105630000120B9F1000FB7D1B5E700BF88000240E3
:10564000900402248C040224880402242DE9F84FDB
:1056500004460F4690461E4600F13405284608F0E1
:10566000D7FE2028FAD14FF480630020C4F8D03050
:10567000C4F848314FF44033C4F8CC00C4F8E030EB
:10568000C4F858314E4BC4F8DC00C4F8C03003F500
:105690007A73C4F8E400C4F838314023C4F8C80071
:1056A000C4F84031E369C4F84401C4F85401C4F8B3
:1056B0005C01C4E93500C4E95300072B0BD8DFE8CF
:1056C00003F061535A373E454C045123C4F8C430AB
:1056D0005223C4F83C3104F1C009484602F0B4FF3B
:1056E00008B1FFBEFEE7C4F8AC90C4F8F850EFF381
:1056F000108972B6DFF8D0B094F91C30DFF8CCA076
:105700008BF800300A9B2F4CCAF800300B9B2360AB
:105710000EB11846B0471FFA88F23946284608F0FD
:10572000B3FCB0BBB9F1000F00D162B6BDE8F88F91
:105730003F23C4F8C4304023C4F83C31CBE74123B5
:10574000C4F8C4304223C4F83C31C4E74723C4F84A
:10575000C4304823C4F83C31BDE74F23C4F8C430FB
:105760005023C4F83C31B6E72B23C4F8C4302C23B3
:10577000C4F83C31AFE72D23C4F8C4302E23C4F85D
:105780003C31A8E72923C4F8C4302A23C4F83C31AB
:10579000A1E7FF238BF800300023CAF80030236014
:1057A0000A9B3BB10B98012198470120B9F1000FEA
:1057B000BCD1BAE70120B9F1000FB7D1B5E700BFFE
:1057C00088000240900402248C04022488040224ED
:1057D0002DE9F0410D4682B0EFF3108772B6002933
:1057E00048D1FF23254A264C237013682BB1002093
:1057F00029461060234A1068984723781B0625D550
:10580000DFF888800025204E444605E001351C3431
:1058100006F5D876092D19D0A369012B1BD0002BD2
:10582000F4D1216830460029F0D0636901932369DF
:105830000093E3682289FFF709FF0028E6D1C5EB52
:10584000C50508EB850348F82500586007B962B61E
:1058500002B0BDE8F08161680029D7D063693046A5
:10586000019323690093E3682289FFF72DFE002846
:10587000CCD1E4E70AF0C8F8B3E700BF88040224FB
:105880008C0402249004022458F501244C000024C6
:10589000F0B5002387B0022204460493CDE9022329
:1058A000027EC3690B2A4FEA430523D1A27E0B2A4D
:1058B00002D1002007B0F0BD48496B1C484851F8A0
:1058C0002330457801781878E67E884269D0824294
:1058D00077D0D87803F1030C81426ED0824278D021
:1058E000987903F1060C88426FD0824233D00120B0
:1058F00007B0F0BD394B3A4853F825300178467867
:10590000187894F819C081423DD0824241D0D878AD
:1059100003F1030E814240D082424AD0987903F1CC
:10592000060E884241D08242E1D1DB796345DED167
:10593000734604F118069B783046059301F0A6FDE6
:10594000034630461E4601F0A9FD01A901903046EC
:1059500003F044FDAAE7DB79B342C8D163461A34A9
:105960009B782046059301F091FD034620461C4696
:1059700001F094FD034601A92046019303F02EFD9A
:10598000002007B0F0BD93F801E0B645BFD08242D9
:10599000BDD158786045BAD1CBE71F79B742BBD1AA
:1059A000BCE75F78AF4292D193E7D979B142BAD1DF
:1059B0009DE718796045B1D1BAE71F79AF428DD123
:1059C0008EE75878B04284D1C9E7D979A9428CD101
:1059D0008DE71879B04283D1C0E700BF640100248D
:1059E000600100247E4A03689342F0B58FB000F056
:1059F000E380A2F54C42934200F0E08002F5806221
:105A0000934200F0DD8002F58062934200F0DA807C
:105A100002F58062934200F0D98002F5444293423D
:105A200000F0D280A2F51C42934200F0D18002F532
:105A30008062934200F0CE806A4A934240F0CC806C
:105A40000826694D4FF4D87404FB0654A07E01F07B
:105A50002DFD207E01F02AFDE369082B13D8DFE835
:105A600003F03B49576573818F9D05005F4BD3F869
:105A7000F42042F00802C3F8F420D3F8F43003F025
:105A800008030893089B2046FFF702FF012801D175
:105A9000FFBEFEE74FF4D8740EAA554F0DF1240C4B
:105AA00004FB0654E36902EB43050FCFACE80F009B
:105AB0003B680022ACF80030114635F9140C02F0B6
:105AC00011FCE3690EAA02EB430333F9140C0FB087
:105AD000BDE8F04002F044BC444BD3F8F02042F063
