:020000040800F2
:1000000000000220110300080D030008153F00083E
:100010000D0300080D0300080D0300080000000098
:100020000000000000000000000000000D030008B8
:100030000D030008000000000D030008993E0008B1
:100040000D0300080D0300080D0300080D03000850
:100050000D0300080D0300080D0300080D03000840
:100060000D0300080D0300080D030008212C0008F3
:100070002D2C000885190008392C0008452C000893
:10008000F5380008512100080D0300080D03000891
:100090000D0300080D0300080D0300080D03000800
:1000A0000D0300080D0300080D0300080D030008F0
:1000B0001DED000829ED000835ED00088521000838
:1000C0000D030008912100080D0300088DE50008CC
:1000D00099E50008293700085537000889370008D6
:1000E0000D0300080D030008000000000D030008C8
:1000F0000D0300080D0300080D0300080D030008A0
:100100000D0300080D03000841ED0008A5E50008F7
:10011000BD370008F13700080D0300080D03000883
:100120000D0300080D030008C9E50008FDE50008FF
:10013000293900080D0300080D0300080D0300080D
:1001400000000000000000000000000000000000AF
:100150000D0300080D0300080D03000825380008F2
:100160009D2100080D030008A93E0008CD3E0008AF
:100170000D030008F13E00080D0300080D03000800
:100180000D0300080D030008593800088D380008D9
:10019000B1E50008BDE500080D0300080D030008E7
:1001A0000D0300080D0300080D0300080D030008EF
:1001B000412900080D0300080D0300080D03000885
:1001C0000D0300080D0300080D0300080D030008CF
:1001D0000D0300080D0300080D0300080D030008BF
:1001E0000D0300080D0300080D0300080D030008AF
:1001F0000D0300080D0300080D0300080D0300089F
:100200000D0300080D0300080D0300080D0300088E
:100210000D0300080D0300080D0300080D0300087E
:100220000D0300080D0300080D0300080000000086
:100230000D0300080D030008000000000D03000876
:100240000D0300080D0300080D0300080D0300084E
:100250000D0300080D0300080D0300080D0300083E
:100260000D0300080D0300080D0300080D0300082E
:100270000D0300080D030008C1380008000000004D
:100280000D0300080D0300080D0300080000000026
:08029000000000000D0300084E
:1002980053B94AB9002908BF00281CBF4FF0FF31E5
:1002A8004FF0FF3000F00CB8ADF1080C6DE904CE4A
:1002B8000FF0BCFEDDF804E0DDE9022304B070476E
:1002C800704700BF10B5054C237833B9044B13B100
:1002D8000448AFF300800123237010BD800300247D
:1002E800000000005805010808B5034B1BB103497D
:1002F8000348AFF3008008BD000000008403002419
:1003080058050108FEE700BF0C4A0D4B934204D084
:10031800D21A0C4918460FF021FE0B4A0B4B934298
:1003280004D0D21A002118460FF0EAFD04F046F86E
:100338000FF0EEFD00F0A2F8FEE700BF80030024F6
:100348000000002488050108B43300248003002439
:10035800704700BF704700BF704700BF3149AA22ED
:10036800314B324810B5097882B000781A704A1EAD
:1003780059709870032A52D8DFE802F033230E022E
:10038800FF210422D970002327492948CDE90033E9
:1003980003F0E6FB02B010BD264C00222649247863
:1003A8000978264864F30702007861F30F2224498C
:1003B80060F31742097861F31F62C3F8032007222C
:1003C800E1E72049204A09781278D9701ABB1F48FA
:1003D8001F49204A007809781278187159719A7162
:1003E800EDE71D481D4900781D4A1E4CD87002F1E2
:1003F800080E02F1100C03C982E8030094E8030018
:10040800194C1D228EE80300184903C98CE8030023
:1004180021781977B7E716481649174ADAE7032209
:10042800B1E700BFC303002400000030C20300246A
:10043800AC040024C1030024C0030024BF0300242B
:10044800BE030024BB030024BA030024B90300241C
:10045800B8030024B7030024BC030024AC03002421
:1004680004000030A4030024BD0300249C030024DE
:10047800B6030024B5030024B40300242DE9F04F8B
:100488000021B9B0C248022400F0DCFB01254FF47A
:10049800E132C04B002616A9BF48169317961A9446
:1004A800DFF844A3DFF844B3CDE91B52CDE9185671
:1004B80003F0ECFA304600F0EFFA03462846B74D51
:1004C800ADF8083000F0E8FA03462046ADF80C30E5
:1004D80000F0E2FAADF810009FEDB10A049BB148B4
:1004E800DDE9021200F000FF032000F0D5FA034610
:1004F8000420ADF8143000F0CFFA03460520ADF81B
:10050800183000F0C9FAADF81C009FEDA50A079B4A
:10051800A548DDE9051200F0E7FE062000F0BCFA68
:1005280003460720ADF8203000F0B6FA034608204D
:10053800ADF8243000F0B0FAADF828009FED980A25
:100548000A9B9A48DDE9081200F0CEFE092000F067
:10055800A3FA03460A20ADF82C3000F09DFA0346B2
:100568000B20ADF8303000F097FAADF834009FED6D
:100578008C0A0D9B8E48DDE90B1200F0B5FE0F20AA
:1005880000F08AFAADF8380022460E991DA800F04E
:1005980061FF102000F080FAADF83C0022460F9968
:1005A8000DF1860000F056FF112000F075FAADF845
:1005B80040002246109926A800F04CFF122000F0B7
:1005C8006BFAADF84400224611990DF1AA0000F02B
:1005D80041FF132000F060FAADF848002246129956
:1005E8002FA800F037FF142000F056FA03462246E1
:1005F8000DF1CE00ADF84C30139900F02BFF062218
:1006080004231DA96B4800F039FF6A4801F044F93A
:100618001D2000F041FA0346B7EE000A6648ADF81F
:100628005030149900F0CEFE1E2000F035FA034633
:10063800B7EE000A6148ADF85430159900F0C2FED3
:10064800FFF78CFE574800F07FFE574800F07CFE0D
:10065800564800F079FE564800F076FE564800F0FD
:10066800CBFE564800F0C8FE4E4A1379002B00F026
:100678009181B2F924904C4A1379002B00F08881BB
:10068800B2F92480494B1F790FB1B3F92470484B54
:100698001E790EB1B3F924603B46002437464E4616
:1006A8009946E1B2434801F00DF99FED457A0AEB0E
:1006B8008403D3ED007A70EE677AF0EEE77AF4EE11
:1006C800C77AF1EE10FA01DD83ED000A16B12B6846
:1006D80033442B60B8F1000F03D03A4B1A684244F8
:1006E8001A60B9F1000F03D0374A13684B441360FE
:1006F8001FB1364A13683B4413609BF80030042B43
:100708003FD8DFE813F0E00000018900770005001A
:100718002A4B1A799AB19B7A7F2B10D10123002298
:100728008BF800302A4B2A601A702A4B1A70254B16
:100738001A60254B1A60254B1A60274B1A70DAEDA0
:10074800027A9AED036AFCEEE77ADAED046ADFF8DA
:10075800A0C09AED057A17EE900AFCEEC67A8CF8DE
:10076800000017EE901AFCEEE67A1C4817EE902A65
:10077800FCEEC77A01701A4917EE903A0A70194AC6
:1007880013700134FFF7EAFD062C8AD15AE700BF3F
:10079800B004002401060107AC040024E803002487
:1007A80000000000840400245C04002434040024B5
:1007B8000C040024C8040024FC030024EC030024D7
:1007C8000AD7233CE4030024E0030024DC030024CC
:1007D800C2030024BC030024BA030024C00300247D
:1007E800BF030024BE030024C4030024C303002461
:1007F800C1030024754B1B78002B00F0CD802B68BB
:1008080073495A4203F0030302F0030258BF5342EC
:100818002B602B680B70B4E76E4B1B789A1E012A6D
:1008280040F2CB801A1F012A40F2CB80063B012BF5
:1008380000F2C98009202B68674A654993FBF0FCE0
:1008480000FB1C3310792B602B68DBB20B7010B1E6
:10085800927A7F2A73D0002B00F0B18003F1FF3E1B
:100868005E4A5F4B1B6810685E4A009311685E4AD7
:1008780082FB03235D4A82FB00C24FF0640CA2EBAB
:10088800E07202EB4202821A5948019280FB01028F
:100898000098C0170A44C0EB6310009B0CFB103390
:1008A800C817C0EB22224FF4B470013300FB1212B8
:1008B800504901F80E30504B019903F80E104F4B78
:1008C80003F80E205DE74FF4FA714D4800F0FAF88E
:1008D8003F490B780133DBB2032B0B707FF651AF26
:1008E8009BF8003001338BF800300022374B1A7028
:1008F8003B4B2A601A60394B0A701A60394B1A60F0
:10090800404B1A703DE72B683F4A584203F00303F7
:100918002F4900F0030058BF434210792B602B6821
:10092800DBB20B7000283FF42CAF927A7F2A7FF459
:1009380028AF032BD9D8DFE803F027231F1D012395
:1009480000228BF80030214B0A701A702349244B7F
:100958002A601A600A6023490A602A490A701B68DB
:100968005A4203F0070302F0070258BF5342194ADC
:10097800137006E70523B6E704238BF80030B4E7C5
:1009880003238BF80030B0E702238BF80030ACE784
:10099800984677E699466EE62B680D4A002B03F0D9
:1009A8000103B8BF5B422B602B68DBB21370003BBE
:1009B800144A18BF01231370E3E603203BE7084BF2
:1009C800CDE7052037E72B68FFDE00BFBC03002416
:1009D800C2030024BD030024EC030024E003002428
:1009E800E4030024DC0300241F85EB5156555555BC
:1009F800B7600BB6AC030024A40300249C030024B6
:100A0800B0040024BA030024FC030024164B174941
:100A1800174A184610B500241C605C611C62DC6330
:100A28000FF05AFA134B124A134914481C600FF07E
:100A380053FA0F4A104912480FF04EFA0C4A0E4961
:100A480010480FF049FA0A4A0B490F480FF044FAC8
:100A5800074A0E490E480FF03FFA054A0B490D4860
:100A6800BDE810400FF038BAB00400246103000854
:100A780000000024AC0400245D0300088404002462
:100A88005C040024340400240C04002459030008E6
:100A9800FC030024EC030024202882B009D8084B6A
:100AA80003EB400213F81030507843EA002002B0FC
:100AB800704701230C2043EA002002B0704700BFB2
:100AC8002C030108084603F093BA00BF10B540F2A2
:100AD80003338EB000244FF60B7240F20341ADF899
:100AE800083009A80123ADF81020ADF824202246CB
:100AF800ADF80C100094029907940C94CDE90544C4
:100B0800CDE90A4400F0E6FF04A801232246039930
:100B1800009400F0DFFF09A801F0C2F810B9012025
:100B28000EB010BD04A801F0BBF8A0420CBF022013
:100B380020460EB010BD00BF2DE9F04103239AB046
:100B4800012700240646CDE914373B4BCDE9104375
:100B580040F20453CDE91647ADF84830FFF7B6FF29
:100B6800B842054625D0022845D040F60132334B1D
:100B78000DF12C081894ADF82C200B981997CDF886
:100B88004A3000F0E3F810A906F13C0002F05CF8E6
:100B9800302003224FF07E5341460D930E93CDE94A
:100BA8000B02F26B06F1140000F04CFB1AB0BDE822
:100BB800F0811023214A06A906908DF828300DF1FE
:100BC8002C081F4BCDF84A2007930294CDE918044E
:100BD800CDE9080402A801F0E3FA0823029A03A960
:100BE8004046ADF80C508DF80E40049505930B94D3
:100BF80000F0ECF8C7E700200121104B0DF12C089C
:100C08003A460094CDF84A304FF60B730C94ADF881
:100C18002C302346CDE9180140F601314046ADF8A5
:100C280018100699CDE90D4400F054FF21464046BE
:100C380001F042F8A7E700BF040204040406040315
:100C48000704010B2DE9F04704462DED028B82B015
:100C580000294DD0012140F2011200230091ADF886
:100C680004208DF80630364A0127364B04F1040972
:100C7800354904F12908626040F20272A36040F627
:100C88000663E16004F1250AA4F82520A4F82930B8
:100C9800278284F8277084F82B7003F045FB0546FB
:100CA80003F0A8F96946064650BB4DB304F130007D
:100CB8008DF8067003F0C0FA072D3CD104F1140535
:100CC8002046FFF739FF284600F0F8FA2846B0EE2C
:100CD800408A00F0EFFAD0ED007AF8EE677A88EEF5
:100CE800277A84ED0E7A02B0BDEC028BBDE8F0875E
:100CF80040F2011300918DF80610ADF80430B2E708
:100D080004F1300003F098FA072D11D04946204627
:100D180001F08EFC0EB9002DD0D1504600F0D6FF60
:100D2800404600F0D3FF04F1120000F079F9C5E75E
:100D3800002EF2D1C2E74946204601F079FCBDE712
:100D48000508050905070506050A060610B584B055
:100D580003460124ADF8040003A8ADF80C30ADF843
:100D68000E4000F0B3FF214603A801F099F8204691
:100D780003F03EF9002103A801F092F8204603F0A1
:100D880037F9214603A801F08BF804B010BD00BF65
:100D980010B5C2F3002384B00C46017C8DF80D20F9
:100DA80043EA4402FA2402238DF80C2003AA009493
:100DB80001F08CFA18B10124204604B010BD044695
:100DC8000A2003F015F9204604B010BD034670B59B
:100DD80043F8042B044684B007C983E80700A379C5
:100DE80083B91A210B461E22FA2523742046ADF832
:100DF8000C20022303AA009501F068FA28B101200B
:100E080004B070BD1B210B46EDE70A2003F0F0F893
:100E18004FF4B85200950223ADF80C20204603AADF
:100E2800217C01F053FA0028E9D10A2003F0E0F808
:100E380041F2027200950223ADF80C20204603AA65
:100E4800217C01F043FA0028D9D10A2003F0D0F818
:100E5800042200950223ADF80C20204603AA217C29
:100E680001F034FA0028CAD10A2003F0C1F806229A
:100E780000950223ADF80C20204603AA217C01F03E
:100E880025FA0028BBD10A2003F0B2F841F2082263
:100E980000950223ADF80C20204603AA217C01F01E
:100EA80015FA0028ABD10A20064603F0A1F80095F0
:100EB800022303AA217C2046ADF80C6001F006FA53
:100EC80000289CD1304603F093F8009522790C2332
:100ED8002046002A8DF80C3003AA4FF0020314BFF5
:100EE800622142218DF80D10217C01F0EFF90028D4
:100EF80085D1304603F07CF82279D4E902310B43DE
:100F0800DBB20AB943F0400362790AB143F0200327
:100F18000E22FA258DF80D302046009502238DF813
:100F28000C2003AA217C01F0D1F900287FF467AFD7
:100F38000A2003F05DF8102200950223ADF80C207A
:100F4800204603AA217C01F0C1F900287FF457AF9D
:100F58000A2003F04DF8122100950223ADF80C1079
:100F680003AA217C204601F0B1F900287FF447AF9D
:100F78000A2003F03DF8012209212046FFF708FF67
:100F8800003818BF01203BE7F0B5102387B0234C89
:100F9800012200250126002702A920460195CDE956
:100FA80002234FF48052CDE9046709F0CFFD642095
:100FB80003F060FC02A94FF480522046CDE9046793
:100FC80002261027CDE9026709F0C0FD032210238D
:100FD80002A92046CDE9022300230422CDE90423F7
:100FE8004FF4805209F0B2FD40F23223042202A9E4
:100FF800019310232046CDE90223019A012305928B
:101008004FF48052049309F0A1FD40F606012046F2
:1010180009F0BCFD284607B0F0BD00BFF804002465
:101028001C4B00221C494FF0400C30B5054689B0D6
:101038000220596007219A601A620124DA620A22A2
:101048004FF4006EDC6006922022CDE900010420F6
:101058000821CDE9020103201021CDE9040108206F
:101068006946C3E904024FF4C072181DC3E906C2F9
:101078004FF48052C3E909E209F03EFD38B9284629
:10108800FFF782FF003818BF012009B030BD2046A5
:1010980009B030BDF404002440410052614A0021E7
:1010A800D0B513688EB00A91002B40F0B9805E4B22
:1010B80001214FF683700C2411600221D3F8D4204B
:1010C8000026032742F48052C3F8D420D3F8D42052
:1010D80002F480520092009AD3F8E02042F0100205
:1010E800C3F8E020D3F8E02002F010020192019A40
:1010F800D3F8E02042F04002C3F8E020D3F8E02023
:1011080002F040020292029AD3F8E02042F008026C
:10111800C3F8E020D3F8E02002F008020392039A13
:10112800D3F8E02042F48072C3F8E020D3F8E0203E
:1011380002F480720492049AD3F8E02042F080020C
:10114800C3F8E020D3F8E02002F080020592059A67
:10115800D3F8E02042F02002C3F8E020D3F8E020E2
:1011680002F020020692069AD3F8E02042F0040228
:10117800C3F8E020D3F8E0300C9403F0040307939D
:101188000323079A0B93CDE9080108A9274805F01E
:10119800F7F948F23712022308A925480C94CDE93B
:1011A8000823CDE90A6705F0EBF94CF20372022334
:1011B80008A920480C94CDE90823CDE90A6705F071
:1011C800DFF940F2FF62022308A91B480C94CDE91D
:1011D8000823CDE90A6705F0D3F94FF60C7202230C
:1011E80008A916480C94CDE90823CDE90A6705F04B
:1011F800C7F94FF63F02022308A911480C94CDE91C
:101208000823CDE90A6705F0BBF92022022308A9C3
:101218000A480C94CDE90A67CDE9082305F0B0F92E
:101228000EB0D0BDF004002400440258001002584B
:1012380000180258000C025800200258001C0258DE
:101248000014025830B5184C154685B0046004F1F6
:10125800080EEC460FC98EE80F00D4ED047AF5EEBF
:10126800C07A8CE80F00F1EE10FA1ADDB7EE006ACA
:1012780094ED057A27EE277AC6EE276A84ED0D7A73
:10128800C4ED0C6A6DB1204640F8185F01F0D4FD3A
:10129800064903690020064A2162A262E36005B09C
:1012A80030BD012005B030BD2C05002440200030A1
:1012B8004000003000680830704700BF00681830F0
:1012C80001F0BCBD10B4074B4FF07E513024002212
:1012D800032019619C60D8605DF8044B5961C3E92B
:1012E800062270472C05002430B585B00446002539
:1012F800ADF80C10ADF80820ADF8043002F076FE19
:10130800BDF80C204FF48073206004F1180022838C
:10131800BDF808206383E383A283257100F0D6FC1F
:1013280004F11C0000F0D2FC9FED060A019904F1BB
:10133800080000F047F84FF6FF736562238405B094
:1013480030BD00BF00000000F8B5044602F04EFEB4
:10135800002623682671834205D104F10800BDE800
:10136800F84000F049B8012794F82050206004F1B3
:101378001800BD40277100F085FD6DB2284394F830
:101388002150BD4084F8200004F11C0000F07AFDD3
:1013980094F820306DB2666203F003032843022BF1
:1013A800C0B284F8210009D000F003000228D4D18B
:1013B800002BD2D14FF0FF336362CEE78307CCD145
:1013C8006762CAE770B5044682B0C1F30726CDB29A
:1013D800ADF8041002F00AFE4FF480724FF00123BA
:1013E8002060A01DA571A280E671A36002B0BDE8CF
:1013F800704000F06BBC00BF38B5044602F0F6FD43
:10140800002223682271834210D00122A57AE37A50
:10141800954020602271A01D6DB243B900F032FDE5
:1014280040B22843C0B27F28A0720AD038BD00F06D
:1014380029FDB0FA80F040092843C0B27F28A07285
:10144800F4D102F0D3FD07EE900AF8EE677AC4ED06
:10145800037A38BD00B583B04FF0000E4FF0030C8F
:101468004274ADF80410BDF8043080F810E0A0F81C
:1014780002C0038003B05DF804FB00BF2DE9F04F04
:10148800DFF81C8300258DB0C04C037008F14003C1
:101498004260074601920E46202229464046C4F87B
:1014A8006831C4F86481CDE90255CDE90455CDE928
:1014B8000655CDE90855CDE90A550EF021FD202243
:1014C800294604F5A170C4F83151C4F83551C4F85F
:1014D8003951C4F83D510EF013FD019B84F8485270
:1014E80084F830317A68002A6AD02B4604F598715E
:1014F800454606F1100A9E46F01856F803B0E21861
:101508000EF1010ED0F80CC0D0F80490D0F8088085
:1015180044F803B0C2F80CC04FF0000CC2F80490B5
:10152800C2F80880008A25F802CB10821AF8032036
:1015380001F8012F002A70D07A684FF001001233A9
:10154800724584F84802D7D84FF4802290489DF815
:10155800043008214FF000084FF00009C4F8843126
:101568000023C4E95B020122C4F8743184F8803195
:10157800C4E95E2194F84812C4E96489A9B3C4F89F
:101588009821002284F8813184F888313B78C4E9B5
:101598006722002B38D0012200200121013B84F86A
:1015A800A421C4E96C01082B30D8DFE813F0BD0092
:1015B800C200C700CC00D100D600DB00E100E80083
:1015C8009DF804300121C4F87421C4F884314FF423
:1015D800802384F880216E4AC4E95B230823002213
:1015E800C4E95E130023C4E964230123002284F8BC
:1015F8008131002384F888310323C4F898313B787B
:10160800C4E96722002BC6D184F8A431614803F0ED
:1016180069FD034638B1FFBEFEE77A6812337245AA
:101628003FF66AAF90E702A95A48029303F0B8FE62
:101638008246002876D1042240F2FF710A90CDE953
:10164800081294F83021002A00F0F3804FF00608C1
:101658000AEBCA034FEACA0904EB43035B7C072B76
:1016680007D8DFE803F0595C5653504D4A04072366
:1016780007930FFA8AF6D14406EBC60604EB49092C
:1016880004EB46077500384600F020FB99F8103047
:10169800042B00F3AA80022B00F3BD8000F0B98070
:1016A80004EB0A03002283F8202114F81630002BDB
:1016B80078D0022B00F08A80012B40F0B2807B7832
:1016C800012B00F0B080002B334B18BF002305A975
:1016D8003048CDE9053803F031F9002840F0AC80F6
:1016E8000AF1010A94F830315FFA8AFA534540F258
:1016F800A0802A4B53F82A80AAE706230793B8E765
:1017080005230793B5E704230793B2E70323079359
:10171800AFE702230793ACE700230793A9E7012368
:101728000793A6E7FFBEFEE703224023C4E96A2326
:101738006CE707226023C4E96A2367E70F22802346
:10174800C4E96A2362E71F22A023C4E96A235DE78C
:101758003F22C023C4E96A2358E77F22E023C4E973
:101768006A2353E7FF224FF48073C4E96A234DE7E5
:1017780040F2FF124FF49073C4E96A2346E740F23F
:10178800FF324FF4A073C4E96A233FE768050024D9
:1017980000200240D40600240002B025700301088E
:1017A800404000307B78062B37D0072B3DD0022BEA
:1017B8004AD0032B4AD0002B4CD0012B48D0042B05
:1017C8004AD0052B254B18BF002380E77B78042BD4
:1017D80025D0052B2BD08BB3012B31D0022B31D048
:1017E800032B1F4B18BF002371E70323043504EBB9
:1017F8000A0B4FF0000925448BF82031284609F1DF
:10180800010900F063FA9BF8203104354B45F5DCFB
:101818004BE70123EAE70223E8E7124B57E7124BAD
:1018280055E7002353E7114B51E7114B4FE7114B95
:101838004DE70DB0BDE8F08FFFBEFEE70E4B46E763
:101848000E4B44E70E4B42E70E4B40E70E4B3EE78C
:101858000E4B3CE70E4B3AE70E4B38E70000B84F0B
:10186800002090360800900C1000C0102000F014E2
:101878008000501D000180210004002A0008302E3D
:10188800001060320040C03A0080F03E000052472D
:10189800000021430000844B38B5094C40F2FF7228
:1018A8004FF0011104F5B675284603F027FD94F8AA
:1018B8003021D4F864112846BDE8384003F092BAC4
:1018C80068050024064B0F29D3F8643198BF03EB51
:1018D80041031B8800EE103ABBEEC80A704700BFF0
:1018E80068050024214B02689A4200D07047204ABC
:1018F80000232048D2F8D81030B51F4C41F0200101
:1019080083B0C4F8D001092004F5E875C4E975036B
:101918004FF48060C2F8D810D2F8D8204FF4006194
:10192800C4E9773094F8480202F02002C4F8E411C0
:101938004FF40051984201922846C4F8E811C4E9CE
:101948007C33019B14BF00234FF48073C4F8EC313F
:1019580003F04CFF08B1FFBEFEE704F5B673C4F808
:10196800B851C4F8083203B030BD00BF00200240AF
:10197800004402584000024068050024014804F071
:10198800ADBA00BF3807002402682DE9F84F4B4B69
:101998009A4201D0BDE8F88F494D95F84832002B9E
:1019A800F8D095F83031002B77D0002405F10C09D8
:1019B80005F5A17605F59877A04613E003F0010137
:1019C80017F811BCA9F1080000F06AFABBF1010F81
:1019D80025D895F83031013409F112090236A2B23E
:1019E80093422BD917F8012F002AF4D0D5F8643187
:1019F8000021327833F81400D5F8683103EB04136A
:101A080023F81200338801339BB233805FFA83FADC
:101A18003A789A42D2D88A46A6F80080D0E7CAF324
:101A28004001A9F1040000F03BFABBF1020FCAF330
:101A38008001CED0484600F033FACAE7002395F873
:101A48004802204909229842C5F8D8314FF48060ED
:101A5800C5F8D011C5F8D4214FF400614FF40052F5
:101A6800C5F8DC3108BF4FF48073C5F8E821C5E933
:101A7800780100221448C5E97B32C5F8F42103F047
:101A8800B5FE08B1FFBEFEE795F83021D5F8641120
:101A98000E48BDE8F84F03F0A5B90A4909224FF4EA
:101AA8008060C5F8D831C5E974124FF400614FF46D
:101AB8000052C5E97730C5E97912DAE7002002401B
:101AC800680500244000024038070024D40600249A
:101AD800704700BF10B592B0ADF804100180C9B2CC
:101AE800149C0B29C460C0E901233FD090F801C0C1
:101AF800BCF10F0F3AD8022A3FD0032A02D0012A9C
:101B080000D000220E92012B02D0022B18BF002316
:101B1800022C0F932CD0032C2AD0012C28D0002380
:101B28000A29109327D85C4A02EB812202610A290C
:101B380014D8DFE801F0A39587796B5D4F41332511
:101B48000600564BD3F8E01041F48061C3F8E0106A
:101B5800D3F8E03003F480630C930C9B01230DA9A8
:101B6800104603FA0CF30D9304F00AFD12B010BDF1
:101B78000A291094D7D90022D8E711220E92C2E779
:101B8800464BD3F8E01041F40071C3F8E010D3F8E5
:101B9800E03003F400730B930B9BDFE73F4BD3F864
:101BA800E01041F48071C3F8E010D3F8E03003F49A
:101BB80080730A930A9BD1E7384BD3F8E01041F0C1
:101BC8008001C3F8E010D3F8E03003F080030993F4
:101BD800099BC3E7314BD3F8E01041F04001C3F84B
:101BE800E010D3F8E03003F040030893089BB5E712
:101BF8002A4BD3F8E01041F02001C3F8E010D3F8E5
:101C0800E03003F020030793079BA7E7234BD3F8A3
:101C1800E01041F01001C3F8E010D3F8E03003F011
:101C280010030693069B99E71C4BD3F8E01041F08C
:101C38000801C3F8E010D3F8E03003F00803059377
:101C4800059B8BE7154BD3F8E01041F00401C3F86E
:101C5800E010D3F8E03003F004030493049B7DE71D
:101C68000E4BD3F8E01041F00201C3F8E010D3F8AE
:101C7800E03003F002030393039B6FE7074BD3F8AD
:101C8800E01041F00101C3F8E010D3F8E03003F0B0
:101C980001030293029B61E70000025800440258C6
:101CA80008B5012143780069994089B204F070FEB3
:101CB800003818BF012008BD01230A464178006991
:101CC80003FA01F189B204F069BE00BF8378022BE0
:101CD80030B504468FB037D0032B33D0012B31D029
:101CE80000230A93E378012B2AD0022B28D0002363
:101CF8000B93002320460C9302F09AFC05462046DD
:101D080002F09EFC23780990082B13D8DFE803F033
:101D18001F3245586B7E91A40500594BD3F8E0203B
:101D280042F48072C3F8E020D3F8E03003F4807303
:101D38000893089B09A9284604F022FC0FB030BD7F
:101D48000B93D6E70A93CDE711230A93CAE74C4BC6
:101D580009A92846D3F8E02042F00102C3F8E020A0
:101D6800D3F8E03003F001030093009B04F008FC73
:101D78000FB030BD424B09A92846D3F8E02042F005
:101D88000202C3F8E020D3F8E03003F00203019325
:101D9800019B04F0F5FB0FB030BD394B09A928466B
:101DA800D3F8E02042F00402C3F8E020D3F8E03092
:101DB80003F004030293029B04F0E2FB0FB030BD72
:101DC8002F4B09A92846D3F8E02042F00802C3F8AF
:101DD800E020D3F8E03003F008030393039B04F0FA
:101DE800CFFB0FB030BD264B09A92846D3F8E02019
:101DF80042F01002C3F8E020D3F8E03003F01003FB
:101E08000493049B04F0BCFB0FB030BD1C4B09A924
:101E18002846D3F8E02042F02002C3F8E020D3F8A7
:101E2800E03003F020030593059B04F0A9FB0FB0F5
:101E380030BD134B09A92846D3F8E02042F04002F0
:101E4800C3F8E020D3F8E03003F040030693069B84
:101E580004F096FB0FB030BD094B09A92846D3F80A
:101E6800E02042F08002C3F8E020D3F8E03003F02D
:101E780080030793079B04F083FB0FB030BD00BFBE
:101E88000044025838B5054602F0D2FB04462846FD
:101E980002F0D6FB01462046BDE8384004F078BD84
:101EA80070B506460D4602F0C3FB0446304602F004
:101EB800C7FB2A1E0146204618BF0122BDE8704014
:101EC80004F06CBD0023122270B586B0CDE9022360
:101ED80004930368032B01D804230593061D841D6E
:101EE800304602F0A5FB0546304602F0A9FB034642
:101EF80001A92846019304F043FB204602F098FB11
:101F0800034620461C4602F09BFB01A903462046D7
:101F1800019304F035FB06B070BD00BF634A036847
:101F2800934210B58CB028D0614A934258D0614A88
:101F3800934200F09480604A934201D00CB010BDE7
:101F48005E4C5F48D4F8E03043F00203C4F8E03058
:101F5800D4F8E03003F002030A930A9BFFF7B2FFBC
:101F6800D4F8F43043F08003C4F8F430D4F8F430F3
:101F780003F080030B930B9BE0E7504C5148D4F8D7
:101F8800E03043F00203C4F8E030D4F8E03003F066
:101F980002030193019BFFF795FFD4F8E830002274
:101FA8001F2043F400131146C4F8E830D4F8E83091
:101FB80003F400130293029BD4F8D83043F00103D2
:101FC800C4F8D830D4F8D83003F001030393039B46
:101FD80003F05AFA1F200CB0BDE8104003F092BA83
:101FE800364C3948D4F8E03043F08003C4F8E03088
:101FF800D4F8E03003F080030493049BD4F8E03075
:1020080043F00203C4F8E030D4F8E03003F00203F0
:102018000593059BFFF756FFD4F8E83000222120EE
:1020280043F480031146C4F8E830D4F8E83003F4E8
:1020380080030693069BD4F8D83043F00103C4F814
:10204800D830D4F8D83003F001030793079B03F086
:102058001BFA21200CB0BDE8104003F053BA1B480E
:10206800FFF730FF154B00224820D3F8E84011460F
:1020780044F40004C3F8E840D3F8E84004F400044A
:102088000894089CD3F8D84044F00104C3F8D84019
:10209800D3F8D83003F001030993099B03F0F4F94E
:1020A80048200CB0BDE8104003F02CBA00540040A2
:1020B80000580040005C0040001C005800440258D2
:1020C800400A0024B8070024900800246809002466
:1020D8002DE9F0431A4B87B000254FF010099E46B2
:1020E800EC46184BFF22E04667461A700EF11806B8
:1020F8000EF13004CDE90055CDE90255ADF8009058
:10210800BCE80F00CDE90455AEE80F009CE80300D9
:102118000095ADF800908EE80300B8E80F000FC6F0
:102128009CE803000095ADF8009086E803000FCF07
:102138000FC49CE8030084E8030007B0BDE8F083FF
:1021480004000024B407002410B5EFF3108472B61D
:10215800084B1A78120602D504B962B610BD1B786E
:10216800D82205485BB202FB0300143003F0B6FE28
:10217800F2E700BFB4070024B8070024014805F0BF
:10218800A5BA00BF44080024014805F09FBA00BF63
:102198001C090024014805F099BA00BFF40900247D
:1021A8002DE9F0430F68D8243F4D85B007FB04F4B0
:1021B800032F05EB0403036040DCCB680E46012BBC
:1021C8003CD84DD04FF0D808B646DFF8FC9008FB55
:1021D8000758BEE80F00C446ACE80F00DEF8003030
:1021E8000DF1100ECCF80030D8F808C099E80F00AF
:1021F8000EE90F000EEB8703BCF1010F53F8103CFA
:10220800C8F88C3031D0BCF1020F42D0BCF1000FBD
:1022180035D0317C8C34D823002201202C4403FB98
:1022280007534900C3E92602C3F894102046C3E9BE
:102238002822C3E92A2205F03BF818B1012005B08D
:10224800BDE8F0830146204605F04CFA0028F5D198
:102258000146204605F070FA003818BF0120EEE765
:102268000B7C103B672BADD9E8E702F05BF80F4B0E
:1022780098420CBF0E4B0F4BC8F89030C9E702F0DC
:1022880051F80A4B98420CBF0B4B0C4BC8F89030D6
:10229800BFE702F047F8054B98420CBF084B094BC3
:1022A800C8F89030B5E700BFB8070024000E27072C
:1022B8002D0FB0303211D0205F4390608A62E03039
:1022C800200BA0101A098010F00201082DE9F04136
:1022D800D0F8008082B00D4617461E4608F18C04DF
:1022E800204605F0FBF92028FAD1D8F80C3073B94C
:1022F8006D002046089C33463A46A9B2009405F082
:102308002DF8003818BF012002B0BDE8F081089B05
:1023180032463946204605F0F5F8F2E7044B10221C
:102328001A7483F8E82083F8C02183F8982270474C
:10233800B807002430B5002395B04FF48071062209
:1023480004460B9306921393CDE90C13CDE90E3393
:10235800CDE9113301F0E8FF07282BD004F110056F
:1023680041F2883206A9284605F0F8FF28B1012372
:10237800184684F85C3015B030BD0222022306A945
:102388002846CDE9002310220123CDE902230022AB
:102398004FF48003CDE9042305224FF080730692A1
:1023A8006A460F9341F2883306F044F90028DED1DB
:1023B80015B030BD0323012084F85C3015B030BD62
:1023C80070B50023A4B04FF080724FF480750446B6
:1023D800ADF806300D93CDE910320122CDE90E5348
:1023E800CDE91223CDE91433002943D0F02300F1BD
:1023F800100508AEADF80630C02341F288323146E8
:102408002846089305F0AAFF28B10123184684F846
:102418005C3024B070BD41F288320DF106012846C7
:1024280006F006F803460028EFD105224FF4807124
:102438001E93284616924FF080721B9321931F9289
:1024480002AA9FED1F7BCDE91C13CDE922338DED48
:10245800027B9FED1D7B41F2883316A98DED047B2D
:102468009FED1B7B8DED067B06F0E4F80028CCD1B0
:1024780024B070BD00F1100508AE612341F2883226
:1024880031462846089305F069FF0028BDD141F27E
:1024980088320DF10601284606F048F80028B4D124
:1024A800BDF80630204623F0780343F04003ADF82A
:1024B8000630FFF73FFF00289ED0A6E7AFF3008065
:1024C80000000000010000001000000001000000F2
:1024D80000000000000040002DE9F04F00234FF4F9
:1024E800807501264FF0807804462DED028BABB045
:1024F8008DF8073013932193299314950E96CDF8F0
:102508005C80CDE91533CDE91863CDE91A33CDE9FF
:102518002253CDE92433CDE9273306231C9301F058
:1025280003FF072808D004F1100741F288321CA9DC
:10253800384605F013FF40B10123184684F85C3093
:102548002BB0BDEC028BBDE8F08F4FF0020A4FF0C4
:10255800020B4FF0050941F2883308AA1CA9384636
:10256800CDF89480CDF870909FED2D8BCDE908AB18
:102578004FF0000A4FF4800B8DED0A8BCDE90CABC0
:1025880006F058F80028D7D141F2883238460EA90B
:1025980005F0E4FE0028CFD1402341F288320DF146
:1025A800070138468DF8073005F042FF0028C3D1EF
:1025B80041F288330EA902AA3846CDF83890CDF8F2
:1025C8005C809FED197B8DED048BCDE906AB8DED1D
:1025D800027B06F02FF803460028ADD1CDF87090A5
:1025E8004FF00109CDF894804FF00008219308AA14
:1025F80029931CA938462295CDE92333CDE9273301
:1026080041F288338DED0A8BCDE90CABCDE9088911
:1026180006F010F8002893D0304684F85C608FE705
:102628001000000001000000400000004000000011
:102638002DE9F043624CA3B00D46046001F074FE2E
:10264800072800F0A980286823466968AA6807C394
:102658001E46AB8926F8043B3046257B677B05F090
:102668005FFEE0B9574B012D4FF00108E06123618F
:1026780014BF4FF480134FF40003C4E9058893FA9C
:10268800A3F3B3FA83F34FF48079013BC4F82490A1
:10269800C4E90B003046236205F0D6FD38B10122AB
:1026A800134684F85C20184623B0BDE8F0836623FF
:1026B8000B90139041F2883206A90693CDE90C904D
:1026C800CDE90E00CDE91100304605F047FE00289F
:1026D800E5D1992341F2883206A93046069305F0E0
:1026E8003DFE0028DBD105231C9019906A461493FF
:1026F8004FF08073219014A91D9341F288339FED08
:102708002A7BCDE91A90CDE91F008DED007B9FED66
:10271800287B30468DED027B9FED277B8DED047B7A
:1027280005F088FF0028BAD129462046FFF748FE61
:102738000028B4D12046FFF7CFFE03460028AED1CB
:10274800002FB0D1189330460027002606AA14A9F6
:10275800CDF86890CDE91F33EB2314934FF4406311
:102768001B934FF4005317934FF440431C93A0233B
:102778001693062319934FF0805321934FF040731B
:10278800CDE906671D9305F0CDFF034600288AD0E2
:10279800434684F85C8086E701230322184684F8C0
:1027A8005C2023B0BDE8F0830000000001000000B9
:1027B80010000000010000000000000000004000C0
:1027C800180B0024005000522DE9F04F8FB0414BF8
:1027D8000024026800AF9A427C63C7E90944C7E94C
:1027E8000B4403D03C37BD46BDE8F08F3A4B40F66A
:1027F80009213A48EB46D3F8D42007F11C0607F123
:10280800220A4FF0020942F480424FF00308C3F84D
:10281800D420D3F8D42002F48042BA60BA68D3F83E
:10282800E02042F04002C3F8E020D3F8E02002F0B4
:102838004002FA60FA68D3F8E02042F02002C3F8B8
:10284800E020D3F8E02002F020023A613A69D3F898
:10285800E02042F01002C3F8E020D3F8E02002F0B4
:1028680010027A617A69D3F8E02042F00202C3F8D4
:10287800E020D3F8E030F86103F002033984BB614B
:10288800174B7B60BB697B6853F8040F7B6001F0D2
:10289800CFFE7B680546186801F0D2FE16F8013BAA
:1028A800786207F124012846C7F830807B63C7E9BE
:1028B8000A9403F065FE5645E5D100225C201146D6
:1028C80002F0E2FD5C2002F01DFE3C37DD46BD460D
:1028D800BDE8F08F00500052004402580A0A090966
:1028E800740B0024114B02689A4200D07047104ABA
:1028F80070B5D2F8D4300F4C23F4804304F1180695
:10290800C2F8D43054F8040F01F092FE054620684E
:1029180001F096FE0146284603F072FFB442F1D159
:102928005C20BDE8704002F0FBBD00BF00500052C3
:1029380000440258740B0024014805F07FBF00BF13
:10294800280B0024084B1A1D981D03F1080110B428
:102958009C1C9A6603F10A02C3E91834C3E91B01F7
:102968005DF8044B5A677047180B002438B50368A4
:1029780071B9026A00F1280500F5AC74012A0CBF90
:10298800002140218BBB1D4B5722C0F858310DE068
:10299800426A00F1C00500F5E874012A0CBF002165
:1029A8004021EBB1164B5A22C0F8D0310023204603
:1029B800C4E901214FF480524FF48061636262617F
:1029C8004FF48042C4E903314FF48073C4E906230D
:1029D8004FF40033236202F009FF58B1FFBEFEE74F
:1029E800084B5822C0F8D031E0E7074B5922C0F80D
:1029F8005831DBE7C5E92044A56338BD1000024023
:102A08007000024028000240580002402DE9F043BF
:102A1800821D05468BB0031D05F10A010830CDE97A
:102A2800052305F10C02AB69CDE907010992002BDA
:102A38003DD0EB69B3FA83F84FEA58180123022214
:102A480005AE0AAF4FF006090393CDE9012356F806
:102A5800044B2B792278934216D02B68F3B1012BC3
:102A680002D1F2B10A230493204601F0E9FD03469E
:102A78002046009301F0DCFD694603F081FDBE426B
:102A8800E5D10BB0BDE8F083697963789942E4D168
:102A9800B8F1000FF3D02B68002BE0D1CDF81090DF
:102AA800E2E76378022B14BF0A230823DBE74FF021
:102AB8000108C3E7534A0368934230B505468BB013
:102AC80055D02032934252D04F4A934204D02032FC
:102AD800934201D00BB030BD4C4C4D48D4F8E03097
:102AE80043F00103C4F8E030D4F8E03003F0010308
:102AF8000593059BD4F8E03043F00803C4F8E030B0
:102B0800D4F8E03003F008030693069BD4F8E030CD
:102B180043F04003C4F8E030D4F8E03003F0400359
:102B28000793079BD4F8F03043F40003C4F8F0305F
:102B3800D4F8F03003F400030893089BFFF766FF0E
:102B4800D4F8D830296843F001032F4A3048C4F834
:102B5800D830891AD4F8D83018BF012103F00103FE
:102B68000993099B0BB0BDE83040FFF7FFBE274C27
:102B78002848D4F8E03043F00103C4F8E030D4F832
:102B8800E03003F001030093009BD4F8E03043F0F9
:102B98001003C4F8E030D4F8E03003F010030193D8
:102BA800019BD4F8E03043F04003C4F8E030D4F897
:102BB800E03003F040030293029BD4F8F03043F472
:102BC8008003C4F8F030D4F8F03003F480030393A2
:102BD800039BFFF71BFFD4F8D830296843F00103A3
:102BE800084A0C48C4F8D830891AD4F8D83018BF25
:102BF800012103F001030493049B0BB0BDE83040AE
:102C0800FFF7B4BE04580140045C01400044025878
:102C1800EC0D0024900B0024014803F05FB900BFBD
:102C2800E80C0024014803F059B900BF600D0024E6
:102C3800014803F053B900BF440F0024014803F0D2
:102C48004DB900BFBC0F00242DE9F04F0C684FF4BC
:102C58001776754F87B004FB06F6012C07EB060ABA
:102C6800C0F800A000F3A0800D468E464FF0000883
:102C7800D44669A3D3E9002369A1D1E90001CDE9CC
:102C8800022306ABCAF8508203EB8403CDE90401A2
:102C980053F810BC53F8083CCAE992880193BEE87F
:102CA8000F00ACE80F00BEE80F00ACE80F00019B76
:102CB8009EE80300CAF828B0CAF8C0308CE80300C0
:102CC8002B69042B0CD8DFE803F0737D8791030090
:102CD8004FF41773554A03FB04739A64C3F8E02052
:102CE800AA692B6A002A43D0002B4FF4177308BF38
:102CF800022203FB047318BF0322DA6201221A635B
:102D0800EA696B6A002A40D1191E4FF4177318BF7D
:102D1800012103FB0473C3E931126B69022B05D847
:102D2800434A12F80380434A52F823904FF417732A
:102D380006F128004246494603FB04740023384440
:102D480063646363E365C4F8DC30C4F8CC30C4F86A
:102D5800F430C4E90F33C4E91533C4E93533C4E9A1
:102D68003B33022307F00CFE002849D0FFBEFEE7E4
:102D7800191E4FF4177318BF012103FB0473C3E92D
:102D88000B12EA696B6A002ABED0002B4FF4177346
:102D980008BF022203FB047318BF0322C3F8C42030
:102DA8000122C3F8C820B8E7012007B0BDE8F08FBA
:102DB8004FF417734FF4FA5203FB04739A64C3F881
:102DC800E0208DE74FF417734FF47A5203FB047336
:102DD8009A64C3F8E02083E74FF417734FF4FA427C
:102DE80003FB04739A64C3F8E02079E74FF4177380
:102DF8004BF6803203FB04739A64C3F8E0206FE754
:102E080006F1C000022342464946384407F0B8FD9F
:102E18000028CAD0FFBEFEE704580140045C014008
:102E280024580140245C0140900B002400770100E5
:102E3800B0030108B40301080068704703681B6900
:102E4800042B05D8044A02EB830393ED000A70476C
:102E58009FED020A704700BFC003010800803B478E
:102E68001F4BC1680268F0B5D3F88C5083B0036972
:102E7800ADB24D1BA2B1AB4212D00446866811D246
:102E8800F018E91ACDE9001000F0EAFF0023DDE9A7
:102E98000010D4E90062B047E3682561AB421BD05B
:102EA80003B0F0BDF018C91ACDE9000100F0D8FF51
:102EB8000023DDE90001D4E90072B847304629460D
:102EC80000F0CEFF00233046626829462668B047E6
:102ED800E3682561AB42E3D10023236103B0F0BD71
:102EE800000002402DE9F84F04460F4690461E4662
:102EF80000F13405284608F077F82028FAD14FF475
:102F080080630020C4F8D030C4F848314FF440330F
:102F1800C4F8CC00C4F8E030C4F858314E4BC4F8BB
:102F2800DC00C4F8C03003F57A73C4F8E400C4F8D0
:102F380038314023C4F8C800C4F84031E369C4F804
:102F48004401C4F85401C4F85C01C4E93500C4E97B
:102F58005300072B0BD8DFE803F061535A373E457F
:102F68004C045123C4F8C4305223C4F83C3104F54E
:102F78009C79484602F03AFC08B1FFBEFEE7C4F867
:102F8800A890C4F87051EFF3108972B6DFF8D0B08A
:102F980094F91C30DFF8CCA08BF800300A9B2F4C3A
:102FA800CAF800300B9B23600EB11846B0471FFAD1
:102FB80088F23946284607F001FEB0BBB9F1000F88
:102FC80000D162B6BDE8F88F3F23C4F8C43040236F
:102FD800C4F83C31CBE74123C4F8C4304223C4F8D9
:102FE8003C31C4E74723C4F8C4304823C4F83C3113
:102FF800BDE74F23C4F8C4305023C4F83C31B6E7CA
:103008002B23C4F8C4302C23C4F83C31AFE72D235C
:10301800C4F8C4302E23C4F83C31A8E72923C4F8E7
:10302800C4302A23C4F83C31A1E7FF238BF80030D1
:103038000023CAF8003023600A9B3BB10B9801219A
:1030480098470120B9F1000FBCD1BAE70120B9F1C6
:10305800000FB7D1B5E700BF88000240801F0024E9
:103068007C1F0024781F00242DE9F84F04460F46E2
:1030780090461E4600F13405284607F0B5FF202883
:10308800FAD14FF480630020C4F8D030C4F8483136
:103098004FF44033C4F8CC00C4F8E030C4F85831D9
:1030A8004E4BC4F8DC00C4F8C03003F57A73C4F89A
:1030B800E400C4F838314023C4F8C800C4F84031EB
:1030C800E369C4F84401C4F85401C4F85C01C4E9D4
:1030D8003500C4E95300072B0BD8DFE803F0615330
:1030E8005A373E454C045123C4F8C4305223C4F81F
:1030F8003C3104F1C009484602F078FB08B1FFBE34
:10310800FEE7C4F8AC90C4F8F850EFF3108972B633
:10311800DFF8D0B094F91C30DFF8CCA08BF8003081
:103128000A9B2F4CCAF800300B9B23600EB118463F
:10313800B0471FFA88F23946284607F091FDB0BB20
:10314800B9F1000F00D162B6BDE8F88F3F23C4F88B
:10315800C4304023C4F83C31CBE74123C4F8C43021
:103168004223C4F83C31C4E74723C4F8C430482399
:10317800C4F83C31BDE74F23C4F8C4305023C4F829
:103188003C31B6E72B23C4F8C4302C23C4F83C31B7
:10319800AFE72D23C4F8C4302E23C4F83C31A8E788
:1031A8002923C4F8C4302A23C4F83C31A1E7FF23FB
:1031B8008BF800300023CAF8003023600A9B3BB12B
:1031C8000B98012198470120B9F1000FBCD1BAE74B
:1031D8000120B9F1000FB7D1B5E700BF8800024060
:1031E800801F00247C1F0024781F00242DE9F04153
:1031F8000D4682B0EFF3108772B6002948D1FF233D
:10320800254A264C237013682BB1002029461060EC
:10321800234A1068984723781B0625D5DFF888804D
:103228000025204E444605E001351C3406F5D876C5
:10323800092D19D0A369012B1BD0002BF4D12168CB
:1032480030460029F0D06369019323690093E3684D
:103258002289FFF709FF0028E6D1C5EBC50508EB71
:10326800850348F82500586007B962B602B0BDE882
:10327800F08161680029D7D06369304601932369DA
:103288000093E3682289FFF72DFE0028CCD1E4E7FC
:1032980009F0A6F9B3E700BF781F00247C1F0024BB
:1032A800801F0024481000244C000024F0B500239F
:1032B80087B0022204460493CDE90223027EC36943
:1032C8000B2A4FEA430523D1A27E0B2A02D1002004
:1032D80007B0F0BD48496B1C484851F82330457881
:1032E80001781878E67E884269D0824277D0D8780B
:1032F80003F1030C81426ED0824278D0987903F1B1
:10330800060C88426FD0824233D0012007B0F0BD4E
:10331800394B3A4853F8253001784678187894F8AC
:1033280019C081423DD0824241D0D87803F1030EC2
:10333800814240D082424AD0987903F1060E8842F1
:1033480041D08242E1D1DB796345DED1734604F195
:1033580018069B783046059301F06AF90346304613
:103368001E4601F06DF901A90190304603F008F9F5
:10337800AAE7DB79B342C8D163461A349B78204662
:10338800059301F055F9034620461C4601F058F90B
:10339800034601A92046019303F0F2F8002007B084
:1033A800F0BD93F801E0B645BFD08242BDD1587850
:1033B8006045BAD1CBE71F79B742BBD1BCE75F788C
:1033C800AF4292D193E7D979B142BAD19DE7187942
:1033D8006045B1D1BAE71F79AF428DD18EE75878F1
:1033E800B04284D1C9E7D979A9428CD18DE718793F
:1033F800B04283D1C0E700BF64010024600100240B
:103408007E4A03689342F0B58FB000F0E380A2F5DE
:103418004C42934200F0E08002F58062934200F053
:10342800DD8002F58062934200F0DA8002F5806266
:10343800934200F0D98002F54442934200F0D280D2
:10344800A2F51C42934200F0D18002F580629342BB
:1034580000F0CE806A4A934240F0CC800826694D3D
:103468004FF4D87404FB0654A07E01F0F1F8207ED6
:1034780001F0EEF8E369082B13D8DFE803F03B49C5
:10348800576573818F9D05005F4BD3F8F42042F098
:103498000802C3F8F420D3F8F43003F008030893C3
:1034A800089B2046FFF702FF012801D1FFBEFEE777
:1034B8004FF4D8740EAA554F0DF1240C04FB065492
:1034C800E36902EB43050FCFACE80F003B6800222D
:1034D800ACF80030114635F9140C01F0D5FFE3695A
:1034E8000EAA02EB430333F9140C0FB0BDE8F04009
:1034F80002F008B8444BD3F8F02042F01002C3F8A9
:10350800F020D3F8F03003F010030093009BC8E7D5
:103518003D4BD3F8E82042F40032C3F8E820D3F852
:10352800E83003F400330193019BBAE7364BD3F834
:10353800E82042F48022C3F8E820D3F8E83003F406
:1035480080230293029BACE72F4BD3F8E82042F488
:103558000022C3F8E820D3F8E83003F400230393EB
:10356800039B9EE7284BD3F8E82042F48012C3F867
:10357800E820D3F8E83003F480130493049B90E721
:10358800214BD3F8F02042F02002C3F8F020D3F802
:10359800F03003F020030593059B82E71A4BD3F81C
:1035A800E82042F08042C3F8E820D3F8E83003F07E
:1035B80080430693069B74E7134BD3F8E82042F048
:1035C8000042C3F8E820D3F8E83003F0004307933B
:1035D800079B66E7002642E7012640E702263EE70A
:1035E80003263CE705263AE7042638E7062636E7A9
:1035F800072634E700239B7EFFDE00BF0010014052
:10360800000C005848100024004402580003010828
:103618002DE9F04F91B0002301223F490DF1240A12
:1036280009938B4601F11C09CAF8143001F13808D6
:10363800CDF800A001F15407CDF804A001F17006FF
:10364800CDF808A001F18C05CDF80CA001F1A80473
:10365800CDF810A001F1C40ECDF814A001F1E00CD2
:10366800CAE90133CAE903330F92FF222B4BCDE994
:1036780006AA1A70BAE80F00ABE80F009AE807002C
:10368800009B8BE807009B46BBE80F00A9E80F00EA
:103698009AE80700019B89E807009946B9E80F00F6
:1036A800A8E80F009AE80700029B88E807009846F8
:1036B800B8E80F000FC79AE80700039B87E80700E0
:1036C8001F460FCF0FC69AE80700049B86E807003D
:1036D8001E460FCE0FC59AE80700059B85E8070030
:1036E8001D460FCD0FC49AE80700069B84E8070023
:1036F8001C460FCCAEE80F00079B9AE807001C4653
:103708008EE807000FCCACE80F009AE807008CE8B9
:10371800070011B0BDE8F08F4C0000247C1F002486
:1037280010B5094C04F1340007F06CFB237D1BB184
:10373800636BDB69DB0600D410BD2046FFF790FB06
:10374800636B10221A6210BD4810002410B50B4C90
:1037580004F5F27007F056FB94F8C43123B1D4F89D
:10376800E431DB69DB0600D410BD04F5D870FFF73F
:1037780077FBD4F8E43110221A6210BD48100024F7
:1037880010B50B4C04F5657007F03CFB94F87433E6
:1037980023B1D4F89433DB69DB0600D410BD04F5FB
:1037A8005870FFF75DFBD4F8943310221A6210BDED
:1037B8004810002410B50B4C04F2445007F022FBCB
:1037C80094F8243523B1D4F84435DB69DB0600D4FA
:1037D80010BD04F5A260FFF743FBD4F8443510226E
:1037E8001A6210BD4810002410B50B4C04F2F460A6
:1037F80007F008FB94F8D43623B1D4F8F436DB6923
:10380800DB0600D410BD04F5D860FFF729FBD4F817
:10381800F43610221A6210BD4810002410B50B4C63
:1038280004F6A40007F0EEFA94F8843823B1D4F82B
:10383800A438DB69DB0600D410BD04F50760FFF788
:103848000FFBD4F8A43810221A6210BD48100024C7
:1038580010B50B4C04F6542007F0D4FA94F8343A17
:1038680023B1D4F8543ADB69DB0600D410BD04F563
:103878002260FFF7F5FAD4F8543A10221A6210BD04
:103888004810002410B50B4C04F6044007F0BAFAAF
:1038980094F8E43B23B1D4F8043CDB69DB0600D49C
:1038A80010BD04F53D60FFF7DBFAD4F8043C1022A4
:1038B8001A6210BD4810002410B50B4C04F6B45021
:1038C80007F0A0FA94F8943D23B1D4F8B43DDB692D
:1038D800DB0600D410BD04F55860FFF7C1FAD4F830
:1038E800B43D10221A6210BD4810002410B5EFF341
:1038F800108472B6084B1A78120602D504B962B65B
:1039080010BD1B784FF4D87204485BB202FB030069
:10391800C03002F0E3FAF1E77C1F002448100024CD
:1039280010B5EFF3108472B6094B1A78120602D557
:1039380004B962B610BD1B784FF4D87205485BB263
:1039480002FB030000F59C7002F0C8FAF0E700BF24
:103958007C1F0024481000240021FFF747BC00BF4B
:10396800214A036893422BD0A2F54C42934229D0B6
:1039780002F58062934227D002F58062934225D0F7
:1039880002F58062934223D002F54442934221D04B
:10399800A2F51C4293421FD002F5806293421DD0CB
:1039A800124A93421CD108224FF4D871104B01FBE4
:1039B8000233197D11B11846FFF752BAFFF716BC4A
:1039C8000022F1E70122EFE70222EDE70322EBE70D
:1039D8000422E9E70522E7E70622E5E70722E3E70D
:1039E80000231B7DFFDE00BF00100140000C0058C3
:1039F80048100024204A0368934229D0A2F54C427B
:103A0800934227D002F58062934225D002F5806266
:103A1800934223D002F58062934221D002F54442BA
:103A280093421FD0A2F51C4293421DD002F580623A
:103A380093421BD0114A93421AD1082310484FF4DD
:103A4800D87202FB0300037D03B97047FFF708BA79
:103A58000023F3E70123F1E70223EFE70323EDE770
:103A68000423EBE70523E9E70623E7E70723E5E770
:103A780000231B7DFFDE00BF00100140000C005832
:103A8800481000240121FFF7B1BB00BF2DE9F04128
:103A98004F684FF4D876DFF8C0808E4607FB06F6ED
:103AA8000C46082F08EB0605056005F1180CBEE862
:103AB8000F00ACE80F009EE807008CE8070002D86A
:103AC8006B6A022B02D90120BDE8F0812A6A032A19
:103AD800F9D8A96A0229F6D8E86A0228F3D8013188
:103AE800DFF878C0343689005CF8277046446F6385
:103AF800A469A9641549AC6351F823306B64144B6D
:103B080053F82230134A2B64002352F82010012264
:103B18003046EB65E963C5E91333C5E9153208F0AA
:103B28005FFD0028CFD10146304608F0B1FD0028DE
:103B3800C9D10146304608F0F9FD0028C3D1304606
:103B480008F088FD0028BED12875BDE7F8030108F4
:103B5800040401081404010848100024D4030108CF
:103B68002DE9F041174C006894F800C01CF0800F54
:103B7800DDE9066720D10D4696461C46C069EFF37D
:103B8800108272B6104BC0EBC0004FF00008012144
:103B980003EB800C8000CCF8045043F80080ACF8AC
:103BA80008E0CCF81470CCF81810CCE9034602B938
:103BB80062B60020BDE8F081CDE90667BDE8F041B6
:103BC800FFF790B97C1F00244C000024534B0122BE
:103BD800002047F6122130B4C3E97420C3E97721E5
:103BE800C3E9E020C3E9E3211A62DA625862196383
:103BF800C3F83025C3F83405C3F83C25C3F840158D
:103C0800C3F8E026C3F8E406C3F8EC26C3F8F016B8
:103C1800C3F89028C3F89408C3F89C28C3F8A018E0
:103C2800C3F8402AC3F8440AC3F84C2AC3F8501A08
:103C3800C3F8F02BC3F8F40BC3F8FC2BC3F8001C33
:103C4800C3F8A40D3648C3F8A02DC3F8AC2DC3F8AB
:103C5800B01D0288837833490068334CCA804FEA24
:103C6800104C0B723149E2802372A1F80320A4F8AA
:103C7800032063714B712E4CCA800B722D492E4D57
:103C8800E2802372A1F80320A4F8032063714B712A
:103C98002A4CCA800B722A49EA8008802B7281F864
:103CA80002C0E2802372A1F803204B71CA800B7214
:103CB8002449A1F803204B71CA800B722249A1F84C
:103CC80003204B71CA800B722049088081F802C01A
:103CD800A1F803204B71CA800B721D49088081F836
:103CE80002C0A1F803204B71CA800B7219490880E1
:103CF80081F802C01848A1F803204B71CA800B72E2
:103D08001649A0F803204371C2800372A1F803206A
:103D18004B71CA800B7230BC704700BF481000243A
:103D280060010024E80100240C02002400020024A1
:103D38002402002418020024F4010024D0010024E5
:103D4800A81F002430020024DC010024841F002462
:103D58009C1F0024901F00245401002448010024C3
:103D68003E4B00220B20114610B5D3F8D84082B044
:103D780044F00104C3F8D840D3F8D84004F0010453
:103D88000094009CD3F8D84044F00204C3F8D8400B
:103D9800D3F8D83003F002030193019B01F074FBC0
:103DA8000B2001F0AFFB00220C20114601F06CFB48
:103DB8000C2001F0A7FB00220D20114601F064FB46
:103DC8000D2001F09FFB00220E20114601F05CFB44
:103DD8000E2001F097FB00220F20114601F054FB42
:103DE8000F2001F08FFB00221020114601F04CFB40
:103DF800102001F087FB00223C20114601F044FB13
:103E08003C2001F07FFB00221120114601F03CFB11
:103E1800112001F077FB00223820114601F034FB15
:103E2800382001F06FFB00223920114601F02CFBED
:103E3800392001F067FB00223A20114601F024FBEB
:103E48003A2001F05FFB00223B20114601F01CFBE9
:103E58003B2002B0BDE8104001F054BB00440258BA
:103E680020F01F002031BFF34F8F002907DD064ADD
:103E78000144C2F85C0220300B1A002BF9DCBFF3B6
:103E88004F8FBFF36F8F704700ED00E0704700BFA2
:103E980008B500F0DDFCBDE8084001F0BDBB00BF7F
:103EA800064808B503680BB102F07CFD04480368B6
:103EB8001BB1BDE8084003F06BBC08BDC02300245B
:103EC800B81F0024064808B503680BB102F06AFD64
:103ED800044803681BB1BDE8084003F059BC08BD9D
:103EE800C0230024B81F0024064808B503680BB196
:103EF80002F058FD044803681BB1BDE8084003F010
:103F080047BC08BDC0230024B81F0024364BDA6A1A
:103F1800520062D59A6A9A6A9A6A9B6A180600D50C
:103F280000BE314B9B6A990600D500BE2E4B9B6A9A
:103F3800DA0600D500BE2C4B9B6A1B0700D500BED5
:103F4800294B9B6A980700D500BE274B9B6AD90767
:103F580000D500BE244B9B6A1A0400D500BE224B34
:103F68009B6A9B0400D500BE1F4B9B6AD80400D5F2
:103F780000BE1D4B9B6A190500D500BE1A4B9B6AF3
:103F88005A0500D500BE184B9B6A9B0500D500BE9C
:103F9800154B9B6AD80500D500BE134B9B6A990147
:103FA80000D500BE104B9B6ADA0100D500BE0E4B4F
:103FB8009B6A1B0300D500BE0B4B9B6A580300D5B8
:103FC80000BE094B9B6A990300D500BE064B9B6A4D
:103FD800DA0306D400BE00BEFEE7DB6A9B07FAD50B
:103FE800F8E700BEF6E700BF00ED00E000F03CBCDB
:103FF80000F040BC0A4B9B6803F17843B3F5003FDF
:104008000BD3084B986848B19868012806D098687F
:10401800022803D09B68032070470120704700BF27
:1040280000ED00E0000080382DE9F041CEB00446F4
:104038004C2200210AA80BF063FF2022002102A8CD
:104048000BF05EFFBC2200211EA80BF059FF0220D6
:1040580004F012F82368012B4FF0000354D0534AA0
:1040680002250193C820D16A514B21F00101D16288
:10407800D26A02F0010201929A6942F440429A61BE
:104088009B6903F440430193019B494A93699B044C
:10409800FCD548490224002201268B6A04274FF0E8
:1040A800080823F0030323438B62052316900AA80C
:1040B80018934FF480331096179419941597CDF8E8
:1040C8006880CDE91B222122CDE91344CDE90A23DA
:1040D80004F0BCFC00B1FEE73F220323294602A8F6
:1040E800CDE9022300220823CDE9042340224023FE
:1040F800CDE9062340234FF48062CDE9082304F07C
:10410800D3FF0346B8B1FEE7294A04250093F020FF
:104118009169264B41F440419161926902F4404211
:104128000092DA6A42F00102DA62DB6A03F0010304
:104138000093009BA9E720224FF4805125934FF468
:1041480040152B9280222D931EA8309326913591ED
:104158004FF48071249234920C223394439140F2AC
:10416800271120921022CDF884802A971F96CDE936
:104178002E34CDE93B334FF48033CDE922463193D9
:10418800002446930623CDE93E4527934FF48063E8
:10419800094C2C931E94CDE9281205F0E1F900B1E1
:1041A800FEE703F08FFF4EB0BDE8F0810004005831
:1041B80000480258004402580F130F0370B584B02A
:1041C800012401F0D7F94FF480764FF04052194B93
:1041D80068460025ADF800400396CDE9012301F0BB
:1041E800E7F919224FF0404368468DF808200193FB
:1041F8008DF80F40ADF80D608DF801408DF80A502C
:1042080001F0D6F902230B2268468DF80F508DF87D
:1042180001304FF062538DF808200193ADF80D403E
:104228008DF80A4001F0C4F9042001F0B1F904B096
:1042380070BD00BF0E00010330B50D46044685B0C1
:10424800D1E9000184E8030000F0D2FAAB79A3B306
:10425800FFF786FDFDF73CFF0AF054F9FFF7D8F9A0
:104268002B798BBB6B799BB1BFF34F8FBFF36F8FEC
:104278002A4B0022C3F85022BFF34F8FBFF36F8F32
:104288005A6942F400325A61BFF34F8FBFF36F8F00
:104298004FF0FF320023002400256946204802928F
:1042A8008DF80C30CDE900450AF04CFD1C480AF0A9
:1042B800B1FD09F057FD05B030BD2046FFF7B4FE4B
:1042C8002046FFF77BFFC3E7144C0023C4F8843073
:1042D800BFF34F8FD4F8801043F6E07EC1F34E3C15
:1042E800C1F3C9014FEA4C1C0CEA0E000B4640EA28
:1042F8008372013BC4F860225A1CF8D1ACF1200C3F
:104308001CF1200FF0D1BFF34F8F636943F4803362
:104318006361BFF34F8FBFF36F8FA3E700ED00E03A
:10432800B41F002404F0F0BF1C4B9B6803F17842D3
:10433800B2F5003F25D3B3F5803F20D303F16042A7
:10434800B2F5003F1FD303F15C42B2F5002F1CD336
:1043580003F17042B2F5902F19D303F14842B2F538
:10436800803F16D303F18042B2F1806F13D303F17B
:10437800E043B3F5000F2CBF082007207047012049
:1043880070470020704702207047032070470420C0
:104398007047052070470620704700BF00ED00E019
:1043A80003480023034A044903600BF095BD00BF8E
:1043B800B41F002400000024953E000810B4204CCF
:1043C8000022204B83B0D4F888101F4841F47001B4
:1043D800C4F8881019681D4C41F0010119601A6170
:1043E800196808401A4918609A61DA611A629A6273
:1043F800DA621A635A639A63DA631A645A64186849
:1044080020F4802018601A66D3F8DC2042F060425D
:10441800C3F8DC20D3F8DC300193019B23681940F2
:10442800B1F1005F03D20B4B0122C3F80821044B02
:104438004FF000629A6003B05DF8044B704700BF0C
:1044480000ED00E0004402587FEDF6EA0010005C41
:104458000000FFFF0080005100F57171D0F80404DE
:1044680009F068B8C1EBC10300EB8303D0F804047A
:10447800D3F8082209F08CB8C1EBC10300EB830321
:10448800D0F804049A6C09F0C1B800BFD0F804044D
:1044980009F060B9C16810B5044619B1022900D005
:1044A800FEE70121D4F8040409F03EF9D4F8040425
:1044B800BDE8104009F010B910B50446D0F804045E
:1044C80009F036F92268D2F8003E43F00103C2F839
:1044D800003E236A23B1034A136943F006031361BC
:1044E80010BD00BF00ED00E0D0F8040409F02AB9BF
:1044F800D0F8040409F03EB9D0F8040409F038B93A
:10450800D0F8040409F038B9D0F8040409F036B931
:104518009446D0F898021A4608B5634603F09CFC06
:10452800032802D8024B185C08BD022008BD00BF52
:1045380030040108D0F8980208B503F01BFD0328E1
:1045480002D8024B185C08BD022008BD30040108DF
:10455800D0F8980208B503F051FD032802D8024BA1
:10456800185C08BD022008BD300401080A06D0F80E
:10457800983206D4C1EBC10103EB810191F8FE0129
:10458800704701F07F01C1EBC10103EB810191F894
:104598003E007047D0F8980208B503F047FC03289E
:1045A80002D8024B185C08BD022008BD300401087F
:1045B800D0F8980208B503F0B5FC032802D8024BDE
:1045C800185C08BD022008BD30040108D0F8980224
:1045D80008B503F07FFC032802D8024B185C08BD1D
:1045E800022008BD30040108D0F8C00209F074BBED
:1045F800D0F8C00209F088BBD0F8C00209F090BB1F
:10460800704700BFD0F8C00209F076BBD0F8C002EE
:1046180009F076BBD0F8D00308B502F083FD032873
:1046280002D8024B185C08BD022008BD34040108FA
:10463800024B027853F82200704700BF5804010863
:10464800024B427833F81200704700BF3804010863
:104658008CB00A2814D8DFE800F01523313F4D5BF1
:104668006977859306004D4BD3F8E02042F48062C9
:10467800C3F8E020D3F8E03003F480630B930B9B7E
:104688000CB07047454BD3F8E02042F00102C3F864
:10469800E020D3F8E03003F001030193019BEFE73A
:1046A8003E4BD3F8E02042F00202C3F8E020D3F8F2
:1046B800E03003F002030293029BE1E7374BD3F8A3
:1046C800E02042F00402C3F8E020D3F8E03003F021
:1046D80004030393039BD3E7304BD3F8E02042F065
:1046E8000802C3F8E020D3F8E03003F0080304938D
:1046F800049BC5E7294BD3F8E02042F01002C3F829
:10470800E020D3F8E03003F010030593059BB7E7EA
:10471800224BD3F8E02042F02002C3F8E020D3F87F
:10472800E03003F020030693069BA9E71B4BD3F860
:10473800E02042F04002C3F8E020D3F8E03003F074
:1047480040030793079B9BE7144BD3F8E02042F004
:104758008002C3F8E020D3F8E03003F08003089328
:10476800089B8DE70D4BD3F8E02042F48072C3F824
:10477800E020D3F8E03003F480730993099B7FE7C6
:10478800064BD3F8E02042F40072C3F8E020D3F8D7
:10479800E03003F400730A930A9B71E7004402585F
:1047A800704700BF0F4B1B780BB90120704710B53D
:1047B80004464FF47A700C4AB0FBF3F31068B0FB70
:1047C800F3F000F0C1FE0F2C00D808B1012010BD95
:1047D800002221464FF0FF3000F056FE034B002028
:1047E8001C6010BD440200243C020024480200243E
:1047F80038B50320124D00F035FE124C04F0B4FB1E
:10480800114A12499369C3F30323CB5C03F01F03D6
:1048180020FA03F30E202B60926902F00F028A5CE3
:1048280002F01F02D3402360FFF7BCFF10B1012440
:10483800204638BD0446FFF7B3FF204638BD00BF09
:104848003C020024400200240044025820040108CD
:10485800034A044B11681B780B441360704700BF70
:104868008426002444020024014B1868704700BFC6
:104878008426002438B50446FFF7F6FF0546631C76
:1048880002D0044B1B781C44FFF7EEFF431BA342E6
:10489800FAD338BD44020024014B1868000C704755
:1048A8000010005C704700BF806B08B5FFF7FAFF87
:1048B80008BD00BF836B5A6D12F0500F5A6D10B5CA
:1048C8001DD1196842F400725A650A6812F0080F7F
:1048D800CA681BD012F4406F0DD1CA6894040AD478
:1048E8005A6D22F480725A655A6DD10403D45A6DF8
:1048F80042F001025A651846FDF746F810BDD20687
:104908000AD4DB6CBDE81040DB6C18479007E7D091
:104918001846FDF739F8F1E71846FDF7D9F810BD44
:10492800806B08B5436D43F040034365836D43F0E6
:1049380004038365FDF7CCF808BD00BFF0B500227D
:1049480083B0019290F85020012A00F01C810346A0
:1049580001201A6883F850009468640700F18A807F
:104968000C68C4F31305002D40F08F80C4F38464F1
:10497800A0404D684FF01F0ED6694FEA951C304392
:104988000CF00C0CD06105F01F0002F130058440DA
:104998000EFA00FE5CF8050020EA0E0004434CF80D
:1049A8000540906840076ED4956815F0080547D112
:1049B8000C68072002F11406B94F4FEAD45CC4F31F
:1049C80004540CF0040C00FA04FE886800FA04F49D
:1049D8005CF8060020EA0E0020434CF80600386810
:1049E80000F07040B0F1805F00F0C580D068D668F4
:1049F800C70600F1E880C6F382064869760000FA27
:104A080006F60F69042F00F0C18002F160040868FF
:104A180054F827C000F0F8400CF0004C40EA0C00B5
:104A2800304344F82700487E0E69012854F82600D0
:104A380008BF4FF0004520F00040054344F82650D9
:104A48009068C40714D4CE68086806F01807954C17
:104A5800D2F8C050FC40C0F31307044025EA07050C
:104A68002C43C2F8C040904CA64246D0002816DB22
:104A7800002003E05A6D42F020025A65002283F8B4
:104A8800502003B0F0BD9068DAE794FAA4F5B5FABF
:104A980085F5C4F3846405F01F05A84069E78349D8
:104AA8008A4200F0B68001F580718A4200F0B18038
:104AB8007F4D804CA968A46801F0E076E44304F0D7
:104AC8000104002C00F0B4807B4CA04200F0FC8074
:104AD8007A4CA04200F01A81794CA042C8D1490210
:104AE800C6D474498A42C3D1AA68002022F0E07271
:104AF800324342F48002AA60C0E7002F6AD090FADD
:104B0800A0F4B4FA84F4013404F01F04092C00F270
:104B1800A48090FAA0F4B4FA84F490FAA0F5B5FA57
:104B280085F5013401260135A40605F01F0504F0BA
:104B3800F84406FA05F52C4390FAA0F0B0FA80F094
:104B4800304400F01F0000EB400000052043C60D74
:104B580002F11405C0F30450072406F0040604FA11
:104B680000F7745924EA07048F6807FA00F0204315
:104B7800705108687AE7D6684869C6F382067600F5
:104B880000FA06F63DE7022003B0F0BD106E0C688F
:104B980000F0F840A506B0EB846F30D0506E00F0FE
:104BA800F840854226D0906E00F0F84085422BD020
:104BB800D06E00F0F84085427FF442AFD06E20F00E
:104BC8000040D0663CE77608486906F0080600FA17
:104BD80006F616E7800E441C04F01F06092E2DD891
:104BE800A406012004F0F844B040044306EB460054
:104BF8000005ABE7506E20F000405066D3E7106E1A
:104C080020F000401066C9E7906E20F000409066E2
:104C1800CEE7264C2B4D04F58074A96854F8F86C3F
:104C2800A468344301F0E076E44304F0010448E763
:104C38005A6D012042F020025A651FE706EB460034
:104C4800A50601241E3805F0F84504FA06F6000505
:104C5800354340F00070284379E790FAA0F5B5FA9B
:104C680085F590FAA0F4B4FA84F4013501260134EC
:104C7800AD0604F01F0405F0F84506FA04F42543D0
:104C880090FAA0F4B4FA84F4344404F01F0404EB5A
:104C98004404A4F11E00000540F00070DBE700BFEB
:104CA8000010005CFFFF0F000000FF4700200240DB
:104CB8000063025800600258000084CB000052C70D
:104CC8000000B8CF0023024008023FF5D1AE1749D3
:104CD8008A427FF4CDAE164AA9681268154821F0B9
:104CE800E07192093143A0FB020241F400019209EC
:104CF800A96052000192019A002A3FF4B9AE019AC4
:104D0800013A0192019A002AF9D1B1E611F08070B6
:104D18007FF4AEAE05498A427FF4AAAEAA6822F0B3
:104D2800E072324342F08072AA60A7E6006002583F
:104D38003C020024632D3E0503689A68D20701D51A
:104D4800002070479968214A114270B5044608D07E
:104D5800636D012043F010036365A36D0343A365EE
:104D680070BD99681A4A0A4042F001029A60FFF73A
:104D78007BFD2368174A054693421ED002F58072D0
:104D880093421AD0144A9268114E0AE09A68324047
:104D980042F001029A60FFF767FD401B0228D7D84E
:104DA80023681A68D2070FD49A68D107EED5FFF79F
:104DB8005BFD401B0228F3D9CAE7084A9268D0066F
:104DC800E2D0074A9342DFD1002070BD3F00008047
:104DD800C0FFFF7F0020024000630258002302400A
:104DE800002102402DE9F0413A4D044600680F4683
:104DF8001646A84219D0384B984216D0374DAB68A2
:104E08008068420716D494F85020012A12D003F083
:104E18001F080122B8F1090F84F850200DD900238A
:104E2800012084F85030BDE8F0812D4DAB688068D2
:104E38004207E8D50220BDE8F08140F2212323FA99
:104E480008F3DB4313EA0205E9D12046FFF774FFB4
:104E5800002839D1626D234B2168134043F48073D5
:104E68006365B8F1000F02D01B4B994203D0636D04
:104E780023F480136365636D13F4805328D0A36D06
:104E880023F00603A365E06C3346174D3A464031DC
:104E9800C563164D0564164DC5641C2541F8405C74
:104EA800002584F8505051F83C5C45F0100541F855
:104EB8003C5C00F059FE22680E4B91680B4043F0B1
:104EC80004039360BDE8F08184F85050BDE8F08198
:104ED800A365D8E700200240002102400063025881
:104EE80000230240FEF0FFFFBD480008B14800085B
:104EF80029490008C0FFFF7F38B503689A68910701
:104F080002D59B68002038BD9A68D20723D59A68D5
:104F1800044602F00D02012A08D0636D012043F017
:104F280010036365A36D0343A36538BD9868032127
:104F38000A4A024042F002029A601960FFF794FCA4
:104F4800054604E0FFF790FC401B0228E5D82368DB
:104F58009B68DB07F6D4002038BD00BFC0FFFF7F89
:104F680038B5574A04460368934226D002F5807242
:104F7800934222D0534B9B6813F4403F22D004F055
:104F8800ADF963680546B3F5003F00F08880B3F5D6
:104F9800403F70D0B3F5803F00F08180FFF77CFC84
:104FA80041F2030398422DD8474B9D425DD92268B0
:104FB800936843F48073936038BD444B9B6813F443
:104FC800403FDCD14FF4002005F054FA63680546F1
:104FD800B3F5101F6DD008D8B3F5E01F55D01AD916
:104FE800B3F5001FDAD14509D8E7B3F5201F4AD039
:104FF800B3F5301FD2D1FFF74FFC41F203039842BB
:1050080033D92D0A324B9D421DD82268936823F468
:105018004073936038BDB3F5801F06D00AD9B3F545
:10502800A01F02D0B3F5C01FB8D19B0C5B00B5FB25
:10503800F3F5B3E7B3F5002FF7D023F40022B2F568
:10504800802FF2D0AAE7234B234A2B4493421ED940
:10505800224B234A2B449342226893682BD823F48B
:10506800407343F40073936038BD2268936823F457
:105078008073936038BD8508FFF70EFC41F2030387
:105088009842BFD890E7C50988E7050986E72268EE
:10509800936823F4407343F48073936038BD1B0C0A
:1050A800B5FBF3F5FFF7F8FB41F203039842A9D8E3
:1050B8007AE7850972E743F44073936038BD00BF0F
:1050C8000020024000630258002D310100230240F5
:1050D800105E5F00EFA1A0FF0F5E5F00DF4341FF9E
:1050E8001FBCBE0030B5002383B00193002800F038
:1050F800D080456D0446002D00F0BA802268936880
:105108009B0003D59168714B0B4093609368DD0059
:1051180015D46F4B90686F491B6801406E489B0916
:1051280041F08051A0FB030391609B090193019B0F
:105138002BB1019B013B0193019B002BF9D1936893
:10514800D80024D4636D012543F010036365A36D73
:105158002B43A365936813F0040F636D1DD1D90623
:105168001BD4636D23F4817343F002036365936872
:10517800DB0728D4594B9A4217D003F580739A421B
:1051880013D0574B9B68D9071DD4564A15E093682E
:10519800002513F0040F636DE1D0636D012543F022
:1051A80010032846636503B030BD4C4A4E4B9268E5
:1051B8009B681343D80706D44C4A9368616823F464
:1051C8007C130B439360FFF767FB41F20303A1686D
:1051D8009842237F52D894F815C01A04206B42EAEB
:1051E8004C3202430A43012B03D1236A013B42EAB2
:1051F8004342636A23B103F47873A16A0B431A43E9
:1052080023683B49D86801400A43DA609A6812F07B
:10521800040F9A681CD112071AD4D868354A217D20
:10522800024042EA8132E16A0A43DA6094F838209F
:10523800012A3AD01A6922F001021A611A69204635
:10524800616B22F070420A431A61FFF789FE2368F6
:10525800E268012A21D01A6B22F00F021A63636DEB
:10526800284623F0030343F00103636503B030BD10
:10527800FCF738FBA56584F850503FE71029AAD100
:10528800617D1A0442EA4132216B0A4342F01C0252
:10529800A9E70125284603B030BD196BA26921F0A2
:1052A8000F01013A0A431A63D9E7D4E910211869B2
:1052B8000A43114901400A43A16C0A43E16B42EADF
:1052C800014242F001021A61B8E700BFC0FFFF5F68
:1052D8003C020024C0FFFF6F632D3E050020024002
:1052E8000060025800630258002102400023024077
:1052F80003C0F0FFFCBFFFFF1EF800FCF0B5002361
:1053080083B0019390F85030012B40D0012304461C
:105318000E46154680F85030FFF7EEFDE8B9676D88
:1053280005F080421B4B06F480311B4D3B401B4F60
:1053380043F00203636523689E68354015430D43B7
:1053480045F000459D609A68002A0FDB636D23F0E5
:10535800030343F00103636503E0636D43F0100347
:105368006365002384F8503003B0F0BD019A013220
:105378000192019ABA42E6D9636D0022012023F016
:10538800120384F8502043F010036365ECE7022011
:1053980003B0F0BDFDEEFFFFC0FFFE3FFF955A557D
:1053A800F0B490F850200E68012A49D00346294AE3
:1053B80001201C6883F85000944208D05A6D0021DF
:1053C80042F0200283F850105A65F0BC7047224D15
:1053D800AA6852070AD5A2685A6D012042F0200235
:1053E8005A65002283F85020F0BC7047A06810F07E
:1053F8000400F1D1C6B1DFF868C04F68DCF80820B6
:1054080022F440423A43CCF80820A468AA68224310
:10541800D40713D48A68DCF8081016430F4A0A40E8
:105428001643CCF80860DCE70D498A6822F440424C
:105438008A60A068AA680243D00704D50020D0E794
:105448000220F0BC70478C683046044A22408A60CB
:10545800C7E700BF0020024000210240E0F0FFFF44
:105468000023024006494FF6FF0C0002054BCA68AC
:1054780000F4E06002EA0C0210430343CB6070477B
:1054880000ED00E00000FA051B4BDB68C3F30223C4
:1054980000B5C3F1070E03F1040CBEF1040F28BFD9
:1054A8004FF0040EBCF1060F1AD9033B4FF0FF3C36
:1054B8000CFA03FC22EA0C024FF0FF3C00280CFA1D
:1054C8000EFC21EA0C0101FA03F141EA02010ADBB0
:1054D80009010A4BC9B2034483F800135DF804FBC1
:1054E80000221346E8E700F00F000901044BC9B297
:1054F800034419765DF804FB00ED00E000E100E0EC
:10550800FCEC00E0002807DB00F01F010123400944
:10551800024A8B4042F82030704700BF00E100E0AB
:1055280000280DDB4309012200F01F000549203344
:1055380002FA00F041F82300BFF34F8FBFF36F8FDB
:10554800704700BF00E100E0431EB3F1807F0CD23A
:105558004FF0E022002006494FF0F00C536107237A
:1055680081F823C09061136170470120704700BF24
:1055780000ED00E0BFF35F8F044B00215A6A22F46C
:1055880080325A62C3F89410704700BF00ED00E003
:10559800064B40F00100C3F894005A6A42F4803286
:1055A8005A62BFF34F8FBFF36F8F704700ED00E073
:1055B800174A4378C2F89830017821B3436800B598
:1055C800C2F89C30C37A90F80CC01B0690F80FE024
:1055D80043EA0C7390F80AC00B43817B43EACC433F
:1055E80090F80DC043EA8C4390F809C043EA414360
:1055F800017A43EA0E4343EA0C2343EA4103C2F823
:10560800A0305DF804FBC2F89C10C2F8A0107047E7
:1056180000ED00E0704700BF08B5FFF7FBFF08BDCD
:105628000268344B344930B4344D354CAA4218BF63
:105638009A420CBF012300238A4208BF43F00103AA
:105648003031A24208BF43F0010330348A4208BF18
:1056580043F001033031A24208BF43F00103303464
:105668008A4208BF43F0010301F55C71A24208BFFA
:1056780043F0010304F55C748A4208BF43F0010358
:105688003031A24208BF43F0010330348A4208BFD8
:1056980043F001033031A24208BF43F00103303424
:1056A8008A4208BF43F001033031A24208BF43F0E9
:1056B80001038A4208BF43F0010313B9114B9A4210
:1056C80013D1D3B21049114C103BA1FB03515F2BEE
:1056D8000F4BC1F3021103EA0203615C88BF043374
:1056E800C1658365184630BC704722F0FF038365A7
:1056F800F8E700BF100002404000024028000240C6
:1057080058000240B8040240ABAAAAAA88040108BB
:1057180000FCFFFF0368294A294930B4294D2A4C67
:10572800AB4218BF93420CBF012200228B4208BF34
:1057380042F001022831A34208BF42F00102283496
:105748008B4208BF42F001022831A34208BF42F051
:1057580001028B4208BF42F0010212B91B4A934270
:1057680013D1DBB21A4C1B4A0121083B1A4DA4FB8A
:105778000343456602EB1312C3F30413920001FAC4
:1057880003F30266836630BC7047DAB21349144CDF
:105798001944103AA829A4FB02234FEA131300D88E
:1057A8000833104A03F01F0501210F4C1A44A94081
:1057B8004466920081660266E5E700BF0854025815
:1057C800305402581C5402584454025894540258F5
:1057D800CDCCCCCC0096001680580258F0FBFDBF0B
:1057E800ABAAAAAA008200108008024070B504463D
:1057F800FFF73AF8002C00F0C68023680546954A62
:10580800934248D01832934245D0303292498B4265
:1058180018BF934201F130010CBF012200228B42D4
:1058280008BF42F0010218318B4208BF42F0010262
:1058380018318B4208BF42F0010218318B4208BF71
:1058480042F0010201F556718B4208BF42F0010295
:1058580018318B4208BF42F0010218318B4208BF51
:1058680042F0010218318B4208BF42F001021831A0
:105878008B4208BF42F0010218318B4208BF42F048
:10588800010218318B4208BF42F001021AB9734A6B
:10589800934240F0F5800222002184F8352084F8F4
:1058A80034101A6822F001021A6005E0FEF7DCFFE6
:1058B800431B052B40D823681A68D107F6D4D4E9CE
:1058C800022521692A43A0691D680A4361690A43C0
:1058D800E16902430A4362492940256A2A430A4387
:1058E800616A04292FD01A605A6922F0070211430D
:1058F80059612046FFF794FEE26D3F2302F01F0234
:10590800934083602046FFF705FFA368802B3CD0B7
:105918006368A06EDAB2013BD4E91851072B2A60FC
:10592800486026D90023C4E91B336367002001239C
:10593800606584F8353070BD20220323012062653C
:1059480084F8353070BDD4E90B5129430A431A60F5
:105958005969A26A21F00701114341F00401002DA1
:10596800C6D000284FD1012A6ED032F00202BFD132
:1059780051E0501E072810D9626FD4E91B3100206E
:1059880018604A60D2E7012070BD0023A16ED4E9F7
:105998001802636003605160C4E72168314B324DDF
:1059A800A94218BF994205F114050CBF0123002331
:1059B800A94208BF43F001031435A94208BF43F0C8
:1059C80001031435A94208BF43F001031435A94265
:1059D80008BF43F001031435A94208BF43F001038F
:1059E8003BB9224B994204D0214B224913449B00D6
:1059F80003E0214B214913449B0001228240C4E962
:105A08001B316267BBE7B0F5005F0ED0022A05D9EB
:105A1800032A7FF46DAFEA017FF56AAF01234022C4
:105A28001846626584F8353070BD032A3FF660AFCA
:105A380001A050F822F000BF255A00081F5A00089C
:105A4800255A0008515A0008B5F1C07F7FF450AFBD
:105A5800E4E700BF1000024040000240B8040240E2
:105A68003F8010FE085402581C540258945402589F
:105A78003F820010400902403F96001640590258E4
:105A8800324A33483349834218BF934200F1280011
:105A98000CBF012200228B4208BF42F001022831CC
:105AA800834208BF42F0010228308B4208BF42F00F
:105AB80001022831834208BF42F001028B4208BF2D
:105AC80042F0010212B9244A934238D1022200213D
