:020000040800F2
:1000000000000220B9030008B5030008C939000840
:10001000B5030008B5030008B503000800000000A0
:10002000000000000000000000000000B503000810
:10003000B503000800000000B50300084D390008B2
:10004000B5030008B5030008B5030008B5030008B0
:10005000B5030008B5030008B5030008B5030008A0
:10006000B5030008B5030008B5030008E125000842
:10007000ED250008B5030008F9250008052600084D
:10008000B53200080D1B0008B5030008B5030008D1
:10009000B5030008B5030008B5030008B503000860
:1000A000B5030008B5030008B5030008B503000850
:1000B0008DEF000899EF0008A5EF0008411B00082C
:1000C000B50300084D1B0008B5030008FDE7000854
:1000D00009E80008E9300008153100084931000836
:1000E000B5030008B503000800000000B5030008D0
:1000F000B5030008B5030008B5030008B503000800
:10010000B5030008B5030008B1EF000815E80008C2
:100110007D310008B1310008B5030008B5030008BF
:10012000B5030008B503000839E800086DE80008C9
:10013000E9320008B5030008B5030008B50300085C
:1001400000000000000000000000000000000000AF
:10015000B5030008B5030008B5030008E531000841
:10016000591B0008B50300085D39000881390008F3
:10017000B5030008A5390008B5030008B503000859
:10018000B5030008B5030008193200084D32000815
:1001900021E800082DE80008B5030008B5030008B1
:1001A000B5030008B5030008B5030008B50300084F
:1001B00001230008B5030008B5030008B5030008D3
:1001C000B5030008B5030008911400089D14000849
:1001D000B5030008A9140008B5030008B50300081A
:1001E000B5030008B5030008B5030008B50300080F
:1001F000B5030008B5030008B5030008B5030008FF
:10020000B5030008B5030008B5030008B5030008EE
:10021000B5030008B5030008B5030008B5030008DE
:10022000B5030008B5030008B5030008000000008E
:10023000B5030008B503000800000000B50300087E
:10024000B5030008B5030008B5030008B5030008AE
:10025000B5030008B5030008B5030008B50300089E
:10026000B5030008B5030008B5030008B50300088E
:10027000B5030008B5030008813200080000000043
:10028000B5030008B5030008B5030008000000002E
:0802900000000000B5030008A6
:1002A00001F0FF01102A2BDB10F0070F08D010F827
:1002B000013B013A8B422DD010F0070F42B3F6D12B
:1002C000F0B441EA012141EA014122F007047FF044
:1002D00000070023F0E80256083C85EA010586EA9B
:1002E000010685FA47F5A3FA87F586FA47F6A5FAD7
:1002F00087F68EB9EED1F0BC01F0FF0102F00702E3
:1003000032B110F8013B013A83EA010313B1F8D18D
:100310000020704701387047002D06BF354603386E
:10032000073815F0010F07D1013015F4807F02BFA7
:10033000013015F4C03F0130F0BC0138704700BFF8
:1003400053B94AB9002908BF00281CBF4FF0FF313C
:100350004FF0FF3000F00CB8ADF1080C6DE904CEA1
:1003600011F006F9DDF804E0DDE9022304B070477E
:10037000704700BF10B5054C237833B9044B13B157
:100380000448AFF300800123237010BD0806002449
:1003900000000000441C010808B5034B1BB10349D1
:1003A0000348AFF3008008BD000000000C060024E5
:1003B000441C0108FEE700BF0C4A0D4B934204D0D9
:1003C000D21A0C49184610F0B6F90B4A0B4B93425F
:1003D00004D0D21A0021184610F028F903F04CFD81
:1003E00010F082F900F0B8F8FEE700BF0406002420
:1003F00000000024781C0108003A012408060024AB
:10040000704700BF704700BF704700BF1BB913693A
:100410000BB1D26818477047C9B301442DE9F043C6
:100420001546A5B0441E02F124074E1E01E0B44259
:100430002AD06A4614F8011F384600F0D9FE002879
:10044000F5D0D5F8CC0090226946D5E9319303F177
:10045000010803EBC30E1B1A09F1FF3C48BF4B44D4
:100460009C45E4D0D5F8C000C5F8C88000EB0E105C
:1004700010F061F9D5E931239342A3EB020328BFC1
:10048000C5F8C830B442D4D125B0BDE8F083704778
:1004900002780B4610B4092A42D8DFE802F00E13A6
:1004A0001B252B2D37393F05204A03CA12881860B7
:1004B00059601A815DF8044B70471D4A03CA1860E1
:1004C0005960F7E71B4A1068918892791860998003
:1004D0009A71EFE7184C07CC2478186059609A603D
:1004E0001C735DF8044B7047144A11889278198088
:1004F0009A70DFE7124CEEE7124C07CC24881860A4
:1005000059609A609C815DF8044B70470E4ACCE7B5
:100510000E4C07CC186059609A60CBE70C4CECE7A6
:100520000C4A03CA18605960C4E700BF5C1901088F
:10053000F0180108F818010800190108101901083D
:100540001419010824190108341901084019010877
:100550004C190108681901082DE9F04FD5B00021A8
:100560008748002504AC00F01FFA00200CAE00F014
:10057000F5FD204600F028FE94E80F0008AC84E862
:100580000F0008AB7F4C0FCB84E80F000123CDE9AF
:100590003235359347F6122336930223349394E889
:1005A0000F0086E80F00319010461A46B388ADF868
:1005B000C230F388C4E90502ADF8C03012B1294653
:1005C00010F034F8704D30A96F4802F043FF05F188
:1005D000140000F0C5FE6D4B284614212362E4612F
:1005E00003F086F96A4B28460095DFF8B891694D0B
:1005F000D4E9051202F098FF03F056FA03F054FA1A
:10060000824603F051FA80465F4803F017F800284D
:1006100000F08F80D4E932329B1A49D4002B4CD0A1
:100620005D4800F08DFDD4E93237BB4200F0938085
:10063000D4F8C03007EBC70130A8902203EB0111BA
:10064000013710F078F8D4F8C430C4F8CC709F4269
:1006500002D3FF1AC4F8CC70902230A9304610F0B3
:100660006AF89DF8C070BDF8C8B0012F7CD06968E9
:10067000D5E90223D31A48BF5B1801399942C9D082
:100680002B6802EBC2000132314603EB00103770D9
:10069000AA609022A6F808B010F04DF8D5E9012321
:1006A0009342B7D39B1AAB60D4E932329B1AB5D5CB
:1006B000D4F8C4201344002BB2D1A8EB0A03052BB5
:1006C0009FD9D5E90237BB4229D02B6807EBC70178
:1006D000902230A803EB0111013710F02CF86B6861
:1006E000EF609F4201D3FF1AEF60902230A930469D
:1006F00010F021F8319F9DF8C8A008A99DF8C9B055
:100700003046FFF7C5FE254908AB424630A80097A2
:10071000CDE901AB0FF0E8FE30A800F011FD03F0C9
:10072000C3F9C2468046184802F088FF00287FF4CB
:1007300071AF1B4800F014FE144B142112482362C1
:10074000E46103F0D5F81048114BD4E9051200908C
:1007500002F0EAFE5EE79022002130464FF0000BE7
:1007600000270FF063FF82E7D9F80030032230A999
:100770000548ADF8C030ADF8C1B002F063FF76E7D0
:1007800024E00024C44E0024D44E002419040008A0
:100790000D040008240600247019010880190108BE
:1007A000E84E0024A8180108194B1A491A4A18469D
:1007B00010B500241C605C611C62DC630FF0C8FC97
:1007C000164800F001FD1549154A07230C61C1F8D0
:1007D000B92001F1D00281F8BD3040F20113C1F817
:1007E000C840C1F8CC400D48C1E930230A4A0D4940
:1007F0000FF0AEFC0C488121074A00F11003C460E1
:10080000C0E9011409490360BDE810400FF0A0BC25
:1008100024E000240104000800000024C44E002449
:1008200080707F0F090400082406002405040008D6
:1008300010B540F203338EB000244FF60B7240F235
:100840000341ADF8083009A80123ADF81020ADF838
:1008500024202246ADF80C100094029907940C94C1
:10086000CDE90544CDE90A4400F024FE04A80123A3
:1008700022460399009400F01DFE09A800F000FF35
:1008800010B901200EB010BD04A800F0F9FEA0427E
:100890000CBF022020460EB010BD00BF2DE9F04174
:1008A00003239AB0012700240646CDE914373B4BB9
:1008B000CDE9104340F20453CDE91647ADF8483076
:1008C000FFF7B6FFB842054625D0022845D040F6CE
:1008D0000132334B0DF12C081894ADF82C200B98F5
:1008E0001997CDF84A3000F0E3F810A906F13C0062
:1008F00001F08EFE302003224FF07E5341460D93CF
:100900000E93CDE90B02F26B06F1140000F04CFBE4
:100910001AB0BDE8F0811023214A06A906908DF88F
:1009200028300DF12C081F4BCDF84A200793029474
:10093000CDE91804CDE9080402A801F013F9082351
:10094000029A03A94046ADF80C508DF80E4004956C
:1009500005930B9400F0ECF8C7E700200121104B41
:100960000DF12C083A460094CDF84A304FF60B733F
:100970000C94ADF82C302346CDE9180140F6013136
:100980004046ADF818100699CDE90D4400F092FDEF
:100990002146404600F080FEA7E700BF04020404A1
:1009A000040604030704010B2DE9F04704462DED6E
:1009B000028B82B000294DD0012140F201120023A8
:1009C0000091ADF804208DF80630364A0127364BE9
:1009D00004F10409354904F12908626040F2027209
:1009E000A36040F60663E16004F1250AA4F825201F
:1009F000A4F82930278284F8277084F82B7003F03C
:100A0000F1F9054603F054F86946064650BB4DB36C
:100A100004F130008DF8067003F06CF9072D3CD11D
:100A200004F114052046FFF739FF284600F0F8FAD4
:100A30002846B0EE408A00F0EFFAD0ED007AF8EEEA
:100A4000677A88EE277A84ED0E7A02B0BDEC028BCD
:100A5000BDE8F08740F2011300918DF80610ADF863
:100A60000430B2E704F1300003F044F9072D11D04F
:100A70004946204601F0C0FA0EB9002DD0D15046AB
:100A800000F014FE404600F011FE04F1120000F0E8
:100A900079F9C5E7002EF2D1C2E74946204601F0B8
:100AA000ABFABDE70508050905070506050A0606B0
:100AB00010B584B003460124ADF8040003A8ADF8D6
:100AC0000C30ADF80E4000F0F1FD214603A800F017
:100AD000C9FE204602F0EAFF002103A800F0C2FE92
:100AE000204602F0E3FF214603A800F0BBFE04B05D
:100AF00010BD00BF10B5C2F3002384B00C46017CCA
:100B00008DF80D2043EA4402FA2402238DF80C20CC
:100B100003AA009401F0BCF818B10124204604B0E7
:100B200010BD04460A2002F0C1FF204604B010BDEB
:100B3000034670B543F8042B044684B007C983E824
:100B40000700A37983B91A210B461E22FA252374C4
:100B50002046ADF80C20022303AA009501F098F876
:100B600028B1012004B070BD1B210B46EDE70A201F
:100B700002F09CFF4FF4B85200950223ADF80C2010
:100B8000204603AA217C01F083F80028E9D10A203D
:100B900002F08CFF41F2027200950223ADF80C20A6
:100BA000204603AA217C01F073F80028D9D10A203D
:100BB00002F07CFF042200950223ADF80C202046B1
:100BC00003AA217C01F064F80028CAD10A2002F0AF
:100BD0006DFF062200950223ADF80C20204603AAE3
:100BE000217C01F055F80028BBD10A2002F05EFFFD
:100BF00041F2082200950223ADF80C20204603AAFA
:100C0000217C01F045F80028ABD10A20064602F00D
:100C10004DFF0095022303AA217C2046ADF80C600D
:100C200001F036F800289CD1304602F03FFF0095D5
:100C300022790C232046002A8DF80C3003AA4FF0AD
:100C4000020314BF622142218DF80D10217C01F0B6
:100C50001FF8002885D1304602F028FF2279D4E918
:100C600002310B43DBB20AB943F0400362790AB1A7
:100C700043F020030E22FA258DF80D302046009512
:100C800002238DF80C2003AA217C01F001F8002832
:100C90007FF467AF0A2002F009FF102200950223BB
:100CA000ADF80C20204603AA217C00F0F1FF0028BB
:100CB0007FF457AF0A2002F0F9FE122100950223BB
:100CC000ADF80C1003AA217C204600F0E1FF0028BB
:100CD0007FF447AF0A2002F0E9FE012209212046F5
:100CE000FFF708FF003818BF01203BE7F0B51023DD
:100CF00087B0234C012200250126002702A92046A7
:100D00000195CDE902234FF48052CDE9046709F043
:100D100073FB642003F0A4FE02A94FF48052204626
:100D2000CDE9046702261027CDE9026709F064FBCC
:100D30000322102302A92046CDE902230023042226
:100D4000CDE904234FF4805209F056FB40F23223E0
:100D5000042202A9019310232046CDE90223019A1F
:100D6000012305924FF48052049309F045FB40F6AD
:100D70000601204609F060FB284607B0F0BD00BF21
:100D80006CE000241C4B00221C494FF0400C30B595
:100D9000054689B00220596007219A601A62012431
:100DA000DA620A224FF4006EDC6006922022CDE95E
:100DB000000104200821CDE9020103201021CDE922
:100DC000040108206946C3E904024FF4C072181DEB
:100DD000C3E906C24FF48052C3E909E209F0E2FA1E
:100DE00038B92846FFF782FF003818BF012009B044
:100DF00030BD204609B030BD68E0002440410052BB
:100E0000614A0021D0B513688EB00A91002B40F0E2
:100E1000B9805E4B01214FF683700C2411600221D2
:100E2000D3F8D4200026032742F48052C3F8D420FC
:100E3000D3F8D42002F480520092009AD3F8E02034
:100E400042F01002C3F8E020D3F8E02002F01002D4
:100E50000192019AD3F8E02042F04002C3F8E0206A
:100E6000D3F8E02002F040020292029AD3F8E02088
:100E700042F00802C3F8E020D3F8E02002F00802B4
:100E80000392039AD3F8E02042F48072C3F8E02082
:100E9000D3F8E02002F480720492049AD3F8E020A0
:100EA00042F08002C3F8E020D3F8E02002F0800294
:100EB0000592059AD3F8E02042F02002C3F8E02022
:100EC000D3F8E02002F020020692069AD3F8E02040
:100ED00042F00402C3F8E020D3F8E0300C9403F0B1
:100EE000040307930323079A0B93CDE9080108A98C
:100EF000274804F05BFE48F23712022308A9254870
:100F00000C94CDE90823CDE90A6704F04FFE4CF2BA
:100F10000372022308A920480C94CDE90823CDE9E7
:100F20000A6704F043FE40F2FF62022308A91B484F
:100F30000C94CDE90823CDE90A6704F037FE4FF69B
:100F40000C72022308A916480C94CDE90823CDE9B8
:100F50000A6704F02BFE4FF63F02022308A911484E
:100F60000C94CDE90823CDE90A6704F01FFE202286
:100F7000022308A90A480C94CDE90A67CDE90823A1
:100F800004F014FE0EB0D0BD64E00024004402580A
:100F90000010025800180258000C02580020025895
:100FA000001C02580014025830B5184C154685B084
:100FB000046004F1080EEC460FC98EE80F00D4ED72
:100FC000047AF5EEC07A8CE80F00F1EE10FA1ADD23
:100FD000B7EE006A94ED057A27EE277AC6EE276A07
:100FE00084ED0D7AC4ED0C6A6DB1204640F8185FAF
:100FF00001F006FC064903690020064A2162A2624C
:10100000E36005B030BD012005B030BDA0E0002494
:10101000002000300000003000680830704700BF3A
:101020000068183001F0EEBB10B4074B4FF07E5152
:1010300030240022032019619C60D8605DF8044BC5
:101040005961C3E906227047A0E00024704700BF41
:10105000F8B5134F3C687F2C07D98023114A42F220
:1010600024411C463B60A2F87E100F4D2B68012BDB
:101070000AD90C4E0D4D22463146284600F0FEF9A5
:101080000028F8D13860F8BD22460649074800F02C
:10109000F5F90028F7D12B68386001332B60F8BDD3
:1010A000DCE00024E0E00024D8E0002460E100243B
:1010B00030B4154C2168F1B14B1E144DE81810F8EE
:1010C00001298C4619460A2A01D00D2A02D14BB1BA
:1010D000013BF4E70CF102037F2B10D9802323603E
:1010E00030BC70470122022323600D200A2368547C
:1010F000AB5430BC704701220223044DF4E70CF1DD
:1011000001026146F0E700BFDCE00024E0E00024DB
:1011100010B5094C02460B46084821680844C1F145
:1011200080010FF075FA236818442060FFF7C0FFB4
:10113000FFF78EFF10BD00BFDCE00024E0E00024DC
:101140000FB400B583B004A951F8040B0191FFF767
:10115000DFFF03B05DF804EB04B0704710B5044640
:1011600000210A4800F004F9002C094B14BF0222A8
:10117000002208481A60FFF7E3FF0748FFF7E0FF87
:101180000A20BDE8104002F091BC00BF60E10024DD
:10119000D8E00024BC190108CC190108064A074907
:1011A000074808B50EF0D4FF034A04490548BDE8D6
:1011B00008400EF0CDBF00BF000000244D10000815
:1011C00060E1002464E10024074A118830B4818082
:1011D0000024064D91884FF4807285600460C180C0
:1011E000C26030BC704700BFAC180108004000303E
:1011F00038B50446104694F895301942237815D036
:10120000032B19D094F89820002594F896300A40C2
:1012100025700B40A26001F0F8021B09F82A237127
:1012200000F08680092B73D9002038BD032BFBD832
:10123000DFE803F0112A5102F7291CD094F98E201F
:1012400094F88E30002AEFDBE2180133002091730E
:1012500084F88E3038BD94F8942094F89730227139
:101260001940131F012B217305D994F88F3003F017
:10127000FD03012B45D10023237018B19022211DBD
:101280000FF059FA012038BD94F8973094F8942063
:101290001940131F2173012B05D994F88F3003F0E7
:1012A000FD03012B29D10023237000284CD090226C
:1012B000211D0FF040FA94F894200120032AB4D1A4
:1012C000237B772BB1D90922783B227184F89420B3
:1012D00084F8913038BD94F8973094F894201940F0
:1012E000012A617300D181B118B19022211D0FF044
:1012F00022FA00230120237038BD0223002023702E
:10130000DCE702230020237038BD00232371EBE7C4
:101310000122072B227019D101F00703A56084F880
:101320008F30CBB90322184684F88E30227038BD36
:101330000823237194F8993000221940227084F810
:10134000901000289AD19DE70120B7E7082BF1D033
:10135000284684F8943038BD4B077FF565AF8AE79F
:1013600000220A2302700371704700BF704700BF5C
:10137000012910B506D0022915D051B1BDE81040A1
:1013800006F0F6BA0A46344834490CF07BF9E8B165
:10139000FEE7334B0A46334C334934481C600CF0AB
:1013A00071F968B1FEE701222C492B480CF06AF96B
:1013B00000B1FEE72E4928480CF086F9C0B1FEE7DF
:1013C0002B492A480CF080F960B1FEE728492248F1
:1013D0000CF07AF900B1FEE726491F480CF002F93B
:1013E00008B3FEE7244921480CF0FCF8A8B1FEE759
:1013F000204919480CF0F6F800B1FEE716480CF049
:1014000079F9024640B9164B164C174917481C602B
:101410000CF038F968B1FEE7FEE714480CF06AF901
:101420000028ABD0FEE70C480CF064F90028A5D0EA
:10143000FEE70F490D480CF047F900B1FEE70E49F1
:101440000A480CF0CFF800B1FEE708480CF052F95A
:10145000002893D0FEE700BF04E40024900200249B
:10146000A0E600246D1300087402002468E1002443
:10147000F80200245402002444020024084691B2D9
:1014800008B502F0E9FD003818BF012008BD00BF13
:10149000014805F04BBD00BFB01E0124014805F016
:1014A00045BD00BFB01E0124014805F03FBD00BF8F
:1014B000B01E012410B592B0ADF804100180C9B27D
:1014C000149C0B29C460C0E901233FD090F801C0EF
:1014D000BCF10F0F3AD8022A3FD0032A02D0012ACA
:1014E00000D000220E92012B02D0022B18BF002345
:1014F000022C0F932CD0032C2AD0012C28D00023AF
:101500000A29109327D85C4A02EB812202610A293A
:1015100014D8DFE801F0A39587796B5D4F4133253F
:101520000600564BD3F8E01041F48061C3F8E01098
:10153000D3F8E03003F480630C930C9B01230DA9D6
:10154000104603FA0CF30D9304F030FB12B010BDFB
:101550000A291094D7D90022D8E711220E92C2E7A7
:10156000464BD3F8E01041F40071C3F8E010D3F813
:10157000E03003F400730B930B9BDFE73F4BD3F892
:10158000E01041F48071C3F8E010D3F8E03003F4C8
:1015900080730A930A9BD1E7384BD3F8E01041F0EF
:1015A0008001C3F8E010D3F8E03003F08003099322
:1015B000099BC3E7314BD3F8E01041F04001C3F879
:1015C000E010D3F8E03003F040030893089BB5E740
:1015D0002A4BD3F8E01041F02001C3F8E010D3F813
:1015E000E03003F020030793079BA7E7234BD3F8D2
:1015F000E01041F01001C3F8E010D3F8E03003F040
:1016000010030693069B99E71C4BD3F8E01041F0BA
:101610000801C3F8E010D3F8E03003F008030593A5
:10162000059B8BE7154BD3F8E01041F00401C3F89C
:10163000E010D3F8E03003F004030493049B7DE74B
:101640000E4BD3F8E01041F00201C3F8E010D3F8DC
:10165000E03003F002030393039B6FE7074BD3F8DB
:10166000E01041F00101C3F8E010D3F8E03003F0DE
:1016700001030293029B61E70000025800440258F4
:1016800008B5012143780069994089B204F096FCBD
:10169000003818BF012008BD01230A4641780069BF
:1016A00003FA01F189B204F08FBC00BF8378022BEA
:1016B00030B504468FB037D0032B33D0012B31D057
:1016C00000230A93E378012B2AD0022B28D0002391
:1016D0000B93002320460C9303F0A0F80546204608
:1016E00003F0A4F823780990082B13D8DFE803F05F
:1016F0001F3245586B7E91A40500594BD3F8E0206A
:1017000042F48072C3F8E020D3F8E03003F4807331
:101710000893089B09A9284604F048FA0FB030BD89
:101720000B93D6E70A93CDE711230A93CAE74C4BF4
:1017300009A92846D3F8E02042F00102C3F8E020CE
:10174000D3F8E03003F001030093009B04F02EFA7D
:101750000FB030BD424B09A92846D3F8E02042F033
:101760000202C3F8E020D3F8E03003F00203019353
:10177000019B04F01BFA0FB030BD394B09A9284674
:10178000D3F8E02042F00402C3F8E020D3F8E030C0
:1017900003F004030293029B04F008FA0FB030BD7B
:1017A0002F4B09A92846D3F8E02042F00802C3F8DD
:1017B000E020D3F8E03003F008030393039B04F028
:1017C000F5F90FB030BD264B09A92846D3F8E02023
:1017D00042F01002C3F8E020D3F8E03003F0100329
:1017E0000493049B04F0E2F90FB030BD1C4B09A92F
:1017F0002846D3F8E02042F02002C3F8E020D3F8D6
:10180000E03003F020030593059B04F0CFF90FB0FF
:1018100030BD134B09A92846D3F8E02042F040021E
:10182000C3F8E020D3F8E03003F040030693069BB2
:1018300004F0BCF90FB030BD094B09A92846D3F814
:10184000E02042F08002C3F8E020D3F8E03003F05B
:1018500080030793079B04F0A9F90FB030BD00BFC8
:101860000044025870B506460D4602F0D7FF044604
:10187000304602F0DBFF2A1E0146204618BF012237
:10188000BDE8704004F0A0BB0023122270B586B002
:10189000CDE9022304930368032B01D804230593A5
:1018A000061D841D304602F0B9FF0546304602F0A1
:1018B000BDFF034601A92846019304F077F92046AD
:1018C00002F0ACFF034620461C4602F0AFFF01A920
:1018D00003462046019304F069F906B070BD00BFCD
:1018E000634A0368934210B58CB028D0614A934292
:1018F00058D0614A934200F09480604A934201D0EC
:101900000CB010BD5E4C5F48D4F8E03043F00203E9
:10191000C4F8E030D4F8E03003F002030A930A9BE5
:10192000FFF7B2FFD4F8F43043F08003C4F8F4308A
:10193000D4F8F43003F080030B930B9BE0E7504C9A
:101940005148D4F8E03043F00203C4F8E030D4F852
:10195000E03003F002030193019BFFF795FFD4F8F9
:10196000E83000221F2043F400131146C4F8E83089
:10197000D4F8E83003F400130293029BD4F8D83073
:1019800043F00103C4F8D830D4F8D83003F0010391
:101990000393039B03F08EF81F200CB0BDE81040AA
:1019A00003F0C6B8364C3948D4F8E03043F0800331
:1019B000C4F8E030D4F8E03003F080030493049BD3
:1019C000D4F8E03043F00203C4F8E030D4F8E0305B
:1019D00003F002030593059BFFF756FFD4F8E830A8
:1019E0000022212043F480031146C4F8E830D4F8E3
:1019F000E83003F480030693069BD4F8D83043F014
:101A00000103C4F8D830D4F8D83003F001030793A9
:101A1000079B03F04FF821200CB0BDE8104003F005
:101A200087B81B48FFF730FF154B00224820D3F83A
:101A3000E840114644F40004C3F8E840D3F8E84015
:101A400004F400040894089CD3F8D84044F001043E
:101A5000C3F8D840D3F8D83003F001030993099BA9
:101A600003F028F848200CB0BDE8104003F060B83F
:101A70000054004000580040005C0040001C00582A
:101A80000044025830E90024A8E6002480E700243E
:101A900058E800242DE9F0431A4B87B000254FF099
:101AA00010099E46EC46184BFF22E04667461A7026
:101AB0000EF118060EF13004CDE90055CDE90255BE
:101AC000ADF80090BCE80F00CDE90455AEE80F007A
:101AD0009CE803000095ADF800908EE80300B8E89C
:101AE0000F000FC69CE803000095ADF8009086E853
:101AF00003000FCF0FC49CE8030084E8030007B085
:101B0000BDE8F08304000024A5E6002410B5EFF33F
:101B1000108472B6084B1A78120602D504B962B660
:101B200010BD1B78D82205485BB202FB03001430BD
:101B300003F0EAFCF2E700BFA5E60024A8E60024D3
:101B4000014805F0D9B800BF34E70024014805F08A
:101B5000D3B800BF0CE80024014805F0CDB800BFA1
:101B6000E4E800242DE9F0430F68D8243F4D85B008
:101B700007FB04F4032F05EB0403036040DCCB6890
:101B80000E46012B3CD84DD04FF0D808B646DFF8B2
:101B9000FC9008FB0758BEE80F00C446ACE80F00F5
:101BA000DEF800300DF1100ECCF80030D8F808C087
:101BB00099E80F000EE90F000EEB8703BCF1010F4F
:101BC00053F8103CC8F88C3031D0BCF1020F42D031
:101BD000BCF1000F35D0317C8C34D8230022012099
:101BE0002C4403FB07534900C3E92602C3F89410B1
:101BF0002046C3E92822C3E92A2204F06FFE18B167
:101C0000012005B0BDE8F0830146204605F080F8CC
:101C10000028F5D10146204605F0A4F8003818BF89
:101C20000120EEE70B7C103B672BADD9E8E702F013
:101C3000D7F80F4B98420CBF0E4B0F4BC8F89030A3
:101C4000C9E702F0CDF80A4B98420CBF0B4B0C4B86
:101C5000C8F89030BFE702F0C3F8054B98420CBFBC
:101C6000084B094BC8F89030B5E700BFA8E6002440
:101C7000000E27072D0FB0303211D0205F43906047
:101C80008A62E030200BA0101A098010B4180108F5
:101C90002DE9F041D0F8008082B00D4617461E466F
:101CA00008F18C04204605F02FF82028FAD1D8F846
:101CB0000C3073B96D002046089C33463A46A9B2F1
:101CC000009404F061FE003818BF012002B0BDE8A6
:101CD000F081089B32463946204604F029FFF2E79E
:101CE000044B10221A7483F8E82083F8C02183F88B
:101CF00098227047A8E6002430B5002395B04FF431
:101D00008071062204460B9306921393CDE90C13BF
:101D1000CDE90E33CDE9113302F064F807282BD05A
:101D200004F1100541F2883206A9284605F06CFF3F
:101D300028B10123184684F85C3015B030BD02226A
:101D4000022306A92846CDE9002310220123CDE96C
:101D5000022300224FF48003CDE9042305224FF033
:101D6000807306926A460F9341F2883306F0B8F802
:101D70000028DED115B030BD0323012084F85C308B
:101D800015B030BD0000000070B50023A4B04FF0C6
:101D900080724FF480750446ADF806300D93CDE99E
:101DA00010320122CDE90E53CDE91223CDE91433CF
:101DB000002943D0F02300F1100508AEADF806303D
:101DC000C02341F2883231462846089305F01CFFB3
:101DD00028B10123184684F85C3024B070BD41F26C
:101DE00088320DF10601284605F078FF03460028E9
:101DF000EFD105224FF480711E93284616924FF0C2
:101E000080721B9321931F9202AA9FED1F7BCDE945
:101E10001C13CDE922338DED027B9FED1D7B41F23A
:101E2000883316A98DED047B9FED1B7B8DED067B22
:101E300006F056F80028CCD124B070BD00F1100592
:101E400008AE612341F2883231462846089305F0F6
:101E5000DBFE0028BDD141F288320DF10601284693
:101E600005F0BAFF0028B4D1BDF80630204623F0B3
:101E7000780343F04003ADF80630FFF73DFF00283C
:101E80009ED0A6E7AFF30080000000000100000034
:101E900010000000010000000000000000004000F1
:101EA0002DE9F04F00234FF4807501264FF0807824
:101EB00004462DED028BABB08DF8073013932193C0
:101EC000299314950E96CDF85C80CDE91533CDE9B4
:101ED0001863CDE91A33CDE92253CDE92433CDE996
:101EE000273306231C9301F07DFF072808D004F157
:101EF000100741F288321CA9384605F085FE40B132
:101F00000123184684F85C302BB0BDEC028BBDE891
:101F1000F08F4FF0020A4FF0020B4FF0050941F22B
:101F2000883308AA1CA93846CDF89480CDF8709063
:101F30009FED2D8BCDE908AB4FF0000A4FF4800BDD
:101F40008DED0A8BCDE90CAB05F0CAFF0028D7D187
:101F500041F2883238460EA905F056FE0028CFD14E
:101F6000402341F288320DF1070138468DF80730E1
:101F700005F0B4FE0028C3D141F288330EA902AAAD
:101F80003846CDF83890CDF85C809FED197B8DED0B
:101F9000048BCDE906AB8DED027B05F0A1FF034676
:101FA0000028ADD1CDF870904FF00109CDF89480A4
:101FB0004FF00008219308AA29931CA938462295BE
:101FC000CDE92333CDE9273341F288338DED0A8BF8
:101FD000CDE90CABCDE9088905F082FF002893D04C
:101FE000304684F85C608FE71000000001000000BC
:101FF00040000000400000002DE9F043624CA3B017
:102000000D46046001F0EEFE072800F0A980286864
:1020100023466968AA6807C31E46AB8926F8043BB5
:102020003046257B677B05F0D1FDE0B9574B012D8C
:102030004FF00108E061236114BF4FF480134FF4A7
:102040000003C4E9058893FAA3F3B3FA83F34FF4CA
:102050008079013BC4F82490C4E90B003046236228
:1020600005F048FD38B10122134684F85C2018467B
:1020700023B0BDE8F08366230B90139041F28832C1
:1020800006A90693CDE90C90CDE90E00CDE911002B
:10209000304605F0B9FD0028E5D1992341F2883298
:1020A00006A93046069305F0AFFD0028DBD10523D5
:1020B0001C9019906A4614934FF08073219014A9D4
:1020C0001D9341F288339FED2A7BCDE91A90CDE92B
:1020D0001F008DED007B9FED287B30468DED027B50
:1020E0009FED277B8DED047B05F0FAFE0028BAD129
:1020F00029462046FFF748FE0028B4D12046FFF7C6
:10210000CFFE03460028AED1002FB0D11893304641
:102110000027002606AA14A9CDF86890CDE91F3340
:10212000EB2314934FF440631B934FF40053179326
:102130004FF440431C93A0231693062319934FF0AA
:10214000805321934FF04073CDE906671D9305F04E
:102150003FFF034600288AD0434684F85C8086E728
:1021600001230322184684F85C2023B0BDE8F083E5
:10217000000000000100000010000000010000004D
:10218000000000000000400008EA00240050005257
:102190002DE9F04F8FB0414B0024026800AF9A4206
:1021A0007C63C7E90944C7E90B4403D03C37BD460B
:1021B000BDE8F08F3A4B40F609213A48EB46D3F898
:1021C000D42007F11C0607F1220A4FF0020942F45D
:1021D00080424FF00308C3F8D420D3F8D42002F48F
:1021E0008042BA60BA68D3F8E02042F04002C3F8F7
:1021F000E020D3F8E02002F04002FA60FA68D3F859
:10220000E02042F02002C3F8E020D3F8E02002F002
:1022100020023A613A69D3F8E02042F01002C3F894
:10222000E020D3F8E02002F010027A617A69D3F856
:10223000E02042F00202C3F8E020D3F8E030F86179
:1022400003F002033984BB61174B7B60BB697B6879
:1022500053F8040F7B6002F0E1FA7B6805461868CA
:1022600002F0E4FA16F8013B786207F124012846EF
:10227000C7F830807B63C7E90A9403F097FC5645A2
:10228000E5D100225C20114602F014FC5C2002F033
:102290004FFC3C37DD46BD46BDE8F08F0050005294
:1022A000004402580A0A090964EA0024114B026832
:1022B0009A4200D07047104A70B5D2F8D4300F4C13
:1022C00023F4804304F11806C2F8D43054F8040F04
:1022D00002F0A4FA0546206802F0A8FA0146284652
:1022E00003F0A4FDB442F1D15C20BDE8704002F0DF
:1022F0002DBC00BF005000520044025864EA002484
:10230000014805F0F1BE00BF18EA0024084B1A1D71
:10231000981D03F1080110B49C1C9A6603F10A028F
:10232000C3E91834C3E91B015DF8044B5A677047D1
:1023300008EA002438B5036871B9026A00F128057B
:1023400000F5AC74012A0CBF002140218BBB1D4B52
:102350005722C0F858310DE0426A00F1C00500F57F
:10236000E874012A0CBF00214021EBB1164B5A2220
:10237000C0F8D03100232046C4E901214FF4805237
:102380004FF48061636262614FF48042C4E90331BB
:102390004FF48073C4E906234FF40033236202F044
:1023A0003BFD58B1FFBEFEE7084B5822C0F8D031C4
:1023B000E0E7074B5922C0F85831DBE7C5E9204474
:1023C000A56338BD100002407000024028000240A2
:1023D000580002402DE9F043821D05468BB0031DD5
:1023E00005F10A010830CDE9052305F10C02AB69BE
:1023F000CDE907010992002B3DD0EB69B3FA83F8D0
:102400004FEA58180123022205AE0AAF4FF0060921
:102410000393CDE9012356F8044B2B79227893429C
:1024200016D02B68F3B1012B02D1F2B10A23049329
:10243000204602F0FBF903462046009302F0EEF935
:10244000694603F0B3FBBE42E5D10BB0BDE8F083B3
:10245000697963789942E4D1B8F1000FF3D02B6821
:10246000002BE0D1CDF81090E2E76378022B14BF87
:102470000A230823DBE74FF00108C3E7534A036848
:10248000934230B505468BB055D02032934252D09E
:102490004F4A934204D02032934201D00BB030BD5A
:1024A0004C4C4D48D4F8E03043F00103C4F8E03020
:1024B000D4F8E03003F001030593059BD4F8E03035
:1024C00043F00803C4F8E030D4F8E03003F0080328
:1024D0000693069BD4F8E03043F04003C4F8E030A4
:1024E000D4F8E03003F040030793079BD4F8F030B2
:1024F00043F40003C4F8F030D4F8F03003F40003E0
:102500000893089BFFF766FFD4F8D830296843F09A
:1025100001032F4A3048C4F8D830891AD4F8D8308B
:1025200018BF012103F001030993099B0BB0BDE81B
:102530003040FFF7FFBE274C2848D4F8E03043F086
:102540000103C4F8E030D4F8E03003F00103009355
:10255000009BD4F8E03043F01003C4F8E030D4F826
:10256000E03003F010030193019BD4F8E03043F016
:102570004003C4F8E030D4F8E03003F040030293A5
:10258000029BD4F8F03043F48003C4F8F030D4F860
:10259000F03003F480030393039BFFF71BFFD4F891
:1025A000D830296843F00103084A0C48C4F8D830F1
:1025B000891AD4F8D83018BF012103F0010304931D
:1025C000049B0BB0BDE83040FFF7B4BE0458014097
:1025D000045C014000440258DCEC002480EA002442
:1025E000014802F091BF00BFD8EB0024014802F07F
:1025F0008BBF00BF50EC0024014802F085BF00BF34
:1026000034EE0024014802F07FBF00BFACEE00248E
:102610002DE9F04F0C684FF41776754F87B004FB27
:1026200006F6012C07EB060AC0F800A000F3A08014
:102630000D468E464FF00008D44669A3D3E9002327
:1026400069A1D1E90001CDE9022306ABCAF85082A5
:1026500003EB8403CDE9040153F810BC53F8083CA4
:10266000CAE992880193BEE80F00ACE80F00BEE80B
:102670000F00ACE80F00019B9EE80300CAF828B0E9
:10268000CAF8C0308CE803002B69042B0CD8DFE8B3
:1026900003F0737D879103004FF41773554A03FBD2
:1026A00004739A64C3F8E020AA692B6A002A43D015
:1026B000002B4FF4177308BF022203FB047318BFEB
:1026C0000322DA6201221A63EA696B6A002A40D1A6
:1026D000191E4FF4177318BF012103FB0473C3E9DC
:1026E00031126B69022B05D8434A12F80380434A22
:1026F00052F823904FF4177306F1280042464946DA
:1027000003FB04740023384463646363E365C4F823
:10271000DC30C4F8CC30C4F8F430C4E90F33C4E979
:102720001533C4E93533C4E93B33022307F07EFD9A
:10273000002849D0FFBEFEE7191E4FF4177318BFDB
:10274000012103FB0473C3E90B12EA696B6A002AD7
:10275000BED0002B4FF4177308BF022203FB047393
:1027600018BF0322C3F8C4200122C3F8C820B8E769
:10277000012007B0BDE8F08F4FF417734FF4FA5201
:1027800003FB04739A64C3F8E0208DE74FF41773DA
:102790004FF47A5203FB04739A64C3F8E02083E792
:1027A0004FF417734FF4FA4203FB04739A64C3F8AF
:1027B000E02079E74FF417734BF6803203FB047384
:1027C0009A64C3F8E0206FE706F1C0000223424696
:1027D0004946384407F02AFD0028CAD0FFBEFEE76C
:1027E00004580140045C014024580140245C01402D
:1027F00080EA002400770100741A0108781A0108A1
:102800000068704703681B69042B05D8044A02EB73
:10281000830393ED000A70479FED020A704700BFE3
:10282000841A010800803B471F4BC1680268F0B55D
:10283000D3F88C5083B00369ADB24D1BA2B1AB424B
:1028400012D00446866811D2F018E91ACDE90010BA
:1028500001F064F80023DDE90010D4E90062B0471C
:10286000E3682561AB421BD003B0F0BDF018C91A74
:10287000CDE9000101F052F80023DDE90001D4E9BF
:102880000072B8473046294601F048F80023304628
:10289000626829462668B047E3682561AB42E3D108
:1028A0000023236103B0F0BD000002402DE9F84F82
:1028B00004460F4690461E4600F13405284608F0AF
:1028C00079F82028FAD14FF480630020C4F8D03082
:1028D000C4F848314FF44033C4F8CC00C4F8E030B9
:1028E000C4F858314E4BC4F8DC00C4F8C03003F5CE
:1028F0007A73C4F8E400C4F838314023C4F8C8003F
:10290000C4F84031E369C4F84401C4F85401C4F880
:102910005C01C4E93500C4E95300072B0BD8DFE89C
:1029200003F061535A373E454C045123C4F8C43078
:102930005223C4F83C3104F59C79484602F06CFA05
:1029400008B1FFBEFEE7C4F8A890C4F87051EFF3D9
:10295000108972B6DFF8D0B094F91C30DFF8CCA043
:102960008BF800300A9B2F4CCAF800300B9B236079
:102970000EB11846B0471FFA88F23946284607F0CC
:1029800003FEB0BBB9F1000F00D162B6BDE8F88F0D
:102990003F23C4F8C4304023C4F83C31CBE7412383
:1029A000C4F8C4304223C4F83C31C4E74723C4F818
:1029B000C4304823C4F83C31BDE74F23C4F8C430C9
:1029C0005023C4F83C31B6E72B23C4F8C4302C2381
:1029D000C4F83C31AFE72D23C4F8C4302E23C4F82B
:1029E0003C31A8E72923C4F8C4302A23C4F83C3179
:1029F000A1E7FF238BF800300023CAF800302360E2
:102A00000A9B3BB10B98012198470120B9F1000FB7
:102A1000BCD1BAE70120B9F1000FB7D1B5E700BFCB
:102A20008800024070FE00246CFE002468FE002432
:102A30002DE9F84F04460F4690461E4600F1340536
:102A4000284607F0B7FF2028FAD14FF48063002012
:102A5000C4F8D030C4F848314FF44033C4F8CC0047
:102A6000C4F8E030C4F858314E4BC4F8DC00C4F868
:102A7000C03003F57A73C4F8E400C4F83831402359
:102A8000C4F8C800C4F84031E369C4F84401C4F88C
:102A90005401C4F85C01C4E93500C4E95300072BB4
:102AA0000BD8DFE803F061535A373E454C045123FD
:102AB000C4F8C4305223C4F83C3104F1C00948467C
:102AC00002F0AAF908B1FFBEFEE7C4F8AC90C4F862
:102AD000F850EFF3108972B6DFF8D0B094F91C30DB
:102AE000DFF8CCA08BF800300A9B2F4CCAF80030DE
:102AF0000B9B23600EB11846B0471FFA88F2394687
:102B0000284607F093FDB0BBB9F1000F00D162B6C3
:102B1000BDE8F88F3F23C4F8C4304023C4F83C31EB
:102B2000CBE74123C4F8C4304223C4F83C31C4E7A6
:102B30004723C4F8C4304823C4F83C31BDE74F23D1
:102B4000C4F8C4305023C4F83C31B6E72B23C4F892
:102B5000C4302C23C4F83C31AFE72D23C4F8C43073
:102B60002E23C4F83C31A8E72923C4F8C4302A2313
:102B7000C4F83C31A1E7FF238BF800300023CAF8EA
:102B8000003023600A9B3BB10B980121984701203C
:102B9000B9F1000FBCD1BAE70120B9F1000FB7D1EC
:102BA000B5E700BF8800024070FE00246CFE0024E0
:102BB00068FE00242DE9F0410D4682B0EFF3108746
:102BC00072B6002948D1FF23254A264C237013688A
:102BD0002BB1002029461060234A106898472378BB
:102BE0001B0625D5DFF888800025204E444605E0E9
:102BF00001351C3406F5D876092D19D0A369012BAF
:102C00001BD0002BF4D1216830460029F0D0636935
:102C1000019323690093E3682289FFF709FF0028E5
:102C2000E6D1C5EBC50508EB850348F825005860DB
:102C300007B962B602B0BDE8F08161680029D7D05B
:102C400063693046019323690093E3682289FFF7A3
:102C50002DFE0028CCD1E4E709F0A8F9B3E700BFC6
:102C600068FE00246CFE002470FE002438EF00246F
:102C70004C000024F0B5002387B0022204460493E0
:102C8000CDE90223027EC3690B2A4FEA430523D113
:102C9000A27E0B2A02D1002007B0F0BD48496B1C70
:102CA000484851F82330457801781878E67E884204
:102CB00069D0824277D0D87803F1030C81426ED07C
:102CC000824278D0987903F1060C88426FD0824214
:102CD00033D0012007B0F0BD394B3A4853F82530C6
:102CE00001784678187894F819C081423DD0824224
:102CF00041D0D87803F1030E814240D082424AD0BD
:102D0000987903F1060E884241D08242E1D1DB7905
:102D10006345DED1734604F118069B78304605936F
:102D200001F07CFD034630461E4601F07FFD01A9FF
:102D30000190304602F03AFFAAE7DB79B342C8D1EE
:102D400063461A349B782046059301F067FD0346DD
:102D500020461C4601F06AFD034601A92046019366
:102D600002F024FF002007B0F0BD93F801E0B64563
:102D7000BFD08242BDD158786045BAD1CBE71F7928
:102D8000B742BBD1BCE75F78AF4292D193E7D97924
:102D9000B142BAD19DE718796045B1D1BAE71F7940
:102DA000AF428DD18EE75878B04284D1C9E7D97946
:102DB000A9428CD18DE71879B04283D1C0E700BF1A
:102DC00064010024600100247E4A03689342F0B548
:102DD0008FB000F0E380A2F54C42934200F0E08017
:102DE00002F58062934200F0DD8002F5806293423A
:102DF00000F0DA8002F58062934200F0D98002F59B
:102E00004442934200F0D280A2F51C42934200F06B
:102E1000D18002F58062934200F0CE806A4A9342EC
:102E200040F0CC800826694D4FF4D87404FB06545A
:102E3000A07E01F003FD207E01F000FDE369082B78
:102E400013D8DFE803F03B49576573818F9D050078
:102E50005F4BD3F8F42042F00802C3F8F420D3F813
:102E6000F43003F008030893089B2046FFF702FFA5
:102E7000012801D1FFBEFEE74FF4D8740EAA554FCA
:102E80000DF1240C04FB0654E36902EB43050FCF5C
:102E9000ACE80F003B680022ACF80030114635F971
:102EA000140C01F007FEE3690EAA02EB430333F9A9
:102EB000140C0FB0BDE8F04001F03ABE444BD3F81B
:102EC000F02042F01002C3F8F020D3F8F03003F005
:102ED00010030093009BC8E73D4BD3F8E82042F471
:102EE0000032C3F8E820D3F8E83003F4003301934C
:102EF000019BBAE7364BD3F8E82042F48022C3F8AE
:102F0000E820D3F8E83003F480230293029BACE777
:102F10002F4BD3F8E82042F40022C3F8E820D3F87E
:102F2000E83003F400230393039B9EE7284BD3F878
:102F3000E82042F48012C3F8E820D3F8E83003F424
:102F400080130493049B90E7214BD3F8F02042F0C8
:102F50002002C3F8F020D3F8F03003F020030593EB
:102F6000059B82E71A4BD3F8E82042F08042C3F871
:102F7000E820D3F8E83003F080430693069B74E71B
:102F8000134BD3F8E82042F00042C3F8E820D3F80E
:102F9000E83003F000430793079B66E7002642E70B
:102FA000012640E702263EE703263CE705263AE7EE
:102FB000042638E7062636E7072634E700239B7EFB
:102FC000FFDE00BF00100140000C005838EF002465
:102FD00000440258C41801082DE9F04F91B00023B5
:102FE00001223F490DF1240A09938B4601F11C0986
:102FF000CAF8143001F13808CDF800A001F15407E7
:10300000CDF804A001F17006CDF808A001F18C05FF
:10301000CDF80CA001F1A804CDF810A001F1C40E68
:10302000CDF814A001F1E00CCAE90133CAE9033379
:103030000F92FF222B4BCDE906AA1A70BAE80F00B7
:10304000ABE80F009AE80700009B8BE807009B465F
:10305000BBE80F00A9E80F009AE80700019B89E888
:1030600007009946B9E80F00A8E80F009AE80700A2
:10307000029B88E807009846B8E80F000FC79AE857
:103080000700039B87E807001F460FCF0FC69AE88B
:103090000700049B86E807001E460FCE0FC59AE87E
:1030A0000700059B85E807001D460FCD0FC49AE871
:1030B0000700069B84E807001C460FCCAEE80F0013
:1030C000079B9AE807001C468EE807000FCCACE887
:1030D0000F009AE807008CE8070011B0BDE8F08FF8
:1030E0004C0000246CFE002410B5094C04F134009F
:1030F00007F06EFB237D1BB1636BDB69DB0600D43D
:1031000010BD2046FFF790FB636B10221A6210BDC2
:1031100038EF002410B50B4C04F5F27007F058FBA3
:1031200094F8C43123B1D4F8E431DB69DB0600D470
:1031300010BD04F5D870FFF777FBD4F8E431102206
:103140001A6210BD38EF002410B50B4C04F5657001
:1031500007F03EFB94F8743323B1D4F89433DB6961
:10316000DB0600D410BD04F55870FFF75DFBD4F802
:10317000943310221A6210BD38EF002410B50B4CA6
:1031800004F2445007F024FB94F8243523B1D4F81A
:103190004435DB69DB0600D410BD04F5A260FFF7FF
:1031A00043FBD4F8443510221A6210BD38EF0024D6
:1031B00010B50B4C04F2F46007F00AFB94F8D43617
:1031C00023B1D4F8F436DB69DB0600D410BD04F576
:1031D000D860FFF729FBD4F8F43610221A6210BD2C
:1031E00038EF002410B50B4C04F6A40007F0F0FAF9
:1031F00094F8843823B1D4F8A438DB69DB0600D412
:1032000010BD04F50760FFF70FFBD4F8A4381022B7
:103210001A6210BD38EF002410B50B4C04F6542090
:1032200007F0D6FA94F8343A23B1D4F8543ADB696B
:10323000DB0600D410BD04F52260FFF7F5FAD4F8E0
:10324000543A10221A6210BD38EF002410B50B4C0E
:1032500004F6044007F0BCFA94F8E43B23B1D4F838
:10326000043CDB69DB0600D410BD04F53D60FFF7CC
:10327000DBFAD4F8043C10221A6210BD38EF0024A7
:1032800010B50B4C04F6B45007F0A2FA94F8943D34
:1032900023B1D4F8B43DDB69DB0600D410BD04F5DE
:1032A0005860FFF7C1FAD4F8B43D10221A6210BD7D
:1032B00038EF002410B5EFF3108472B6084B1A787B
:1032C000120602D504B962B610BD1B784FF4D8724D
:1032D00004485BB202FB0300C03002F015F9F1E7CD
:1032E0006CFE002438EF002410B5EFF3108472B6A2
:1032F000094B1A78120602D504B962B610BD1B78C4
:103300004FF4D87205485BB202FB030000F59C70D5
:1033100002F0FAF8F0E700BF6CFE002438EF00245A
:103320000021FFF747BC00BF214A036893422BD01E
:10333000A2F54C42934229D002F58062934227D0F5
:1033400002F58062934225D002F58062934223D039
:1033500002F54442934221D0A2F51C4293421FD071
:1033600002F5806293421DD0124A93421CD108227A
:103370004FF4D871104B01FB0233197D11B118467F
:10338000FFF752BAFFF716BC0022F1E70122EFE780
:103390000222EDE70322EBE70422E9E70522E7E753
:1033A0000622E5E70722E3E700231B7DFFDE00BFDF
:1033B00000100140000C005838EF0024204A036838
:1033C000934229D0A2F54C42934227D002F5806265
:1033D000934225D002F58062934223D002F58062A9
:1033E000934221D002F5444293421FD0A2F51C42E1
:1033F00093421DD002F5806293421BD0114A934242
:103400001AD1082310484FF4D87202FB0300037D41
:1034100003B97047FFF708BA0023F3E70123F1E788
:103420000223EFE70323EDE70423EBE70523E9E7B6
:103430000623E7E70723E5E700231B7DFFDE00BF48
:1034400000100140000C005838EF00240121FFF764
:10345000B1BB00BF2DE9F0414F684FF4D876DFF8DB
:10346000C0808E4607FB06F60C46082F08EB0605C3
:10347000056005F1180CBEE80F00ACE80F009EE8EF
:1034800007008CE8070002D86B6A022B02D90120E2
:10349000BDE8F0812A6A032AF9D8A96A0229F6D878
:1034A000E86A0228F3D80131DFF878C034368900A1
:1034B0005CF8277046446F63A469A9641549AC633E
:1034C00051F823306B64144B53F82230134A2B64A9
:1034D000002352F8201001223046EB65E963C5E96C
:1034E0001333C5E9153208F061FD0028CFD101463C
:1034F000304608F0B3FD0028C9D10146304608F037
:10350000FBFD0028C3D1304608F08AFD0028BED15B
:103510002875BDE7BC1A0108C81A0108D81A0108A5
:1035200038EF0024981A0108F8B504681646069A80
:103530004FF48077236000236260012223610D46EF
:1035400022753C4AC4F8CC30C4F8C0204FF48062E5
:10355000C4F8E430C4F8C830C4F8D0204FF4403286
:10356000A160E660C4E93533E369C4E93772072B2B
:103570000BD8DFE803F02E353C434A515804512262
:103580005223C4F8C420C4F83C3104F1C0073846C3
:1035900001F042FC08B10120F8BD626B04F1340374
:1035A000C4F8AC703146C4F8F8301F46136828469A
:1035B00043F01003136000F0B1F92946B2B2384667
:1035C00007F034F80028E6D194F91C201A4B1A7041
:1035D000F8BD29222A23C4F8C420C4F83C31D4E71A
:1035E0002B222C23C4F8C420C4F83C31CDE72D2273
:1035F0002E23C4F8C420C4F83C31C6E73F22402340
:10360000C4F8C420C4F83C31BFE741224223C4F8C7
:10361000C420C4F83C31B8E747224823C4F8C4208A
:10362000C4F83C31B1E74F225023C4F8C420C4F899
:103630003C31AAE7880002406CFE00240368187D34
:10364000704700BF006892B208B534300A2306F014
:103650000BFF003818BF012008BD00BF534B0122EB
:10366000002047F6122130B4C3E97420C3E9772162
:10367000C3E9E020C3E9E3211A62DA625862196300
:10368000C3F83025C3F83405C3F83C25C3F840150A
:10369000C3F8E026C3F8E406C3F8EC26C3F8F01636
:1036A000C3F89028C3F89408C3F89C28C3F8A0185E
:1036B000C3F8402AC3F8440AC3F84C2AC3F8501A86
:1036C000C3F8F02BC3F8F40BC3F8FC2BC3F8001CB1
:1036D000C3F8A40D3648C3F8A02DC3F8AC2DC3F829
:1036E000B01D0288837833490068334CCA804FEAA2
:1036F000104C0B723149E2802372A1F80320A4F828
:10370000032063714B712E4CCA800B722D492E4DD4
:10371000E2802372A1F80320A4F8032063714B71A7
:103720002A4CCA800B722A49EA8008802B7281F8E1
:1037300002C0E2802372A1F803204B71CA800B7291
:103740002449A1F803204B71CA800B722249A1F8C9
:1037500003204B71CA800B722049088081F802C097
:10376000A1F803204B71CA800B721D49088081F8B3
:1037700002C0A1F803204B71CA800B72194908805E
:1037800081F802C01848A1F803204B71CA800B725F
:103790001649A0F803204371C2800372A1F80320E8
:1037A0004B71CA800B7230BC704700BF38EF0024E9
:1037B00060010024E80100240C020024000200241F
:1037C0002402002418020024F4010024D001002463
:1037D00098FE002430020024DC01002474FE002442
:1037E0008CFE002480FE00245401002448010024A3
:1037F0003E4B00220B20114610B5D3F8D84082B0C2
:1038000044F00104C3F8D840D3F8D84004F00104D0
:103810000094009CD3F8D84044F00204C3F8D84088
:10382000D3F8D83003F002030193019B01F042F971
:103830000B2001F07DF900220C20114601F03AF92D
:103840000C2001F075F900220D20114601F032F92B
:103850000D2001F06DF900220E20114601F02AF929
:103860000E2001F065F900220F20114601F022F927
:103870000F2001F05DF900221020114601F01AF925
:10388000102001F055F900223C20114601F012F9F8
:103890003C2001F04DF900221120114601F00AF9F7
:1038A000112001F045F900223820114601F002F9FB
:1038B000382001F03DF900223920114601F0FAF8D4
:1038C000392001F035F900223A20114601F0F2F8D2
:1038D0003A2001F02DF900223B20114601F0EAF8D0
:1038E0003B2002B0BDE8104001F022B9004402586C
:1038F00020F01F002031BFF34F8F002907DD064A5B
:103900000144C2F8680220300B1A002BF9DCBFF327
:103910004F8FBFF36F8F704700ED00E020F01F0066
:103920002031BFF34F8F002907DD064A0144C2F85A
:103930005C0220300B1A002BF9DCBFF34F8FBFF372
:103940006F8F704700ED00E0704700BF08B501F0D1
:1039500075F8BDE8084001F075B900BF064808B524
:1039600003680BB102F034FB044803681BB1BDE8E7
:10397000084003F0DBBA08BDC0280124B8220124A6
:10398000064808B503680BB102F022FB044803683F
:103990001BB1BDE8084003F0C9BA08BDC028012426
:1039A000B8220124064808B503680BB102F010FBE9
:1039B000044803681BB1BDE8084003F0B7BA08BD6E
:1039C000C0280124B8220124364BDA6A520062D59D
:1039D0009A6A9A6A9A6A9B6A180600D500BE314BA9
:1039E0009B6A990600D500BE2E4B9B6ADA0600D56D
:1039F00000BE2C4B9B6A1B0700D500BE294B9B6A5F
:103A0000980700D500BE274B9B6AD90700D500BE9A
:103A1000244B9B6A1A0400D500BE224B9B6A9B0470
:103A200000D500BE1F4B9B6AD80400D500BE1D4BBD
:103A30009B6A190500D500BE1A4B9B6A5A0500D532
:103A400000BE184B9B6A9B0500D500BE154B9B6AB8
:103A5000D80500D500BE134B9B6A990100D500BE66
:103A6000104B9B6ADA0100D500BE0E4B9B6A1B030C
:103A700000D500BE0B4B9B6A580300D500BE094B16
:103A80009B6A990300D500BE064B9B6ADA0306D4F5
:103A900000BE00BEFEE7DB6A9B07FAD5F8E700BE72
:103AA000F6E700BF00ED00E000F0D4BF00F0D8BFA3
:103AB0000A4B9B6803F17843B3F5003F0BD3084BE7
:103AC000986848B19868012806D09868022803D001
:103AD0009B68032070470120704700BF00ED00E0A5
:103AE000000080382DE9F041CEB004464C22002180
:103AF0000AA80CF09BFD2022002102A80CF096FDE4
:103B0000BC2200211EA80CF091FD022003F00AFF48
:103B10002368012B4FF0000354D0534A0225019330
:103B2000C820D16A514B21F00101D162D26A02F062
:103B3000010201929A6942F440429A619B6903F43E
:103B400040430193019B494A93699B04FCD5484932
:103B50000224002201268B6A04274FF0080823F074
:103B6000030323438B62052316900AA818934FF48E
:103B700080331096179419941597CDF86880CDE985
:103B80001B222122CDE91344CDE90A2304F0B4FB22
:103B900000B1FEE73F220323294602A8CDE9022314
:103BA00000220823CDE9042340224023CDE9062347
:103BB00040234FF48062CDE9082304F0CBFE034696
:103BC000B8B1FEE7294A04250093F0209169264BFD
:103BD00041F440419161926902F440420092DA6AF4
:103BE00042F00102DA62DB6A03F001030093009BFA
:103BF000A9E720224FF4805125934FF440152B92D2
:103C000080222D931EA83093269135914FF4807118
:103C1000249234920C223394439140F22711209243
:103C20001022CDF884802A971F96CDE92E34CDE955
:103C30003B334FF48033CDE9224631930024469341
:103C40000623CDE93E4527934FF48063094C2C931E
:103C50001E94CDE9281205F0D9F800B1FEE703F073
:103C600087FE4EB0BDE8F0810004005800480258BD
:103C7000004402580F130F0370B584B0012400F004
:103C80008FFF4FF480764FF04052194B6846002565
:103C9000ADF800400396CDE9012300F09FFF192203
:103CA0004FF0404368468DF8082001938DF80F408F
:103CB000ADF80D608DF801408DF80A5000F08EFFD0
:103CC00002230B2268468DF80F508DF801304FF01B
:103CD00062538DF808200193ADF80D408DF80A402D
:103CE00000F07CFF042000F069FF04B070BD00BF4D
:103CF0000E00010330B50D46044685B0D1E9000140
:103D000084E8030000F06AFEAB79A3B3FFF770FD0F
:103D1000FDF7C0FE0AF032FDFFF75EF92B798BBB91
:103D20006B799BB1BFF34F8FBFF36F8F2A4B00228C
:103D3000C3F85022BFF34F8FBFF36F8F5A6942F41D
:103D400000325A61BFF34F8FBFF36F8F4FF0FF32D6
:103D50000023002400256946204802928DF80C308B
:103D6000CDE900450BF02AF91C480BF08FF90AF059
:103D700035F905B030BD2046FFF7B4FE2046FFF709
:103D80007BFFC3E7144C0023C4F88430BFF34F8F8C
:103D9000D4F8801043F6E07EC1F34E3CC1F3C90174
:103DA0004FEA4C1C0CEA0E000B4640EA8372013BC2
:103DB000C4F860225A1CF8D1ACF1200C1CF1200F81
:103DC000F0D1BFF34F8F636943F480336361BFF376
:103DD0004F8FBFF36F8FA3E700ED00E0A4FE002438
:103DE00004F0E8BE1C4B9B6803F17842B2F5003F3B
:103DF00025D3B3F5803F20D303F16042B2F5003FF5
:103E00001FD303F15C42B2F5002F1CD303F17042C3
:103E1000B2F5902F19D303F14842B2F5803F16D383
:103E200003F18042B2F1806F13D303F1E043B3F5A5
:103E3000000F2CBF0820072070470120704700208A
:103E40007047022070470320704704207047052008
:103E500070470620704700BF00ED00E003480023D4
:103E6000034A044903600CF073B900BFA4FE0024A8
:103E7000000000244939000810B4204C0022204BD7
:103E800083B0D4F888101F4841F47001C4F888103A
:103E900019681D4C41F0010119601A611968084048
:103EA0001A4918609A61DA611A629A62DA621A63D0
:103EB0005A639A63DA631A645A64186820F480209B
:103EC00018601A66D3F8DC2042F06042C3F8DC20A8
:103ED000D3F8DC300193019B23681940B1F1005FF6
:103EE00003D20B4B0122C3F80821044B4FF00062B0
:103EF0009A6003B05DF8044B704700BF00ED00E02E
:103F0000004402587FEDF6EA0010005C0000FFFF5D
:103F100000800051704700BF0020704770B5044614
:103F2000074E0D463046214609F06EFB304609F03B
:103F30008DFB044B204629461B689847002070BD26
:103F400068E10024A81E012470B50446074E0D4602
:103F50003046214609F058FB304609F077FB044B08
:103F6000204629461B689847002070BD04E40024C1
:103F7000AC1E012400220949094808B509F03AFBA2
:103F80000849074809F040FB074B1A680AB10020AE
:103F900008BD064A00201A6008BD00BFA80E012413
:103FA00068E10024A8FE0024A81E0124153F000893
:103FB00000220949094808B509F01CFB08490748CF
:103FC00009F022FB074B1A680AB1002008BD064A17
:103FD00000201A6008BD00BFA816012404E40024D4
:103FE000A8060124AC1E0124153F000820280AD091
:103FF000212806D1094B18689A889B7908608A8025
:104000008B7100207047054B0868B1F804C08A79AD
:1040100018600020A3F804C09A717047640200245D
:1040200020280AD0212806D1094B18689A889B7944
:1040300008608A808B7100207047054B0868B1F8D2
:1040400004C08A7918600020A3F804C09A717047F0
:104050006C0200240020704710B5094CD4F890324F
:10406000D3F814320BB1012010BD0A460146204698
:1040700009F0C0FA2046BDE8104009F0CDBA00BFF3
:1040800068E100244B4A036830B593428BB04FF08F
:104090000004CDE90444CDE90644089404D0464A1E
:1040A000934249D00BB030BD444D4FF4C052444808
:1040B000D5F8E03043F00103C5F8E030D5F8E03042
:1040C00003F0010300930223009904A9CDE904231E
:1040D0000A23089301F06AFD4FF40072002304A93B
:1040E00037480694CDE9042301F060FDD5F8D830B7
:1040F0002246214643F000636220C5F8D830D5F847
:10410000D83003F000630193019B00F0D3FC6220E0
:1041100000F00EFD22462146632000F0CBFC632018
:1041200000F006FD22462146652000F0C3FC652014
:1041300000F0FEFC0BB030BD204D4FF4404204A90E
:10414000D5F8E03043F00203C5F8E030D5F8E030B0
:1041500003F002030293022302981A48CDE90423D4
:104160000C23089301F022FDD5F8D83022462146D1
:104170004A2043F00073C5F8D830D5F8D83003F0A2
:1041800000730393039B00F095FC4A2000F0D0FCE1
:10419000224621464B2000F08DFC4B2000F0C8FC4D
:1041A000224621464D2000F085FC4D2000F0C0FC49
:1041B0000BB030BD0000084000000440004402582D
:1041C000000002580004025800F57171D0F8040490
:1041D00009F0A8BAC1EBC10300EB8303D0F80404D3
:1041E000D3F8082209F0CCBAC1EBC10300EB83037A
:1041F000D0F804049A6C09F001BB00BFD0F80404A5
:1042000009F0A0BBC16810B5044619B1022900D05D
:10421000FEE70121D4F8040409F07EFBD4F804047D
:10422000BDE8104009F050BB10B50446D0F80404B6
:1042300009F076FB2268D2F8003E43F00103C2F891
:10424000003E236A23B1034A136943F00603136156
:1042500010BD00BF00ED00E0D0F8040409F06ABB17
:10426000D0F8040409F07EBBD0F8040409F078BB50
:10427000D0F8040409F078BBD0F8040409F076BB48
:1042800070B5067804461EB1012E30D0002070BDF6
:10429000304D0923304AC5F80404C0F89852284626
:1042A0002E612E63C5E9002302230222EB60002366
:1042B000C5E9062300220023C5E9082301220123C2
:1042C000C5E90A2302F07AFD00B1FEE78021284605
:1042D00003F008FB31464022284603F0D9FA802239
:1042E0000121284603F0D4FA2678012ECED11B4DA9
:1042F00009221B4B00216A6002222B600223C5F8B1
:1043000004442846EB600023C4F898522961C5E9AB
:10431000062300220023C5E90823C5E90C23012256
:104320000023C5E90A2302F049FD044600B1FEE777
:104330004FF40071284603F0D5FA21468022284622
:1043400003F0A6FA4FF4BA723146284603F0A0FAF9
:104350009CE700BFB01E012400000840B8220124E1
:1043600000000440D0F8980208B502F0BDFD032813
:1043700002D8024B185C08BD022008BDF41A0108DF
:104380009446D0F898021A4608B5634603F032F90D
:10439000032802D8024B185C08BD022008BD00BFEC
:1043A000F41A0108D0F8980208B503F061F903285F
:1043B00002D8024B185C08BD022008BDF41A01089F
:1043C000D0F8980208B503F0E3F9032802D8024BAD
:1043D000185C08BD022008BDF41A0108D0F8980244
:1043E00008B503F019FA032802D8024B185C08BD7F
:1043F000022008BDF41A01080A06D0F8983206D443
:10440000C1EBC10103EB810191F8FE01704701F09E
:104410007F01C1EBC10103EB810191F83E007047C0
:10442000D0F8980208B503F0CFF8032802D8024B61
:10443000185C08BD022008BDF41A0108D0F89802E3
:1044400008B503F07DF9032802D8024B185C08BDBB
:10445000022008BDF41A0108D0F8980208B503F04C
:104460003DF9032802D8024B185C08BD022008BDA4
:10447000F41A0108D0F8980203F058B91223014841
:104480000B807047C0020024122301480B80704744
:10449000AC020024042301480B807047D40200249E
:1044A00010B5044C0A460448214609F0DFFC2046BA
:1044B00010BD00BFC0260124DC19010810B5044C52
:1044C0000A460448214609F0D1FC204610BD00BF31
:1044D000C0260124EC19010810B5044C0A46044812
:1044E000214609F0C3FC204610BD00BFC0260124B0
:1044F000001A010810B5044C0A460448214609F088
:10450000B5FC204610BD00BFC02601240C1A0108CE
:1045100010B5044C0A460448214609F0A7FC204681
:1045200010BD00BFC02601241C1A01080423014845
:104530000B807047D402002410B5044C0A4604488E
:10454000214609F093FC204610BD00BFC02601247F
:10455000DC190108464A4FF01A0CD2F80008D2F8CC
:104560000838A1F800C0C31801D142487047180F9D
:10457000B3F1204FD2F804184FF0000C3D4A2CBF85
:104580003730303082F803C04FF0000C9070C3F326
:10459000036082F805C04FF0000C092882F807C0BC
:1045A0004FF0000C8CBF3730303082F809C04FF02C
:1045B000000C1071C3F3035082F80BC04FF0000CD5
:1045C000092882F80DC08CBF373030309071C3F3AA
:1045D000034009288CBF373030301072C3F30330EA
:1045E00009288CBF373030309072C3F3032009287C
:1045F0008CBF373030301073C3F3031003F00F0358
:1046000009288CBF37303030092B90734FF00000F1
:1046100094BF30333733B1F1204FD07313744FEA66
:1046200011734FF000002CBF37333033507400202B
:104630009374C1F30363D0740020092B50754FF0BD
:1046400000008CBF37333033D0751375C1F303537B
:104650000848092B8CBF373330339375C1F30343BC
:10466000092B94BF303337331376002353767047CA
:1046700000E0F11FD8020024464A4FF01A0CD2F88D
:104680000008D2F80838A1F800C0C31801D1424888
:104690007047180FB3F1204FD2F804184FF0000CF8
:1046A0003D4A2CBF3730303082F803C04FF0000C49
:1046B0009070C3F3036082F805C04FF0000C092826
:1046C00082F807C04FF0000C8CBF3730303082F8D2
:1046D00009C04FF0000C1071C3F3035082F80BC0F7
:1046E0004FF0000C092882F80DC08CBF37303030F5
:1046F0009071C3F3034009288CBF373030301072FB
:10470000C3F3033009288CBF373030309072C3F3C5
:10471000032009288CBF373030301073C3F30310E7
:1047200003F00F0309288CBF37303030092B90730A
:104730004FF0000094BF30333733B1F1204FD073C6
:1047400013744FEA11734FF000002CBF373330332E
:10475000507400209374C1F30363D0740020092BBC
:1047600050754FF000008CBF37333033D075137560
:10477000C1F303530848092B8CBF3733303393758B
:10478000C1F30343092B94BF30333733137600232F
:104790005376704700E0F11FD802002410B5044C96
:1047A0000A460448214609F061FB204610BD00BFBF
:1047B000C02601240C1A010810B5044C0A4604480E
:1047C000214609F053FB204610BD00BFC02601243E
:1047D000001A0108D0F8C00209F0BABBD0F8C00234
:1047E00009F0CEBBD0F8C00209F0D6BB704700BFBD
:1047F000D0F8C00209F0BCBBD0F8C00209F0BCBBC5
:10480000D0F8D00308B501F0A3FF032802D8024B6B
:10481000185C08BD022008BDF81A0108024B027896
:1048200053F82200704700BF1C1B0108024B42785E
:1048300033F81200704700BFFC1A01088CB00A2838
:1048400014D8DFE800F01523313F4D5B697785937D
:1048500006004D4BD3F8E02042F48062C3F8E0201C
:10486000D3F8E03003F480630B930B9B0CB07047DC
:10487000454BD3F8E02042F00102C3F8E020D3F822
:10488000E03003F001030193019BEFE73E4BD3F8C7
:10489000E02042F00202C3F8E020D3F8E03003F059
:1048A00002030293029BE1E7374BD3F8E02042F08A
:1048B0000402C3F8E020D3F8E03003F004030393CC
:1048C000039BD3E7304BD3F8E02042F00802C3F853
:1048D000E020D3F8E03003F008030493049BC5E71D
:1048E000294BD3F8E02042F01002C3F8E020D3F8BF
:1048F000E03003F010030593059BB7E7224BD3F894
:10490000E02042F02002C3F8E020D3F8E03003F0CA
:1049100020030693069BA9E71B4BD3F8E02042F047
:104920004002C3F8E020D3F8E03003F040030793DF
:10493000079B9BE7144BD3F8E02042F08002C3F8BA
:10494000E020D3F8E03003F080030893089B8DE764
:104950000D4BD3F8E02042F48072C3F8E020D3F886
:10496000E03003F480730993099B7FE7064BD3F88B
:10497000E02042F40072C3F8E020D3F8E03003F402
:1049800000730A930A9B71E700440258704700BF06
:104990000F4B1B780BB90120704710B504464FF43C
:1049A0007A700C4AB0FBF3F31068B0FBF3F000F040
:1049B000E1F80F2C00D808B1012010BD00222146DB
:1049C0004FF0FF3000F076F8034B00201C6010BD64
:1049D000F20200243C020024F402002438B5032033
:1049E000124D00F055F8124C03F014FF114A124911
:1049F0009369C3F30323CB5C03F01F0320FA03F393
:104A00000E202B60926902F00F028A5C02F01F02F6
:104A1000D3402360FFF7BCFF10B10124204638BD0E
:104A20000446FFF7B3FF204638BD00BF3C02002418
:104A30004002002400440258E41A0108034A044BCF
:104A400011681B780B441360704700BF842B01244E
:104A5000F2020024014B1868704700BF842B012428
:104A600038B50446FFF7F6FF0546631C02D0044B39
:104A70001B781C44FFF7EEFF431BA342FAD338BD5B
:104A8000F2020024014B1868000C70470010005C13
:104A900006494FF6FF0C0002054BCA6800F4E060BF
:104AA00002EA0C0210430343CB60704700ED00E0C4
:104AB0000000FA051B4BDB68C3F3022300B5C3F10A
:104AC000070E03F1040CBEF1040F28BF4FF0040ED3
:104AD000BCF1060F1AD9033B4FF0FF3C0CFA03FC64
:104AE00022EA0C024FF0FF3C00280CFA0EFC21EAEF
:104AF0000C0101FA03F141EA02010ADB09010A4B48
:104B0000C9B2034483F800135DF804FB0022134686
:104B1000E8E700F00F000901044BC9B2034419761D
:104B20005DF804FB00ED00E000E100E0FCEC00E0DB
:104B3000002807DB00F01F0101234009024A8B40D7
:104B400042F82030704700BF00E100E000280DDB94
:104B50004309012200F01F000549203302FA00F04A
:104B600041F82300BFF34F8FBFF36F8F704700BF33
:104B700000E100E0431EB3F1807F0CD24FF0E02251
:104B8000002006494FF0F00C5361072381F823C041
:104B90009061136170470120704700BF00ED00E095
:104BA000BFF35F8F044B00215A6A22F480325A62AD
:104BB000C3F89410704700BF00ED00E0064B40F0D2
:104BC0000100C3F894005A6A42F480325A62BFF37B
:104BD0004F8FBFF36F8F704700ED00E0174A4378A7
:104BE000C2F89830017821B3436800B5C2F89C3010
:104BF000C37A90F80CC01B0690F80FE043EA0C73E0
:104C000090F80AC00B43817B43EACC4390F80DC077
:104C100043EA8C4390F809C043EA4143017A43EAEE
:104C20000E4343EA0C2343EA4103C2F8A0305DF887
:104C300004FBC2F89C10C2F8A010704700ED00E021
:104C4000704700BF08B5FFF7FBFF08BD0268344B93
:104C5000344930B4344D354CAA4218BF9A420CBF87
:104C6000012300238A4208BF43F001033031A242EE
:104C700008BF43F0010330348A4208BF43F0010308
:104C80003031A24208BF43F0010330348A4208BFEA
:104C900043F0010301F55C71A24208BF43F0010338
:104CA00004F55C748A4208BF43F001033031A2422C
:104CB00008BF43F0010330348A4208BF43F00103C8
:104CC0003031A24208BF43F0010330348A4208BFAA
:104CD00043F001033031A24208BF43F001038A428E
:104CE00008BF43F0010313B9114B9A4213D1D3B259
:104CF0001049114C103BA1FB03515F2B0F4BC1F32B
:104D0000021103EA0203615C88BF0433C165836555
:104D1000184630BC704722F0FF038365F8E700BFF8
:104D200010000240400002402800024058000240AB
:104D3000B8040240ABAAAAAA4C1B010800FCFFFF62
:104D40000368294A294930B4294D2A4CAB4218BF7F
:104D500093420CBF012200228B4208BF42F00102A5
:104D60002831A34208BF42F0010228348B4208BF19
:104D700042F001022831A34208BF42F001028B42F7
:104D800008BF42F0010212B91B4A934213D1DBB2B1
:104D90001A4C1B4A0121083B1A4DA4FB03434566EC
:104DA00002EB1312C3F30413920001FA03F3026639
:104DB000836630BC7047DAB21349144C1944103A78
:104DC000A829A4FB02234FEA131300D80833104A82
:104DD00003F01F0501210F4C1A44A94044669200BC
:104DE00081660266E5E700BF085402583054025855
:104DF0001C5402584454025894540258CDCCCCCC84
:104E00000096001680580258F0FBFDBFABAAAAAA74
:104E1000008200108008024070B50446FFF71AFEB9
:104E2000002C00F0C68023680546954A934248D07E
:104E30001832934245D0303292498B4218BF934288
:104E400001F130010CBF012200228B4208BF42F069
:104E5000010218318B4208BF42F0010218318B4227
:104E600008BF42F0010218318B4208BF42F0010234
:104E700001F556718B4208BF42F0010218318B4296
:104E800008BF42F0010218318B4208BF42F0010214
:104E900018318B4208BF42F0010218318B4208BF23
:104EA00042F0010218318B4208BF42F00102183172
:104EB0008B4208BF42F001021AB9734A934240F094
:104EC000F5800222002184F8352084F834101A6815
:104ED00022F001021A6005E0FFF7BCFD431B052B21
:104EE00040D823681A68D107F6D4D4E9022521698D
:104EF0002A43A0691D680A4361690A43E1690243C4
:104F00000A4362492940256A2A430A43616A0429FF
:104F10002FD01A605A6922F00702114359612046C6
:104F2000FFF794FEE26D3F2302F01F02934083607F
:104F30002046FFF705FFA368802B3CD06368A06E76
:104F4000DAB2013BD4E91851072B2A60486026D910
:104F50000023C4E91B33636700200123606584F8E4
:104F6000353070BD202203230120626584F835307E
:104F700070BDD4E90B5129430A431A605969A26AEA
:104F800021F00701114341F00401002DC6D0002893
:104F90004FD1012A6ED032F00202BFD151E0501E33
:104FA000072810D9626FD4E91B31002018604A60CD
:104FB000D2E7012070BD0023A16ED4E9180263601E
:104FC00003605160C4E72168314B324DA94218BFDC
:104FD000994205F114050CBF01230023A94208BF23
:104FE00043F001031435A94208BF43F0010314350F
:104FF000A94208BF43F001031435A94208BF43F09A
:1050000001031435A94208BF43F001033BB9224B09
:10501000994204D0214B224913449B0003E0214BC9
:10502000214913449B0001228240C4E91B3162677D
:10503000BBE7B0F5005F0ED0022A05D9032A7FF442
:105040006DAFEA017FF56AAF012340221846626521
:1050500084F8353070BD032A3FF660AF01A050F8E8
:1050600022F000BF49500008435000084950000892
:1050700075500008B5F1C07F7FF450AFE4E700BF82
:105080001000024040000240B80402403F8010FE81
:10509000085402581C540258945402583F8200107D
:1050A000400902403F96001640590258324A3348A0
:1050B0003349834218BF934200F128000CBF0122FC
:1050C00000228B4208BF42F001022831834208BF10
:1050D00042F0010228308B4208BF42F00102283121
:1050E000834208BF42F001028B4208BF42F0010236
:1050F00012B9244A934238D102220021224D84F869
:10510000341084F835201A681540A268402A2AD045
:10511000802A0CBF4FF480400846266AD4E9031267
:10512000D20842EAD102616942EAD102A16942EAA7
:10513000D102E16942EAD102144942EA1612194445
:105140002A4302431248A0FB010120461A600B09C2
:105150009B00E365FFF77AFDE26D012302F01F0279
:1051600093404360E4E61020D7E740220323012068
:10517000626584F8353070BD085402581C540258DA
:1051800030540258945402580F00FEFFF8ABFDA7AC
:10519000CDCCCCCC002800F0BC80844690F8340004
:1051A000012800F0B88001202DE9F0419CF835403D
:1051B0008CF83400844208D000224FF400638CF84D
:1051C0003420CCF85430BDE8F0810220DCF80050E7
:1051D0007A4C8CF835000020794ECCF85400794890
:1051E000854218BFA54200F118000CBF012400241D
:1051F000854208BF44F001041830854208BF44F0DE
:1052000001041830854208BF44F00104183085427B
:1052100008BF44F0010400F55670854208BF44F011
:1052200001041830854208BF44F00104183085425B
:1052300008BF44F001041830854208BF44F001045F
:105240001830854208BF44F001041830854208BF79
:1052500044F001041830854208BF44F001041830BE
:10526000854208BF44F00104A0F59560B54218BF1F
:105270008542DCF86C600CBF0120002054EA000875
:10528000286820F001002860DCF86400DCF8684041
:10529000DCF85870446040D016B1DCE91C0444606E
:1052A000DCF85C004FF03F0E00F01F000EFA00F03B
:1052B000B860286820F4802028606B60DCF8083033
:1052C000402B23D0A960EA602B6823F01E0343F033
:1052D00016032B60DCF840301BB12B6843F0080349
:1052E0002B60DCF860301A68D20303D51A6842F4E8
:1052F00080721A601EB1336843F4807333602B6888
:10530000002043F001032B60BDE8F081AA60E96052
:10531000DAE7012070470220704716B1DCE91C046F
:1053200044602948DFF8A8E0754518BF85420EF1B2
:10533000140E0CBF01200020754508BF40F001008D
:105340000EF1140E754508BF40F001000EF1140E69
:10535000754508BF40F001000EF1140E754508BFF9
:1053600040F001000EF1140E754508BF40F0010039
:1053700010B9164885420ED1DCF85C0000F01F0E13
:10538000012000FA0EF078606B60DCF80830402BEA
:1053900010D0A960EA602B6823F00E0343F00A03E3
:1053A0002B60DCF84030002B9BD02B6843F00403CB
:1053B0002B6096E7AA60E960EDE700BF400002407D
:1053C00028000240580002400854025894540258E1
:1053D0001C54025800285FD038B590F83520034699
:1053E000022A55D10168444A914248D0183291426C
:1053F00045D03032414C4248A14218BF914204F19D
:1054000048040CBF01220022814208BF42F0010281
:105410003030A14208BF42F001023034814208BF5F
:1054200042F0010200F55C70A14208BF42F00102A7
:1054300004F55C74814208BF42F001023030A142A1
:1054400008BF42F001023034814208BF42F001023D
:105450003030A14208BF42F001023034814208BF1F
:1054600042F001023030A14208BF42F00102814205
:1054700008BF42F0010212B9224A91420ED1042221
:10548000002083F835200B6823F001030B6038BD42
:10549000802201205A6538BD012070470A681C6EC1
:1054A00022F00E02D86D9D6D0A6000F01F000A68A0
:1054B00022F001020A6001222168824021F48071F9
:1054C00021606A60DA6ED3E91910486032B1116860
:1054D000D3E91C0421F4807111604460002401218F
:1054E0001A6D83F8344083F835101AB11846904786
:1054F000204638BD104638BD100002404000024032
:1055000070000240B80402402DE9F04300229C4B99
:1055100083B09C4E1D688146019203689A4A846D4F
:10552000934218BFB342276808BF0126216818BFFD
:10553000002645D018329548834218BF934200F1A7
:1055400018000CBF01220022834208BF42F0010272
:105550001830834208BF42F001021830834208BF6E
:1055600042F001021830834208BF42F0010200F508
:105570005670834208BF42F001021830834208BFD0
:1055800042F001021830834208BF42F00102183095
:10559000834208BF42F001021830834208BF42F044
:1055A00001021830834208BF42F0010218308342E2
:1055B00008BF42F001021AB9754A934240F0508286
:1055C000D9F85C10082201F01F0C02FA0CF2174205
:1055D00040F0888127FA0CF2D2070CD55A691006E0
:1055E00009D5012202FA0CF2A260D9F8542042F047
:1055F0000202C9F854204FF0040E0EFA0CF03842A3
:105600005BD0002E4FD1634ADFF88081434518BF3D
:10561000934208F118080CBF01220022434508BF3D
:1056200042F0010208F11808434508BF42F00102A8
:1056300008F11808434508BF42F0010208F11808B4
:10564000434508BF42F0010208F55678434508BFBC
:1056500042F0010208F11808434508BF42F0010278
:1056600008F11808434508BF42F0010208F1180884
:10567000434508BF42F0010208F11808434508BF3E
:1056800042F0010208F11808434508BF42F0010248
:1056900008F11808434508BF42F001021AB93C4A14
:1056A000934240F019821A68920706D5A060D9F893
:1056B000542042F00402C9F85420102202FA0CFCD3
:1056C0001CEA070F6CD0002E45D1324A2F4EB34250
:1056D00018BF934206F118060CBF01220022B34204
:1056E00008BF42F001021836B34208BF42F001027F
:1056F0001836B34208BF42F001021836B34208BF61
:1057000042F0010206F55676B34208BF42F00102AC
:105710001836B34208BF42F001021836B34208BF40
:1057200042F001021836B34208BF42F001021836B7
:10573000B34208BF42F001021836B34208BF42F03C
:1057400001021836B34208BF42F001021AB9104AEA
:10575000934240F0C9811A68100721D5C4F808C0E7
:105760001A68560300F14C811A68D20503D41A68EE
:1057700022F008021A60D9F840308BB10CE000BF6B
:105780003C02002410000240280002405800024061
:10579000B80402404000024048469847D9F85C10DF
:1057A00001F01F0120268E403E4268D0D9F800202B
:1057B000A54BA64FBA4218BF9A4207F118070CBF73
:1057C00001230023BA4208BF43F001031837BA424D
:1057D00008BF43F001031837BA4208BF43F0010382
:1057E0001837BA4208BF43F001031837BA4208BF5E
:1057F00043F001031837BA4208BF43F0010307F52D
:105800005677BA4208BF43F001031837BA4208BFBF
:1058100043F001031837BA4208BF43F001031837B9
:10582000BA4208BF43F001031837BA4208BF43F039
:1058300001031837BA4208BF43F001031837BA42D0
:1058400008BF43F001031BB9814B9A4240F06281CB
:105850001368DB0613D5A66099F83530042B13685E
:1058600000F0AE8013F4802F136800F0D3801C0387
:1058700040F1DE80D9F83C300BB148469847D9F862
:105880005430002B00F0B980D9F85430D8071FD518
:10589000D9F80020042189F83510136823F001039A
:1058A00013606C4BA3FB0535AD0A02E01368D90702
:1058B00004D5019B0133AB420193F7D9002389F84A
:1058C00034301368DB074CBF0323012389F83530DC
:1058D000D9F84C30002B00F09080484603B0BDE86A
:1058E000F0431847186840070AD5186820F00400EC
:1058F0001860A260D9F8542042F00102C9F854207F
:1059000027FA0CF2D2077FF576AE534A534883420A
:1059100018BF934200F130000CBF012200228342E5
:1059200008BF42F001021830834208BF42F0010272
:105930001830834208BF42F001021830834208BF8A
:1059400042F0010200F55670834208BF42F00102A6
:105950001830834208BF42F001021830834208BF6A
:1059600042F001021830834208BF42F001021830B1
:10597000834208BF42F001021830834208BF42F060
:1059800001021830834208BF42F0010218308342FE
:1059900008BF42F00102002A7FF420AE002E7FF4FF
:1059A0001DAE1A68042202FA0CF23A4240F09480CA
:1059B000102202FA0CFC17EA0C0F3FF4F1AE84E659
:1059C00023F016031360536923F080035361D9F861
:1059D00040309BB3136823F0080313603F23002576
:1059E000012203FA01F1D9F85030A16089F834504E
:1059F00089F83520002B7FF470AF03B0BDE8F08349
:105A00001B6818037FF5B7AED9F84830002B7FF438
:105A1000C3AEC5E613F480737FF42CAF116821F098
:105A200010011160012289F8343089F8352021E70E
:105A3000D9F84430002B7FF420AF20E7D9F8483064
:105A4000002BC7D1CAE700BF100002402800024067
:105A5000B8040240B5814E1B58000240400002408D
:105A60004E4A4F4DAB4218BF934205F114050CBF8F
:105A700001220022AB4208BF42F001021435AB42C2
:105A800008BF42F001021435AB4208BF42F00102E8
:105A90001435AB4208BF42F001021435AB4208BFD7
:105AA00042F0010212B93F4A9342A6D1D9F85C50A4
:105AB00004261A6805F01F05AE400E4219D057079C
:105AC00017D5100466604BD5D1034FD4D9F84830B0
:105AD000002B7FF402AF90E71A68102202FA0CFC48
