:020000040800F2
:1000000000000220B9030008B5030008ED30000825
:10001000B5030008B5030008B503000800000000A0
:10002000000000000000000000000000B503000810
:10003000B503000800000000B50300087130000897
:10004000B5030008B5030008B5030008B5030008B0
:10005000B5030008B5030008B5030008B5030008A0
:10006000B5030008B5030008B5030008F91D000832
:10007000051E0008B5030008111E00081D1E00081B
:10008000CD2A000829130008B5030008B5030008AD
:10009000B5030008B5030008B5030008B503000860
:1000A000B5030008B5030008B5030008B503000850
:1000B00031D300083DD3000849D300085D13000880
:1000C000B503000869130008B5030008A1CB0008B8
:1000D000ADCB0008012900082D290008612900087E
:1000E000B5030008B503000800000000B5030008D0
:1000F000B5030008B5030008B5030008B503000800
:10010000B5030008B503000855D30008B9CB0008B3
:1001100095290008C9290008B5030008B50300089F
:10012000B5030008B5030008DDCB000811CC0008BA
:10013000012B0008B5030008B5030008B50300084B
:1001400000000000000000000000000000000000AF
:10015000B5030008B5030008B5030008FD29000831
:1001600075130008B503000881300008A5300008A9
:10017000B5030008C9300008B5030008B50300083E
:10018000B5030008B5030008312A0008652A0008F5
:10019000C5CB0008D1CB0008B5030008B5030008A3
:1001A000B5030008B5030008B5030008B50300084F
:1001B000191B0008B5030008B5030008B5030008C3
:1001C000B5030008B5030008B5030008B50300082F
:1001D000B5030008B5030008B5030008B50300081F
:1001E000B5030008B5030008B5030008B50300080F
:1001F000B5030008B5030008B5030008B5030008FF
:10020000B5030008B5030008B5030008B5030008EE
:10021000B5030008B5030008B5030008B5030008DE
:10022000B5030008B5030008B5030008000000008E
:10023000B5030008B503000800000000B50300087E
:10024000B5030008B5030008B5030008B5030008AE
:10025000B5030008B5030008B5030008B50300089E
:10026000B5030008B5030008B5030008B50300088E
:10027000B5030008B5030008992A00080000000033
:10028000B5030008B5030008B5030008000000002E
:0802900000000000B5030008A6
:1002A00001F0FF01102A2BDB10F0070F08D010F827
:1002B000013B013A8B422DD010F0070F42B3F6D12B
:1002C000F0B441EA012141EA014122F007047FF044
:1002D00000070023F0E80256083C85EA010586EA9B
:1002E000010685FA47F5A3FA87F586FA47F6A5FAD7
:1002F00087F68EB9EED1F0BC01F0FF0102F00702E3
:1003000032B110F8013B013A83EA010313B1F8D18D
:100310000020704701387047002D06BF354603386E
:10032000073815F0010F07D1013015F4807F02BFA7
:10033000013015F4C03F0130F0BC0138704700BFF8
:1003400053B94AB9002908BF00281CBF4FF0FF313C
:100350004FF0FF3000F00CB8ADF1080C6DE904CEA1
:100360000EF0D6FDDDF804E0DDE9022304B07047AD
:10037000704700BF10B5054C237833B9044B13B157
:100380000448AFF300800123237010BDD003002484
:10039000000000000CF4000808B5034B1BB1034932
:1003A0000348AFF3008008BD00000000D403002420
:1003B0000CF40008FEE700BF0C4A0D4B934204D03A
:1003C000D21A0C4918460EF0F9F80B4A0B4B93421F
:1003D00004D0D21A002118460EF0C2F803F0DCF85F
:1003E0000EF0C6F800F00EF8FEE700BFD0030024C0
:1003F000000000243CF40008EC310024D003002469
:10040000704700BF10B500218AB01848002400F0E2
:100410000DF90122164B4FF4165102200792049257
:100420001A889B88089102A90394ADF80820ADF8BA
:100430000A30CDE905400F4802F018FC22460E496B
:100440000E4801340EF06AF8002302460B490948B1
:10045000CDE9003302F074FC652C4FF4FA710348C7
:1004600008BF002400F022F8E8E700BFF0030024F2
:10047000E8F10008EC0300242CF200080000003032
:1004800010B506480024064A064904604461046227
:10049000C4630EF02FF8044B1C6010BDF003002461
:1004A0000000002401040008EC030024084602F0C8
:1004B0008DBE00BF10B540F203338EB000244FF65E
:1004C0000B7240F20341ADF8083009A80123ADF8E2
:1004D0001020ADF824202246ADF80C1000940299AB
:1004E00007940C94CDE90544CDE90A4400F0F0FBF3
:1004F00004A8012322460399009400F0E9FB09A80F
:1005000000F0CCFC10B901200EB010BD04A800F022
:10051000C5FCA0420CBF022020460EB010BD00BF9B
:100520002DE9F04103239AB0012700240646CDE9C6
:1005300014373B4BCDE9104340F20453CDE9164745
:10054000ADF84830FFF7B6FFB842054625D002287F
:1005500045D040F60132334B0DF12C081894ADF81C
:100560002C200B981997CDF84A3000F0E3F810A929
:1005700006F13C0001F058FC302003224FF07E537E
:1005800041460D930E93CDE90B02F26B06F1140078
:1005900000F04CFB1AB0BDE8F0811023214A06A9F7
:1005A00006908DF828300DF12C081F4BCDF84A200D
:1005B00007930294CDE91804CDE9080402A800F0DD
:1005C000DFFE0823029A03A94046ADF80C508DF8CF
:1005D0000E40049505930B9400F0ECF8C7E700205B
:1005E0000121104B0DF12C083A460094CDF84A3009
:1005F0004FF60B730C94ADF82C302346CDE918015F
:1006000040F601314046ADF818100699CDE90D4489
:1006100000F05EFB2146404600F04CFCA7E700BF1F
:1006200004020404040604030704010B2DE9F04747
:1006300004462DED028B82B000294DD0012140F2FD
:10064000011200230091ADF804208DF80630364ADF
:100650000127364B04F10409354904F12908626089
:1006600040F20272A36040F60663E16004F1250ADD
:10067000A4F82520A4F82930278284F8277084F86C
:100680002B7002F03FFF054602F0A2FD69460646C8
:1006900050BB4DB304F130008DF8067002F0BAFE85
:1006A000072D3CD104F114052046FFF739FF2846F9
:1006B00000F0F8FA2846B0EE408A00F0EFFAD0EDEC
:1006C000007AF8EE677A88EE277A84ED0E7A02B027
:1006D000BDEC028BBDE8F08740F2011300918DF86C
:1006E0000610ADF80430B2E704F1300002F092FEDB
:1006F000072D11D04946204601F08AF80EB9002D89
:10070000D0D1504600F0E0FB404600F0DDFB04F1A4
:10071000120000F079F9C5E7002EF2D1C2E7494690
:10072000204601F075F8BDE705080509050705062F
:10073000050A060610B584B003460124ADF804008E
:1007400003A8ADF80C30ADF80E4000F0BDFB21461B
:1007500003A800F095FC204602F038FD002103A814
:1007600000F08EFC204602F031FD214603A800F087
:1007700087FC04B010BD00BF10B5C2F3002384B0E5
:100780000C46017C8DF80D2043EA4402FA24022332
:100790008DF80C2003AA009400F088FE18B1012403
:1007A000204604B010BD04460A2002F00FFD20468A
:1007B00004B010BD034670B543F8042B044684B062
:1007C00007C983E80700A37983B91A210B461E22C3
:1007D000FA2523742046ADF80C20022303AA0095C5
:1007E00000F064FE28B1012004B070BD1B210B464F
:1007F000EDE70A2002F0EAFC4FF4B852009502231C
:10080000ADF80C20204603AA217C00F04FFE002802
:10081000E9D10A2002F0DAFC41F2027200950223CB
:10082000ADF80C20204603AA217C00F03FFE0028F2
:10083000D9D10A2002F0CAFC042200950223ADF8A7
:100840000C20204603AA217C00F030FE0028CAD1EB
:100850000A2002F0BBFC062200950223ADF80C2012
:10086000204603AA217C00F021FE0028BBD10A20EB
:1008700002F0ACFC41F2082200950223ADF80C20F6
:10088000204603AA217C00F011FE0028ABD10A20EB
:10089000064602F09BFC0095022303AA217C204619
:1008A000ADF80C6000F002FE00289CD1304602F04A
:1008B0008DFC009522790C232046002A8DF80C30FF
:1008C00003AA4FF0020314BF622142218DF80D10DC
:1008D000217C00F0EBFD002885D1304602F076FC4B
:1008E0002279D4E902310B43DBB20AB943F0400369
:1008F00062790AB143F020030E22FA258DF80D30FB
:100900002046009502238DF80C2003AA217C00F0DC
:10091000CDFD00287FF467AF0A2002F057FC1022BB
:1009200000950223ADF80C20204603AA217C00F09C
:10093000BDFD00287FF457AF0A2002F047FC1221CA
:1009400000950223ADF80C1003AA217C204600F08C
:10095000ADFD00287FF447AF0A2002F037FC0122EA
:1009600009212046FFF708FF003818BF01203BE7A8
:10097000F0B5102387B0234C012200250126002763
:1009800002A920460195CDE902234FF48052CDE91A
:10099000046708F0E9FB642003F05AF802A94FF459
:1009A00080522046CDE9046702261027CDE9026770
:1009B00008F0DAFB0322102302A92046CDE9022326
:1009C00000230422CDE904234FF4805208F0CCFB2D
:1009D00040F23223042202A9019310232046CDE9DC
:1009E0000223019A012305924FF48052049308F0E8
:1009F000BBFB40F60601204608F0D6FB284607B0B0
:100A0000F0BD00BF380400241C4B00221C494FF0ED
:100A1000400C30B5054689B00220596007219A6024
:100A20001A620124DA620A224FF4006EDC60069238
:100A30002022CDE9000104200821CDE90201032094
:100A40001021CDE9040108206946C3E904024FF4EE
:100A5000C072181DC3E906C24FF48052C3E909E20F
:100A600008F058FB38B92846FFF782FF003818BF56
:100A7000012009B030BD204609B030BD3404002447
:100A800040410052614A0021D0B513688EB00A91EE
:100A9000002B40F0B9805E4B01214FF683700C248F
:100AA00011600221D3F8D4200026032742F480529B
:100AB000C3F8D420D3F8D42002F480520092009AD4
:100AC000D3F8E02042F01002C3F8E020D3F8E02091
:100AD00002F010020192019AD3F8E02042F04002A5
:100AE000C3F8E020D3F8E02002F040020292029A1C
:100AF000D3F8E02042F00802C3F8E020D3F8E02069
:100B000002F008020392039AD3F8E02042F48072C4
:100B1000C3F8E020D3F8E02002F480720492049A33
:100B2000D3F8E02042F08002C3F8E020D3F8E020C0
:100B300002F080020592059AD3F8E02042F02002EC
:100B4000C3F8E020D3F8E02002F020020692069AD3
:100B5000D3F8E02042F00402C3F8E020D3F8E030FC
:100B60000C9403F0040307930323079A0B93CDE936
:100B7000080108A9274804F011F848F237120223A7
:100B800008A925480C94CDE90823CDE90A6704F0AB
:100B900005F84CF20372022308A920480C94CDE911
:100BA0000823CDE90A6703F0F9FF40F2FF62022350
:100BB00008A91B480C94CDE90823CDE90A6703F086
:100BC000EDFF4FF60C72022308A916480C94CDE9EC
:100BD0000823CDE90A6703F0E1FF4FF63F02022345
:100BE00008A911480C94CDE90823CDE90A6703F060
:100BF000D5FF2022022308A90A480C94CDE90A67F0
:100C0000CDE9082303F0CAFF0EB0D0BD30040024A4
:100C1000004402580010025800180258000C0258F4
:100C200000200258001C02580014025830B5184C1D
:100C3000154685B0046004F1080EEC460FC98EE835
:100C40000F00D4ED047AF5EEC07A8CE80F00F1EED7
:100C500010FA1ADDB7EE006A94ED057A27EE277ACE
:100C6000C6EE276A84ED0D7AC4ED0C6A6DB120469C
:100C700040F8185F01F0D0F9064903690020064AE0
:100C80002162A262E36005B030BD012005B030BD35
:100C90006C04002410200030100000300068083080
:100CA000704700BF0068183001F0B8B910B4074BA6
:100CB0004FF07E5130240022032019619C60D860DF
:100CC0005DF8044B5961C3E9062270476C040024A7
:100CD00010B592B0ADF804100180C9B2149C0B2974
:100CE000C460C0E901233FD090F801C0BCF10F0FF0
:100CF0003AD8022A3FD0032A02D0012A00D000228B
:100D00000E92012B02D0022B18BF0023022C0F934E
:100D10002CD0032C2AD0012C28D000230A29109390
:100D200027D85C4A02EB812202610A2914D8DFE845
:100D300001F0A39587796B5D4F4133250600564B33
:100D4000D3F8E01041F48061C3F8E010D3F8E0304C
:100D500003F480630C930C9B01230DA9104603FA46
:100D60000CF30D9303F01AFF12B010BD0A29109472
:100D7000D7D90022D8E711220E92C2E7464BD3F80A
:100D8000E01041F40071C3F8E010D3F8E03003F450
:100D900000730B930B9BDFE73F4BD3F8E01041F45C
:100DA0008071C3F8E010D3F8E03003F480730A9345
:100DB0000A9BD1E7384BD3F8E01041F08001C3F82B
:100DC000E010D3F8E03003F080030993099BC3E7F8
:100DD000314BD3F8E01041F04001C3F8E010D3F8F4
:100DE000E03003F040030893089BB5E72A4BD3F8A3
:100DF000E01041F02001C3F8E010D3F8E03003F038
:100E000020030793079BA7E7234BD3F8E01041F09B
:100E10001001C3F8E010D3F8E03003F0100306939C
:100E2000069B99E71C4BD3F8E01041F00801C3F88A
:100E3000E010D3F8E03003F008030593059B8BE73F
:100E4000154BD3F8E01041F00401C3F8E010D3F8DB
:100E5000E03003F004030493049B7DE70E4BD3F8CA
:100E6000E01041F00201C3F8E010D3F8E03003F0E5
:100E700002030393039B6FE7074BD3F8E01041F0A5
:100E80000101C3F8E010D3F8E03003F0010302934E
:100E9000029B61E7000002580044025808B5012196
:100EA00043780069994089B204F080F8003818BF8F
:100EB000012008BD01230A464178006903FA01F1C7
:100EC00089B204F079B800BF8378022B30B50446AC
:100ED0008FB037D0032B33D0012B31D000230A93AE
:100EE000E378012B2AD0022B28D000230B93002378
:100EF00020460C9302F08AFC0546204602F08EFC48
:100F000023780990082B13D8DFE803F01F324558E7
:100F10006B7E91A40500594BD3F8E02042F4807217
:100F2000C3F8E020D3F8E03003F480730893089B03
:100F300009A9284603F032FE0FB030BD0B93D6E767
:100F40000A93CDE711230A93CAE74C4B09A9284617
:100F5000D3F8E02042F00102C3F8E020D3F8E030FB
:100F600003F001030093009B03F018FE0FB030BDA7
:100F7000424B09A92846D3F8E02042F00202C3F808
:100F8000E020D3F8E03003F002030193019B03F06B
:100F900005FE0FB030BD394B09A92846D3F8E02033
:100FA00042F00402C3F8E020D3F8E03003F0040379
:100FB0000293029B03F0F2FD0FB030BD2F4B09A945
:100FC0002846D3F8E02042F00802C3F8E020D3F826
:100FD000E03003F008030393039B03F0DFFD0FB041
:100FE00030BD264B09A92846D3F8E02042F0100274
:100FF000C3F8E020D3F8E03003F010030493049B1F
:1010000003F0CCFD0FB030BD1C4B09A92846D3F826
:10101000E02042F02002C3F8E020D3F8E03003F0F3
:1010200020030593059B03F0B9FD0FB030BD134BB2
:1010300009A92846D3F8E02042F04002C3F8E02096
:10104000D3F8E03003F040030693069B03F0A6FDBF
:101050000FB030BD094B09A92846D3F8E02042F073
:101060008002C3F8E020D3F8E03003F08003079358
:10107000079B03F093FD0FB030BD00BF0044025842
:1010800070B506460D4602F0C1FB0446304602F03C
:10109000C5FB2A1E0146204618BF0122BDE870404C
:1010A00003F08ABF0023122270B586B0CDE9022377
:1010B00004930368032B01D804230593061D841DA4
:1010C000304602F0A3FB0546304602F0A7FB03467C
:1010D00001A92846019303F061FD204602F096FB2A
:1010E000034620461C4602F099FB01A90346204610
:1010F000019303F053FD06B070BD00BF634A03685F
:10110000934210B58CB028D0614A934258D0614ABE
:10111000934200F09480604A934201D00CB010BD1D
:101120005E4C5F48D4F8E03043F00203C4F8E0308E
:10113000D4F8E03003F002030A930A9BFFF7B2FFF2
:10114000D4F8F43043F08003C4F8F430D4F8F43029
:1011500003F080030B930B9BE0E7504C5148D4F80D
:10116000E03043F00203C4F8E030D4F8E03003F09C
:1011700002030193019BFFF795FFD4F8E8300022AA
:101180001F2043F400131146C4F8E830D4F8E830C7
:1011900003F400130293029BD4F8D83043F0010308
:1011A000C4F8D830D4F8D83003F001030393039B7C
:1011B00002F078FC1F200CB0BDE8104002F0B0BC7B
:1011C000364C3948D4F8E03043F08003C4F8E030BE
:1011D000D4F8E03003F080030493049BD4F8E030AB
:1011E00043F00203C4F8E030D4F8E03003F0020327
:1011F0000593059BFFF756FFD4F8E8300022212025
:1012000043F480031146C4F8E830D4F8E83003F41E
:1012100080030693069BD4F8D83043F00103C4F84A
:10122000D830D4F8D83003F001030793079B02F0BD
:1012300039FC21200CB0BDE8104002F071BC1B4805
:10124000FFF730FF154B00224820D3F8E840114645
:1012500044F40004C3F8E840D3F8E84004F4000480
:101260000894089CD3F8D84044F00104C3F8D8404F
:10127000D3F8D83003F001030993099B02F012FC64
:1012800048200CB0BDE8104002F04ABC00540040B9
:1012900000580040005C0040001C00580044025808
:1012A00030070024A80400248005002458060024E8
:1012B0002DE9F0431A4B87B000254FF010099E46E8
:1012C000EC46184BFF22E04667461A700EF11806EE
:1012D0000EF13004CDE90055CDE90255ADF800908E
:1012E000BCE80F00CDE90455AEE80F009CE8030010
:1012F0000095ADF800908EE80300B8E80F000FC627
:101300009CE803000095ADF8009086E803000FCF3D
:101310000FC49CE8030084E8030007B0BDE8F08335
:1013200004000024A404002410B5EFF3108472B666
:10133000084B1A78120602D504B962B610BD1B78A4
:10134000D82205485BB202FB0300143003F0D4F846
:10135000F2E700BFA4040024A8040024014804F01C
:10136000C3BC00BF34050024014804F0BDBC00BF6D
:101370000C060024014804F0B7BC00BFE4060024BA
:101380002DE9F0430F68D8243F4D85B007FB04F4E6
:10139000032F05EB0403036040DCCB680E46012BF2
:1013A0003CD84DD04FF0D808B646DFF8FC9008FB8B
:1013B0000758BEE80F00C446ACE80F00DEF8003066
:1013C0000DF1100ECCF80030D8F808C099E80F00E5
:1013D0000EE90F000EEB8703BCF1010F53F8103C30
:1013E000C8F88C3031D0BCF1020F42D0BCF1000FF4
:1013F00035D0317C8C34D823002201202C4403FBCF
:1014000007534900C3E92602C3F894102046C3E9F4
:101410002822C3E92A2204F059FA18B1012005B0A4
:10142000BDE8F0830146204604F06AFC0028F5D1AF
:101430000146204604F08EFC003818BF0120EEE77C
:101440000B7C103B672BADD9E8E702F059F80F4B46
:1014500098420CBF0E4B0F4BC8F89030C9E702F012
:101460004FF80A4B98420CBF0B4B0C4BC8F890300E
:10147000BFE702F045F8054B98420CBF084B094BFB
:10148000C8F89030B5E700BFA8040024000E270775
:101490002D0FB0303211D0205F4390608A62E0306F
:1014A000200BA0101A098010F0F100082DE9F0417E
:1014B000D0F8008082B00D4617461E4608F18C0415
:1014C000204604F019FC2028FAD1D8F80C3073B962
:1014D0006D002046089C33463A46A9B2009404F0B9
:1014E0004BFA003818BF012002B0BDE8F081089B1C
:1014F00032463946204604F013FBF2E7044B102233
:101500001A7483F8E82083F8C02183F89822704782
:10151000A804002430B5002395B04FF48071062252
:1015200004460B9306921393CDE90C13CDE90E33C9
:10153000CDE9113301F0E6FF07282BD004F11005A7
:1015400041F2883206A9284605F016FA28B101238F
:10155000184684F85C3015B030BD0222022306A97B
:101560002846CDE9002310220123CDE902230022E1
:101570004FF48003CDE9042305224FF080730692D7
:101580006A460F9341F2883305F062FB0028DED1F2
:1015900015B030BD0323012084F85C3015B030BD98
:1015A00070B50023A4B04FF080724FF480750446EC
:1015B000ADF806300D93CDE910320122CDE90E537E
:1015C000CDE91223CDE91433002943D0F02300F1F3
:1015D000100508AEADF80630C02341F2883231461E
:1015E0002846089305F0C8F928B10123184684F865
:1015F0005C3024B070BD41F288320DF106012846FE
:1016000005F024FA03460028EFD105224FF480713B
:101610001E93284616924FF080721B9321931F92BF
:1016200002AA9FED1F7BCDE91C13CDE922338DED7E
:10163000027B9FED1D7B41F2883316A98DED047B63
:101640009FED1B7B8DED067B05F002FB0028CCD1C6
:1016500024B070BD00F1100508AE612341F288325C
:1016600031462846089305F087F90028BDD141F29C
:1016700088320DF10601284605F066FA0028B4D13B
:10168000BDF80630204623F0780343F04003ADF860
:101690000630FFF73FFF00289ED0A6E7AFF300809B
:1016A0000000000001000000100000000100000028
:1016B00000000000000040002DE9F04F00234FF42F
:1016C000807501264FF0807804462DED028BABB07B
:1016D0008DF8073013932193299314950E96CDF826
:1016E0005C80CDE91533CDE91863CDE91A33CDE936
:1016F0002253CDE92433CDE9273306231C9301F08F
:1017000001FF072808D004F1100741F288321CA914
:10171000384605F031F940B10123184684F85C30B1
:101720002BB0BDEC028BBDE8F08F4FF0020A4FF0FA
:10173000020B4FF0050941F2883308AA1CA938466C
:10174000CDF89480CDF870909FED2D8BCDE908AB4E
:101750004FF0000A4FF4800B8DED0A8BCDE90CABF6
:1017600005F076FA0028D7D141F2883238460EA922
:1017700005F002F90028CFD1402341F288320DF163
:10178000070138468DF8073005F060F90028C3D10D
:1017900041F288330EA902AA3846CDF83890CDF828
:1017A0005C809FED197B8DED048BCDE906AB8DED53
:1017B000027B05F04DFA03460028ADD1CDF87090BC
:1017C0004FF00109CDF894804FF00008219308AA4A
:1017D00029931CA938462295CDE92333CDE9273337
:1017E00041F288338DED0A8BCDE90CABCDE9088948
:1017F00005F02EFA002893D0304684F85C608FE71D
:101800001000000001000000400000004000000047
:101810002DE9F043624CA3B00D46046001F072FE66
:10182000072800F0A980286823466968AA6807C3CA
:101830001E46AB8926F8043B3046257B677B05F0C6
:101840007DF8E0B9574B012D4FF00108E0612361AD
:1018500014BF4FF480134FF40003C4E9058893FAD2
:10186000A3F3B3FA83F34FF48079013BC4F82490D7
:10187000C4E90B003046236204F0F4FF38B10122C2
:10188000134684F85C20184623B0BDE8F083662335
:101890000B90139041F2883206A90693CDE90C9083
:1018A000CDE90E00CDE91100304605F065F80028BD
:1018B000E5D1992341F2883206A93046069305F016
:1018C0005BF80028DBD105231C9019906A4614931D
:1018D0004FF08073219014A91D9341F288339FED3E
:1018E0002A7BCDE91A90CDE91F008DED007B9FED9D
:1018F000287B30468DED027B9FED277B8DED047BB1
:1019000005F0A6F90028BAD129462046FFF748FE7F
:101910000028B4D12046FFF7CFFE03460028AED101
:10192000002FB0D1189330460027002606AA14A92C
:10193000CDF86890CDE91F33EB2314934FF4406347
:101940001B934FF4005317934FF440431C93A02371
:101950001693062319934FF0805321934FF0407351
:10196000CDE906671D9305F0EBF9034600288AD000
:10197000434684F85C8086E701230322184684F8F6
:101980005C2023B0BDE8F0830000000001000000EF
:1019900010000000010000000000000000004000F6
:1019A00008080024005000522DE9F04F8FB0414B41
:1019B0000024026800AF9A427C63C7E90944C7E982
:1019C0000B4403D03C37BD46BDE8F08F3A4B40F6A0
:1019D00009213A48EB46D3F8D42007F11C0607F159
:1019E000220A4FF0020942F480424FF00308C3F884
:1019F000D420D3F8D42002F48042BA60BA68D3F875
:101A0000E02042F04002C3F8E020D3F8E02002F0EA
:101A10004002FA60FA68D3F8E02042F02002C3F8EE
:101A2000E020D3F8E02002F020023A613A69D3F8CE
:101A3000E02042F01002C3F8E020D3F8E02002F0EA
:101A400010027A617A69D3F8E02042F00202C3F80A
:101A5000E020D3F8E030F86103F002033984BB6181
:101A6000174B7B60BB697B6853F8040F7B6001F008
:101A7000CDFE7B680546186801F0D0FE16F8013BE4
:101A8000786207F124012846C7F830807B63C7E9F4
:101A90000A9403F083F85645E5D100225C201146F4
:101AA00002F000F85C2002F03BF83C37DD46BD4612
:101AB000BDE8F08F00500052004402580A0A09099C
:101AC00064080024114B02689A4200D07047104A03
:101AD00070B5D2F8D4300F4C23F4804304F11806CB
:101AE000C2F8D43054F8040F01F090FE0546206887
:101AF00001F094FE0146284603F090F9B442F1D17A
:101B00005C20BDE8704002F019B800BF00500052E0
:101B10000044025864080024014805F09DB900BF44
:101B200018080024084B1A1D981D03F1080110B471
:101B30009C1C9A6603F10A02C3E91834C3E91B012D
:101B40005DF8044B5A6770470808002438B50368ED
:101B500071B9026A00F1280500F5AC74012A0CBFC6
:101B6000002140218BBB1D4B5722C0F858310DE09E
:101B7000426A00F1C00500F5E874012A0CBF00219B
:101B80004021EBB1164B5A22C0F8D0310023204639
:101B9000C4E901214FF480524FF4806163626261B5
:101BA0004FF48042C4E903314FF48073C4E9062343
:101BB0004FF40033236202F027F958B1FFBEFEE76D
:101BC000084B5822C0F8D031E0E7074B5922C0F843
:101BD0005831DBE7C5E92044A56338BD1000024059
:101BE0007000024028000240580002402DE9F043F6
:101BF000821D05468BB0031D05F10A010830CDE9B1
:101C0000052305F10C02AB69CDE907010992002B10
:101C10003DD0EB69B3FA83F84FEA5818012302224A
:101C200005AE0AAF4FF006090393CDE9012356F83C
:101C3000044B2B792278934216D02B68F3B1012BF9
:101C400002D1F2B10A230493204601F0E7FD0346D6
:101C50002046009301F0DAFD694602F09FFFBE4284
:101C6000E5D10BB0BDE8F083697963789942E4D19E
:101C7000B8F1000FF3D02B68002BE0D1CDF8109015
:101C8000E2E76378022B14BF0A230823DBE74FF057
:101C90000108C3E7534A0368934230B505468BB049
:101CA00055D02032934252D04F4A934204D0203232
:101CB000934201D00BB030BD4C4C4D48D4F8E030CD
:101CC00043F00103C4F8E030D4F8E03003F001033E
:101CD0000593059BD4F8E03043F00803C4F8E030E6
:101CE000D4F8E03003F008030693069BD4F8E03004
:101CF00043F04003C4F8E030D4F8E03003F0400390
:101D00000793079BD4F8F03043F40003C4F8F03095
:101D1000D4F8F03003F400030893089BFFF766FF44
:101D2000D4F8D830296843F001032F4A3048C4F86A
:101D3000D830891AD4F8D83018BF012103F0010334
:101D40000993099B0BB0BDE83040FFF7FFBE274C5D
:101D50002848D4F8E03043F00103C4F8E030D4F868
:101D6000E03003F001030093009BD4F8E03043F02F
:101D70001003C4F8E030D4F8E03003F0100301930E
:101D8000019BD4F8E03043F04003C4F8E030D4F8CD
:101D9000E03003F040030293029BD4F8F03043F4A8
:101DA0008003C4F8F030D4F8F03003F480030393D8
:101DB000039BFFF71BFFD4F8D830296843F00103D9
:101DC000084A0C48C4F8D830891AD4F8D83018BF5B
:101DD000012103F001030493049B0BB0BDE83040E4
:101DE000FFF7B4BE04580140045C014000440258AF
:101DF000DC0A002480080024014802F07DBB00BFFB
:101E0000D8090024014802F077BB00BF500A002423
:101E1000014802F071BB00BF340C0024014802F0FD
:101E20006BBB00BFAC0C00242DE9F04F0C684FF4E5
:101E30001776754F87B004FB06F6012C07EB060AF0
:101E4000C0F800A000F3A0800D468E464FF00008B9
:101E5000D44669A3D3E9002369A1D1E90001CDE902
:101E6000022306ABCAF8508203EB8403CDE90401D8
:101E700053F810BC53F8083CCAE992880193BEE8B5
:101E80000F00ACE80F00BEE80F00ACE80F00019BAC
:101E90009EE80300CAF828B0CAF8C0308CE80300F6
:101EA0002B69042B0CD8DFE803F0737D87910300C6
:101EB0004FF41773554A03FB04739A64C3F8E02088
:101EC000AA692B6A002A43D0002B4FF4177308BF6E
:101ED000022203FB047318BF0322DA6201221A6391
:101EE000EA696B6A002A40D1191E4FF4177318BFB4
:101EF000012103FB0473C3E931126B69022B05D87E
:101F0000434A12F80380434A52F823904FF4177360
:101F100006F128004246494603FB04740023384476
:101F200063646363E365C4F8DC30C4F8CC30C4F8A0
:101F3000F430C4E90F33C4E91533C4E93533C4E9D7
:101F40003B33022307F02AF8002849D0FFBEFEE702
:101F5000191E4FF4177318BF012103FB0473C3E963
:101F60000B12EA696B6A002ABED0002B4FF417737C
:101F700008BF022203FB047318BF0322C3F8C42066
:101F80000122C3F8C820B8E7012007B0BDE8F08FF0
:101F90004FF417734FF4FA5203FB04739A64C3F8B7
:101FA000E0208DE74FF417734FF47A5203FB04736C
:101FB0009A64C3F8E02083E74FF417734FF4FA42B2
:101FC00003FB04739A64C3F8E02079E74FF41773B6
:101FD0004BF6803203FB04739A64C3F8E0206FE78A
:101FE00006F1C000022342464946384406F0D6FFB7
:101FF0000028CAD0FFBEFEE704580140045C01403F
:1020000024580140245C014080080024007701002E
:102010003CF2000840F200080068704703681B6942
:10202000042B05D8044A02EB830393ED000A7047A2
:102030009FED020A704700BF4CF2000800803B474A
:102040001F4BC1680268F0B5D3F88C5083B00369A8
:10205000ADB24D1BA2B1AB4212D00446866811D27C
:10206000F018E91ACDE9001000F0EAFF0023DDE9DD
:102070000010D4E90062B047E3682561AB421BD091
:1020800003B0F0BDF018C91ACDE9000100F0D8FF87
:102090000023DDE90001D4E90072B8473046294643
:1020A00000F0CEFF00233046626829462668B0471C
:1020B000E3682561AB42E3D10023236103B0F0BDA7
:1020C000000002402DE9F84F04460F4690461E4698
:1020D00000F13405284607F095FA2028FAD14FF48C
:1020E00080630020C4F8D030C4F848314FF4403346
:1020F000C4F8CC00C4F8E030C4F858314E4BC4F8F2
:10210000DC00C4F8C03003F57A73C4F8E400C4F806
:1021100038314023C4F8C800C4F84031E369C4F83A
:102120004401C4F85401C4F85C01C4E93500C4E9B1
:102130005300072B0BD8DFE803F061535A373E45B5
:102140004C045123C4F8C4305223C4F83C3104F584
:102150009C79484601F058FE08B1FFBEFEE7C4F87E
:10216000A890C4F87051EFF3108972B6DFF8D0B0C0
:1021700094F91C30DFF8CCA08BF800300A9B2F4C70
:10218000CAF800300B9B23600EB11846B0471FFA07
:1021900088F23946284607F01FF8B0BBB9F1000FA6
:1021A00000D162B6BDE8F88F3F23C4F8C4304023A5
:1021B000C4F83C31CBE74123C4F8C4304223C4F80F
:1021C0003C31C4E74723C4F8C4304823C4F83C3149
:1021D000BDE74F23C4F8C4305023C4F83C31B6E700
:1021E0002B23C4F8C4302C23C4F83C31AFE72D2393
:1021F000C4F8C4302E23C4F83C31A8E72923C4F81E
:10220000C4302A23C4F83C31A1E7FF238BF8003007
:102210000023CAF8003023600A9B3BB10B980121D0
:1022200098470120B9F1000FBCD1BAE70120B9F1FC
:10223000000FB7D1B5E700BF88000240701C002432
:102240006C1C0024681C00242DE9F84F04460F463E
:1022500090461E4600F13405284607F0D3F92028A1
:10226000FAD14FF480630020C4F8D030C4F848316C
:102270004FF44033C4F8CC00C4F8E030C4F858310F
:102280004E4BC4F8DC00C4F8C03003F57A73C4F8D0
:10229000E400C4F838314023C4F8C800C4F8403121
:1022A000E369C4F84401C4F85401C4F85C01C4E90A
:1022B0003500C4E95300072B0BD8DFE803F0615366
:1022C0005A373E454C045123C4F8C4305223C4F855
:1022D0003C3104F1C009484601F096FD08B1FFBE4B
:1022E000FEE7C4F8AC90C4F8F850EFF3108972B66A
:1022F000DFF8D0B094F91C30DFF8CCA08BF80030B8
:102300000A9B2F4CCAF800300B9B23600EB1184675
:10231000B0471FFA88F23946284606F0AFFFB0BB37
:10232000B9F1000F00D162B6BDE8F88F3F23C4F8C1
:10233000C4304023C4F83C31CBE74123C4F8C43057
:102340004223C4F83C31C4E74723C4F8C4304823CF
:10235000C4F83C31BDE74F23C4F8C4305023C4F85F
:102360003C31B6E72B23C4F8C4302C23C4F83C31ED
:10237000AFE72D23C4F8C4302E23C4F83C31A8E7BE
:102380002923C4F8C4302A23C4F83C31A1E7FF2331
:102390008BF800300023CAF8003023600A9B3BB161
:1023A0000B98012198470120B9F1000FBCD1BAE781
:1023B0000120B9F1000FB7D1B5E700BF8800024096
:1023C000701C00246C1C0024681C00242DE9F041C2
:1023D0000D4682B0EFF3108772B6002948D1FF2373
:1023E000254A264C237013682BB100202946106023
:1023F000234A1068984723781B0625D5DFF8888084
:102400000025204E444605E001351C3406F5D876FB
:10241000092D19D0A369012B1BD0002BF4D1216801
:1024200030460029F0D06369019323690093E36883
:102430002289FFF709FF0028E6D1C5EBC50508EBA7
:10244000850348F82500586007B962B602B0BDE8B8
:10245000F08161680029D7D0636930460193236910
:102460000093E3682289FFF72DFE0028CCD1E4E732
:1024700008F0C4FBB3E700BF681C00246C1C0024F8
:10248000701C0024380D00244C000024F0B50023FB
:1024900087B0022204460493CDE90223027EC36979
:1024A0000B2A4FEA430523D1A27E0B2A02D100203A
:1024B00007B0F0BD48496B1C484851F823304578B7
:1024C00001781878E67E884269D0824277D0D87841
:1024D00003F1030C81426ED0824278D0987903F1E7
:1024E000060C88426FD0824233D0012007B0F0BD85
:1024F000394B3A4853F8253001784678187894F8E3
:1025000019C081423DD0824241D0D87803F1030EF8
:10251000814240D082424AD0987903F1060E884227
:1025200041D08242E1D1DB796345DED1734604F1CB
:1025300018069B783046059301F068F9034630464B
:102540001E4601F06BF901A90190304602F026FB0E
:10255000AAE7DB79B342C8D163461A349B78204698
:10256000059301F053F9034620461C4601F056F945
:10257000034601A92046019302F010FB002007B09A
:10258000F0BD93F801E0B645BFD08242BDD1587886
:102590006045BAD1CBE71F79B742BBD1BCE75F78C2
:1025A000AF4292D193E7D979B142BAD19DE7187978
:1025B0006045B1D1BAE71F79AF428DD18EE7587827
:1025C000B04284D1C9E7D979A9428CD18DE7187975
:1025D000B04283D1C0E700BF640100246001002441
:1025E0007E4A03689342F0B58FB000F0E380A2F515
:1025F0004C42934200F0E08002F58062934200F08A
:10260000DD8002F58062934200F0DA8002F580629C
:10261000934200F0D98002F54442934200F0D28008
:10262000A2F51C42934200F0D18002F580629342F1
:1026300000F0CE806A4A934240F0CC800826694D73
:102640004FF4D87404FB0654A07E01F0EFF8207E0E
:1026500001F0ECF8E369082B13D8DFE803F03B49FD
:10266000576573818F9D05005F4BD3F8F42042F0CE
:102670000802C3F8F420D3F8F43003F008030893F9
:10268000089B2046FFF702FF012801D1FFBEFEE7AD
:102690004FF4D8740EAA554F0DF1240C04FB0654C8
:1026A000E36902EB43050FCFACE80F003B68002263
:1026B000ACF80030114635F9140C01F0F3F9E36978
:1026C0000EAA02EB430333F9140C0FB0BDE8F0403F
:1026D00001F026BA444BD3F8F02042F01002C3F8C0
:1026E000F020D3F8F03003F010030093009BC8E70C
:1026F0003D4BD3F8E82042F40032C3F8E820D3F889
:10270000E83003F400330193019BBAE7364BD3F86A
:10271000E82042F48022C3F8E820D3F8E83003F43C
:1027200080230293029BACE72F4BD3F8E82042F4BE
:102730000022C3F8E820D3F8E83003F40023039321
:10274000039B9EE7284BD3F8E82042F48012C3F89D
:10275000E820D3F8E83003F480130493049B90E757
:10276000214BD3F8F02042F02002C3F8F020D3F838
:10277000F03003F020030593059B82E71A4BD3F852
:10278000E82042F08042C3F8E820D3F8E83003F0B4
:1027900080430693069B74E7134BD3F8E82042F07E
:1027A0000042C3F8E820D3F8E83003F00043079371
:1027B000079B66E7002642E7012640E702263EE740
:1027C00003263CE705263AE7042638E7062636E7DF
:1027D000072634E700239B7EFFDE00BF0010014088
:1027E000000C0058380D00240044025800F2000884
:1027F0002DE9F04F91B0002301223F490DF1240A49
:1028000009938B4601F11C09CAF8143001F138080C
:10281000CDF800A001F15407CDF804A001F1700635
:10282000CDF808A001F18C05CDF80CA001F1A804A9
:10283000CDF810A001F1C40ECDF814A001F1E00C08
:10284000CAE90133CAE903330F92FF222B4BCDE9CA
:1028500006AA1A70BAE80F00ABE80F009AE8070062
:10286000009B8BE807009B46BBE80F00A9E80F0020
:102870009AE80700019B89E807009946B9E80F002C
:10288000A8E80F009AE80700029B88E8070098462E
:10289000B8E80F000FC79AE80700039B87E8070016
:1028A0001F460FCF0FC69AE80700049B86E8070073
:1028B0001E460FCE0FC59AE80700059B85E8070066
:1028C0001D460FCD0FC49AE80700069B84E8070059
:1028D0001C460FCCAEE80F00079B9AE807001C4689
:1028E0008EE807000FCCACE80F009AE807008CE8F0
:1028F000070011B0BDE8F08F4C0000246C1C0024D0
:1029000010B5094C04F1340006F08AFD237D1BB19B
:10291000636BDB69DB0600D410BD2046FFF790FB3C
:10292000636B10221A6210BD380D002410B50B4CD9
:1029300004F5F27006F074FD94F8C43123B1D4F8B4
:10294000E431DB69DB0600D410BD04F5D870FFF775
:1029500077FBD4F8E43110221A6210BD380D002440
:1029600010B50B4C04F5657006F05AFD94F87433FD
:1029700023B1D4F89433DB69DB0600D410BD04F531
:102980005870FFF75DFBD4F8943310221A6210BD23
:10299000380D002410B50B4C04F2445006F040FDF5
:1029A00094F8243523B1D4F84435DB69DB0600D430
:1029B00010BD04F5A260FFF743FBD4F844351022A4
:1029C0001A6210BD380D002410B50B4C04F2F460EF
:1029D00006F026FD94F8D43623B1D4F8F436DB693A
:1029E000DB0600D410BD04F5D860FFF729FBD4F84E
:1029F000F43610221A6210BD380D002410B50B4CAD
:102A000004F6A40006F00CFD94F8843823B1D4F841
:102A1000A438DB69DB0600D410BD04F50760FFF7BE
:102A20000FFBD4F8A43810221A6210BD380D002410
:102A300010B50B4C04F6542006F0F2FC94F8343A2E
:102A400023B1D4F8543ADB69DB0600D410BD04F599
:102A50002260FFF7F5FAD4F8543A10221A6210BD3A
:102A6000380D002410B50B4C04F6044006F0D8FCD9
:102A700094F8E43B23B1D4F8043CDB69DB0600D4D2
:102A800010BD04F53D60FFF7DBFAD4F8043C1022DA
:102A90001A6210BD380D002410B50B4C04F6B4506A
:102AA00006F0BEFC94F8943D23B1D4F8B43DDB6944
:102AB000DB0600D410BD04F55860FFF7C1FAD4F866
:102AC000B43D10221A6210BD380D002410B5EFF38A
:102AD000108472B6084B1A78120602D504B962B691
:102AE00010BD1B784FF4D87204485BB202FB0300A0
:102AF000C03001F001FDF1E76C1C0024380D00240A
:102B000010B5EFF3108472B6094B1A78120602D58D
:102B100004B962B610BD1B784FF4D87205485BB299
:102B200002FB030000F59C7001F0E6FCF0E700BF3B
:102B30006C1C0024380D00240021FFF747BC00BFA7
:102B4000214A036893422BD0A2F54C42934229D0EC
:102B500002F58062934227D002F58062934225D02D
:102B600002F58062934223D002F54442934221D081
:102B7000A2F51C4293421FD002F5806293421DD001
:102B8000124A93421CD108224FF4D871104B01FB1A
:102B90000233197D11B11846FFF752BAFFF716BC80
:102BA0000022F1E70122EFE70222EDE70322EBE743
:102BB0000422E9E70522E7E70622E5E70722E3E743
:102BC00000231B7DFFDE00BF00100140000C0058F9
:102BD000380D0024204A0368934229D0A2F54C42C4
:102BE000934227D002F58062934225D002F580629D
:102BF000934223D002F58062934221D002F54442F1
:102C000093421FD0A2F51C4293421DD002F5806270
:102C100093421BD0114A93421AD1082310484FF413
:102C2000D87202FB0300037D03B97047FFF708BAAF
:102C30000023F3E70123F1E70223EFE70323EDE7A6
:102C40000423EBE70523E9E70623E7E70723E5E7A6
:102C500000231B7DFFDE00BF00100140000C005868
:102C6000380D00240121FFF7B1BB00BF2DE9F04171
:102C70004F684FF4D876DFF8C0808E4607FB06F623
:102C80000C46082F08EB0605056005F1180CBEE898
:102C90000F00ACE80F009EE807008CE8070002D8A0
:102CA0006B6A022B02D90120BDE8F0812A6A032A4F
:102CB000F9D8A96A0229F6D8E86A0228F3D80131BE
:102CC000DFF878C0343689005CF8277046446F63BB
:102CD000A469A9641549AC6351F823306B64144BA3
:102CE00053F82230134A2B64002352F8201001229B
:102CF0003046EB65E963C5E91333C5E9153207F0E2
:102D00007DFF0028CFD10146304607F0CFFF0028D5
:102D1000C9D10146304608F017F80028C3D1304623
:102D200007F0A6FF0028BED12875BDE784F2000891
:102D300090F20008A0F20008380D002460F20008AC
:102D40002DE9F041174C006894F800C01CF0800F8A
:102D5000DDE9066720D10D4696461C46C069EFF3B3
:102D6000108272B6104BC0EBC0004FF0000801217A
:102D700003EB800C8000CCF8045043F80080ACF8E2
:102D800008E0CCF81470CCF81810CCE9034602B96E
:102D900062B60020BDE8F081CDE90667BDE8F041EC
:102DA000FFF790B96C1C00244C000024534B012207
:102DB000002047F6122130B4C3E97420C3E977211B
:102DC000C3E9E020C3E9E3211A62DA6258621963B9
:102DD000C3F83025C3F83405C3F83C25C3F84015C3
:102DE000C3F8E026C3F8E406C3F8EC26C3F8F016EF
:102DF000C3F89028C3F89408C3F89C28C3F8A01817
:102E0000C3F8402AC3F8440AC3F84C2AC3F8501A3E
:102E1000C3F8F02BC3F8F40BC3F8FC2BC3F8001C69
:102E2000C3F8A40D3648C3F8A02DC3F8AC2DC3F8E1
:102E3000B01D0288837833490068334CCA804FEA5A
:102E4000104C0B723149E2802372A1F80320A4F8E0
:102E5000032063714B712E4CCA800B722D492E4D8D
:102E6000E2802372A1F80320A4F8032063714B7160
:102E70002A4CCA800B722A49EA8008802B7281F89A
:102E800002C0E2802372A1F803204B71CA800B724A
:102E90002449A1F803204B71CA800B722249A1F882
:102EA00003204B71CA800B722049088081F802C050
:102EB000A1F803204B71CA800B721D49088081F86C
:102EC00002C0A1F803204B71CA800B721949088017
:102ED00081F802C01848A1F803204B71CA800B7218
:102EE0001649A0F803204371C2800372A1F80320A1
:102EF0004B71CA800B7230BC704700BF380D002484
:102F000060010024E80100240C02002400020024D7
:102F10002402002418020024F4010024D00100241B
:102F2000981C002430020024DC010024741C0024BE
:102F30008C1C0024801C002454010024480100241F
:102F40003E4B00220B20114610B5D3F8D84082B07A
:102F500044F00104C3F8D840D3F8D84004F0010489
:102F60000094009CD3F8D84044F00204C3F8D84041
:102F7000D3F8D83003F002030193019B00F092FDD7
:102F80000B2000F0CDFD00220C20114600F08AFD40
:102F90000C2000F0C5FD00220D20114600F082FD3E
:102FA0000D2000F0BDFD00220E20114600F07AFD3C
:102FB0000E2000F0B5FD00220F20114600F072FD3A
:102FC0000F2000F0ADFD00221020114600F06AFD38
:102FD000102000F0A5FD00223C20114600F062FD0B
:102FE0003C2000F09DFD00221120114600F05AFD0A
:102FF000112000F095FD00223820114600F052FD0E
:10300000382000F08DFD00223920114600F04AFDE5
:10301000392000F085FD00223A20114600F042FDE3
:103020003A2000F07DFD00223B20114600F03AFDE1
:103030003B2002B0BDE8104000F072BD00440258D1
:1030400020F01F002031BFF34F8F002907DD064A13
:103050000144C2F85C0220300B1A002BF9DCBFF3EC
:103060004F8FBFF36F8F704700ED00E0704700BFD8
:1030700008B500F0DBFCBDE8084000F0DBBD00BF98
:10308000064808B503680BB101F09AFF04480368CD
:103090001BB1BDE8084002F089BE08BDB020002485
:1030A000A81C0024064808B503680BB101F088FF8E
:1030B000044803681BB1BDE8084002F077BE08BDB4
:1030C000B0200024A81C0024064808B503680BB1F2
:1030D00001F076FF044803681BB1BDE8084002F028
:1030E00065BE08BDB0200024A81C0024364BDA6A57
:1030F000520062D59A6A9A6A9A6A9B6A180600D543
:1031000000BE314B9B6A990600D500BE2E4B9B6AD0
:10311000DA0600D500BE2C4B9B6A1B0700D500BE0B
:10312000294B9B6A980700D500BE274B9B6AD9079D
:1031300000D500BE244B9B6A1A0400D500BE224B6A
:103140009B6A9B0400D500BE1F4B9B6AD80400D528
:1031500000BE1D4B9B6A190500D500BE1A4B9B6A29
:103160005A0500D500BE184B9B6A9B0500D500BED2
:10317000154B9B6AD80500D500BE134B9B6A99017D
:1031800000D500BE104B9B6ADA0100D500BE0E4B85
:103190009B6A1B0300D500BE0B4B9B6A580300D5EE
:1031A00000BE094B9B6A990300D500BE064B9B6A83
:1031B000DA0306D400BE00BEFEE7DB6A9B07FAD541
:1031C000F8E700BEF6E700BF00ED00E000F040BC0D
:1031D0000A4B9B6803F17843B3F5003F0BD3084BD0
:1031E000986848B19868012806D09868022803D0EA
:1031F0009B68032070470120704700BF00ED00E08E
:10320000000080382DE9F041CEB004464C22002168
:103210000AA80BF0A5F92022002102A80BF0A0F9C2
:10322000BC2200211EA80BF09BF9022003F032FA09
:103230002368012B4FF0000354D0534A0225019319
:10324000C820D16A514B21F00101D162D26A02F04B
:10325000010201929A6942F440429A619B6903F427
:1032600040430193019B494A93699B04FCD548491B
:103270000224002201268B6A04274FF0080823F05D
:10328000030323438B62052316900AA818934FF477
:1032900080331096179419941597CDF86880CDE96E
:1032A0001B222122CDE91344CDE90A2303F0DCFEE1
:1032B00000B1FEE73F220323294602A8CDE90223FD
:1032C00000220823CDE9042340224023CDE9062330
:1032D00040234FF48062CDE9082304F0F3F903465C
:1032E000B8B1FEE7294A04250093F0209169264BE6
:1032F00041F440419161926902F440420092DA6ADD
:1033000042F00102DA62DB6A03F001030093009BE2
:10331000A9E720224FF4805125934FF440152B92BA
:1033200080222D931EA83093269135914FF4807101
:10333000249234920C223394439140F2271120922C
:103340001022CDF884802A971F96CDE92E34CDE93E
:103350003B334FF48033CDE922463193002446932A
:103360000623CDE93E4527934FF48063094C2C9307
:103370001E94CDE9281204F001FC00B1FEE703F031
:10338000AFF94EB0BDE8F081000400580048025883
:10339000004402580F130F0370B584B0012400F0ED
:1033A000F7FB4FF480764FF04052194B68460025EA
:1033B000ADF800400396CDE9012300F007FC192287
:1033C0004FF0404368468DF8082001938DF80F4078
:1033D000ADF80D608DF801408DF80A5000F0F6FB55
:1033E00002230B2268468DF80F508DF801304FF004
:1033F00062538DF808200193ADF80D408DF80A4016
:1034000000F0E4FB042000F0D1FB04B070BD00BF6D
:103410000E00010330B50D46044685B0D1E9000128
:1034200084E8030000F0D2FAAB79A3B3FFF788FD7C
:10343000FDF73EFF09F074FBFFF7DAF92B798BBB40
:103440006B799BB1BFF34F8FBFF36F8F2A4B002275
:10345000C3F85022BFF34F8FBFF36F8F5A6942F406
:1034600000325A61BFF34F8FBFF36F8F4FF0FF32BF
:103470000023002400256946204802928DF80C3074
:10348000CDE9004509F06CFF1C4809F0D1FF08F0B8
:1034900077FF05B030BD2046FFF7B4FE2046FFF7AA
:1034A0007BFFC3E7144C0023C4F88430BFF34F8F75
:1034B000D4F8801043F6E07EC1F34E3CC1F3C9015D
:1034C0004FEA4C1C0CEA0E000B4640EA8372013BAB
:1034D000C4F860225A1CF8D1ACF1200C1CF1200F6A
:1034E000F0D1BFF34F8F636943F480336361BFF35F
:1034F0004F8FBFF36F8FA3E700ED00E0A41C002403
:1035000004F010BA1C4B9B6803F17842B2F5003FFF
:1035100025D3B3F5803F20D303F16042B2F5003FDD
:103520001FD303F15C42B2F5002F1CD303F17042AC
:10353000B2F5902F19D303F14842B2F5803F16D36C
:1035400003F18042B2F1806F13D303F1E043B3F58E
:10355000000F2CBF08200720704701207047002073
:1035600070470220704703207047042070470520F1
:1035700070470620704700BF00ED00E003480023BD
:10358000034A044903600AF0B5BF00BFA41C00242D
:10359000000000246D30000810B4204C0022204BA5
:1035A00083B0D4F888101F4841F47001C4F8881023
:1035B00019681D4C41F0010119601A611968084031
:1035C0001A4918609A61DA611A629A62DA621A63B9
:1035D0005A639A63DA631A645A64186820F4802084
:1035E00018601A66D3F8DC2042F06042C3F8DC2091
:1035F000D3F8DC300193019B23681940B1F1005FDF
:1036000003D20B4B0122C3F80821044B4FF0006298
:103610009A6003B05DF8044B704700BF00ED00E016
:10362000004402587FEDF6EA0010005C0000FFFF46
:103630000080005100F57171D0F8040408F088BAD8
:10364000C1EBC10300EB8303D0F80404D3F80822D4
:1036500008F0ACBAC1EBC10300EB8303D0F804045B
:103660009A6C08F0E1BA00BFD0F8040408F080BBFF
:10367000C16810B5044619B1022900D0FEE7012146
:10368000D4F8040408F05EFBD4F80404BDE810404C
:1036900008F030BB10B50446D0F8040408F056FB1F
:1036A0002268D2F8003E43F00103C2F8003E236ACC
:1036B00023B1034A136943F00603136110BD00BF31
:1036C00000ED00E0D0F8040408F04ABBD0F8040490
:1036D00008F05EBBD0F8040408F058BBD0F804042E
:1036E00008F058BBD0F8040408F056BB9446D0F854
:1036F00098021A4608B5634602F0BCFE032802D8B9
:10370000024B185C08BD022008BD00BFBCF20008D7
:10371000D0F8980208B502F03BFF032802D8024B0C
:10372000185C08BD022008BDBCF20008D0F8980261
:1037300008B502F071FF032802D8024B185C08BDDF
:10374000022008BDBCF200080A06D0F8983206D460
:10375000C1EBC10103EB810191F8FE01704701F05B
:103760007F01C1EBC10103EB810191F83E0070477D
:10377000D0F8980208B502F067FE032802D8024B81
:10378000185C08BD022008BDBCF20008D0F8980201
:1037900008B502F0D5FE032802D8024B185C08BD1C
:1037A000022008BDBCF20008D0F8980208B502F06B
:1037B0009FFE032802D8024B185C08BD022008BDFA
:1037C000BCF20008D0F8C00208F094BDD0F8C002E6
:1037D00008F0A8BDD0F8C00208F0B0BD704700BF27
:1037E000D0F8C00208F096BDD0F8C00208F096BD2F
:1037F000D0F8D00308B501F0A3FF032802D8024B8C
:10380000185C08BD022008BDC0F20008024B027817
:1038100053F82200704700BFE4F20008024B4278E0
:1038200033F81200704700BFC4F200088CB00A28B9
:1038300014D8DFE800F01523313F4D5B697785939D
:1038400006004D4BD3F8E02042F48062C3F8E0203C
:10385000D3F8E03003F480630B930B9B0CB07047FC
:10386000454BD3F8E02042F00102C3F8E020D3F842
:10387000E03003F001030193019BEFE73E4BD3F8E7
:10388000E02042F00202C3F8E020D3F8E03003F079
:1038900002030293029BE1E7374BD3F8E02042F0AA
:1038A0000402C3F8E020D3F8E03003F004030393EC
:1038B000039BD3E7304BD3F8E02042F00802C3F873
:1038C000E020D3F8E03003F008030493049BC5E73D
:1038D000294BD3F8E02042F01002C3F8E020D3F8DF
:1038E000E03003F010030593059BB7E7224BD3F8B4
:1038F000E02042F02002C3F8E020D3F8E03003F0EB
:1039000020030693069BA9E71B4BD3F8E02042F067
:103910004002C3F8E020D3F8E03003F040030793FF
:10392000079B9BE7144BD3F8E02042F08002C3F8DA
:10393000E020D3F8E03003F080030893089B8DE784
:103940000D4BD3F8E02042F48072C3F8E020D3F8A6
:10395000E03003F480730993099B7FE7064BD3F8AB
:10396000E02042F40072C3F8E020D3F8E03003F422
:1039700000730A930A9B71E700440258704700BF26
:103980000F4B1B780BB90120704710B504464FF45C
:103990007A700C4AB0FBF3F31068B0FBF3F000F060
:1039A000E1F80F2C00D808B1012010BD00222146FB
:1039B0004FF0FF3000F076F8034B00201C6010BD84
:1039C000440200243C0200244802002438B50320AD
:1039D000124D00F055F8124C03F0D4FD114A124973
:1039E0009369C3F30323CB5C03F01F0320FA03F3B3
:1039F0000E202B60926902F00F028A5C02F01F0217
:103A0000D3402360FFF7BCFF10B10124204638BD2E
:103A10000446FFF7B3FF204638BD00BF3C02002438
:103A20004002002400440258ACF20008034A044B50
:103A300011681B780B441360704700BF7423002487
:103A400044020024014B1868704700BF742300240F
:103A500038B50446FFF7F6FF0546631C02D0044B59
:103A60001B781C44FFF7EEFF431BA342FAD338BD7B
:103A700044020024014B1868000C70470010005CE1
:103A800006494FF6FF0C0002054BCA6800F4E060DF
:103A900002EA0C0210430343CB60704700ED00E0E4
:103AA0000000FA051B4BDB68C3F3022300B5C3F12A
:103AB000070E03F1040CBEF1040F28BF4FF0040EF3
:103AC000BCF1060F1AD9033B4FF0FF3C0CFA03FC84
:103AD00022EA0C024FF0FF3C00280CFA0EFC21EA0F
:103AE0000C0101FA03F141EA02010ADB09010A4B68
:103AF000C9B2034483F800135DF804FB00221346A7
:103B0000E8E700F00F000901044BC9B2034419763D
:103B10005DF804FB00ED00E000E100E0FCEC00E0FB
:103B2000002807DB00F01F0101234009024A8B40F7
:103B300042F82030704700BF00E100E000280DDBB4
:103B40004309012200F01F000549203302FA00F06A
:103B500041F82300BFF34F8FBFF36F8F704700BF53
:103B600000E100E0431EB3F1807F0CD24FF0E02271
:103B7000002006494FF0F00C5361072381F823C061
:103B80009061136170470120704700BF00ED00E0B5
:103B9000BFF35F8F044B00215A6A22F480325A62CD
:103BA000C3F89410704700BF00ED00E0064B40F0F2
:103BB0000100C3F894005A6A42F480325A62BFF39B
:103BC0004F8FBFF36F8F704700ED00E0174A4378C7
:103BD000C2F89830017821B3436800B5C2F89C3030
:103BE000C37A90F80CC01B0690F80FE043EA0C7300
:103BF00090F80AC00B43817B43EACC4390F80DC098
:103C000043EA8C4390F809C043EA4143017A43EA0E
:103C10000E4343EA0C2343EA4103C2F8A0305DF8A7
:103C200004FBC2F89C10C2F8A010704700ED00E041
:103C3000704700BF08B5FFF7FBFF08BD0268344BB3
:103C4000344930B4344D354CAA4218BF9A420CBFA7
:103C5000012300238A4208BF43F001033031A2420E
:103C600008BF43F0010330348A4208BF43F0010328
:103C70003031A24208BF43F0010330348A4208BF0A
:103C800043F0010301F55C71A24208BF43F0010358
:103C900004F55C748A4208BF43F001033031A2424C
:103CA00008BF43F0010330348A4208BF43F00103E8
:103CB0003031A24208BF43F0010330348A4208BFCA
:103CC00043F001033031A24208BF43F001038A42AE
:103CD00008BF43F0010313B9114B9A4213D1D3B279
:103CE0001049114C103BA1FB03515F2B0F4BC1F34B
:103CF000021103EA0203615C88BF0433C165836576
:103D0000184630BC704722F0FF038365F8E700BF18
:103D100010000240400002402800024058000240CB
:103D2000B8040240ABAAAAAA14F3000800FCFFFFE3
:103D30000368294A294930B4294D2A4CAB4218BF9F
:103D400093420CBF012200228B4208BF42F00102C5
:103D50002831A34208BF42F0010228348B4208BF39
:103D600042F001022831A34208BF42F001028B4217
:103D700008BF42F0010212B91B4A934213D1DBB2D1
:103D80001A4C1B4A0121083B1A4DA4FB034345660C
:103D900002EB1312C3F30413920001FA03F3026659
:103DA000836630BC7047DAB21349144C1944103A98
:103DB000A829A4FB02234FEA131300D80833104AA2
:103DC00003F01F0501210F4C1A44A94044669200DC
:103DD00081660266E5E700BF085402583054025875
:103DE0001C5402584454025894540258CDCCCCCCA4
:103DF0000096001680580258F0FBFDBFABAAAAAA95
:103E0000008200108008024070B50446FFF71AFED9
:103E1000002C00F0C68023680546954A934248D09E
:103E20001832934245D0303292498B4218BF9342A8
:103E300001F130010CBF012200228B4208BF42F089
:103E4000010218318B4208BF42F0010218318B4247
:103E500008BF42F0010218318B4208BF42F0010254
:103E600001F556718B4208BF42F0010218318B42B6
:103E700008BF42F0010218318B4208BF42F0010234
:103E800018318B4208BF42F0010218318B4208BF43
:103E900042F0010218318B4208BF42F00102183192
:103EA0008B4208BF42F001021AB9734A934240F0B4
:103EB000F5800222002184F8352084F834101A6835
:103EC00022F001021A6005E0FFF7BCFD431B052B41
:103ED00040D823681A68D107F6D4D4E902252169AD
:103EE0002A43A0691D680A4361690A43E1690243E4
:103EF0000A4362492940256A2A430A43616A042920
:103F00002FD01A605A6922F00702114359612046E6
:103F1000FFF794FEE26D3F2302F01F02934083609F
:103F20002046FFF705FFA368802B3CD06368A06E96
:103F3000DAB2013BD4E91851072B2A60486026D930
:103F40000023C4E91B33636700200123606584F804
:103F5000353070BD202203230120626584F835309E
:103F600070BDD4E90B5129430A431A605969A26A0A
:103F700021F00701114341F00401002DC6D00028B3
:103F80004FD1012A6ED032F00202BFD151E0501E53
:103F9000072810D9626FD4E91B31002018604A60ED
:103FA000D2E7012070BD0023A16ED4E9180263603E
:103FB00003605160C4E72168314B324DA94218BFFC
:103FC000994205F114050CBF01230023A94208BF43
:103FD00043F001031435A94208BF43F0010314352F
:103FE000A94208BF43F001031435A94208BF43F0BA
:103FF00001031435A94208BF43F001033BB9224B2A
:10400000994204D0214B224913449B0003E0214BE9
:10401000214913449B0001228240C4E91B3162679D
:10402000BBE7B0F5005F0ED0022A05D9032A7FF462
:104030006DAFEA017FF56AAF012340221846626541
:1040400084F8353070BD032A3FF660AF01A050F808
:1040500022F000BF39400008334000083940000812
:1040600065400008B5F1C07F7FF450AFE4E700BFC2
:104070001000024040000240B80402403F8010FEA1
:10408000085402581C540258945402583F8200109D
:10409000400902403F96001640590258324A3348C0
:1040A0003349834218BF934200F128000CBF01221C
:1040B00000228B4208BF42F001022831834208BF30
:1040C00042F0010228308B4208BF42F00102283141
:1040D000834208BF42F001028B4208BF42F0010256
:1040E00012B9244A934238D102220021224D84F889
:1040F000341084F835201A681540A268402A2AD066
:10410000802A0CBF4FF480400846266AD4E9031287
:10411000D20842EAD102616942EAD102A16942EAC7
:10412000D102E16942EAD102144942EA1612194465
:104130002A4302431248A0FB010120461A600B09E2
:104140009B00E365FFF77AFDE26D012302F01F0299
:1041500093404360E4E61020D7E740220323012088
:10416000626584F8353070BD085402581C540258FA
:1041700030540258945402580F00FEFFF8ABFDA7CC
:10418000CDCCCCCC002800F0BC80844690F8340024
:10419000012800F0B88001202DE9F0419CF835405D
:1041A0008CF83400844208D000224FF400638CF86D
:1041B0003420CCF85430BDE8F0810220DCF8005007
:1041C0007A4C8CF835000020794ECCF854007948B0
:1041D000854218BFA54200F118000CBF012400243D
:1041E000854208BF44F001041830854208BF44F0FE
:1041F00001041830854208BF44F00104183085429C
:1042000008BF44F0010400F55670854208BF44F031
:1042100001041830854208BF44F00104183085427B
:1042200008BF44F001041830854208BF44F001047F
:104230001830854208BF44F001041830854208BF99
:1042400044F001041830854208BF44F001041830DE
:10425000854208BF44F00104A0F59560B54218BF3F
:104260008542DCF86C600CBF0120002054EA000895
:10427000286820F001002860DCF86400DCF8684061
:10428000DCF85870446040D016B1DCE91C0444608E
:10429000DCF85C004FF03F0E00F01F000EFA00F05B
:1042A000B860286820F4802028606B60DCF8083053
:1042B000402B23D0A960EA602B6823F01E0343F053
:1042C00016032B60DCF840301BB12B6843F0080369
:1042D0002B60DCF860301A68D20303D51A6842F408
:1042E00080721A601EB1336843F4807333602B68A8
:1042F000002043F001032B60BDE8F081AA60E96073
:10430000DAE7012070470220704716B1DCE91C048F
:1043100044602948DFF8A8E0754518BF85420EF1D2
:10432000140E0CBF01200020754508BF40F00100AD
:104330000EF1140E754508BF40F001000EF1140E89
:10434000754508BF40F001000EF1140E754508BF19
:1043500040F001000EF1140E754508BF40F0010059
:1043600010B9164885420ED1DCF85C0000F01F0E33
:10437000012000FA0EF078606B60DCF80830402B0A
:1043800010D0A960EA602B6823F00E0343F00A0303
:104390002B60DCF84030002B9BD02B6843F00403EB
:1043A0002B6096E7AA60E960EDE700BF400002409D
:1043B0002800024058000240085402589454025801
:1043C0001C54025800285FD038B590F835200346B9
:1043D000022A55D10168444A914248D0183291428C
:1043E00045D03032414C4248A14218BF914204F1BD
:1043F00048040CBF01220022814208BF42F00102A2
:104400003030A14208BF42F001023034814208BF7F
:1044100042F0010200F55C70A14208BF42F00102C7
:1044200004F55C74814208BF42F001023030A142C1
:1044300008BF42F001023034814208BF42F001025D
:104440003030A14208BF42F001023034814208BF3F
:1044500042F001023030A14208BF42F00102814225
:1044600008BF42F0010212B9224A91420ED1042241
:10447000002083F835200B6823F001030B6038BD62
:10448000802201205A6538BD012070470A681C6EE1
:1044900022F00E02D86D9D6D0A6000F01F000A68C0
:1044A00022F001020A6001222168824021F4807119
:1044B00021606A60DA6ED3E91910486032B1116880
:1044C000D3E91C0421F480711160446000240121AF
:1044D0001A6D83F8344083F835101AB118469047A6
:1044E000204638BD104638BD100002404000024052
:1044F00070000240B80402402DE9F04300229C4BBA
:1045000083B09C4E1D688146019203689A4A846D6F
:10451000934218BFB342276808BF0126216818BF1D
:10452000002645D018329548834218BF934200F1C7
:1045300018000CBF01220022834208BF42F0010292
:104540001830834208BF42F001021830834208BF8E
:1045500042F001021830834208BF42F0010200F528
:104560005670834208BF42F001021830834208BFF0
:1045700042F001021830834208BF42F001021830B5
:10458000834208BF42F001021830834208BF42F064
:1045900001021830834208BF42F001021830834202
:1045A00008BF42F001021AB9754A934240F05082A6
:1045B000D9F85C10082201F01F0C02FA0CF2174225
:1045C00040F0888127FA0CF2D2070CD55A69100600
:1045D00009D5012202FA0CF2A260D9F8542042F067
:1045E0000202C9F854204FF0040E0EFA0CF03842C3
:1045F0005BD0002E4FD1634ADFF88081434518BF5E
:10460000934208F118080CBF01220022434508BF5D
:1046100042F0010208F11808434508BF42F00102C8
:1046200008F11808434508BF42F0010208F11808D4
:10463000434508BF42F0010208F55678434508BFDC
:1046400042F0010208F11808434508BF42F0010298
:1046500008F11808434508BF42F0010208F11808A4
:10466000434508BF42F0010208F11808434508BF5E
:1046700042F0010208F11808434508BF42F0010268
:1046800008F11808434508BF42F001021AB93C4A34
:10469000934240F019821A68920706D5A060D9F8B3
:1046A000542042F00402C9F85420102202FA0CFCF3
:1046B0001CEA070F6CD0002E45D1324A2F4EB34270
:1046C00018BF934206F118060CBF01220022B34224
:1046D00008BF42F001021836B34208BF42F001029F
:1046E0001836B34208BF42F001021836B34208BF81
:1046F00042F0010206F55676B34208BF42F00102CD
:104700001836B34208BF42F001021836B34208BF60
:1047100042F001021836B34208BF42F001021836D7
:10472000B34208BF42F001021836B34208BF42F05C
:1047300001021836B34208BF42F001021AB9104A0A
:10474000934240F0C9811A68100721D5C4F808C007
:104750001A68560300F14C811A68D20503D41A680E
:1047600022F008021A60D9F840308BB10CE000BF8B
:104770003C02002410000240280002405800024081
:10478000B80402404000024048469847D9F85C10FF
:1047900001F01F0120268E403E4268D0D9F800204B
:1047A000A54BA64FBA4218BF9A4207F118070CBF93
:1047B00001230023BA4208BF43F001031837BA426D
:1047C00008BF43F001031837BA4208BF43F00103A2
:1047D0001837BA4208BF43F001031837BA4208BF7E
:1047E00043F001031837BA4208BF43F0010307F54D
:1047F0005677BA4208BF43F001031837BA4208BFE0
:1048000043F001031837BA4208BF43F001031837D9
:10481000BA4208BF43F001031837BA4208BF43F059
:1048200001031837BA4208BF43F001031837BA42F0
:1048300008BF43F001031BB9814B9A4240F06281EB
:104840001368DB0613D5A66099F83530042B13687E
:1048500000F0AE8013F4802F136800F0D3801C03A7
:1048600040F1DE80D9F83C300BB148469847D9F882
:104870005430002B00F0B980D9F85430D8071FD538
:10488000D9F80020042189F83510136823F00103BA
:1048900013606C4BA3FB0535AD0A02E01368D90722
:1048A00004D5019B0133AB420193F7D9002389F86A
:1048B00034301368DB074CBF0323012389F83530FC
:1048C000D9F84C30002B00F09080484603B0BDE88A
:1048D000F0431847186840070AD5186820F004000C
:1048E0001860A260D9F8542042F00102C9F854209F
:1048F00027FA0CF2D2077FF576AE534A534883422B
:1049000018BF934200F130000CBF01220022834205
:1049100008BF42F001021830834208BF42F0010292
:104920001830834208BF42F001021830834208BFAA
:1049300042F0010200F55670834208BF42F00102C6
:104940001830834208BF42F001021830834208BF8A
:1049500042F001021830834208BF42F001021830D1
:10496000834208BF42F001021830834208BF42F080
:1049700001021830834208BF42F00102183083421E
:1049800008BF42F00102002A7FF420AE002E7FF41F
:104990001DAE1A68042202FA0CF23A4240F09480EA
:1049A000102202FA0CFC17EA0C0F3FF4F1AE84E679
:1049B00023F016031360536923F080035361D9F881
:1049C00040309BB3136823F0080313603F23002596
:1049D000012203FA01F1D9F85030A16089F834506E
:1049E00089F83520002B7FF470AF03B0BDE8F08369
:1049F0001B6818037FF5B7AED9F84830002B7FF459
:104A0000C3AEC5E613F480737FF42CAF116821F0B8
:104A100010011160012289F8343089F8352021E72E
:104A2000D9F84430002B7FF420AF20E7D9F8483084
:104A3000002BC7D1CAE700BF100002402800024087
:104A4000B8040240B5814E1B5800024040000240AD
:104A50004E4A4F4DAB4218BF934205F114050CBFAF
:104A600001220022AB4208BF42F001021435AB42E2
:104A700008BF42F001021435AB4208BF42F0010208
:104A80001435AB4208BF42F001021435AB4208BFF7
:104A900042F0010212B93F4A9342A6D1D9F85C50C4
:104AA00004261A6805F01F05AE400E4219D05707BC
:104AB00017D5100466604BD5D1034FD4D9F84830D0
:104AC000002B7FF402AF90E71A68102202FA0CFC68
:104AD00017EA0C0F3FF45CAE1A6852077FF558AE28
:104AE00034E60226AE400E4211D097070FD566601D
:104AF000140439D5D00343D4D9F84430002B7FF4C3
:104B0000E4AE72E713689F077FF5B1AE9BE6082617
:104B1000AE400E423FF469AF11077FF566AF1A68E9
:104B2000002122F00E021A600123D9F84C2003FA6A
:104B300005F56560C9F8543089F8341089F83530C6
:104B4000002A3FF452AF484603B0BDE8F043104797
:104B5000920603D41A6822F004021A60D9F8403091
:104B6000002B7FF4B2AE40E712F0200208D11968A2
:104B7000012421F00A01196089F8342089F83540B0
:104B8000D9F83C30002B7FF4A0AE2EE70854025831
:104B90001C54025894540258406D70472DE9F04F50
:104BA0000D6883B0002D00F0D5800023DFF8688207
:104BB00001229A4012EA050C00F0C7804E6826F0E8
:104BC0001009B9F1020F40F0C88003F007044FEA62
:104BD000D30E4FF00F0A4FEA840900EB8E0E0AFA4B
:104BE00009FADEF8204024EA0A0A0C6904FA09F4FA
:104BF00006F0030944EA0A04CEF820404FEA430EC7
:104C00000324D0F800A009FA0EF904FA0EF42AEAF7
:104C1000040AE44349EA0A09C0F80090D0F808A061
:104C2000CF6804EA0A0A07FA0EF949EA0A09C0F845
:104C30000890C6F30019D0F804A009FA03F92AEA8B
:104C4000020249EA02024260C268F70004EA020472
:104C50008A6802FA0EF242EA0402C26075D5644C18
:104C600023F0030E03F00309D4F8F420C6444FEAFE
:104C7000890942F00202C4F8F420D4F8F42002F0CA
:104C800002020192019A0F22DEF8084002FA09F2AC
:104C900024EA0202574CA04225D004F58064A042C9
:104CA0007BD0554CA0427ED0544CA0426FD0544C87
:104CB000A04200F08480534CA04200F08680524C09
:104CC000A04276D0514CA04200F08580504CA042CA
:104CD00000F087804F4CA0420CBF09240A2404FA3C
:104CE00009F942EA0902CEF808204FF0B0426FEA13
:104CF0000C0EF403D2F880204FF0B04454BF0EEAFB
:104D000002024CEA0202C4F88020B203D4F88440C4
:104D10004FF0B04254BF0EEA04044CEA0404F70218
:104D2000C2F8844014684FF0B04254BF0EEA040445
:104D30004CEA04041460B40252684FF0B04454BF0B
:104D40000EEA02024CEA02026260013335FA03F213
:104D50007FF42EAF03B0BDE8F08F4FEA430E03247B
:104D6000D0F800B006F0030A04FA0EF409F1FF3996
:104D70000AFA0EFA2BEA040BB9F1010F6FEA0404E8
:104D80004AEA0B0AC0F800A03FF65EAF46E70324EC
:104D900004FA09F942EA0902A5E7012404FA09F92B
:104DA00042EA09029FE7022404FA09F942EA0902E9
:104DB00099E7062404FA09F942EA090293E7042470
:104DC00004FA09F942EA09028DE7052404FA09F90F
:104DD00042EA090287E7072404FA09F942EA0902CC
:104DE00081E7082404FA09F942EA09027BE700BFD7
:104DF000004402580000025800080258000C0258F3
:104E0000001002580014025800180258001C0258E2
:104E1000002002580024025800040058002900F025
:104E2000A88000232DE9F04FDFF8689183B0DFF808
:104E30006881DFF868A1DFF868B14FF0010E0EFA63
:104E400003F212EA010C6FD023F0030503F0030410
:104E50000F2640454D444FEAC404AF6806FA04F6F5
:104E600007EA0607019721D0504566D0584567D01C
:104E7000434FB8426ED0434FB84270D0424FB84211
:104E800063D0424FB84256D0414FB84272D0DFF89B
:104E900014E1704568D0DFF810E1704514BF4FF0A1
:104EA0000A0E4FF0090E0EFA04F400E00024019FF0
:104EB000A74219D1AC6824EA06064FF0B044AE60B0
:104EC000D4F8805025EA0C05C4F88050D4F88450FA
:104ED00025EA0C05C4F88450256825EA0C052560F0
:104EE000656825EA0C05656003255C0003F007078B
:104EF0000F2605FA04F40568BF00254306FA07F7F4
:104F00000560DD0800EB85052E6A26EA07062E629D
:104F1000856825EA04058560456825EA0202426045
:104F2000C26822EA0404C460013331FA03F284D176
:104F300003B0BDE8F08F4FF0060E0EFA04F4B6E7AA
:104F40004FF0020E0EFA04F4B1E74FF0050E0EFA20
:104F500004F4ACE74FF0030E0EFA04F4A7E74FF0A9
:104F6000040E0EFA04F4A2E74FF0080E0EFA04F451
:104F70009DE770474FF0070E0EFA04F497E700BF65
:104F8000000C025800100258001402580018025871
:104F9000001C025800040058000002580004025887
:104FA00000080258002002580024025803691942E0
:104FB00014BF01200020704702B9090481617047C5
:104FC0002DE9F04F056885B00446284606F066FBDB
:104FD000012802D005B0BDE8F08F206806F00EFB76
:104FE0000028F7D0206806F009FB10F4001F2068A5
:104FF00002D04FF40013436106F000FB10F4801F51
:10500000206802D04FF48013436106F0F7FA10F0E5
:10501000806F206802D04FF08063436106F0EEFAA3
:1050200010F0020F20682FD106F0E8FA870000F197
:105030001381206806F0E2FAC60100F1CF802068F3
:1050400006F0DCFA000700F1BE80206806F0D6FA10
:1050500010F0007F20681AD106F0D0FAC306B9D547
:105060002568AB6923F01003AB612E6AC6F3434198
:10507000C6F30A17022902D1002F40F0C681AB699E
:1050800043F01003AB61A5E702234361CCE706F0D0
:1050900073FBD4F808E080462068BEF1000F00F0F2
:1050A000998005F5A06500264FF0280B4FF0020A05
:1050B0004AE000F5A0694A0109EB4117BB685B07AC
:1050C0005DD50423BB60FB6843F00203FB60BB6853
:1050D000980500F1FD80BB68DB0740F1CF802369B4
:1050E00053B101EB81003B6904EBC000C3F3120C28
:1050F000836CA3EB0C03C3648B004FF0010C4FF0E7
:10510000000E581804EBC000C0F858E080F85DC0ED
:10511000C7F808C090F83FE01EF0FD0F00F0648172
:10512000BEF1030F00F040820B4404EBC30393F87D
:10513000502082F0010283F85020D4F808E0206863
:1051400001362035764545D206F00F0328FA03F3E1
:10515000D907F5D52B68F1B21A04AAD400F5A062DC
:105160004FEA411C02EB4117BB6813F004090DD054
:105170000423BB60FB6843F00203FB60E0E7BB680D
:105180009B0640F1B3802023BB60A0E7BB6813F00F
:10519000200300F0CA8001EB8103202204EBC3034B
:1051A000BA6093F83D20012ACAD183F83D9083F874
:1051B0005CA0FB6843F00203FB6006F0E1FAD4F860
:1051C00008E02068BCE72046FEF7FCFA20680823C8
:1051D00043613BE74FF0007343613DE72668D6F833
:1051E00040340293D6F840340393039B23F02E03FC
:1051F0000393029B980707D5029BD90700F16381AF
:10520000039B43F002030393029B1A0718D5039BE9
:1052100043F008030393029B5B0740F15C81A169A3
:10522000022900F09A81E368012B03D14EF6602237
:10523000C6F804242046FEF7D3FA2046FEF7C6FA45
:105240002068029B9F0603D5039B43F02003039332
:10525000039BC6F84034F3E6D5F84034204623F0EB
:105260002E03C5F84034FEF7B5FA0121206806F098
:1052700061FA20684FF000534361DBE6BB68980792
:1052800040F18E80FB6801EB810C23F0020304EBFC
:10529000CC0CFB608B009CF85D00012800F0B28014
:1052A000052800F0AF80062800F0A381082800F050
:1052B000A081032800F0DC819CF85C000246C7F85E
:1052C00008A02046FEF78AFAD4F808E0206837E7FD
:1052D000FB68206843F00203FB6006F051FA4FF4CC
:1052E00000732068BB60D4F808E029E7BB681B079F
:1052F00000F1BB80BB685B057FF5E9AEFB680192FE
:1053000043F002030091FB6006F03AFA0099102086
:10531000019A01EB8103B860082004EBC30383F812
:105320005D004FF48063BB60D1E6D7F8089019F0B8
:10533000400F40F0B180BB6813F4007340F02F8140
:10534000D7F8089019F0010F40F03F81BB6813F0C7
:10535000080340F06881D7F8089019F0100F00F0AA
:10536000C98001EB810204EBC2029365032382F83A
:105370005D3092F83D303BB90BFB014393F83C2084
:1053800012B9012283F83D20FB6843F00203FB6061
:1053900006F0F6F910232068BB60D4F808E0CFE6E9
:1053A000BB6813F0800340F0E380BA68D20640F196
:1053B000D08001EB810004EBC00090F83F20032A6D
:1053C00000F04B8112F0FD02E4D123698265002BCD
:1053D000E0D10BFB0143032283F85D20FB682068CA
:1053E00043F00203FB60D3E7FA68206842F0020250
:1053F00001930091FA6006F0C3F91022DDE9001371
:10540000BA6091E68CF85C0058E706F00F0606EBF0
:10541000860804EBC808D8F8441000293FF42FAEE2
:10542000284605F5A0653A4606F066F8D8F84430F7
:1054300005EB46123B441169D8F84C20C8F84430BB
:1054400073013A44C8F84C20BC4A0A405AB1EA58A1
:1054500022F0804242F00042EA5098F8503083F047
:10546000010388F85030256809E6FB684FF0050C09
:10547000019243F002030091FB6001EB810304EB16
:10548000C30383F85DC01023BB600823BB6006F034
:1054900077F9DDE900121AE601EB810204EBC202A2
:1054A0009365042382F85D30012382F83D30FB6868
:1054B00043F00203FB6006F063F940232068BB6001
:1054C000D4F808E03CE6B369204623F00053B3610A
:1054D000FEF77CF994E62046FEF786F9D6F84034CC
:1054E000206823F02E03C6F84034836943F000534C
:1054F0008361A6E6BB681B0600F1C880BB685B053C
:1055000000F1D780BB689B077FF51AAEFB680BFBE9
:10551000014023F00203FB6090F85D30012B00F0A6
:10552000E180032B00F0DB80042B00F0D880052BFA
:1055300000F0FC80062B00F0E480082B00F0E180F6
:105540000BFB01432046C7F808A093F85C20FEF748
:1055500045F9D4F808E02068F2E5029B206803F4DE
:10556000C023B3F5802F18BF012106F0E3F861E6F0
:10557000FB6801EB810243F0020304EBC202FB6013
:10558000936D01339365062382F85D30206806F041
:10559000F7F880232068BB60D4F808E0D0E5FB680A
:1055A00043F00203FB6098E652F80970019347F05C
:1055B0000057009142F80970624680F85CC02046AE
:1055C000FEF70CF9DDE90013AEE5FA6801EB81099D
:1055D00042F0020204EBC909C9F85830FA6006F03B
:1055E000CFF80123BB6089F85D30D4F808E020686B
:1055F000A6E503EB010C04EBCC0CDCF85800013001
:10560000032825D8CCF8580002200B4404EBC30330
:1056100083F85C0052F8093023F0804343F00043E4
:1056200042F809304AE608230091BB60FB6843F06A
:105630000203FB6006F0A4F80099052201EB81014A
:1056400004EBC10383F85D20D4F808E0206877E517
:105650000020CCF858000420D7E7FA680BFB014083
:1056600042F0020283652068FA6006F089F891E64C
:105670000BFB0143022083F85CA052F8093023F0B1
:10568000804343F0004342F8093017E6FB6800917D
:1056900043F00203FB6006F073F8009906230BFB4E
:1056A000014181F85D3080232068BB60D4F808E0B8
:1056B00046E5FB68009143F00203FB6006F060F8EA
:1056C00010230099BB604FF480630BFB0141BB606A
:1056D000082381F85D30D4F808E0206830E580F8D0
:1056E0005CA02DE780F85C3090F83F30023B012B46
:1056F0003FF626AF90F8513083F0010380F8513027
:105700001EE70BFB0140836D0133032B11D883652A
:1057100002230BFB014080F85C3052F80C3023F080
:10572000804343F0004342F80C3009E780F85C30D6
:1057300006E7002383650423EBE700BF0000F81FA2
:1057400090F8B832012B0CD0012310B50446006844
:1057500084F8B83206F074F80023184684F8B8329A
:1057600010BD0220704700BFF8B505460E4617462B
:10577000701C2C682CD1A369990727D4A369DA0679
:10578000F9D5A3699A06FCD520231022E261E361D2
:10579000A3699F0701D50023A362A369DE0703D491
:1057A000A36943F00103A361636800221B48202121
:1057B0000340012063606B6C85F8402043F00403D4
:1057C0006B6485F8411085F84220F8BD0020F8BDD3
:1057D000A3699B07FAD4A369D9061BD4FEF732F953
:1057E000C01BB04201D8002EC2D16B6C2021002218
:1057F00001200B4385F840206B6485F8411085F843
:105800004220F8BDFEF71EF9C01B8642EDD3002EE4
:10581000EBD02C68A3699B06F4D5B5E700E800FE41
:10582000F8B505460E4617462C68A3699B0649D471
:10583000A369DA0626D5731C38D1A3699E06FCD568
:1058400020231022E261E361A369990701D50023B7
:10585000A362A369DA0703D4A36943F00103A36138
:1058600063680022184820210340012063606B6CAC
:1058700085F8402043F004036B6485F8411085F8F7
:105880004220F8BDFEF7DEF8C01BB04201D8002E62
:10589000CAD16B6C2021002201200B4385F84020E7
:1058A0006B6485F8411085F84220F8BDA36998061D
:1058B000C6D4FEF7C7F8C01B8642EAD3002EE8D054
:1058C0002C68B8E70020F8BD00E800FE00284ED0A4
:1058D00010B590F84130044603F0FF02002B41D090
:1058E00023682421626884F84110196822F07062EC
:1058F000E06821F00101012819601A619A6822F418
:1059000000429A60A26829D042F4044202289A60B8
:1059100002D14FF400625A6058684FF0200C1549CC
:10592000226901435960D96821F40041D960D4E962
:105930000501024342EA0122D4E90710DA6000229D
:10594000014310461960196841F001011960626451
:1059500084F841C0226384F8422010BD42F4004222
:105960009A60D9E780F84020FBF7C8FBB8E7012030
:10597000704700BF008000022DE9F047984690F87C
:105980004130089E202B40F0878090F8403004463C
:10599000012B00F0818001238946174680F84030B2
:1059A000FEF750F8054604E0FEF74CF8401B1928B6
:1059B00075D82368986910F40040F5D121226762F8
:1059C0006063C9F3090784F84120102284F842205B
:1059D0006064A4F82A80628D92B2FF2A6DD8628D2D
:1059E000494892B2D1B222855A6802403A4342EA0B
:1059F0000142464911435960DFF81C814FF0FF0A0C
:105A0000DFF81891638D2A46314620469BB2002B61
:105A100030D0FFF7A9FE002873D1606A216810F822
:105A2000012B238D8A62628D013B6062013A9BB239
:105A300092B223856285628D92B2002BE2D1002A58
:105A4000E0D0701C43D18B691A06FCD5638D9BB2E4
:105A5000FF2B48D94B682A46A4F828A0204603EA21
:105A600008033B4343EA09034B603146638D9BB215
:105A7000002BCED1FFF7D4FE002842D1236820218D
:105A8000234DD9615A682A405A6084F8411084F83D
:105A9000400084F8420000E00220BDE8F087636C1B
:105AA0002021002201200B4384F84020636484F805
:105AB000411084F84220BDE8F0875A6812490A4034
:105AC00014493A431143FF222285596094E78B69B8
:105AD0001B06BBD4FDF7B6FF401B8642DFD3002E6A
